:100000000C9437020C945F020C945F020C945F0214
:100010000C945F020C945F020C945F020C945F02DC
:100020000C945F020C945F020C945F020C945F02CC
:100030000C945F020C945F020C945F020C945F02BC
:100040000C94C3140C945F020C9433150C940D158E
:100050000C945F020C945F020C945F020C945F029C
:100060000C9465150C945F0200407A10F35A00A0BE
:10007000724E18090010A5D4E80000E87648170071
:1000800000E40B54020000CA9A3B000000E1F505B1
:10009000000080969800000040420F000000A086FB
:1000A00001000000102700000000E803000000002D
:1000B0006400000000000A000000000001000000D1
:1000C00000002C76D888DC674F0823DFC1DFAE59EB
:1000D000E1B1B796E5E3E453C63AE651997696E87E
:1000E000E6C28426EB898C9B62ED407C6FFCEFBC02
:1000F0009C9F40F2BAA56FA5F490055A2AF75C932D
:100100006B6CF9676DC11BFCE0E40D47FEF520E662
:10011000B500D0ED902E0300943577050080841E45
:10012000080000204E0A000000C80C333333330FA0
:10013000986E12831141EF8D2114893BE65516CF3D
:10014000FEE6DB18D1844B381BF77C1D901DA4BB49
:10015000E424203284725E228100C9F124ECA1E5FE
:100160003D274F626A636865636B434E54203A20B3
:100170000052657475726E53717561726553697A58
:1001800065203A2000646574656374656420696461
:10019000203A20005475726E43616C696200205DE4
:1001A0005D002064617461203A20005B5B4E4F4427
:1001B0004500202E20000A4E4F4445204441544122
:1001C000205052494E54006D6F76655F316E6F64FA
:1001D00065006D6F7665203A20534F555448006D89
:1001E0006F7665203A204E4F525448006D6F766509
:1001F000203A2057455354006D6F7665203A2045CC
:10020000415354006D6F7665203A20737461790014
:10021000202F20002C00202F20746F3A002C004E3D
:100220004F44455F6D6F7665202F2066726F6D3A83
:10023000006D6F7665434E543A00205D5D005B5B58
:10024000204E4F44455F6D6F76656D656E74203A44
:1002500020006C696E6574726163655F616E616CCC
:100260006F6720434E54203A200021212143616EC4
:100270002044657465637465642121210021212176
:1002800043616E20417070726F61636821212100AB
:10029000426567696E206661696C6564210056007D
:1002A0002E0062617474566F6C74616765203A2029
:1002B00000205D00475245454E00202F20526574B6
:1002C00075726E20746F203A200054454100202F33
:1002D0002041766F6964203A2000434F4C41005B17
:1002E00020546172676574203A20004D6973736908
:1002F0006F6E204461746120526563657665642089
:100300003A3A20000A0A5B5B5B53657475702046BD
:10031000696E6973685D5D5D0A0A000A0A5B5B5B72
:1003200053657475702053746172745D5D5D0A0A63
:10033000003E3E3E204174205374617274696E67C2
:1003400020506F736974696F6E0052657475726EB8
:100350004F626A656374434E54203A203000526500
:100360007475726E4F626A656374434E54203A200E
:10037000004F626A636865636B434E54203A200005
:100380004F626A636865636B434E54203A20003EB7
:100390003E3E20434845434B2046554E43203A3A83
:1003A00020636865636B5F4E4F4445362C313000E7
:1003B0003E3E3E20434845434B2046554E43203A5F
:1003C0003A20636865636B5F4E4F4445352C3900B6
:1003D0004E4F4445332032004E4F444533203100C8
:1003E0003E3E3E20434845434B2046554E43203A2F
:1003F0003A20636865636B5F4E4F444533000000ED
:100400000000240027002A0000000000250028002A
:100410002B00000000080002010000030407000098
:10042000000000000000000000002300260029005A
:10043000040404040404040402020202020203038A
:100440000303030301020408102040800102040892
:1004500010200102040810204C696E65547261631B
:10046000652053657474696E673A0000C9161124DB
:100470001FBECFEFD8E0DEBFCDBF25E0A0E3B2E0E6
:1004800001C01D92AE3AB207E1F712E0A0E0B1E080
:10049000E2E1F7E402C005900D92A033B107D9F76D
:1004A00012E0C7E3D2E004C02197FE010E947B2145
:1004B000C633D107C9F70E9473170C9487230C9495
:1004C000000091E090932A0480932904109228045C
:1004D000109227040895809123059091240520917E
:1004E000E0043091E104821793070CF49C013093EF
:1004F000E1042093E004821B930B0895833081F084
:1005000028F4813099F08230A9F008958730A9F05D
:100510008830C9F08430B1F4809180008F7D03C0B1
:10052000809180008F7780938000089584B58F77C5
:1005300084BD089584B58F7DFBCF8091B0008F7707
:100540008093B00008958091B0008F7DF9CFCF9354
:10055000DF93282F30E0F901EE5EFB4F8491F90123
:10056000EC5BFB4FD491F901E05DFB4FC491CC23D0
:10057000A1F081110E947E02EC2FF0E0EE0FFF1F30
:10058000EA5DFB4FA591B491EC91ED2381E090E001
:1005900009F480E0DF91CF91089580E090E0FACFF8
:1005A0001F93CF93DF93282F30E0F901EE5EFB4FCE
:1005B0008491F901EC5BFB4FD491F901E05DFB4FB5
:1005C000C491CC23A9F0162F81110E947E02EC2F3A
:1005D000F0E0EE0FFF1FE85FFB4FA591B4918FB7DE
:1005E000F894EC91111108C0D095DE23DC938FBFF5
:1005F000DF91CF911F910895DE2BF8CFCF93DF933A
:1006000090E0FC01EC5BFB4F2491805D9B4FFC0173
:1006100084918823D1F090E0880F991FFC01E2506B
:10062000FC4FA591B491FC01E85FFB4FC591D491BB
:1006300061110EC09FB7F8948C91E22FE0958E2344
:100640008C932881E223E8839FBFDF91CF910895A7
:100650008FB7F894EC91E22BEC938FBFF6CF8E30EE
:1006600008F08E508770806480937C0080917A00BF
:10067000806480937A0080917A0086FDFCCF80911F
:1006800078009091790008953FB7F8948091CA025C
:100690009091CB02A091CC02B091CD0226B5A89B3F
:1006A00005C02F3F19F00196A11DB11D3FBFBA2F04
:1006B000A92F982F8827BC01CD01620F711D811DC4
:1006C000911D42E0660F771F881F991F4A95D1F749
:1006D00008958F929F92AF92BF92CF92DF92EF9246
:1006E000FF926B017C010E9444034B015C01C11429
:1006F000D104E104F104B9F00E94440368197909B6
:100700008A099B09683E73408105910580F321E0C9
:10071000C21AD108E108F10888EE880E83E0981E1D
:10072000A11CB11CE4CFFF90EF90DF90CF90BF9061
:10073000AF909F908F90089508950895AF92BF92C3
:10074000CF92DF92EF92FF920F931F93CF93DF939D
:100750006C017B018B01040F151FEB015E01AE18CC
:10076000BF08C017D10759F06991D601ED91FC91EE
:100770000190F081E02DC6010995892B79F7C5011B
:10078000DF91CF911F910F91FF90EF90DF90CF906D
:10079000BF90AF900895FC014481558160817181C3
:1007A0008BE294E00C949E03FC01538D448D252F25
:1007B00030E0842F90E0821B930B541710F0CF96FB
:1007C000089501970895FC01918D828D981761F02D
:1007D000A28DAE0FBF2FB11D5D968C91928D9F5F44
:1007E0009F73928F90E008958FEF9FEF0895FC0123
:1007F000918D828D981731F0828DE80FF11D858DD6
:1008000090E008958FEF9FEF0895FC01918D228D68
:10081000892F90E0805C9F4F821B91098F739927ED
:1008200008958BE294E00E94050421E0892B09F4ED
:1008300020E0822F089580E090E0892B29F00E942B
:10084000110481110C9400000895FC01A48DA80FDF
:10085000B92FB11DA35ABF4F2C91848D90E0019602
:100860008F739927848FA689B7892C93A089B18922
:100870008C91837080648C93938D848D981306C0C3
:100880000288F389E02D80818F7D80830895EF9227
:10089000FF920F931F93CF93DF93EC0181E0888F3A
:1008A0009B8D8C8D98131AC0E889F989808185FF0A
:1008B00015C09FB7F894EE89FF896083E889F989AC
:1008C00080818370806480839FBF81E090E0DF91AE
:1008D000CF911F910F91FF90EF900895F62E0B8D01
:1008E00010E00F5F1F4F0F731127E02E8C8D8E11BC
:1008F0000CC00FB607FCFACFE889F989808185FF23
:10090000F5CFCE010E942504F1CFEB8DEC0FFD2F2A
:10091000F11DE35AFF4FF0829FB7F8940B8FEA89DD
:10092000FB8980818062CFCF0F931F93CF93DF939A
:100930008C01D0E0C0E0F801EC0FFD1F649166234C
:1009400041F08BE294E00E944704892B11F021963C
:10095000F2CFCE01DF91CF911F910F910895CF93E8
:10096000DF93EC01888D8823B9F0AA89BB89E889D7
:10097000F9898C9185FD03C0808186FD0DC00FB67D
:1009800007FCF7CF8C9185FFF2CF808185FFEDCFFB
:10099000CE010E942504E9CFDF91CF9108952091E7
:1009A0009702260F3327331F21323105ECF42091B3
:1009B000FB03FC0190E080E0243069F082E00895C0
:1009C000A09197022191AC0149585D4FA40FB52F1A
:1009D000B11D2C930196861798F380919702680FAA
:1009E0006093970280E0089581E008951092FB03E0
:1009F00081E08093FA031092F50361E082E10E94A6
:100A0000D00261E083E10E94D002E9EBF0E0808156
:100A10008E7F808380818D7F808388E48093B8007F
:100A200085E48093BC000895CF93DF9391E0909389
:100A300076028823B9F0C091B800D091BA008091B5
:100A4000BC008A7B8093BC0060E082E10E94D002FF
:100A500060E083E10E94D0020E94F604D093BA00C5
:100A6000C093B800DF91CF9108950895E0910204FA
:100A700080910104E81730F4F0E0ED5FFB4F8081D6
:100A800090E008958FEF9FEF089590910204809178
:100A900001042FEF3FEF981748F4E92FF0E0ED5FE6
:100AA000FB4F208130E09F5F90930204C9010895BD
:100AB0008091010490910204891B990B0895CF92B3
:100AC000DF92EF92FF920F931F93CF93DF937C01FE
:100AD000CB018A0120912A04222389F0EB016B01CA
:100AE000C40ED51ECC15DD0569F06991D701ED91D5
:100AF000FC910190F081E02DC7010995F3CF642F9F
:100B00000E94CF04C801DF91CF911F910F91FF90F8
:100B1000EF90DF90CF900895CF93DF931F92CDB7E2
:100B2000DEB7698320912A042223F9F0209127045B
:100B3000203258F021E030E0FC013383228390E042
:100B400080E00F90DF91CF91089580912804E82FE5
:100B5000F0E0EA5AFD4F998190838F5F80932804DB
:100B60008093270481E090E0ECCF61E0CE01019614
:100B70000E94CF04F7CF682F88EC94E00C948C058A
:100B8000CF92DF92EF92FF920F931F93CF93DF9359
:100B9000D091270481E0D13208F09CC0C091290493
:100BA0000E9444036B017C018091FB0381116CC0A6
:100BB00082E08093FB0381E08093FA038FEF8093C0
:100BC000F9031092F803D093F703A6E5B2E0E5ED40
:100BD000F3E080E0D8138DC01092F6038091F60305
:100BE000CC0FC82BC093F6038091F503813009F038
:100BF00084C01092F5030E9444036B017C01809134
:100C0000F6038093BB008091FD039091FE03A091B9
:100C1000FF03B0910004892B8A2B8B2BA1F00E943B
:100C200044030091FD031091FE032091FF033091D6
:100C300000046C197D098E099F09061717072807FC
:100C4000390708F442C08091BC0083FDD8CF85EC01
:100C50008093BC000E9444036B017C018091FB03E4
:100C6000823009F44CC08091F9038F3F09F469C0C8
:100C70008091F903803209F466C08091F9038033D2
:100C800009F463C084E026C08091FD039091FE03C7
:100C9000A091FF03B0910004892B8A2B8B2B09F4C0
:100CA00083CF0E9444030091FD031091FE03209125
:100CB000FF03309100046C197D098E099F09061706
:100CC00017072807390708F06FCF8091FC030E94AF
:100CD000140585E0109228041092270410922A042B
:100CE000DF91CF911F910F91FF90EF90DF90CF9008
:100CF00008959D9191938F5F6DCF85EEA9CF8091DF
:100D0000FD039091FE03A091FF03B0910004892B95
:100D10008A2B8B2B09F4A2CF0E9444030091FD0380
:100D20001091FE032091FF03309100046C197D099E
:100D30008E099F09061717072807390708F08ECF75
:100D4000C4CF80E0C7CF82E0C5CF83E0C3CF0F938D
:100D50001F93CF93DF93AB012091D4043091D5043E
:100D6000232BE1F08B01EC0182E30E946102809170
:100D7000D4049091D504DC01ED91FC910280F381C3
:100D8000E02DA801BE0109958091D4049091D5046D
:100D9000DF91CF911F910F910C94C005A091D604C3
:100DA000B091D704109769F0ED91FC9111970280F2
:100DB000F381E02DBC01CD01DF91CF911F910F9107
:100DC0000994DF91CF911F910F9108950F931F9375
:100DD000CF93DF938C01EB0185E00E94610282E4F6
:100DE00090E00E94BB05C8010E94BB05CE010E9495
:100DF000BB0588EC94E00E94C0056AE070E080E0EA
:100E000090E0DF91CF911F910F910C946903813095
:100E1000910509F041C08091180190911901861740
:100E2000970709F453C0709319016093180186E085
:100E30000E94610285E390E00E94BB058091180149
:100E4000909119010E94BB0580911A0190911B019C
:100E50000E94BB0580911C0190911D010E94BB0561
:100E600080911E0190911F010E94BB05809120017D
:100E7000909121010E94BB05809122019091230154
:100E80000E94BB0588EC94E00E94C0056AE070E017
:100E900080E090E00C946903029761F480911A015C
:100EA00090911B016817790789F070931B0160937B
:100EB0001A01BDCF80911C0190911D01681779071F
:100EC00029F070931D0160931C01B1CF08950F9319
:100ED0001F93CF93DF938B01C8E2D0E0813091055F
:100EE00031F0CAE2D0E0029711F4C9E2D0E086E026
:100EF0000E946102CE010E94BB05C8010E94BB0591
:100F000088EC94E00E94C0056AE070E080E090E028
:100F1000DF91CF911F910F910C94690390E080E0D5
:100F200008958091CE029091CF028F379105D4F42D
:100F30002BEF280F2093D302E0EDF2E020E0AF0189
:100F4000405D52404817590754F0FC01E053FD4FF3
:100F5000208301969093CF028093CE020895319121
:100F6000230FEDCF90E080E008952091530330915E
:100F7000540380915402909155022817390724F4A4
:100F800080915203882331F081E08093510390E0F7
:100F900080E00895F901EB5AFC4F808191812E5F2A
:100FA0003F4F3093540320935303089520915202EE
:100FB0003091530221303105F1F13CF52115310515
:100FC00079F1F901EB5AFC4F808340915803842F4B
:100FD00090E005962817390739F5909355028093CC
:100FE000540210925302109252024B5FE5E5F3E077
:100FF00030E020E0341768F19927FC01EB5AFC4FF0
:1010000081E0908192131DC0089522303105F1F0E6
:1010100023303105B1F68A3780F48093580304C039
:10102000853579F4809355032F5F3F4F30935302FA
:101030002093520206C08A3A31F010925302109265
:10104000520280E0E1CF80935603EECF80935703A6
:10105000EBCF5191250F3F5FCDCFCF93DF93209101
:101060005903621327C0EC0185E090E0909354038C
:1010700080935303109252031092510368830E948D
:10108000B5079A8389830E94B5079C838B830E944E
:10109000B5079E838D830E94B50798878F830E9432
:1010A000B5079A8789878091510381111092510366
:1010B00081E001C080E0DF91CF910895CF92DF926F
:1010C000EF92FF926B017C016DE770E08DE790E09D
:1010D0000E94E606C701B601FF90EF90DF90CF9027
:1010E0000C946903CF93DF93EB01BC010E94E606E9
:1010F000BE01DD0F880B990BDF91CF910C94690332
:10110000CF93DF93EC0164EF71E080E090E00E9408
:101110005E088091BE029091BF02C730D10561F098
:101120002897A1F18230910509F462C0039709F470
:101130007FC0DF91CF91089582309105D1F0833047
:101140009105F9F00197A9F768ED7FEF88E290E04B
:101150000E94E60664EB70E080E090E00E94690384
:1011600064EF71E080E090E00E945E0868E077E064
:1011700002C060ED77E08CE390E0DF91CF910C94BA
:10118000720868E270E088ED9FEFE2CF823091054F
:10119000D1F08330910569F3019759F668ED7FEF3F
:1011A00088E290E00E94E60662E771E080E090E06D
:1011B0000E94690364EF71E080E090E00E945E08A5
:1011C00064EC79E0D8CF68ED7FEF88E290E00E9490
:1011D000E6066CE271E080E090E00E94690364EF53
:1011E00071E080E090E00E945E086CE677E0C3CF9B
:1011F00060EB74E088E290E00E94720864EF71E0B6
:1012000080E090E00E945E0868E270E088ED9FEF69
:101210000E94E6066CEB72E080E090E00E946903B9
:1012200060E070E0CB010E945E0864EF71E0A3CF44
:1012300060EB74E088E290E00E94720864EF71E075
:1012400080E090E00E945E0868E270E088ED9FEF29
:101250000E94E6066CEB72E080E090E00E94690379
:1012600060E070E0CB010E945E0860EB74E083CF29
:101270006EE670E081E090E00E94070763E270E0B4
:1012800082E090E00C9407074F925F926F927F92FA
:101290008F929F92AF92BF92CF92DF92EF92FF9286
:1012A0008FE00E942F036091240170912501861721
:1012B00097070CF4BC018091A4059091A505681BCB
:1012C000790B072E000C880B990B0E945E1F209152
:1012D00014013091150140911601509117010E949F
:1012E000991F4B015C016091120170911301072E4F
:1012F000000C880B990B0E945E1F6B017C01A501FD
:1013000094010E948F200E94FB202B01A5019401D3
:10131000C701B6010E948E200E94FB20CB01B201C2
:101320000E94E60664E170E080E090E0FF90EF90BC
:10133000DF90CF90BF90AF909F908F907F906F90F5
:101340005F904F900C946903FC0101900020E9F735
:101350003197AF01481B590BBC018BE294E00C9410
:101360009E03CF93DF930E949404EC018FE691E0FB
:101370000E94A4098C0F9D1FDF91CF9108954F9279
:101380005F926F927F928F929F92AF92BF92EF92F5
:10139000FF920F931F93CF93DF93D82F2FB7F8941B
:1013A0008091230490912404A0912504B0912604F7
:1013B0002FBF8093DC049093DD04A093DE04B093F0
:1013C000DF0415EE05ECC1E0FF24FA948FE0E82E6F
:1013D0002FB7F8948091230490912404A0912504C0
:1013E000B09126042FBF4091DC045091DD04609140
:1013F000DE047091DF04841B950BA60BB70B4091A4
:10140000D8045091D9046091DA047091DB04481734
:1014100059076A077B0708F41FC18091D404909193
:10142000D504009709F4F3C0DC01ED91FC91008430
:10143000F185E02D0995892B09F093C00E944403A2
:101440004B015C018091FB03811161C0C093FB03E0
:10145000C093FA03F092F9031092F803E092F703B5
:10146000C093F6038091F60384668093F60380911F
:10147000F503813009F0A4C01092F5030E944403E3
:101480004B015C018091F6038093BB008091FD03CA
:101490009091FE03A091FF03B0910004892B8A2B49
:1014A0008B2BA1F00E9444034090FD035090FE035B
:1014B0006090FF0370900004681979098A099B09FC
:1014C000461657066806790608F442C08091BC00AB
:1014D00083FDD8CF0093BC000E9444034B015C0104
:1014E0008091FB03813009F46EC08091F803803154
:1014F00008F08BC08091F803A5EDB3E0E3E0F4E0E1
:1015000090E0981751F12D9121939F5FFACF809130
:10151000FD039091FE03A091FF03B0910004892B7D
:101520008A2B8B2B09F48ECF0E9444034090FD033D
:101530005090FE036090FF037090000468197909D1
:101540008A099B09461657066806790608F07ACF7D
:101550008091FC030E94140580E0109202048093A5
:1015600001048091D4049091D504DC01ED91FC91AB
:101570000084F185E02D0995892B09F429CF80910C
:10158000D4049091D504DC01ED91FC910284F385A3
:10159000E02D09950E94D607882319F3DD2371F009
:1015A00080915903D81314CF85E090E090935403B1
:1015B00080935303109252031092510381E04DC067
:1015C0001093BC0089CF8091FD039091FE03A09100
:1015D000FF03B0910004892B8A2B8B2B09F480CF59
:1015E0000E9444034090FD035090FE036090FF036F
:1015F00070900004681979098A099B0946165706F4
:101600006806790608F06CCFA3CF80E175CF809192
:10161000D6049091D704892B09F4DACE8091D604B0
:101620009091D704DC01ED91FC910084F185E02DCF
:101630000995892B09F4CCCE8091D6049091D704DA
:10164000DC01ED91FC910284F385E02D09950E9467
:10165000D607882319F3A2CF80E0DF91CF911F91A5
:101660000F91FF90EF90BF90AF909F908F907F90E1
:101670006F905F904F9008958F929F92AF92BF921C
:10168000CF92DF92EF92FF920F931F93CF93DF934E
:10169000CDB7DEB7A1970FB6F894DEBF0FBECDBFB2
:1016A0006C01990FEE08FF08F7FE41C06DE28BE276
:1016B00094E00E9447048C0122273327A9012C19AA
:1016C0003D094E095F0919A2CE0181967C019AE07D
:1016D000892E912CA12CB12CCA01B901A50194012C
:1016E0000E944521605DF70162937F01211531055C
:1016F0004105510589F790E080E0309719F0CF015E
:101700000E94A409800F911FA1960FB6F894DEBF26
:101710000FBECDBFDF91CF911F910F91FF90EF9042
:10172000DF90CF90BF90AF909F908F900895A701CA
:10173000960119A28E010F5D1F4F8AE0C82ED12C91
:10174000E12CF12CCA01B901A70196010E944521A3
:10175000605DF80162938F01211531054105510546
:1017600089F790E080E0309779F2CF010E94A409D8
:10177000CBCFCF93DF930E943C0BEC018FE691E03F
:101780000E94A4098C0F9D1FDF91CF9108950F93A4
:101790001F93CF93DF93EB0163E070E00E94312150
:1017A0009B01220F331F620F731F860F971F880F35
:1017B000991FFC01E050FF4FD183C083825D9E4F93
:1017C000FC01008111818BEA91E00E949404C80120
:1017D0000E943C0B82EA91E00E949404CE010E9498
:1017E0003C0B8EE991E0DF91CF911F910F910C940A
:1017F000B109EF92FF921F93CF93DF9310925003A2
:1018000085E58093D0028AEA8093D10281E18093BA
:10181000D20280E28093D40285E090E09093CF02E0
:101820008093CE020E949107BC0180ED92E00E945D
:10183000A7061092E1041092E00489E20E94BF0919
:10184000182F882309F449C069E282E295E00E94DA
:101850002D0860912305709124051616170614F0C3
:1018600061E070E086E0660F771F8A95E1F780916E
:101870006205909163050E94A62290936305809370
:101880006205D0E0C0E0F12CE12C8091230590911D
:101890002405E816F90614F580E00E94BF098823A4
:1018A000E1F080916205909163056AE28C0F9D1FC3
:1018B0000E942D08882331F08FEFE81AF80AC05CE7
:1018C000DF4FE3CF80916205909163056BE28C0F4F
:1018D0009D1F0E942D088111EFCF10E0812FDF9115
:1018E000CF911F91FF90EF900895CF93DF930E94C7
:1018F000F90B8823D9F08091250590912605892B35
:10190000A9F00E946B02892B89F0D0E0C0E00E9410
:101910006B02892B69F08091E0049091E1040196BB
:101920009093E1048093E0042196F1CFD0E0C0E0F1
:10193000CE01DF91CF910895CF93DF93D0E0C0E047
:101940000E94F90B882351F080912505909126057E
:10195000892B21F00E946B02892B39F42196C33028
:10196000D10574F3D0E0C0E03FC0D0E0C0E00E94F9
:101970006B02892BB1F18091E0049091E1049C010C
:101980002F5F3F4F3093E1042093E0042091230523
:101990003091240582179307DCF426E0880F991F05
:1019A0002A95E1F7E0916205F0916305E80FF91FD0
:1019B0004581568127813085429FC001439F900D0C
:1019C000529F900D1124C817D9078CF6EC01CFCF88
:1019D0004091690550916A0520916B0530916C0525
:1019E000EBCF209709F4ACCFCE01DF91CF910895D2
:1019F000EF92FF920F931F93CF93DF9310E000E0DD
:101A00000F5F1F4F063011050CF071C00E94F90BDB
:101A10008823B1F38091250590912605892B81F3C8
:101A20000E946B02892B61F3D0E0C0E0F12CE12C25
:101A30000E946B02892BA1F1E091E004F091E10496
:101A4000CF0101969093E1048093E00480912305F7
:101A500090912405E817F907ECF5CF0126E0880FEF
:101A6000991F2A95E1F7E0916205F0916305E80F6F
:101A7000F91F458156816781708531852285649F74
:101A8000C001659F900D749F900D1124E816F90612
:101A90001CF03C2F2D2FC701C32FD22F7C01C8CFA4
:101AA000209709F4ADCF85E891E00E949404CE011F
:101AB0000E94B90B81E02091C2023091C3022C1721
:101AC0003D0709F080E0DF91CF911F910F91FF90CA
:101AD000EF9008954091690550916A0560916B05FA
:101AE00070916C0530916D0520916E05C8CFD0E0E6
:101AF000C0E0D9CFEF92FF920F931F93CF93DF9364
:101B00008C017B010E949C0CEC0181E791E00E941A
:101B10009404CE010E94B90BC83883E1D8078CF039
:101B20000E94F80C61E070E0811102C062E070E098
:101B3000C801DF91CF911F910F91FF90EF900C940E
:101B4000C70BC456D10970E060E0C432D34168F5D8
:101B5000C8010E94C70B0E94750C8C01D0E0C0E048
:101B600001151105A9F42196C630D10521F164E6CD
:101B700070E080E090E00E9469030E94750C8C0187
:101B800082E691E00E949404CE010E94B90BE8CF56
:101B90001016110684F40E94F80C61E070E08111C7
:101BA00002C062E070E0C701C4CFC8010E94C70B49
:101BB00070E060E0F8CFDF91CF911F910F91FF901F
:101BC000EF9008950F931F93CF93DF93EC018881DB
:101BD0009981009759F02A813B812617370730F009
:101BE00081E0DF91CF911F910F9108958B016F5F7D
:101BF0007F4F0E94A622009759F0998388831B8308
:101C00000A832C813D81232B59F7FC011082E8CFF8
:101C100080E0E7CF0F931F938BE99FE00197F1F7E7
:101C200061E084E00E94FE0260E084E00E94D00255
:101C300083E090E00197F1F761E084E00E94D00238
:101C40008FE090E00197F1F760E084E00E94D0021D
:101C500060E084E00E94FE02E8E4F4E06491E4E3E2
:101C6000F4E0E491F0E0EE0FFF1FEA5DFB4F859199
:101C7000949100E412E42FE030E0462F0E94841695
:101C8000611571058105910529F06F5F7F4F8F4FB9
:101C90009F4F9F70CB016AE370E00E943121CB011E
:101CA0001F910F910895EF92FF920F931F93CF937F
:101CB000DF936115710541F480E0DF91CF911F91B1
:101CC0000F91FF90EF90089541155105B1F07B0100
:101CD000EC010C811D81040F151FB8010E94E20D5B
:101CE000882351F3288139818C819D81B701820F2E
:101CF000931F0E9480231D830C8381E0DECFCF934E
:101D0000DF93EC0188819981009711F00E941D22D8
:101D1000198218821D821C821B821A82DF91CF9148
:101D20000895CF93DF93EC01FB0101900020E9F7C8
:101D30003197AF01461B570B0E94530E811103C010
:101D4000CE010E947F0ECE01DF91CF910895CF93F7
:101D5000DF93EC01FB0144815581608171810E9418
:101D6000530E811103C0CE010E947F0ECE01DF9180
:101D7000CF910895EF92FF920F931F93CF93DF932C
:101D8000EC017B018A01BA010E94E20D81110BC0B6
:101D9000CE010E947F0ECE01DF91CF911F910F9156
:101DA000FF90EF9008951D830C83B701888199817E
:101DB0000E948023F0CFFB0101900020E9F73197CA
:101DC000AF01461B570B0C94BA0E0F931F93CF9382
:101DD000DF93CDB7DEB762970FB6F894DEBF0FBEC4
:101DE000CDBF8C01CB01F8011182108213821282C7
:101DF000158214824AE0BE016F5F7F4F0E94DB1C98
:101E0000BE016F5F7F4FC8010E94DB0E62960FB666
:101E1000F894DEBF0FBECDBFDF91CF911F910F9120
:101E20000895FC011182108213821282158214829D
:101E3000FB0101900020E9F73197AF01461B570BDA
:101E40000C94BA0EAF92BF92CF92DF92EF92FF92B4
:101E50000F931F93CF93DF936C015B017A0189018C
:101E60002417350720F48F2D7901042F182F61E7EF
:101E700071E0C6010E94110FD5011496CD91DC913D
:101E8000EC16FD06E0F40C171D0708F4E801D50177
:101E9000ED91FC911197EC0FFD1F108110826D9157
:101EA0007C916E0D7F1DC60161157105A1F00E9428
:101EB000DB0EF50180819181C80FD91F1883C601FF
:101EC000DF91CF911F910F91FF90EF90DF90CF9016
:101ED000BF90AF9008950E947F0EEBCFFC018081F0
:101EE0009181009711F00C941D220895CF92DF92FA
:101EF000EF92FF920F931F93CF93DF93CDB7DEB78F
:101F0000E9970FB6F894DEBF0FBECDBF6B017C0121
:101F1000C0921401D0921501E0921601F0921701BF
:101F2000509313014093120188E290E090932501B1
:101F30008093240183E290E09093A5058093A4050B
:101F400088E594E00E9494041BA21AA21DA21CA280
:101F50001FA21EA28E010F5F1F4F22E044E0C701A7
:101F6000B6010E94961C009709F46EC0BC01CE0118
:101F700082960E94DB0E6091120170911301CE01D6
:101F800001960E94E50E6091A4057091A505CE0111
:101F900088960E94E50E6091240170912501CE0182
:101FA0008E960E94E50E62E771E0CE01C4960E9413
:101FB000110FBE01625D7F4FCE01C4960E94A70E35
:101FC0006DE771E00E94910EBE01685D7F4F0E9437
:101FD000A70E6AE871E00E94910EBE016F5F7F4F0D
:101FE0000E94A70E6BE971E00E94910EBE016E5D2A
:101FF0007F4F0E94A70E0E94CB038FE691E00E94C4
:10200000A409CE01C4960E946E0FCE018E960E9446
:102010006E0FCE0188960E946E0FCE0101960E942F
:102020006E0FCE0182960E946E0FE9960FB6F8945D
:10203000DEBF0FBECDBFDF91CF911F910F91FF90FB
:10204000EF90DF90CF900895CE0182960E947F0E90
:1020500092CFCF93DF93CDB7DEB72C970FB6F8941E
:10206000DEBF0FBECDBF60E082E00E94FE0282E0D4
:102070000E94A702019779F5609150027091510278
:102080006F5F7F4F7093510260935002CE010796AD
:102090000E94E50E63EA71E0CE0101960E94110FE5
:1020A000BE01695F7F4FCE0101960E94A70E0E947C
:1020B000CB038FE691E00E94A409CE0101960E9415
:1020C0006E0FCE0107960E946E0F6FE070E08CE3FA
:1020D00090E00E94720864E170E080E090E00E946D
:1020E00069032C960FB6F894DEBF0FBECDBFDF910B
:1020F000CF9108954F925F926F927F928F929F92AD
:10210000AF92BF92CF92DF92EF92FF92CF93DF9385
:1021100064E670E080E090E00E945E080E949C0C03
:10212000853F21E092070CF4DBC00E94B90B8DE7DC
:1021300092E00E94B1094AE050E063E373E383E375
:102140009FE30E94760FC1E08091C402811159C0C3
:102150008091500290915102892B09F052C00E9447
:102160000A0E0497B4F58AE692E00E94B10962E390
:1021700070E080E090E00E945E086091A805709198
:10218000A90581E090E00E9407076091A605709183
:10219000A70582E090E00E94070762E370E083E019
:1021A00090E00E94070764EF71E080E090E00E94F9
:1021B0006903C093C40261E070E08091C502909110
:1021C000C6020E94C70B60ED77E080E090E00E94BD
:1021D0005E0880910E0190910F01892B31F480915E
:1021E000100190911101019711F40E9429100E9491
:1021F00044098091500290915102181619060CF072
:10220000A3CF4CE350E060E070E080E490E40E94F3
:10221000760FD0E0C0E0219682E592E00E9494041F
:10222000CE010E94B90B8FE00E942F036091240120
:1022300070912501861797070CF4BC018091A405C5
:102240009091A505681B790B072E000C880B990B44
:102250000E945E1F209114013091150140911601DA
:10226000509117010E94991F6B017C01609112012E
:1022700070911301072E000C880B990B0E945E1FB2
:102280004B015C01AC019B01C701B6010E948F208C
:102290000E94FB202B01A7019601C501B4010E94F9
:1022A0008E200E94FB20CB01B2010E94E60664E171
:1022B00070E080E090E00E946903C330D10509F02E
:1022C000AACFDF91CF91FF90EF90DF90CF90BF909A
:1022D000AF909F908F907F906F905F904F900895F8
:1022E0000E949C0CDF91CF91FF90EF90DF90CF90F8
:1022F000BF90AF909F908F907F906F905F904F9026
:102300000C94B90B80915002909151021816190645
:102310002CF00E9429100E944409F4CF109251021F
:1023200010925002089562E370E080E090E00E9415
:102330005E080E9429108091500290915102181657
:102340001906B4F484E991E00E94B10968ED7FEFC9
:1023500088E290E00E94E60662E370E080E090E0B0
:102360000E94690362E370E080E090E00E945E08F2
:102370001092510210925002089568EC70E080E0D3
:1023800090E00E945E0860E971E08CE390E00E94BA
:1023900072086CE97FEF84E690E00E94E6066AE14D
:1023A00074E080E090E00E9469036DE770E08DE7E3
:1023B00090E00E94E6060E9493116CEB72E080E0D0
:1023C00090E00C945E0868E270E088ED9FEF0E9458
:1023D000E6066EEE72E080E090E00E9469036DE731
:1023E00070E08DE790E00E94E6060C94931168EC93
:1023F00070E080E090E00E945E086CE771E08CE3A2
:1024000090E00E9472080E94E3116CEB72E080E0A1
:1024100090E00C945E0868ED7FEF88E290E00E9407
:10242000E6066EEE72E080E090E00E9469036DE7E0
:1024300070E08DE790E00E94E6060C94931168EC42
:1024400070E080E090E00E945E0862EC71E08CE356
:1024500090E00E9472080E940B126CEB72E080E028
:1024600090E00C945E08CF93DF93EC018091C7025B
:102470009091C8029E01281B390BC9018F3F3FEF85
:10248000930721F1C4F48D3F3FEF9307E1F00296EB
:1024900001F1D093C802C093C7028091C402811198
:1024A00002C00E947A1087EC91E00E94B109DF918E
:1024B000CF910C9482118230910559F083309105AF
:1024C00029F0019731F70E941F12E3CF0E94F71104
:1024D000E0CF0E94BD11DDCF85ED8093BC008091DF
:1024E000FD039091FE03A091FF03B09100040796B5
:1024F000A11DB11D23E0B695A795979587952A95BF
:10250000D1F72091BC0024FD03C01092FB03089575
:102510004091FD035091FE036091FF037091000410
:10252000452B462B472B69F30097A105B10541F0D8
:102530002AE22A95F1F700C00197A109B109E1CF7C
:102540008091FC030C9414052F923F924F925F925E
:102550006F927F928F929F92AF92BF92CF92DF92B3
:10256000EF92FF920F931F93CF93DF93CDB7DEB718
:102570002E970FB6F894DEBF0FBECDBF8C018EE351
:1025800092E00E949404C8010E94CB038AE392E087
:102590000E94B10918861F821A8619861C861B861E
:1025A000F801608171816115710531F044815581B7
:1025B000CE0107960E94BA0E8B859C85892B09F463
:1025C00059C0EF80F8846CE270E0C7010E946C2370
:1025D000009709F44FC08C010E191F09F12CE12C52
:1025E000C0904E02D0904F020F3F100709F444C034
:1025F0008FE0C816D1040CF03FC09801A701BE01BE
:10260000695F7F4FCE0101960E94220F89819A81D6
:10261000009761F10E94B41C96012F5F3F4F3093E9
:102620004F0220934E02F601EE0FFF1FE05DFD4FBB
:1026300071836083CE0101960E946E0F78019FEF37
:10264000E91AF90A8B859C85E816F906A8F4CF806B
:10265000D8846CE270E0C6018E0D9F1D0E946C2331
:10266000009751F08C010C191D09BACF60E070E0A1
:10267000CB01D2CFF12CE12C00914E0210914F02F0
:102680000F30110514F52B853C85A701BE01695F4C
:102690007F4FCE0101960E94220F89819A81009777
:1026A00029F10E94B41C98012F5F3F4F30934F02D5
:1026B00020934E02000F111FF801E05DFD4F718362
:1026C0006083CE0101960E946E0F40904E025090A2
:1026D0004F02F201EE0FFF1FE05DFD4FC2018F3090
:1026E000910544F4119211920196F9CF60E070E0E7
:1026F000CB01D9CFCE0107960E946E0F93E0292E11
:10270000312C00914E0210914F02101611060CF060
:10271000ACC081E392E00E949404C8010E94B90B0E
:1027200080914E0290914F02F201E81BF90BEE0FDF
:10273000FF1FE05DFD4F808191810197712C612C1D
:102740008B30910538F4805C9E4FFC016080062C34
:10275000000C77088091C5029091C602B1010E94D9
:1027600031215B016C01C301B1010E9431217B0168
:102770008C014501861A970A8C199D099E878D87C1
:102780008FE192E00E949404C5010E943C0B8DE110
:1027900092E00E949404C6010E943C0B86E192E004
:1027A0000E949404C7010E943C0B84E192E00E94C5
:1027B0009404C8010E943C0B80E192E00E949404C2
:1027C0009AE0989D8001999D100D1124ED85FE855C
:1027D0000E0F1F1FC8010E94B90B7092C6026092B3
:1027E000C50201151105E1F074F4063FFFEF1F0764
:1027F000A9F10F3F1F4F59F160EA76E881E090E0C0
:102800000E945E0811C001301105C1F00A301105A7
:1028100099F78FED91E00E94B10990E080E014C03B
:1028200084E092E00E94B10980914E0290914F02A3
:10283000019790934F0280934E0263CF88EF91E00F
:102840000E94B10981E090E00E943312EDCF8CEE3E
:1028500091E00E94B10983E090E0F6CF82ED91E033
:102860000E94B10982E090E0EFCFE0E3F2E08EE475
:1028700092E0119211928E179F07D9F72E960FB6FC
:10288000F894DEBF0FBECDBFDF91CF911F910F91A6
:10289000FF90EF90DF90CF90BF90AF909F908F9080
:1028A0007F906F905F904F903F902F900895AF92E0
:1028B000BF92CF92DF92EF92FF920F931F93CF932D
:1028C000DF9300D000D000D0CDB7DEB786EB91E02B
:1028D0000E94B10900E011E082E1A82E81E0B82E4B
:1028E0006801F12CE12CF601619171916F01CE012B
:1028F00001960E94E50E8D819E81892B71F06FEC0F
:1029000071E089819A810E947723892B31F461EDEE
:1029100071E0CE0101960E94DB0ECE0101960E946D
:10292000CB03F2E0EF16F10421F082EB91E00E947C
:102930009404CE0101960E946E0F8FEFE81AF80AF8
:10294000E3E0EE16F10479F681E791E00E94A40934
:102950008FE691E00E94A4090A5F1F4FA016B106FE
:1029600009F0BECF26960FB6F894DEBF0FBECDBFDE
:10297000DF91CF911F910F91FF90EF90DF90CF905B
:10298000BF90AF9008951F920F920FB60F9211242F
:102990002F933F938F939F93AF93BF938091230483
:1029A00090912404A0912504B09126043091C9028D
:1029B00023E0230F2D3758F50196A11DB11D20935B
:1029C000C9028093230490932404A0932504B09318
:1029D00026048091CA029091CB02A091CC02B091C2
:1029E000CD020196A11DB11D8093CA029093CB0226
:1029F000A093CC02B093CD02BF91AF919F918F91E4
:102A00003F912F910F900FBE0F901F90189526E8C1
:102A1000230F0296A11DB11DD2CF1F920F920FB6A8
:102A20000F9211242F933F934F935F936F937F9354
:102A30008F939F93AF93BF93EF93FF938BE294E0B9
:102A40000E942504FF91EF91BF91AF919F918F91CB
:102A50007F916F915F914F913F912F910F900FBE9A
:102A60000F901F9018951F920F920FB60F9211247E
:102A70002F938F939F93EF93FF93E0913B04F091FB
:102A80003C048081E0914104F091420482FD1BC02E
:102A90009081809144048F5F8F7320914504821749
:102AA00041F0E0914404F0E0E55DFB4F958F8093A9
:102AB0004404FF91EF919F918F912F910F900FBE42
:102AC0000F901F9018958081F4CF1F920F920FB630
:102AD0000F9211242F933F934F935F936F937F93A4
:102AE0008F939F93AF93BF93EF93FF938091B90020
:102AF000887F803609F44AC0F0F5883209F4A7C00F
:102B000018F5803109F49BC0B8F4882309F4F9C0A2
:102B1000883009F494C0FF91EF91BF91AF919F91DC
:102B20008F917F916F915F914F913F912F910F9076
:102B30000FBE0F901F901895883109F488C080321D
:102B400051F78093F90314C0803409F49DC040F418
:102B50008033B9F38833F9F68093F90385ECB0C07C
:102B6000803509F485C0883509F496C0883499F613
:102B70000E946C12D0CF883909F48CC038F58837A0
:102B800029F050F4883611F0803729F683E08093DD
:102B9000FB031092B90257C0883809F47BC0803912
:102BA00019F0803809F0B7CF8091B902803208F06F
:102BB00071C0E091B90281E08E0F8093B9028091DB
:102BC000BB00F0E0E756FD4F80833DC0803B39F00D
:102BD000E0F4803A09F479C0883A09F09CCF84E0A7
:102BE0008093FB031092980210929702E091BA0230
:102BF000F091BB0209958091970281110FC081E08D
:102C0000809397021092770209C0803C09F4A6CF06
:102C1000883C09F4A3CF883B09F07DCFE09198026E
:102C200081E08E0F80939802F0E0E958FD4F80819B
:102C30008093BB00909198028091970229C0809167
:102C4000F6038093BB0085EC8093BC0064CF909129
:102C5000F8038091F703981758F5E091F80381E0A5
:102C60008E0F8093F803F0E0EB52FC4F8081E9CFA8
:102C7000E091F80381E08E0F8093F8038091BB0010
:102C8000F0E0EB52FC4F80839091F8038091F703C2
:102C90009817C8F285E8D8CFE091F80381E08E0F4D
:102CA0008093F8038091BB00F0E0EB52FC4F8083EF
:102CB0008091FA0381115CCF81E08093F50384EA6F
:102CC0008093BC001092FB0326CF85EC8093BC0060
:102CD0001092FB038091B902803230F4E091B90286
:102CE000F0E0E756FD4F10826091B90270E0E0918C
:102CF000BC02F091BD0289E992E009951092B902F7
:102D00000ACF1092F90334CFCF92DF92EF92FF9265
:102D10000F931F93E82FF92F05C0015011092109C6
:102D2000310961F1908196239417B9F305C00150E0
:102D300011092109310911F1908196239413F7CFDC
:102D4000C12CD12CE12CF12C0AC08FEFC81AD80A63
:102D5000E80AF80A0C151D052E053F0579F080815B
:102D60008623841791F36C2D7D2D8E2D9F2D1F9121
:102D70000F91FF90EF90DF90CF90089560E070E0AA
:102D800080E090E01F910F91FF90EF90DF90CF9047
:102D9000089510922E0410922D0488EE93E0A0E086
:102DA000B0E080932F0490933004A0933104B0934B
:102DB00032042FE431E030932C0420932B0425ECD3
:102DC00030E0309338042093370424EC30E0309323
:102DD0003A042093390420EC30E030933C042093F3
:102DE0003B0421EC30E030933E0420933D0422EC80
:102DF00030E03093400420933F0426EC30E03093E1
:102E0000420420934104109244041092450410920D
:102E10004604109247041092CB041092CA04809387
:102E2000CC049093CD04A093CE04B093CF0481E65C
:102E300091E09093C9048093C804809126019091F9
:102E400027012EE630E0281B390B3093A90520938B
:102E5000A80583969093A7058093A6052091240149
:102E600030912501C901439697FD01969595879567
:102E700001969093A5058093A40584E690E0A0E0D8
:102E8000B0E08093D8049093D904A093DA04B0936F
:102E9000DB041092E1041092E0041092630510929A
:102EA00062051092D5041092D4041092D7041092A7
:102EB000D6048FEF809364058FEF9FEF90936605A4
:102EC00080936505909368058093670590936A05E4
:102ED0008093690590936C0580936B0590936E05C4
:102EE00080936D050895CF93DF9300D000D000D07C
:102EF000CDB7DEB7789484B5826084BD84B5816037
:102F000084BD85B5826085BD85B5816085BD8091B4
:102F10006E00816080936E0010928100809181002C
:102F20008260809381008091810081608093810024
:102F3000809180008160809380008091B1008460E6
:102F40008093B1008091B00081608093B000809147
:102F50007A00846080937A0080917A008260809306
:102F60007A0080917A00816080937A0080917A0063
:102F7000806880937A001092C1001092020410922F
:102F8000010410922804109227040E94F6048CE990
:102F900093E09093BB028093BA028DE993E0909303
:102FA000BD028093BC0264EF71E080E090E00E947B
:102FB000690385E00E94610287E290E00E94BB0500
:102FC00088EC94E00E94C0056AE070E080E090E048
:102FD0000E94690386E00E94610287E290E00E94FD
:102FE000BB0588EC94E00E94C0056AE070E080E0D8
:102FF00090E00E94690381E00E94610287E290E014
:103000000E94BB0588EC94E00E94C0056AE070E075
:1030100080E090E00E94690382E00E94610287E202
:1030200090E00E94BB0588EC94E00E94C0056AE035
:1030300070E080E090E00E94690383E00E946102FA
:1030400087E290E00E94BB0588EC94E00E94C005F6
:103050006AE070E080E090E00E94690384E00E94F2
:10306000610287E290E00E94BB0588EC94E00E9438
:10307000C0056AE070E080E090E00E94690361E0D2
:1030800087E00E94FE0261E087E00E94D00260E0DB
:1030900088E00E94FE0288E00E94A702892BB9F70F
:1030A00061E087E00E94FE0260E087E00E94D002BB
:1030B00085E00E94610287E290E00E94BB0588ECF7
:1030C00094E00E94C0056AE070E080E090E00E9419
:1030D000690386E00E94610287E290E00E94BB05DE
:1030E00088EC94E00E94C0056AE070E080E090E027
:1030F0000E94690381E00E94610287E290E00E94E1
:10310000BB0588EC94E00E94C0056AE070E080E0B6
:1031100090E00E94690382E00E94610287E290E0F1
:103120000E94BB0588EC94E00E94C0056AE070E054
:1031300080E090E00E94690383E00E94610287E2E0
:1031400090E00E94BB0588EC94E00E94C0056AE014
:1031500070E080E090E00E94690384E00E946102D8
:1031600087E290E00E94BB0588EC94E00E94C005D5
:103170006AE070E080E090E00E94690368EE73E02E
:1031800080E090E00E94690385E00E94610285E290
:1031900090E00E94BB0588EC94E00E94C0056AE0C4
:1031A00070E080E090E00E94690386E00E94610286
:1031B00085E290E00E94BB0588EC94E00E94C00587
:1031C0006AE070E080E090E00E94690381E00E9484
:1031D000610285E290E00E94BB0588EC94E00E94C9
:1031E000C0056AE070E080E090E00E94690382E040
:1031F0000E94610285E290E00E94BB0588EC94E0A9
:103200000E94C0056AE070E080E090E00E946903DF
:1032100083E00E94610285E290E00E94BB0588EC99
:1032200094E00E94C0056AE070E080E090E00E94B7
:10323000690384E00E94610285E290E00E94BB0580
:1032400088EC94E00E94C0056AE070E080E090E0C5
:103250000E946903E0913B04F0913C0482E080838A
:10326000E0913704F09138041082E0913904F09134
:103270003A0480E1808310924304E0913F04F0918E
:10328000400486E08083E0913D04F0913E0480811B
:1032900080618083E0913D04F0913E0480818860EC
:1032A0008083E0913D04F0913E04808180688083BA
:1032B000E0913D04F0913E0480818F7D80838BE11D
:1032C00093E00E94940410922804109227040E9414
:1032D000F60438ECE32E34E0F32E45E5B42E5AEA3A
:1032E000A52E61E1962E7CE2872EE5E0CE2ED12C34
:1032F0001092D7041092D604F092D504E092D40430
:1033000005E010E010925003B092D002A092D102DA
:103310009092D2028092D402D092CF02C092CE027A
:103320000E949107BC0180ED92E00E94A7068EE208
:103330000E94BF09811165C20150110919F780E986
:1033400092E00E94B1096091A8057091A90581E001
:1033500090E00E9407076091A6057091A70582E0A2
:1033600090E00E94070764E670E080E090E00E9431
:103370006903BECF101611060CF0DBC08EE593E09A
:103380000E949404C8010E94B90B0E94F80C61E0ED
:1033900070E0811102C062E070E090E080E00E9485
:1033A000C70B80910001909101018130910509F4D2
:1033B000C7C08230910509F4DAC0892B09F049C1F0
:1033C0000E940B1201E010E01093C8020093C702A4
:1033D00068EC70E080E090E00E945E0880EB93E093
:1033E0000E94B10968E070E087E090E00E947A0DE9
:1033F00080910E0190910F018130910509F4D4C0A4
:103400008230910509F4E1C0892B09F022C1809135
:103410001001909111018130910509F4F3C08230BF
:10342000910509F465C1892B09F013C10E94E311CC
:103430001092C8021092C70268EC70E080E090E041
:103440000E945E0867ED71E0CE0101960E94110FA7
:10345000CE0101960E94A412CE0101960E946E0F29
:103460000E941F121093C8020093C7028FE893E0D6
:103470000E94B10965E070E084E090E00E947A0D5E
:103480000E94571460E472E48FE090E00E945E08AE
:1034900080910801909109018130910509F443C19F
:1034A0008230910509F44EC1892B09F0D2C00091F8
:1034B0000A0110910B010130110509F44CC10230D1
:1034C000110509F44BC10115110509F0C2C067E2ED
:1034D00072E0CE0101960E94110FCE0101960E946A
:1034E000A412CE0101960E946E0F0E94F711109255
:1034F000C8021092C7020E94750C5C01A114B104AD
:1035000009F02FC10530110509F475C10F5F1F4F78
:1035100062E370E080E090E00E9469030E94750C15
:103520005C0180E893E00E949404C8010E94B90BFA
:10353000E5CF8AE493E00E94B10970E060E02DCF0E
:1035400088ED93E00E94B10963ED71E0CE01019630
:103550000E94110FCE0101960E94A412CE01019685
:103560000E946E0F86E090E00E94800872C080ED9D
:1035700093E00E94B10969ED71E0CE0101960E94CD
:10358000110FCE0101960E94A412CE0101960E9455
:103590006E0F0E94F71160E273E084EC9FEF0E94CF
:1035A000720887E090E0E0CF65E072E0CE0101961E
:1035B0000E94110FCE0101960E94A412CE01019625
:1035C0000E946E0F0E941F12E6CF0E94E31110921C
:1035D000C8021092C70268EC70E080E090E00E94A0
:1035E0005E0869EE71E0CE0101960E94110FCE01D6
:1035F00001960E94A412CE0101960E946E0F88E0EF
:1036000090E0B2CF48E250E060E070E080E090E40B
:103610000E94760F0E940A0E40971CF00E944409F7
:10362000F9CF8091C402811102C00E947A1064EF28
:1036300071E080E090E00E945E0888E090E0909366
:10364000C6028093C50281E090E09093C802809307
:10365000C702E114F10429F00E94110481110E94B3
:1036600000000E9482110E948211D092C602C09274
:10367000C5021092C8021092C70281E393E00E9433
:10368000B10964E670E080E090E00E945E0864EFBB
:1036900071E084E690E00E94720880EE93E00E9460
:1036A000B10960E070E0CB010E945E080E94750CD9
:1036B0008C01B12CA12C0115110509F05BCE8AE01B
:1036C000A816B10409F435CF8FEFA81AB80A62E33F
:1036D00070E080E090E00E9469030E94750C8C010C
:1036E00081E793E00E949404C5010E94B90BE3CFE7
:1036F0000E94E3111092C8021092C70268EC70E0B9
:1037000080E090E00E945E0867EF71E0CE010196D4
:103710000E94110FCE0101960E94A412CE010196C3
:103720000E946E0F3ECF63E072E0CE0101960E94D0
:10373000110FCE0101960E94A412CE0101960E94A3
:103740006E0F87CF0E94E3111092C8021092C70239
:1037500067E072E048CF63E172E0E7CF6AE172E0D0
:10376000D5CF1A141B040CF046C00E94F80C61E07F
:1037700070E0811102C062E070E081E090E00E94A0
:10378000C70B009102011091030101301105B1F145
:103790000230110509F05DCF62E370E088ED9FEF24
:1037A0000E9472080E940B1281E090E09093C80280
:1037B0008093C70269E272E0CE0101960E94110F68
:1037C000CE0101960E94A412CE0101960E946E0FB6
:1037D00068EC70E080E590E00E9472080E94BD11E4
:1037E0001093C6020093C5021093C8020093C7024B
:1037F0006EE072E0F8CE70E060E0BFCF61E272E0B0
:1038000085CF0E94380985E00E94610281E590E041
:103810000E94BB0581E090E00E94BB0588EC94E02B
:103820000E94C0056AE070E080E090E00E946903B9
:103830006CE370E081E090E00E9467076CE370E069
:1038400082E090E00E9467076AE070E083E090E029
:103850000E9467070E94380980E00E942F038C01B4
:10386000000F111F82EA92E00E949404C80164E6EE
:1038700070E00E9431218C01CB010E943C0B80EA58
:1038800092E00E949404C8010E943C0B8EE992E0F1
:103890000E94B1094CE350E060E070E080E490E405
:1038A0000E94760F83E090E09093C3028093C2025F
:1038B00082E090E09093C1028093C00281E090E0AA
:1038C0009093BF028093BE028BEE92E00E9494041C
:1038D0008FED92E00E9494048AED92E00E9494049D
:1038E00088E390E090932701809326018EEC92E08C
:1038F0000E9494048AEC92E00E9494048AEB92E085
:103900000E94940484EB92E00E94940481EB92E084
:103910000E94B10984E093E00E94940496E0C92ECD
:10392000D12C20E0E22E20E0F22E9BCEEF920F93DE
:103930001F93CF93DF93E80134E047FD34E1042E79
:10394000000C550B57FF03C0519541955109E32ECB
:10395000022F242FAE010E94151DCE01DF91CF91C1
:103960001F910F91EF9008951F93FC0199278827CD
:10397000BC01E89411911032E9F3193010F01E30B7
:10398000C8F31B3251F01D3249F4689406C00E94FE
:10399000E61C610F711D811D911D119110531A308C
:1039A000B0F33EF490958095709561957F4F8F4F61
:1039B0009F4F1F910895BB274A3031F4992322F479
:1039C000BDE2909581959F4F0C94FC1C592F482F78
:1039D000372F262F660F771F881F991F660F771FB7
:1039E000881F991F620F731F841F951F660F771F13
:1039F000881F991F0895BB27FB015527AA27880F09
:103A0000991FAA1FA41710F0A41B83955051B9F752
:103A1000A05DAA3308F0A95DA193009779F7B111D1
:103A2000B1931192CB010C944C1FA9E0B0E0EBE1F3
:103A3000FDE10C945D206A01F22EB02E102FFBE305
:103A4000AF2EA01608F41BE31F5F012F27E0AE0185
:103A50004F5F5F4F0E94741EBC018981982F99703F
:103A6000913009F43FC09BE2E1FC04C09E2D9170AF
:103A7000E0FC3AC05E2D5071E82FE87083FF46C02D
:103A800084E0911101C083E0EF2DE81B8F1508F051
:103A9000E0E0D6018E2F20E2552351F1992329F041
:103AA000D6019C93C60101966C0196012D5F3F4F94
:103AB000E2FE24C08EE4D6018C9391E411969C938F
:103AC000119712968C93D9018E2F90E281111BC011
:103AD000E20FF32FF11D10828EEF9FEF2996ECE09D
:103AE0000C9479209DE2C6CF90E2C4CF2D938150F3
:103AF0008111FCCFCE0ED11CE0E0D0CF8EE6D601F6
:103B00008C9391E6DBCF9D938150E0CF482F44709A
:103B100082FF3DC084E0911101C083E08F1510F455
:103B2000EF2DE81BD6018E2F20E2552309F19923B2
:103B300029F0D6019C93C60101966C0196012D5F78
:103B40003F4FE2FE1BC089E4D6018C938EE41196B0
:103B50008C93119786E412968C93D9018E2F90E264
:103B6000882309F4B5CF9D938150FACF2D938150CE
:103B70008111FCCFCE0ED11CE0E0D9CF89E6D60171
:103B80008C938EE611968C93119786E6E4CF9B0179
:103B900077FF02C030E020E0A1E0B0E0911102C068
:103BA000B0E0A0E0F9013196AE0FBF1F8B2C912C35
:103BB000BB2009F461C05401EFEFAE1ABE0AAA0D92
:103BC000BB1DFA161B0619F014F04F2D4A1B51119C
:103BD00088C0E3FC59C07601A42FB0E2A1114FC008
:103BE000C40ED11C992309F45BC040E0D6011196A4
:103BF000F60190836D01552309F448C0012F060F8B
:103C00009A81582F507184FF03C0913309F40150F9
:103C100010160CF047C0093008F008E0EEE2FE2E66
:103C20005B01A01AB10885019194819491082F3FFE
:103C3000320729F4D601FC92F60131966F01621722
:103C4000730794F1021713077CF5DB01A21BB30B7A
:103C5000AA24A394B12CAC0EBD1EAA0DBB1D1196B7
:103C60008C9121503109D601119628153905F4F0AF
:103C7000F60180836D01DBCFB12CA12CA0CFF70121
:103C8000B1937F01A150AACF9111B0CFD601942F4B
:103C900050E302C05D9391509111FCCFC40ED11C32
:103CA00040E0ACCF01E0BACF80E3DBCF621773070F
:103CB00031F4963388F4953311F4552369F0F60105
:103CC0008083FD01842F90E2811108C0A40FB11DF3
:103CD0001C9290E080E002CF81E3F1CF919381507C
:103CE000F3CF911183CF8ACF283008F027E0332714
:103CF000DA01990F311D87FD91600096610571050C
:103D000039F432602E5F3D9330E32A95E1F7089550
:103D10009F3F30F080387105610509F03C5F3C5FE2
:103D20003D93913008F08068911DDF93CF931F93EE
:103D30000F93FF92EF92192F987F9695E92F969502
:103D40009695E90FFF27EE53FF4F99273327EE246F
:103D5000FF24A701E70105900894079428F4360F83
:103D6000E71EF81E491F511D660F771F881F991FF8
:103D70000694A1F70590079428F4E70EF81E491F52
:103D8000561FC11D770F881F991F661F0694A1F744
:103D90000590079428F4F80E491F561FC71FD11D20
:103DA000880F991F661F771F0694A1F70590079447
:103DB00020F4490F561FC71FD81F990F661F771F82
:103DC000881F0694A9F784911095177041F0D69535
:103DD000C79557954795F794E7941A95C1F7E8E684
:103DE000F0E0689415901591359165919591059045
:103DF0007FE27395E118F10A430B560BC90BD0090A
:103E0000C0F7E10CF11E431F561FC91FD01D7EF4E1
:103E1000703311F48A95E6CFE894015030F0080F22
:103E20000AF40027021708F4202F2395022F7A3373
:103E300028F079E37D932A95E9F710C07D932A95C0
:103E400089F6069497956795379517951794E11815
:103E5000F10A430B560BC90BD00998F023957E91BC
:103E600073957A3308F070E37C932013B8F77E9152
:103E700070617D9330F0839571E37D9370E32A95B3
:103E8000E1F71124EF90FF900F911F91CF91DF91F7
:103E9000992787FD90950895DC01FC01672F7191AA
:103EA0007723E1F7329704C07C916D937083629120
:103EB000AE17BF07C8F30895E89409C097FB3EF416
:103EC00090958095709561957F4F8F4F9F4F992367
:103ED000A9F0F92F96E9BB279395F69587957795E5
:103EE0006795B795F111F8CFFAF4BB0F11F460FFA5
:103EF0001BC06F5F7F4F8F4F9F4F16C0882311F0FD
:103F000096E911C0772321F09EE8872F762F05C010
:103F1000662371F096E8862F70E060E02AF09A95AB
:103F2000660F771F881FDAF7880F9695879597F9A0
:103F300008950E94AC1F0C941D200E940F2038F0A1
:103F40000E94162020F0952311F00C9406200C946A
:103F50000C2011240C9451200E942E2070F3959F68
:103F6000C1F3950F50E0551F629FF001729FBB2770
:103F7000F00DB11D639FAA27F00DB11DAA1F649F0C
:103F80006627B00DA11D661F829F2227B00DA11DBF
:103F9000621F739FB00DA11D621F839FA00D611D45
:103FA000221F749F3327A00D611D231F849F600D66
:103FB000211D822F762F6A2F11249F5750409AF08F
:103FC000F1F088234AF0EE0FFF1FBB1F661F771F1B
:103FD000881F91505040A9F79E3F510580F00C94E6
:103FE00006200C9451205F3FE4F3983ED4F386956D
:103FF00077956795B795F795E7959F5FC1F7FE2B86
:10400000880F911D9695879597F9089597F99F6761
:1040100080E870E060E008959FEF80EC0895002450
:104020000A941616170618060906089500240A941D
:1040300012161306140605060895092E0394000CA3
:1040400011F4882352F0BB0F40F4BF2B11F460FF32
:1040500004C06F5F7F4F8F4F9F4F089557FD90585B
:10406000440F551F59F05F3F71F04795880F97FB3C
:10407000991F61F09F3F79F08795089512161306F6
:104080001406551FF2CF4695F1DF08C01616170625
:104090001806991FF1CF869571056105089408955A
:1040A000E894BB2766277727CB0197F908952F92CD
:1040B0003F924F925F926F927F928F929F92AF92B8
:1040C000BF92CF92DF92EF92FF920F931F93CF9305
:1040D000DF93CDB7DEB7CA1BDB0B0FB6F894DEBF9C
:1040E0000FBECDBF09942A88398848885F846E84C2
:1040F0007D848C849B84AA84B984C884DF80EE800C
:10410000FD800C811B81AA81B981CE0FD11D0FB614
:10411000F894DEBF0FBECDBFED0108955058BB2708
:10412000AA270E94A6200C941D200E940F2038F080
:104130000E94162020F039F49F3F19F426F40C94C5
:104140000C200EF4E095E7FB0C940620E92F0E946A
:104150002E2058F3BA17620773078407950720F0DB
:1041600079F4A6F50C9450200EF4E0950B2EBA2F9E
:10417000A02D0B01B90190010C01CA01A00111246D
:10418000FF27591B99F0593F50F4503E68F11A1619
:10419000F040A22F232F342F4427585FF3CF4695AA
:1041A00037952795A795F0405395C9F77EF41F16CC
:1041B000BA0B620B730B840BBAF09150A1F0FF0F96
:1041C000BB1F661F771F881FC2F70EC0BA0F621F82
:1041D000731F841F48F4879577956795B795F79572
:1041E0009E3F08F0B0CF9395880F08F09927EE0F07
:1041F0009795879508950E9402216894B1110C94B7
:10420000512008950E94362088F09F5798F0B92FCA
:104210009927B751B0F0E1F0660F771F881F991FFB
:104220001AF0BA95C9F714C0B13091F00E9450202D
:10423000B1E008950C945020672F782F8827B85F3D
:1042400039F0B93FCCF3869577956795B395D9F753
:104250003EF490958095709561957F4F8F4F9F4F5D
:10426000089597FB072E16F4009407D077FD09D028
:104270000E94672107FC05D03EF4909581959F4FE1
:104280000895709561957F4F0895A1E21A2EAA1B9B
:10429000BB1BFD010DC0AA1FBB1FEE1FFF1FA217F6
:1042A000B307E407F50720F0A21BB30BE40BF50BF3
:1042B000661F771F881F991F1A9469F7609570957C
:1042C000809590959B01AC01BD01CF010895AA1B7B
:1042D000BB1B51E107C0AA1FBB1FA617B70710F0F1
:1042E000A61BB70B881F991F5A95A9F78095909523
:1042F000BC01CD010895EE0FFF1F0590F491E02D54
:1043000009940F931F93CF93DF938230910510F49C
:1043100082E090E0E091AC05F091AD0530E020E066
:10432000B0E0A0E0309799F42115310509F44AC0B6
:10433000281B390B24303105D8F58A819B81611502
:10434000710589F1FB0193838283FE0111C04081D5
:1043500051810281138148175907E0F04817590726
:1043600099F4109761F012960C93129713961C9380
:104370003296CF01DF91CF911F910F910895009355
:10438000AC051093AD05F4CF2115310551F042175E
:10439000530738F0A901DB019A01BD01DF01F801E3
:1043A000C1CFEF01F9CF9093AD058093AC05CDCF90
:1043B000FE01E20FF31F819391932250310939835B
:1043C0002883D7CF2091AA053091AB05232B41F448
:1043D00020912A0130912B013093AB052093AA053F
:1043E00020912801309129012115310541F42DB783
:1043F0003EB740912C0150912D01241B350BE091CB
:10440000AA05F091AB05E217F307A0F42E1B3F0BB2
:104410002817390778F0AC014E5F5F4F2417350736
:1044200048F04E0F5F1F5093AB054093AA05819350
:1044300091939FCFF0E0E0E09CCFCF93DF93009784
:10444000E9F0FC01329713821282A091AC05B09181
:10445000AD05ED0130E020E01097A1F4208131811D
:10446000820F931F2091AA053091AB0528173907B9
:1044700009F061C0F093AB05E093AA05DF91CF91FD
:104480000895EA01CE17DF07E8F54A815B819E01B6
:1044900041155105B1F7E901FB83EA83499159912F
:1044A000C40FD51FEC17FD0761F48081918102963E
:1044B000840F951FE90199838883828193819B836F
:1044C0008A83F0E0E0E012968D919C91139700971B
:1044D000B9F52D913C911197CD010296820F931F52
:1044E0002091AA053091AB052817390739F6309786
:1044F00051F51092AD051092AC05B093AB05A093A9
:10450000AA05BCCFD383C28340815181840F951FFC
:10451000C817D90761F44E5F5F4F88819981480FB2
:10452000591F518340838A819B8193838283211504
:10453000310509F0B0CFF093AD05E093AC059ECF07
:10454000FD01DC01C0CF13821282D7CFB0E0A0E022
:10455000ECEAF2E20C9459208C01009751F4CB0163
:104560000E9481218C01C801CDB7DEB7E0E10C9437
:104570007520FC01E60FF71F9C0122503109E2175C
:10458000F30708F49DC0D901CD91DC911197C617AE
:10459000D70798F0C530D10530F3CE0104978617C0
:1045A000970708F3C61BD70B2297C193D1936D933E
:1045B0007C93CF010E941D22D6CF5B01AC1ABD0AAD
:1045C0004C018C0E9D1EA091AC05B091AD05512CF7
:1045D000412CF12CE12C109731F58091AA05909196
:1045E000AB058815990509F05CC04616570608F01A
:1045F00058C08091280190912901009741F48DB70E
:104600009EB740912C0150912D01841B950BE8170A
:10461000F90708F055C0F093AB05E093AA05F9013E
:1046200071836083A0CF8D919C91119712966C90AD
:10463000129713967C901397A815B90559F56C013C
:1046400042E0C40ED11CCA14DB0420F1AC014A19AB
:104650005B09DA011296159780F0628273825183AA
:104660004083D9016D937C93E114F10471F0D7017B
:104670001396FC93EE93129776CF22968C0F9D1F84
:10468000F90191838083F301EFCFF093AD05E093BF
:10469000AC0569CF4816590608F42C017D01D301F9
:1046A0009ACFCB010E9481217C01009749F0AE0195
:1046B000B8010E946323C8010E941D22870153CFC5
:1046C00010E000E050CFFB01DC0102C001900D9230
:1046D00041505040D8F70895FC018191861721F090
:1046E0008823D9F7992708953197CF010895FB01C1
:1046F000DC018D91019080190110D9F3990B089577
:10470000FB01DC0101900D920020E1F70895F8947F
:02471000FFCFD9
:10471200070007000700000007000700000007006D
:1047220007000A009A99B93F5A005A005A005A00E3
:104732005A005A001A0036000000AE05800003003D
:1047420007000B00020006000A0001000500090034
:1047520006030000070401000805020000000047EC
:10476200049E03D403AF040504E303F7030000002F
:10477200008C055F058E0735055805450536050D84
:104782000A006972446174614D41583A00202074F4
:1047920068726573686F6C643A00202064656661B4
:1047A200756C745F73706565643A00202067616997
:1047B2006E3A005B5B5B696E746572736563746904
:1047C2006F6E4445544543545D5D5D20696E74656A
:1047D2007273656374696F6E434E54203A200037DA
:1047E200003F00322C332C3200322C362C372C3145
:1047F200312C31302C392C3500322C362C372C31DF
:10480200312C31302C3900322C332C372C31312CD5
:1048120031302C362C3500332C372C31312C3130C1
:104822002C3900362C31302C3900362C372C3131D2
:104832002C372C362C3500360031302C313100002B
:00000001FF
