:020000040000FA
:100000000C94DF000C9407010C9407010C94070179
:100010000C9407010C9407010C9407010C94070140
:100020000C9407010C9407010C9407010C94070130
:100030000C9407010C9407010C9407010C94070120
:100040000C94D30B0C9407010C94A10B0C947B0B18
:100050000C9407010C9407010C9407010C94070100
:100060000C941D0C0C94070100407A10F35A00A068
:10007000724E18090010A5D4E80000E87648170071
:1000800000E40B54020000CA9A3B000000E1F505B1
:10009000000080969800000040420F000000A086FB
:1000A00001000000102700000000E803000000002D
:1000B0006400000000000A000000000001000000D1
:1000C00000002C76D888DC674F0823DFC1DFAE59EB
:1000D000E1B1B796E5E3E453C63AE651997696E87E
:1000E000E6C28426EB898C9B62ED407C6FFCEFBC02
:1000F0009C9F40F2BAA56FA5F490055A2AF75C932D
:100100006B6CF9676DC11BFCE0E40D47FEF520E662
:10011000B500D0ED902E0300943577050080841E45
:10012000080000204E0A000000C80C333333330FA0
:10013000986E12831141EF8D2114893BE65516CF3D
:10014000FEE6DB18D1844B381BF77C1D901DA4BB49
:10015000E424203284725E228100C9F124ECA1E5FE
:100160003D2700000000240027002A0000000000B6
:10017000250028002B000000000023002600290095
:10018000040404040404040402020202020203033D
:100190000303030301020408102040800102040845
:1001A00010200102040810200000000800020100D5
:1001B0000003040700000000000000003C0D1124B3
:1001C0001FBECFEFD8E0DEBFCDBF24E0A4E8B2E091
:1001D00001C01D92AE3EB207E1F712E0A0E0B1E02F
:1001E000E8E5FFE202C005900D92A438B107D9F707
:1001F00010E0CFEDD0E004C02197FE010E949315DE
:10020000CE3DD107C9F70E94D50D0C94AA170C94C6
:10021000000091E090934B0380936D0310924C0388
:1002200010926E03089508950895AF92BF92CF92F1
:10023000DF92EF92FF920F931F93CF93DF936C01A6
:100240007B018B01040F151FEB015E01AE18BF0887
:10025000C017D10759F06991D601ED91FC91019039
:10026000F081E02DC6010995892B79F7C501DF9151
:10027000CF911F910F91FF90EF90DF90CF90BF90A3
:10028000AF900895FC0144815581608171818FE6B2
:1002900093E00C941501FC01538D448D252F30E023
:1002A000842F90E0821B930B541710F0CF96089583
:1002B00001970895FC01918D828D981761F0A28DB0
:1002C000AE0FBF2FB11D5D968C91928D9F5F9F7376
:1002D000928F90E008958FEF9FEF0895FC01918D2C
:1002E000828D981731F0828DE80FF11D858D90E099
:1002F00008958FEF9FEF0895FC01918D228D892F36
:1003000090E0805C9F4F821B91098F73992708951D
:100310008FE693E00E947C0121E0892B09F420E024
:10032000822F089580E090E0892B29F00E948801B7
:1003300081110C9400000895FC01A48DA80FB92F21
:10034000B11DA35ABF4F2C91848D90E001968F73FD
:100350009927848FA689B7892C93A089B1898C911C
:10036000837080648C93938D848D981306C002886B
:10037000F389E02D80818F7D80830895EF92FF9235
:100380000F931F93CF93DF93EC0181E0888F9B8DB8
:100390008C8D98131AC0E889F989808185FF15C072
:1003A0009FB7F894EE89FF896083E889F989808195
:1003B0008370806480839FBF81E090E0DF91CF9164
:1003C0001F910F91FF90EF900895F62E0B8D10E086
:1003D0000F5F1F4F0F731127E02E8C8D8E110CC0F5
:1003E0000FB607FCFACFE889F989808185FFF5CF40
:1003F000CE010E949C01F1CFEB8DEC0FFD2FF11D82
:10040000E35AFF4FF0829FB7F8940B8FEA89FB897C
:1004100080818062CFCFCF93DF93EC01888D8823DA
:10042000B9F0AA89BB89E889F9898C9185FD03C057
:10043000808186FD0DC00FB607FCF7CF8C9185FF3C
:10044000F2CF808185FFEDCFCE010E949C01E9CFE4
:10045000DF91CF910895833081F028F4813099F0B5
:100460008230A9F008958730A9F08830C9F084302F
:10047000B1F4809180008F7D03C0809180008F77E0
:1004800080938000089584B58F7784BD089584B5E6
:100490008F7DFBCF8091B0008F778093B00008955F
:1004A0008091B0008F7DF9CFCF93DF93282F30E07C
:1004B000F901E855FE4F8491F901EC56FE4FD491B5
:1004C000F901E058FE4FC491CC23A1F081110E94A4
:1004D0002B02EC2FF0E0EE0FFF1FEA58FE4FA59124
:1004E000B491EC91ED2381E090E009F480E0DF919C
:1004F000CF91089580E090E0FACF1F93CF93DF93E0
:10050000282F30E0F901E855FE4F8491F901EC56AF
:10051000FE4FD491F901E058FE4FC491CC23A9F0CD
:10052000162F81110E942B02EC2FF0E0EE0FFF1F1F
:10053000E459FE4FA591B4918FB7F894EC91111145
:1005400008C0D095DE23DC938FBFDF91CF911F9140
:100550000895DE2BF8CFCF93DF9390E0FC01EC56AB
:10056000FE4F249180589E4FFC0184918823D1F046
:1005700090E0880F991FFC01EE59FE4FA591B491B0
:10058000FC01E459FE4FC591D49161110EC09FB793
:10059000F8948C91E22FE0958E238C932881E223AE
:1005A000E8839FBFDF91CF9108958FB7F894EC91C6
:1005B000E22BEC938FBFF6CF8E3008F08E50877011
:1005C000806480937C0080917A00806480937A00BC
:1005D00080917A0086FDFCCF80917800909179001F
:1005E00008953FB7F8948091130390911403A0915C
:1005F0001503B091160326B5A89B05C02F3F19F02F
:100600000196A11DB11D3FBFBA2FA92F982F882792
:10061000BC01CD01620F711D811D911D42E0660F6D
:10062000771F881F991F4A95D1F708958F929F923F
:10063000AF92BF92CF92DF92EF92FF926B017C015B
:100640000E94F1024B015C01C114D104E104F104E8
:10065000B9F00E94F102681979098A099B09683E7C
:1006600073408105910580F321E0C21AD108E108A9
:10067000F10888EE880E83E0981EA11CB11CE4CF1F
:10068000FF90EF90DF90CF90BF90AF909F908F90B2
:1006900008952091EB02260F3327331F21323105B5
:1006A000ECF420914503FC0190E080E0243069F0F7
:1006B00082E00895A091EB022191AC0145535D4F7A
:1006C000A40FB52FB11D2C930196861798F3809136
:1006D000EB02680F6093EB0280E0089581E00895DB
:1006E0001092450381E08093440310921F0361E060
:1006F00082E10E947D0261E083E10E947D02E9EBDC
:10070000F0E080818E7F808380818D7F808388E48C
:100710008093B80085E48093BC000895CF93DF9365
:1007200091E09093CA028823B9F0C091B800D091AB
:10073000BA008091BC008A7B8093BC0060E082E1BB
:100740000E947D0260E083E10E947D020E947003AE
:10075000D093BA00C093B800DF91CF910895CF92A3
:10076000DF92EF92FF920F931F93CF93DF93D0917D
:100770006E0381E0D13208F09CC0C0916D030E94ED
:10078000F1026B017C018091450381116CC082E014
:100790008093450381E0809344038FEF809343036C
:1007A00010924203D0934103ADE4B3E0E1E2F3E001
:1007B00080E0D8138DC01092200380912003CC0FCD
:1007C000C82BC093200380911F03813009F084C09F
:1007D00010921F030E94F1026B017C0180912003A3
:1007E0008093BB008091470390914803A0914903F7
:1007F000B0914A03892B8A2B8B2BA1F00E94F10226
:1008000000914703109148032091490330914A0316
:100810006C197D098E099F090617170728073907E4
:1008200008F442C08091BC0083FDD8CF85EC809352
:10083000BC000E94F1026B017C0180914503823073
:1008400009F44CC0809143038F3F09F469C0809143
:100850004303803209F466C080914303803309F476
:1008600063C084E026C08091470390914803A09123
:100870004903B0914A03892B8A2B8B2B09F483CF30
:100880000E94F1020091470310914803209149030F
:1008900030914A036C197D098E099F0906171707C5
:1008A0002807390708F06FCF809146030E948E0316
:1008B00085E010924C0310926E0310924B03DF916F
:1008C000CF911F910F91FF90EF90DF90CF900895FF
:1008D0009D9191938F5F6DCF85EEA9CF8091470356
:1008E00090914803A0914903B0914A03892B8A2B28
:1008F0008B2B09F4A2CF0E94F102009147031091C3
:1009000048032091490330914A036C197D098E09EF
:100910009F09061717072807390708F08ECFC4CF9D
:1009200080E0C7CF82E0C5CF83E0C3CF0895E091D8
:100930001C0380911B03E81730F4F0E0E655FD4FEF
:10094000808190E008958FEF9FEF089590911C03B0
:1009500080911B032FEF3FEF981748F4E92FF0E049
:10096000E655FD4F208130E09F5F90931C03C90145
:10097000089580911B0390911C03891B990B089586
:10098000CF92DF92EF92FF920F931F93CF93DF935B
:100990007C01CB018A0120914B03222389F0EB01DA
:1009A0006B01C40ED51ECC15DD0569F06991D70128
:1009B000ED91FC910190F081E02DC7010995F3CFF5
:1009C000642F0E944903C801DF91CF911F910F91BD
:1009D000FF90EF90DF90CF900895CF93DF931F9219
:1009E000CDB7DEB7698320914B032223F9F0209124
:1009F0006E03203258F021E030E0FC013383228383
:100A000090E080E00F90DF91CF91089580914C03AA
:100A1000E82FF0E0E35BFC4F998190838F5F809338
:100A20004C0380936E0381E090E0ECCF61E0CE0157
:100A300001960E944903F7CF682F8CE094E00C9454
:100A4000ED040F931F93CF93DF938C01EB0185E0AF
:100A50000E94090182E490E00E941C05C8010E94E6
:100A60001C05CE010E941C050E94AF036AE070E0E5
:100A700080E090E0DF91CF911F910F910C941603CD
:100A8000019709F03FC080910601909107018617F8
:100A9000970709F443C0709307016093060186E04D
:100AA0000E94090185E390E00E941C0580910601E7
:100AB000909107010E941C05809108019091090105
:100AC0000E941C0580910A0190910B010E941C0557
:100AD00080910C0190910D010E941C0580910E01E6
:100AE00090910F010E941C058091100190911101BD
:100AF0000E941C050E94AF036AE070E080E090E075
:100B00000C941603809108019091090168177907E8
:100B100029F07093090160930801C1CF08950F93E4
:100B20001F93CF93DF938B01C8E2D0E08130910512
:100B300031F0CAE2D0E0029711F4C9E2D0E086E0D9
:100B40000E940901CE010E941C05C8010E941C05DB
:100B50000E94AF036AE070E080E090E0DF91CF9107
:100B60001F910F910C94160390E080E008956DE7BB
:100B700070E08DE790E00E94210584EC95E0909371
:100B80001E0380931D0308950895CF92DF92EF9284
:100B9000FF926B017C016DE770E08DE790E00E94B1
:100BA0002105C701B601FF90EF90DF90CF900C9424
:100BB00016034F925F926F927F928F929F92AF92A5
:100BC000BF92CF92DF92EF92FF928FE00E94DC0201
:100BD0006091120170911301861797070CF4BC0104
:100BE0008091E8049091E904681B790B072E000CB2
:100BF000880B990B0E948A13209102013091030106
:100C000040910401509105010E94C5134B015C0104
:100C10006091000170910101072E000C880B990B67
:100C20000E948A136B017C01A50194010E94BB14F0
:100C30000E9427152B01A5019401C701B6010E944E
:100C4000BA140E942715CB01B2010E94210564E16C
:100C500070E080E090E0FF90EF90DF90CF90BF9049
:100C6000AF909F908F907F906F905F904F900C947B
:100C70001603FC0101900020E9F73197AF01481BF2
:100C8000590BBC018FE693E00C941501CF93DF93D1
:100C90000E944201EC018EE391E00E9439068C0F24
:100CA0009D1FDF91CF910895CF93DF930E94390666
:100CB000EC018EE391E00E9439068C0F9D1FDF91BD
:100CC000CF9108950F931F93CF93DF938C01EB0186
:100CD00081E491E00E945406B801C8010E942105F8
:100CE000BE01DD0F880B990BDF91CF911F910F9102
:100CF0000C9416036CEB72E080E590E00E946206B3
:100D00008EED98E090931E0380931D0308950F933A
:100D10001F93CF93DF93EC0188819981009759F05D
:100D20002A813B812617370730F081E0DF91CF9190
:100D30001F910F9108958B016F5F7F4F0E94D21614
:100D4000009759F0998388831B830A832C813D8106
:100D5000232B59F7FC011082E8CF80E0E7CFEF9218
:100D6000FF920F931F93CF93DF936115710541F4A9
:100D700080E0DF91CF911F910F91FF90EF90089548
:100D800041155105B1F07B01EC010C811D81040F6F
:100D9000151FB8010E948706882351F328813981E5
:100DA0008C819D81B701820F931F0E94A3171D8321
:100DB0000C8381E0DECFCF93DF93EC0188819981B2
:100DC000009711F00E944916198218821D821C8218
:100DD0001B821A82DF91CF910895CF93DF93EC01AC
:100DE000FB0101900020E9F73197AF01461B570B3B
:100DF0000E94AF06811103C0CE010E94DB06CE0126
:100E0000DF91CF910895CF93DF93EC01FB014481F3
:100E10005581608171810E94AF06811103C0CE01AE
:100E20000E94DB06CE01DF91CF910895EF92FF92F1
:100E30000F931F93CF93DF93EC017B018A01BA01DB
:100E40000E94870681110BC0CE010E94DB06CE01F5
:100E5000DF91CF911F910F91FF90EF9008951D8327
:100E60000C83B701888199810E94A317F0CFFB0101
:100E700001900020E9F73197AF01461B570B0C9406
:100E800016070F931F93CF93DF93CDB7DEB762970B
:100E90000FB6F894DEBF0FBECDBF8C01CB01F801B9
:100EA0001182108213821282158214824AE0BE01DE
:100EB0006F5F7F4F0E940711BE016F5F7F4FC801B8
:100EC0000E94370762960FB6F894DEBF0FBECDBF03
:100ED000DF91CF911F910F910895FC011182108233
:100EE0001382128215821482FB0101900020E9F71F
:100EF0003197AF01461B570B0C941607AF92BF9268
:100F0000CF92DF92EF92FF920F931F93CF93DF93D5
:100F10006C015B017A0189012417350720F48F2DBC
:100F20007901042F182F6CE272E0C6010E946D0750
:100F3000D5011496CD91DC91EC16FD06E0F40C176A
:100F40001D0708F4E801D501ED91FC911197EC0F14
:100F5000FD1F108110826D917C916E0D7F1DC60169
:100F600061157105A1F00E943707F501808191811B
:100F7000C80FD91F1883C601DF91CF911F910F9120
:100F8000FF90EF90DF90CF90BF90AF9008950E94B8
:100F9000DB06EBCFFC0180819181009711F00C946E
:100FA00049160895CF93DF93CDB7DEB72C970FB6D0
:100FB000F894DEBF0FBECDBF60E082E00E94AB02BE
:100FC00082E00E945402019779F56091A602709127
:100FD000A7026F5F7F4F7093A7026093A602CE01B6
:100FE00007960E9441076BE471E0CE0101960E94D2
:100FF0006D07BE01695F7F4FCE0101960E94030716
:101000006AE272E00E94ED060E944201CE01019662
:101010000E94CA07CE0107960E94CA076FE070E0DF
:101020008CE390E00E94620664E170E080E090E072
:101030000E9416032C960FB6F894DEBF0FBECDBFEC
:10104000DF91CF910895CF93DF93EC018091A802B7
:101050009091A9029E01281B390BC9018F3F3FEFD8
:10106000930709F448C0E4F48D3F3FEF930701F183
:10107000029609F44FC0D093A902C093A80287E951
:1010800091E00E9454068091A6029091A702181642
:1010900019060CF454C00E94D2070E94D905F3CF60
:1010A00082309105B9F18330910529F1019719F743
:1010B00062EC71E08CE390E00E94620689E791E0C7
:1010C0000E94540668ED7FEF88E290E00E942105BF
:1010D0006EEE72E080E090E00E9416036DE770E033
:1010E0008DE790E00E9421056CEB72E080E090E0DB
:1010F0000E94C505C0CF6CE271E08CE390E00E94D5
:10110000620683E891E00E94540668E270E088ED90
:101110009FEFDCCF60E971E08CE390E00E94620613
:101120008CE891E00E9454066CE97FEF84E690E041
:101130000E9421056AE174E080E090E0CDCF10923A
:10114000A7021092A602DF91CF91089585ED8093BA
:10115000BC008091470390914803A0914903B0914E
:101160004A030796A11DB11D23E0B695A795979553
:1011700087952A95D1F72091BC0024FD03C01092D9
:1011800045030895409147035091480360914903F6
:1011900070914A03452B462B472B69F30097A10515
:1011A000B10541F02AE22A95F1F700C00197A109A3
:1011B000B109E1CF809146030C948E032F923F92A8
:1011C0004F925F926F927F928F929F92AF92BF9257
:1011D000CF92DF92EF92FF920F931F93CF93DF9303
:1011E000CDB7DEB7E3970FB6F894DEBF0FBECDBF25
:1011F0000E94D2078091A6029091A70218161906A4
:10120000FCF082EA91E00E9439060E94D905E3963B
:101210000FB6F894DEBF0FBECDBFDF91CF911F9107
:101220000F91FF90EF90DF90CF90BF90AF909F9085
:101230008F907F906F905F904F903F902F90089588
:1012400086E090E09093A5028093A4021092A902F8
:101250001092A8021092A7021092A60264EA71E00E
:10126000CE018E960E946D071BA21AA21DA21CA27F
:101270001FA21EA26EA57FA56115710531F04AA9B6
:101280005BA9CE0182960E9416078EA19FA1892B91
:1012900009F45AC0CAA0DBA06CE270E0C6010E944B
:1012A0009817009709F450C07C01EC18FD08D12C68
:1012B000C12CA090A202B090A3028FEFE816F8060E
:1012C00009F444C09FE0A916B1040CF03FC0970197
:1012D000A601BE016E5D7F4FCE0101960E947E0782
:1012E00089819A81009761F10E94E01095012F5F3A
:1012F0003F4F3093A3022093A202F501EE0FFF1F90
:10130000EC57FD4F71836083CE0101960E94CA079E
:101310006701EFEFCE1ADE0A8EA19FA1C816D9068B
:10132000A8F4AAA0BBA06CE270E0C5018C0D9D1DC5
:101330000E949817009751F07C01EA18FB08B9CF7A
:1013400060E070E0CB01D2CFD12CC12CE090A202A2
:10135000F090A302FFE0EF16F10414F52EA13FA1D7
:10136000A601BE016E5D7F4FCE0101960E947E07F1
:1013700089819A81009729F10E94E01097012F5FDF
:101380003F4F3093A3022093A202F701EE0FFF1FFD
:10139000EC57FD4F71836083CE0101960E94CA070E
:1013A0002090A2023090A302F101EE0FFF1FEC5734
:1013B000FD4FC1018F30910544F4119211920196B5
:1013C000F9CF60E070E0CB01D9CFCE0182960E94C8
:1013D000CA079AE0492E512C612C712C6091A2020F
:1013E0007091A302161617060CF071C1CE0101967A
:1013F0000E94410764EB71E0CE0182960E946D0766
:10140000BE016F5F7F4FCE0182960E9403070E944C
:101410004606CE0182960E94CA07CE0101960E941E
:10142000CA078091A2029091A302F101E81BF90B77
:10143000EE0FFF1FEC57FD4F0190F081E02D31972B
:10144000EB30F10588F4E95DF54F0C9493151A0B18
:10145000320A050B340A080B0B0B0E0B340A110B66
:10146000140B170B03E010E0E090A402F090A5022B
:101470008DEB91E00E943906C70163E070E00E94A5
:101480005D156B015C01BC01CE0101960E94410714
:10149000B601CE0182960E9441076AEC71E0CE014E
:1014A00088960E946D07BE016E5D7F4FCE018896C3
:1014B0000E94030760ED71E00E94ED06BE016F5FC0
:1014C0007F4F0E94030766EC71E00E94ED060E94C8
:1014D0004201CE0188960E94CA07CE0182960E94E0
:1014E000CA07CE0101960E94CA07C80163E070E0F6
:1014F0000E945D154B017C01BC01CE0101960E944A
:101500004107B401CE0182960E94410762ED71E06D
:10151000CE0188960E946D07BE016E5D7F4FCE01A1
:1015200088960E94030760ED71E00E94ED06BE01FF
:101530006F5F7F4F0E94030766EC71E00E94ED062B
:101540000E944201CE0188960E94CA07CE0182966F
:101550000E94CA07CE0101960E94CA07C818D9087E
:101560002AE02C9DC0012D9D900D1124EA18FB0846
:10157000E80EF91E47010F2C000CAA08BB08B7FEA5
:101580005CC06DE28FE693E00E94BE012227332704
:10159000A901281939094A095B0919A2CE018196C6
:1015A0006C01CA01B901A30192010E947115605D2D
:1015B000F60162936F01211531054105510589F747
:1015C000C114D10419F0C6010E9439068EE391E0DE
:1015D0000E9439061093A5020093A402E114F104BD
:1015E00009F450C00CF03FC0F6EFEF16FFEFFF0616
:1015F00009F466C0EF20E09409F45BC060EA76E885
:1016000081E090E00E94C5054AC010E000E02CCFC8
:1016100007E010E029CF04E010E026CF01E010E061
:1016200023CF08E010E020CF05E010E01DCF02E05E
:1016300010E01ACF06E010E017CFA501940119A21F
:10164000CE0181966C01CA01B901A30192010E94E9
:101650007115605DF60162936F0121153105410539
:10166000510589F7ADCF91E0E916F10481F0EAE088
:10167000EE16F10419F68AEF91E00E94540690E00C
:1016800080E00BC086ED91E00E945406B7CF82EE59
:1016900091E00E94540681E090E00E94230880912E
:1016A000A2029091A30201979093A3028093A202B9
:1016B00095CE8EEE91E00E94540683E090E0EDCF4F
:1016C00087E092E00E94540682E090E0E6CFE4E8F2
:1016D000F2E082EA92E0119211928E179F07D9F7F9
:1016E00087EB95E090931E0380931D03CE018E96A9
:1016F0000E94CA078CCD1F920F920FB60F92112431
:101700002F933F934F935F936F937F938F939F9309
:10171000AF93BF93EF93FF938FE693E00E949C01FA
:10172000FF91EF91BF91AF919F918F917F916F91B9
:101730005F914F913F912F910F900FBE0F901F908F
:1017400018951F920F920FB60F9211242F938F931B
:101750009F93EF93FF93E0917F03F091800380814B
:10176000E0918503F091860382FD1BC090818091FA
:1017700088038F5F8F7320918903821741F0E09176
:101780008803F0E0E159FC4F958F80938803FF9127
:10179000EF919F918F912F910F900FBE0F901F90FF
:1017A00018958081F4CF1F920F920FB60F921124DB
:1017B0002F933F938F939F93AF93BF9380910F038A
:1017C00090911003A0911103B091120330910E0378
:1017D00023E0230F2D3758F50196A11DB11D20934D
:1017E0000E0380930F0390931003A0931103B09303
:1017F00012038091130390911403A0911503B091EB
:1018000016030196A11DB11D809313039093140339
:10181000A0931503B0931603BF91AF919F918F9141
:101820003F912F910F900FBE0F901F90189526E8B3
:10183000230F0296A11DB11DD2CF1F920F920FB69A
:101840000F9211242F933F934F935F936F937F9346
:101850008F939F93AF93BF93EF93FF938091B900C2
:10186000887F803609F44AC0F0F5883209F4A7C0B1
:1018700018F5803109F49BC0B8F4882309F4F9C045
:10188000883009F494C0FF91EF91BF91AF919F917F
:101890008F917F916F915F914F913F912F910F9019
:1018A0000FBE0F901F901895883109F488C08032C0
:1018B00051F78093430314C0803409F49DC040F471
:1018C0008033B9F38833F9F68093430385ECB0C0D5
:1018D000803509F485C0883509F496C0883499F6B6
:1018E0000E94A608D0CF883909F48CC038F5883713
:1018F00029F050F4883611F0803729F683E0809380
:10190000450310920D0357C0883809F47BC0803915
:1019100019F0803809F0B7CF80910D03803208F0BC
:1019200071C0E0910D0381E08E0F80930D038091D3
:10193000BB00F0E0E351FD4F80833DC0803B39F0B8
:10194000E0F4803A09F479C0883A09F09CCF84E049
:10195000809345031092EC021092EB02E091190380
:10196000F0911A0309958091EB0281110FC081E07B
:101970008093EB021092CB0209C0803C09F4A6CF01
:10198000883C09F4A3CF883B09F07DCFE091EC02BD
:1019900081E08E0F8093EC02F0E0E553FD4F8081F3
:1019A0008093BB009091EC028091EB0229C0809162
:1019B00020038093BB0085EC8093BC0064CF9091A2
:1019C000420380914103981758F5E091420381E06A
:1019D0008E0F80934203F0E0EF5DFC4F8081E9CFF2
:1019E000E091420381E08E0F809342038091BB001F
:1019F000F0E0EF5DFC4F80839091420380914103C2
:101A00009817C8F285E8D8CFE091420381E08E0FA5
:101A1000809342038091BB00F0E0EF5DFC4F808338
:101A20008091440381115CCF81E080931F0384EA9D
:101A30008093BC001092450326CF85EC8093BC00B8
:101A40001092450380910D03803230F4E0910D0334
:101A5000F0E0E351FD4F108260910D0370E0E091E2
:101A60001703F09118038DEE92E0099510920D0383
:101A70000ACF1092430334CF109272031092710375
:101A800088EE93E0A0E0B0E080937303909374033A
:101A9000A0937503B09376032EE131E03093700389
:101AA00020936F0325EC30E030937C0320937B037D
:101AB00024EC30E030937E0320937D0320EC30E073
:101AC0003093800320937F0321EC30E03093820336
:101AD0002093810322EC30E030938403209383032E
:101AE00026EC30E030938603209385031092880320
:101AF0001092890310928A0310928B0310920F04A4
:101B000010920E048093100490931104A093120479
:101B1000B093130480E391E090930D0480930C0440
:101B20002091120130911301C901439697FD01964E
:101B30009595879501969093E9048093E80484E64F
:101B400090E0A0E0B0E080931C0490931D04A0936B
:101B50001E04B0931F0410922504109224041092C6
:101B6000A7041092A604109219041092180410925F
:101B70001B0410921A048FEF8093A8048FEF9FEF3D
:101B80009093AA048093A9049093AC048093AB042F
:101B90009093AE048093AD049093B0048093AF040F
:101BA0009093B2048093B1040895CF93DF93CDB79F
:101BB000DEB7E9970FB6F894DEBF0FBECDBF7894BD
:101BC00084B5826084BD84B5816084BD85B5826042
:101BD00085BD85B5816085BD80916E0081608093F3
:101BE0006E0010928100809181008260809381005C
:101BF000809181008160809381008091800081606C
:101C0000809380008091B10084608093B1008091C6
:101C1000B00081608093B00080917A0084608093EE
:101C20007A0080917A00826080937A0080917A00B5
:101C3000816080937A0080917A00806880937A0036
:101C40001092C10010921C0310921B0310924C03BF
:101C500010926E030E94700383E191E090931A0347
:101C60008093190384E191E0909318038093170304
:101C700064EF71E080E090E00E94160385E00E942E
:101C8000090187E290E00E941C050E94AF036AE010
:101C900070E080E090E00E94160386E00E94090157
:101CA00087E290E00E941C050E94AF036AE070E0AA
:101CB00080E090E00E94160381E00E94090187E223
:101CC00090E00E941C050E94AF036AE070E080E093
:101CD00090E00E94160382E00E94090187E290E0F2
:101CE0000E941C050E94AF036AE070E080E090E073
:101CF0000E94160383E00E94090187E290E00E949F
:101D00001C050E94AF036AE070E080E090E00E9452
:101D1000160384E00E94090187E290E00E941C05FE
:101D20000E94AF036AE070E080E090E00E9416033A
:101D300061E087E00E94AB0261E087E00E947D02E3
:101D400060E088E00E94AB0288E00E945402892B88
:101D5000B9F761E087E00E94AB0260E087E00E9493
:101D60007D0285E00E94090187E290E00E941C0547
:101D70000E94AF036AE070E080E090E00E941603EA
:101D800086E00E94090187E290E00E941C050E9403
:101D9000AF036AE070E080E090E00E94160381E00B
:101DA0000E94090187E290E00E941C050E94AF0397
:101DB0006AE070E080E090E00E94160382E00E94FA
:101DC000090187E290E00E941C050E94AF036AE0CF
:101DD00070E080E090E00E94160383E00E94090119
:101DE00087E290E00E941C050E94AF036AE070E069
:101DF00080E090E00E94160384E00E94090187E2DF
:101E000090E00E941C050E94AF036AE070E080E051
:101E100090E00E94160368EE73E080E090E00E947C
:101E2000160385E00E94090185E290E00E941C05EE
:101E30000E94AF036AE070E080E090E00E94160329
:101E400086E00E94090185E290E00E941C050E9444
:101E5000AF036AE070E080E090E00E94160381E04A
:101E60000E94090185E290E00E941C050E94AF03D8
:101E70006AE070E080E090E00E94160382E00E9439
:101E8000090185E290E00E941C050E94AF036AE010
:101E900070E080E090E00E94160383E00E94090158
:101EA00085E290E00E941C050E94AF036AE070E0AA
:101EB00080E090E00E94160384E00E94090185E220
:101EC00090E00E941C050E94AF036AE070E080E091
:101ED00090E00E941603E0917F03F091800382E07E
:101EE0008083E0917B03F0917C031082E0917D037D
:101EF000F0917E038FEC808310928703E09183033F
:101F0000F091840386E08083E0918103F091820365
:101F1000808180618083E0918103F09182038081E0
:101F200088608083E0918103F091820380818068E2
:101F30008083E0918103F091820380818F7D808393
:101F400085E00E94090181E590E00E941C0581E086
:101F500090E00E941C050E94AF036AE070E080E000
:101F600090E00E9416036CE370E081E090E00E9434
:101F70008F056CE370E082E090E00E948F056AE0DC
:101F800070E083E090E00E948F056EE670E081E0F3
:101F900090E00E94400563E270E082E090E00E94E1
:101FA000400584E192E00E94390680E00E94DC0254
:101FB000880F991F64E670E00E945D158B01BC01DB
:101FC000CE0101960E944107B801CE0182960E947F
:101FD00041076DE272E0CE0188960E946D07BE0156
:101FE0006E5D7F4FCE0188960E94030762EA71E022
:101FF0000E94ED06BE016F5F7F4F0E9403076CE3F6
:1020000072E00E94ED060E944606CE0188960E946C
:10201000CA07CE0182960E94CA07CE0101960E948D
:10202000CA0780E090E0A0E4B0E4809302019093BE
:102030000301A0930401B09305018CE390E0909319
:1020400001018093000188E290E090931301809356
:10205000120183E290E09093E9048093E8048EE318
:1020600092E00E94540660910201709103018091F8
:102070000401909105011DAA1CAA1FAA1EAA19AE4F
:1020800018AE8E010F5F1F4F22E044E00E94C21085
:10209000009709F472C0BC01CE01C4960E943707B4
:1020A0006091000170910101CE018E960E9441075E
:1020B0006091E8047091E904CE0188960E9441077E
:1020C0006091120170911301CE0182960E94410726
:1020D00062E572E0CE0101960E946D07BE016E5D61
:1020E0007F4FCE0101960E9403076DE572E00E94CA
:1020F000ED06BE01685D7F4F0E9403076AE672E04D
:102100000E94ED06BE01625D7F4F0E9403076BE7F0
:1021100072E00E94ED06BE016C5C7F4F0E940307D7
:102120000E944606CE0101960E94CA07CE01829601
:102130000E94CA07CE0188960E94CA07CE018E96D9
:102140000E94CA07CE01C4960E94CA078AE796E099
:1021500090931E0380931D0300E010E0E0911D03A7
:10216000F0911E03099501151105C1F30E94880124
:102170008823A1F30E940000F1CFCE01C4960E94F3
:10218000DB068ECFEF920F931F93CF93DF93E8017F
:1021900034E047FD34E1042E000C550B57FF03C01B
:1021A000519541955109E32E022F242FAE010E9433
:1021B0004111CE01DF91CF911F910F91EF900895C2
:1021C0001F93FC0199278827BC01E89411911032D4
:1021D000E9F3193010F01E30C8F31B3251F01D32F4
:1021E00049F4689406C00E941211610F711D811D8F
:1021F000911D119110531A30B0F33EF490958095D3
:10220000709561957F4F8F4F9F4F1F910895BB270A
:102210004A3031F4992322F4BDE2909581959F4F85
:102220000C942811592F482F372F262F660F771F10
:10223000881F991F660F771F881F991F620F731FD2
:10224000841F951F660F771F881F991F0895BB274E
:10225000FB015527AA27880F991FAA1FA41710F062
:10226000A41B83955051B9F7A05DAA3308F0A95D6E
:10227000A193009779F7B111B1931192CB010C940E
:102280007813A9E0B0E0E7E4F1E10C9489146A0165
:10229000F22EB02E102FFBE3AF2EA01608F41BE396
:1022A0001F5F012F27E0AE014F5F5F4F0E94A0121A
:1022B000BC018981982F9970913009F43FC09BE24D
:1022C000E1FC04C09E2D9170E0FC3AC05E2D50717F
:1022D000E82FE87083FF46C084E0911101C083E0DD
:1022E000EF2DE81B8F1508F0E0E0D6018E2F20E2DD
:1022F000552351F1992329F0D6019C93C6010196EB
:102300006C0196012D5F3F4FE2FE24C08EE4D601A2
:102310008C9391E411969C93119712968C93D9010A
:102320008E2F90E281111BC0E20FF32FF11D10825E
:102330008EEF9FEF2996ECE00C94A5149DE2C6CF9A
:1023400090E2C4CF2D9381508111FCCFCE0ED11CD1
:10235000E0E0D0CF8EE6D6018C9391E6DBCF9D9363
:102360008150E0CF482F447082FF3DC084E091113E
:1023700001C083E08F1510F4EF2DE81BD6018E2FDE
:1023800020E2552309F1992329F0D6019C93C60137
:1023900001966C0196012D5F3F4FE2FE1BC089E460
:1023A000D6018C938EE411968C93119786E4129645
:1023B0008C93D9018E2F90E2882309F4B5CF9D9399
:1023C0008150FACF2D9381508111FCCFCE0ED11CBC
:1023D000E0E0D9CF89E6D6018C938EE611968C93F6
:1023E000119786E6E4CF9B0177FF02C030E020E042
:1023F000A1E0B0E0911102C0B0E0A0E0F901319697
:10240000AE0FBF1F8B2C912CBB2009F461C054016F
:10241000EFEFAE1ABE0AAA0DBB1DFA161B0619F085
:1024200014F04F2D4A1B511188C0E3FC59C07601AE
:10243000A42FB0E2A1114FC0C40ED11C992309F4FE
:102440005BC040E0D6011196F60190836D015523E3
:1024500009F448C0012F060F9A81582F507184FF4C
:1024600003C0913309F4015010160CF047C0093035
:1024700008F008E0EEE2FE2E5B01A01AB10885012B
:102480009194819491082F3F320729F4D601FC9250
:10249000F60131966F016217730794F10217130763
:1024A0007CF5DB01A21BB30BAA24A394B12CAC0EC8
:1024B000BD1EAA0DBB1D11968C9121503109D6016C
:1024C000119628153905F4F0F60180836D01DBCFF4
:1024D000B12CA12CA0CFF701B1937F01A150AACFBD
:1024E0009111B0CFD601942F50E302C05D9391506B
:1024F0009111FCCFC40ED11C40E0ACCF01E0BACFAB
:1025000080E3DBCF6217730731F4963388F4953399
:1025100011F4552369F0F6018083FD01842F90E2C8
:10252000811108C0A40FB11D1C9290E080E002CF81
:1025300081E3F1CF91938150F3CF911183CF8ACF73
:10254000283008F027E03327DA01990F311D87FD85
:10255000916000966105710539F432602E5F3D93FC
:1025600030E32A95E1F708959F3F30F080387105F8
:10257000610509F03C5F3C5F3D93913008F0806855
:10258000911DDF93CF931F930F93FF92EF92192F1B
:10259000987F9695E92F96959695E90FFF27EE532C
:1025A000FF4F99273327EE24FF24A701E701059069
:1025B0000894079428F4360FE71EF81E491F511D92
:1025C000660F771F881F991F0694A1F7059007943F
:1025D00028F4E70EF81E491F561FC11D770F881FEC
:1025E000991F661F0694A1F70590079428F4F80E2A
:1025F000491F561FC71FD11D880F991F661F771FC0
:102600000694A1F70590079420F4490F561FC71FA1
:10261000D81F990F661F771F881F0694A9F784910A
:102620001095177041F0D695C79557954795F79433
:10263000E7941A95C1F7E8E6F0E0689415901591D3
:1026400035916591959105907FE27395E118F10AB6
:10265000430B560BC90BD009C0F7E10CF11E431F09
:10266000561FC91FD01D7EF4703311F48A95E6CF32
:10267000E894015030F0080F0AF40027021708F41C
:10268000202F2395022F7A3328F079E37D932A9522
:10269000E9F710C07D932A9589F60694979567957A
:1026A000379517951794E118F10A430B560BC90B90
:1026B000D00998F023957E9173957A3308F070E3F2
:1026C0007C932013B8F77E9170617D9330F08395F1
:1026D00071E37D9370E32A95E1F71124EF90FF9069
:1026E0000F911F91CF91DF91992787FD90950895C4
:1026F000DC01FC01672F71917723E1F7329704C069
:102700007C916D9370836291AE17BF07C8F30895F3
:10271000E89409C097FB3EF490958095709561957B
:102720007F4F8F4F9F4F9923A9F0F92F96E9BB2731
:102730009395F695879577956795B795F111F8CFAD
:10274000FAF4BB0F11F460FF1BC06F5F7F4F8F4F18
:102750009F4F16C0882311F096E911C0772321F00E
:102760009EE8872F762F05C0662371F096E8862FA6
:1027700070E060E02AF09A95660F771F881FDAF7FD
:10278000880F9695879597F908950E94D8130C9411
:1027900049140E943B1438F00E94421420F0952303
:1027A00011F00C9432140C94381411240C947D14F0
:1027B0000E945A1470F3959FC1F3950F50E0551F76
:1027C000629FF001729FBB27F00DB11D639FAA2786
:1027D000F00DB11DAA1F649F6627B00DA11D661FD5
:1027E000829F2227B00DA11D621F739FB00DA11DF6
:1027F000621F839FA00D611D221F749F3327A00DB0
:10280000611D231F849F600D211D822F762F6A2F4B
:1028100011249F5750409AF0F1F088234AF0EE0FB0
:10282000FF1FBB1F661F771F881F91505040A9F7DD
:102830009E3F510580F00C9432140C947D145F3F40
:10284000E4F3983ED4F3869577956795B795F79519
:10285000E7959F5FC1F7FE2B880F911D9695879591
:1028600097F9089597F99F6780E870E060E0089510
:102870009FEF80EC089500240A9416161706180698
:102880000906089500240A94121613061406050674
:102890000895092E0394000C11F4882352F0BB0F05
:1028A00040F4BF2B11F460FF04C06F5F7F4F8F4F68
:1028B0009F4F089557FD9058440F551F59F05F3FA3
:1028C00071F04795880F97FB991F61F09F3F79F052
:1028D00087950895121613061406551FF2CF4695D4
:1028E000F1DF08C0161617061806991FF1CF869556
:1028F0007105610508940895E894BB27662777273A
:10290000CB0197F908952F923F924F925F926F9269
:102910007F928F929F92AF92BF92CF92DF92EF926F
:10292000FF920F931F93CF93DF93CDB7DEB7CA1BF0
:10293000DB0B0FB6F894DEBF0FBECDBF09942A881B
:10294000398848885F846E847D848C849B84AA84C3
:10295000B984C884DF80EE80FD800C811B81AA8150
:10296000B981CE0FD11D0FB6F894DEBF0FBECDBF1B
:10297000ED0108955058BB27AA270E94D2140C9449
:1029800049140E943B1438F00E94421420F039F49C
:102990009F3F19F426F40C9438140EF4E095E7FBED
:1029A0000C943214E92F0E945A1458F3BA17620794
:1029B00073078407950720F079F4A6F50C947C142E
:1029C0000EF4E0950B2EBA2FA02D0B01B90190014A
:1029D0000C01CA01A0011124FF27591B99F0593F8E
:1029E00050F4503E68F11A16F040A22F232F342FD6
:1029F0004427585FF3CF469537952795A795F04024
:102A00005395C9F77EF41F16BA0B620B730B840B38
:102A1000BAF09150A1F0FF0FBB1F661F771F881FF0
:102A2000C2F70EC0BA0F621F731F841F48F4879548
:102A300077956795B795F7959E3F08F0B0CF93953A
:102A4000880F08F09927EE0F9795879508950E94B3
:102A50002E156894B1110C947D1408950E9462148F
:102A600088F09F5798F0B92F9927B751B0F0E1F04F
:102A7000660F771F881F991F1AF0BA95C9F714C0FF
:102A8000B13091F00E947C14B1E008950C947C1454
:102A9000672F782F8827B85F39F0B93FCCF3869538
:102AA00077956795B395D9F73EF490958095709595
:102AB00061957F4F8F4F9F4F089597FB072E16F418
:102AC000009407D077FD09D00E94991507FC05D026
:102AD0003EF4909581959F4F0895709561957F4F35
:102AE0000895A1E21A2EAA1BBB1BFD010DC0AA1F4F
:102AF000BB1FEE1FFF1FA217B307E407F50720F067
:102B0000A21BB30BE40BF50B661F771F881F991FE1
:102B10001A9469F760957095809590959B01AC012A
:102B2000BD01CF010895EE0FFF1F0590F491E02D38
:102B30000994AA1BBB1B51E107C0AA1FBB1FA61704
:102B4000B70710F0A61BB70B881F991F5A95A9F756
:102B500080959095BC01CD0108950F931F93CF935D
:102B6000DF938230910510F482E090E0E091EC0474
:102B7000F091ED0430E020E0B0E0A0E0309799F46F
:102B80002115310509F44AC0281B390B24303105C1
:102B9000D8F58A819B816115710589F1FB019383C9
:102BA0008283FE0111C04081518102811381481747
:102BB0005907E0F04817590799F4109761F01296F9
:102BC0000C93129713961C933296CF01DF91CF91FD
:102BD0001F910F9108950093EC041093ED04F4CF2E
:102BE0002115310551F04217530738F0A901DB01D7
:102BF0009A01BD01DF01F801C1CFEF01F9CF909338
:102C0000ED048093EC04CDCFFE01E20FF31F81931E
:102C100091932250310939832883D7CF2091EA0438
:102C20003091EB04232B41F42091160130911701D0
:102C30003093EB042093EA042091140130911501A4
:102C40002115310541F42DB73EB74091180150913F
:102C50001901241B350BE091EA04F091EB04E21713
:102C6000F307A0F42E1B3F0B2817390778F0AC01AF
:102C70004E5F5F4F2417350748F04E0F5F1F50938C
:102C8000EB044093EA04819391939FCFF0E0E0E05E
:102C90009CCFCF93DF930097E9F0FC01329713822A
:102CA0001282A091EC04B091ED04ED0130E020E03F
:102CB0001097A1F420813181820F931F2091EA04A3
:102CC0003091EB042817390709F061C0F093EB0449
:102CD000E093EA04DF91CF910895EA01CE17DF0770
:102CE000E8F54A815B819E0141155105B1F7E90183
:102CF000FB83EA8349915991C40FD51FEC17FD0757
:102D000061F4808191810296840F951FE901998376
:102D10008883828193819B838A83F0E0E0E012962E
:102D20008D919C9113970097B9F52D913C91119736
:102D3000CD010296820F931F2091EA043091EB049B
:102D40002817390739F6309751F51092ED04109293
:102D5000EC04B093EB04A093EA04BCCFD383C2830A
:102D600040815181840F951FC817D90761F44E5FC8
:102D70005F4F88819981480F591F518340838A8111
:102D80009B81938382832115310509F0B0CFF093A5
:102D9000ED04E093EC049ECFFD01DC01C0CF138273
:102DA0001282D7CFB0E0A0E0E8EDF6E10C948514F4
:102DB0008C01009751F4CB010E94AD158C01C80124
:102DC000CDB7DEB7E0E10C94A114FC01E60FF71FCC
:102DD0009C0122503109E217F30708F49DC0D90184
:102DE000CD91DC911197C617D70798F0C530D10562
:102DF00030F3CE0104978617970708F3C61BD70B4D
:102E00002297C193D1936D937C93CF010E94491671
:102E1000D6CF5B01AC1ABD0A4C018C0E9D1EA09151
:102E2000EC04B091ED04512C412CF12CE12C1097C5
:102E300031F58091EA049091EB048815990509F029
:102E40005CC04616570608F058C080911401909156
:102E50001501009741F48DB79EB74091180150912C
:102E60001901841B950BE817F90708F055C0F0937A
:102E7000EB04E093EA04F90171836083A0CF8D91A4
:102E80009C91119712966C90129713967C901397C1
:102E9000A815B90559F56C0142E0C40ED11CCA143D
:102EA000DB0420F1AC014A195B09DA01129615978F
:102EB00080F06282738251834083D9016D937C9349
:102EC000E114F10471F0D7011396FC93EE9312977D
:102ED00076CF22968C0F9D1FF90191838083F30199
:102EE000EFCFF093ED04E093EC0469CF4816590658
:102EF00008F42C017D01D3019ACFCB010E94AD15BE
:102F00007C01009749F0AE01B8010E948F17C801FB
:102F10000E944916870153CF10E000E050CFFB011B
:102F2000DC0102C001900D9241505040D8F7089545
:102F3000FC018191861721F08823D9F799270895FC
:102F40003197CF010895FB01DC0101900D92002023
:102F5000E1F70895F894FFCF0A009A99B93F5A0013
:102F60005A005A005A005A005A001A000000EE0493
:102F7000800000000000BE0115014B010B027C0126
:102F80005A016E0100000000ED04C004B40596046F
:102F9000B904A60497040D0A00476F466F72776163
:102FA0007264000A0A5B5B5B696E746572736563C9
:102FB00074696F6E4445544543545D5D5D20696E90
:102FC00074657273656374696F6E434E54203A2062
:102FD000005475726E5269676E74005475726E4C4F
:102FE000656674005475726E41726F756E64006D23
:102FF0006F76655F316E6F6465002E00322C332C66
:10300000372C31312C31302C362C35006D6F7665F4
:10301000434E543A004E4F44455F6D6F7665202F06
:10302000200066726F6D3A002C00746F3A006D6F6D
:103030007665203A2073746179006D6F7665203A69
:103040002045415354006D6F7665203A2057455313
:1030500054006D6F7665203A204E4F525448006DF3
:103060006F7665203A20534F555448000A0A5B5B3F
:103070005B5B524541445920544F20524F4C4C5DAC
:103080005D5D0A0A0062617474566F6C74616765F5
:10309000203A200056000A4C696E655472616365DF
:1030A0002053657474696E673A0069724461746193
:1030B0004D41583A0020207468726573686F6C64E3
:1030C0003A00202064656661756C745F7370656595
:0C30D000643A0020206761696E3A00003D
:107E0000112484B714BE81FFF0D085E080938100F7
:107E100082E08093C00088E18093C10086E0809377
:107E2000C20080E18093C4008EE0C9D0259A86E02C
:107E300020E33CEF91E0309385002093840096BBD3
:107E4000B09BFECF1D9AA8958150A9F7CC24DD24C4
:107E500088248394B5E0AB2EA1E19A2EF3E0BF2EE7
:107E6000A2D0813461F49FD0082FAFD0023811F036
:107E7000013811F484E001C083E08DD089C08234E0
:107E800011F484E103C0853419F485E0A6D080C0E4
:107E9000853579F488D0E82EFF2485D0082F10E0AE
:107EA000102F00270E291F29000F111F8ED06801E7
:107EB0006FC0863521F484E090D080E0DECF843638
:107EC00009F040C070D06FD0082F6DD080E0C81688
:107ED00080E7D80618F4F601B7BEE895C0E0D1E017
:107EE00062D089930C17E1F7F0E0CF16F0E7DF06D8
:107EF00018F0F601B7BEE89568D007B600FCFDCFD4
:107F0000A601A0E0B1E02C9130E011968C91119780
:107F100090E0982F8827822B932B1296FA010C0160
:107F200087BEE89511244E5F5F4FF1E0A038BF0790
:107F300051F7F601A7BEE89507B600FCFDCF97BE46
:107F4000E89526C08437B1F42ED02DD0F82E2BD052
:107F50003CD0F601EF2C8F010F5F1F4F84911BD097
:107F6000EA94F801C1F70894C11CD11CFA94CF0C13
:107F7000D11C0EC0853739F428D08EE10CD085E9AC
:107F80000AD08FE07ACF813511F488E018D01DD067
:107F900080E101D065CF982F8091C00085FFFCCF94
:107FA0009093C60008958091C00087FFFCCF809118
:107FB000C00084FD01C0A8958091C6000895E0E648
:107FC000F0E098E1908380830895EDDF803219F02E
:107FD00088E0F5DFFFCF84E1DECF1F93182FE3DFCA
:107FE0001150E9F7F2DF1F91089580E0E8DFEE27F6
:047FF000FF270994CA
:027FFE00040479
:00000001FF
