:100000000C9419020C9441020C9441020C9441028C
:100010000C9441020C9441020C9441020C94410254
:100020000C9441020C9441020C9441020C94410244
:100030000C9441020C9441020C9441020C94410234
:100040000C94CC130C9441020C949A130C947413DA
:100050000C9441020C9441020C9441020C94410214
:100060000C9416140C94410200407A10F35A00A02C
:10007000724E18090010A5D4E80000E87648170071
:1000800000E40B54020000CA9A3B000000E1F505B1
:10009000000080969800000040420F000000A086FB
:1000A00001000000102700000000E803000000002D
:1000B0006400000000000A000000000001000000D1
:1000C00000002C76D888DC674F0823DFC1DFAE59EB
:1000D000E1B1B796E5E3E453C63AE651997696E87E
:1000E000E6C28426EB898C9B62ED407C6FFCEFBC02
:1000F0009C9F40F2BAA56FA5F490055A2AF75C932D
:100100006B6CF9676DC11BFCE0E40D47FEF520E662
:10011000B500D0ED902E0300943577050080841E45
:10012000080000204E0A000000C80C333333330FA0
:10013000986E12831141EF8D2114893BE65516CF3D
:10014000FEE6DB18D1844B381BF77C1D901DA4BB49
:10015000E424203284725E228100C9F124ECA1E5FE
:100160003D27736F6E69632064617461203A2000DB
:10017000426C6F636B2049443D0064657465637431
:100180006564206964203A20004F626A65637420C8
:10019000434E54203E3D2032202F20004F626A659E
:1001A000637420434E54203D3D2031202F200021F8
:1001B000212143616E204465746563746564212167
:1001C000210021212143616E20417070726F6163B3
:1001D00068212121005475726E43616C69620020B0
:1001E0005D5D002064617461203A20005B5B4E4FCE
:1001F000444500202E20000A4E4F444520444154DF
:1002000041205052494E54006D6F76655F316E6FDC
:100210006465006D6F7665203A20534F5554480051
:100220006D6F7665203A204E4F525448006D6F76C0
:1002300065203A2057455354006D6F7665203A206B
:1002400045415354006D6F7665203A20737461798F
:1002500000202F20002C00202F20746F3A002C004B
:100260004E4F44455F6D6F7665202F2066726F6D2F
:100270003A006D6F7665434E543A0000000000244A
:100280000027002A0000000000250028002B0000A5
:100290000000080002010000030407000000000045
:1002A000000000426567696E206661696C656421C3
:1002B00000205D00475245454E00202F20526574B6
:1002C00075726E20746F203A20004D4F4E53544586
:1002D0005200202F2041766F6964203A2000434F5E
:1002E0004C41005B20546172676574203A20004DD8
:1002F000697373696F6E2044617461205265636530
:10030000766564203A3A20000A0A5B5B5B536574A9
:1003100075702046696E6973685D5D5D0A0A000A42
:100320000A5B5B5B53657475702053746172745D16
:100330005D5D0A0A003E3E3E2041742053746172A6
:1003400074696E6720506F736974696F6E00736FA4
:100350006E69632064617461203A2000736F6E6976
:10036000632064617461203A20003E3E3E20434891
:1003700045434B2046554E43203A3A206368656317
:100380006B5F4E4F4445362C3130003E3E3E20439D
:100390004845434B2046554E43203A3A2063686512
:1003A000636B5F4E4F4445352C39004E4F44453307
:1003B0002032004E4F4445332031003E3E3E204324
:1003C0004845434B2046554E43203A3A20636865E2
:1003D000636B5F4E4F444533004D697373696F6EB5
:1003E0002053746172742121210000000000230059
:1003F0002600290004040404040404040202020286
:1004000002020303030303030102040810204080D7
:100410000102040810200102040810204C696E65D6
:1004200054726163652053657474696E673A0000A5
:100430007A1511241FBECFEFD8E0DEBFCDBF25E077
:10044000A0E4B2E001C01D92AC3BB207E1F712E0BC
:10045000A0E0B1E0E4ECF3E402C005900D92A0341A
:10046000B107D9F712E0C9E1D2E004C02197FE013B
:100470000E94D41FC831D107C9F70E941F160C94DF
:10048000E0210C94000091E09093380480933704AD
:1004900010923604109235040895809131059091A0
:1004A00032052091EE043091EF04821793070CF48B
:1004B0009C013093EF042093EE04821B930B08956C
:1004C00020913105309132056217730794F426E0CC
:1004D000660F771F2A95E1F7E0917005F09171059D
:1004E000E60FF71F20E4DC0101900D922A95E1F759
:1004F000089520E4E2E7F5E0F6CF08950895AF927D
:10050000BF92CF92DF92EF92FF920F931F93CF9300
:10051000DF936C017B018B01040F151FEB015E0162
:10052000AE18BF08C017D10759F06991D601ED91F7
:10053000FC910190F081E02DC6010995892B79F796
:10054000C501DF91CF911F910F91FF90EF90DF9048
:10055000CF90BF90AF900895FC01538D448D252F0F
:1005600030E0842F90E0821B930B541710F0CF964D
:10057000089501970895FC01918D828D981761F07F
:10058000A28DAE0FBF2FB11D5D968C91928D9F5F96
:100590009F73928F90E008958FEF9FEF0895FC0175
:1005A000918D828D981731F0828DE80FF11D858D28
:1005B00090E008958FEF9FEF0895FC01918D228DBB
:1005C000892F90E0805C9F4F821B91098F73992740
:1005D000089589E394E00E94DD0221E0892B09F46B
:1005E00020E0822F089580E090E0892B29F00E947E
:1005F000E90281110C9400000895FC01A48DA80F5C
:10060000B92FB11DA35ABF4F2C91848D90E0019654
:100610008F739927848FA689B7892C93A089B18974
:100620008C91837080648C93938D848D981306C015
:100630000288F389E02D80818F7D80830895EF9279
:10064000FF920F931F93CF93DF93EC0181E0888F8C
:100650009B8D8C8D98131AC0E889F989808185FF5C
:1006600015C09FB7F894EE89FF896083E889F989FE
:1006700080818370806480839FBF81E090E0DF9100
:10068000CF911F910F91FF90EF900895F62E0B8D53
:1006900010E00F5F1F4F0F731127E02E8C8D8E110E
:1006A0000CC00FB607FCFACFE889F989808185FF75
:1006B000F5CFCE010E94FD02F1CFEB8DEC0FFD2FA7
:1006C000F11DE35AFF4FF0829FB7F8940B8FEA8930
:1006D000FB8980818062CFCF0F931F93CF93DF93ED
:1006E0008C01D0E0C0E0F801EC0FFD1F649166239F
:1006F00041F089E394E00E941F03892B11F02196B9
:10070000F2CFCE01DF91CF911F910F910895CF933A
:10071000DF93EC01888D8823B9F0AA89BB89E88929
:10072000F9898C9185FD03C0808186FD0DC00FB6CF
:1007300007FCF7CF8C9185FFF2CF808185FFEDCF4D
:10074000CE010E94FD02E9CFDF91CF910895833061
:1007500081F028F4813099F08230A9F00895873033
:10076000A9F08830C9F08430B1F4809180008F7D89
:1007700003C0809180008F7780938000089584B5B6
:100780008F7784BD089584B58F7DFBCF8091B000B5
:100790008F778093B00008958091B0008F7DF9CF5E
:1007A000CF93DF93282F30E0F901E157FD4F84917B
:1007B000F901E85FFB4FD491F901EC50FC4FC49173
:1007C000CC23A1F081110E94A703EC2FF0E0EE0FE3
:1007D000FF1FE651FC4FA591B491EC91ED2381E010
:1007E00090E009F480E0DF91CF91089580E090E0FF
:1007F000FACF1F93CF93DF93282F30E0F901E15711
:10080000FD4F8491F901E85FFB4FD491F901EC5061
:10081000FC4FC491CC23A9F0162F81110E94A7038D
:10082000EC2FF0E0EE0FFF1FEB57FD4FA591B491B9
:100830008FB7F894EC91111108C0D095DE23DC93AA
:100840008FBFDF91CF911F910895DE2BF8CFCF930B
:10085000DF9390E0FC01E85FFB4F24918C509C4FAC
:10086000FC0184918823D1F090E0880F991FFC014E
:10087000E558FD4FA591B491FC01EB57FD4FC59193
:10088000D49161110EC09FB7F8948C91E22FE0953E
:100890008E238C932881E223E8839FBFDF91CF9141
:1008A00008958FB7F894EC91E22BEC938FBFF6CFBD
:1008B0008E3008F08E508770806480937C00809129
:1008C0007A00806480937A0080917A0086FDFCCF64
:1008D000809178009091790008953FB7F8948091C5
:1008E000CB029091CC02A091CD02B091CE0226B560
:1008F000A89B05C02F3F19F00196A11DB11D3FBF58
:10090000BA2FA92F982F8827BC01CD01620F711D26
:10091000811D911D42E0660F771F881F991F4A9520
:10092000D1F708958F929F92AF92BF92CF92DF92AC
:10093000EF92FF926B017C010E946D044B015C0100
:10094000C114D104E104F104B9F00E946D046819E6
:1009500079098A099B09683E73408105910580F3F6
:1009600021E0C21AD108E108F10888EE880E83E080
:10097000981EA11CB11CE4CFFF90EF90DF90CF90A8
:10098000BF90AF909F908F9008952091A702260F5F
:100990003327331F21323105ECF420910904FC0187
:1009A00090E080E0243069F082E00895A091A702F1
:1009B0002191AC0149575D4FA40FB52FB11D2C9368
:1009C0000196861798F38091A702680F6093A7029B
:1009D00080E0089581E008951092090481E08093F9
:1009E00008041092030461E082E10E94F90361E0CF
:1009F00083E10E94F903E9EBF0E080818E7F808340
:100A000080818D7F808388E48093B80085E4809323
:100A1000BC000895CF93DF9391E0909386028823E2
:100A2000B9F0C091B800D091BA008091BC008A7B27
:100A30008093BC0060E082E10E94F90360E083E102
:100A40000E94F9030E94EC04D093BA00C093B8004E
:100A5000DF91CF9108950895E091100480910F04E3
:100A6000E81730F4F0E0EF5EFB4F808190E00895EE
:100A70008FEF9FEF08959091100480910F042FEF56
:100A80003FEF981748F4E92FF0E0EF5EFB4F20812D
:100A900030E09F5F90931004C901089580910F0486
:100AA00090911004891B990B0895CF92DF92EF92D9
:100AB000FF920F931F93CF93DF937C01CB018A01A9
:100AC00020913804222389F0EB016B01C40ED51E5E
:100AD000CC15DD0569F06991D701ED91FC9101908C
:100AE000F081E02DC7010995F3CF642F0E94C50462
:100AF000C801DF91CF911F910F91FF90EF90DF9090
:100B0000CF900895CF93DF931F92CDB7DEB769835F
:100B1000209138042223F9F020913504203258F036
:100B200021E030E0FC013383228390E080E00F90ED
:100B3000DF91CF91089580913604E82FF0E0EA59D3
:100B4000FD4F998190838F5F8093360480933504A5
:100B500081E090E0ECCF61E0CE0101960E94C504F7
:100B6000F7CF682F86ED94E00C948205CF92DF9248
:100B7000EF92FF920F931F93CF93DF93D0913504A1
:100B800081E0D13208F09CC0C09137040E946D040E
:100B90006B017C018091090481116CC082E080931B
:100BA000090481E0809308048FEF8093070410927A
:100BB0000604D0930504A6E6B2E0E3EEF3E080E09D
:100BC000D8138DC01092040480910404CC0FC82B5C
:100BD000C093040480910304813009F084C0109212
:100BE00003040E946D046B017C01809104048093D6
:100BF000BB0080910B0490910C04A0910D04B09166
:100C00000E04892B8A2B8B2BA1F00E946D0400917E
:100C10000B0410910C0420910D0430910E046C19FA
:100C20007D098E099F09061717072807390708F459
:100C300042C08091BC0083FDD8CF85EC8093BC007E
:100C40000E946D046B017C0180910904823009F4DB
:100C50004CC0809107048F3F09F469C0809107045C
:100C6000803209F466C080910704803309F463C0C0
:100C700084E026C080910B0490910C04A0910D0497
:100C8000B0910E04892B8A2B8B2B09F483CF0E9401
:100C90006D0400910B0410910C0420910D0430910F
:100CA0000E046C197D098E099F090617170728077E
:100CB000390708F06FCF80910A040E940A0585E089
:100CC000109236041092350410923804DF91CF91BF
:100CD0001F910F91FF90EF90DF90CF9008959D911D
:100CE00091938F5F6DCF85EEA9CF80910B0490918A
:100CF0000C04A0910D04B0910E04892B8A2B8B2B30
:100D000009F4A2CF0E946D0400910B0410910C0411
:100D100020910D0430910E046C197D098E099F09F4
:100D2000061717072807390708F08ECFC4CF80E0D1
:100D3000C7CF82E0C5CF83E0C3CF0F931F93CF937C
:100D4000DF93AB012091E2043091E304232BE1F027
:100D50008B01EC0182E30E9443028091E2049091B6
:100D6000E304DC01ED91FC910280F381E02DA80108
:100D7000BE0109958091E2049091E304DF91CF9147
:100D80001F910F910C94B605A091E404B091E50475
:100D9000109769F0ED91FC9111970280F381E02D9D
:100DA000BC01CD01DF91CF911F910F910994DF918B
:100DB000CF911F910F9108950F931F93CF93DF93BE
:100DC0008C01EB0185E00E94430282E490E00E94E6
:100DD000B105C8010E94B105CE010E94B10586EDA2
:100DE00094E00E94B6056AE070E080E090E0DF9158
:100DF000CF911F910F910C9492048130910509F0CD
:100E000041C080911801909119018617970709F444
:100E100053C0709319016093180186E00E94430249
:100E200085E390E00E94B10580911801909119012D
:100E30000E94B10580911A0190911B010E94B10599
:100E400080911C0190911D010E94B10580911E01AD
:100E500090911F010E94B105809120019091210184
:100E60000E94B10580912201909123010E94B10559
:100E700086ED94E00E94B6056AE070E080E090E0C4
:100E80000C949204029761F480911A0190911B01D5
:100E90006817790789F070931B0160931A01BDCF21
:100EA00080911C0190911D016817790729F07093BA
:100EB0001D0160931C01B1CF08950F931F93CF9331
:100EC000DF938B01C8E2D0E08130910531F0CAE2B6
:100ED000D0E0029711F4C9E2D0E086E00E9443021C
:100EE000CE010E94B105C8010E94B10586ED94E0D3
:100EF0000E94B6056AE070E080E090E0DF91CF915B
:100F00001F910F910C94920490E080E008958091DD
:100F1000DC029091DD028F379105D4F42BEF280F7E
:100F20002093E102EEEDF2E020E0AF014E5D524091
:100F30004817590754F0FC01E252FD4F20830196F7
:100F40009093DD028093DC0208953191230FEDCF61
:100F500090E080E0089520916103309162038091D8
:100F60006402909165022817390724F48091600388
:100F7000882331F081E080935F0390E080E0089562
:100F8000F901ED59FC4F808191812E5F3F4F3093E5
:100F900062032093610308952091620230916302FD
:100FA00021303105F1F13CF52115310579F1F901D7
:100FB000ED59FC4F808340916603842F90E00596A5
:100FC0002817390739F590936502809364021092CF
:100FD0006302109262024B5FE3E6F3E030E020E050
:100FE000341768F19927FC01ED59FC4F81E090819D
:100FF00092131DC0089522303105F1F023303105E0
:10100000B1F68A3780F48093660304C0853579F49D
:10101000809363032F5F3F4F3093630220936202FC
:1010200006C08A3A31F0109263021092620280E0A8
:10103000E1CF80936403EECF80936503EBCF5191B2
:10104000250F3F5FCDCFCF93DF93209167036213CE
:1010500027C0EC0185E090E09093620380936103E8
:101060001092600310925F0368830E94AB079A831B
:1010700089830E94AB079C838B830E94AB079E836E
:101080008D830E94AB0798878F830E94AB079A8756
:10109000898780915F03811110925F0381E001C015
:1010A00080E0DF91CF910895CF92DF92EF92FF928F
:1010B0006B017C016DE770E08DE790E00E94DC063B
:1010C000C701B601FF90EF90DF90CF900C9492048F
:1010D000CF93DF93EB01BC010E94DC06BE01DD0F64
:1010E000880B990BDF91CF910C9492044F925F92F1
:1010F0006F927F928F929F92AF92BF92CF92DF9228
:10110000EF92FF928FE00E94580460912401709149
:101110002501861797070CF4BC018091B2059091C8
:10112000B305681B790B072E000C880B990B0E94E6
:10113000B71D209114013091150140911601509175
:1011400017010E94F21D4B015C0160911201709128
:101150001301072E000C880B990B0E94B71D6B0121
:101160007C01A50194010E94E81E0E94541F2B01DE
:10117000A5019401C701B6010E94E71E0E94541FF9
:10118000CB01B2010E94DC0664E170E080E090E0F7
:10119000FF90EF90DF90CF90BF90AF909F908F9097
:1011A0007F906F905F904F900C949204FC0101909F
:1011B0000020E9F73197AF01481B590BBC0189E3C7
:1011C00094E00C947F02CF93DF930E946C03EC01B8
:1011D0008DE691E00E94D6088C0F9D1FDF91CF9184
:1011E0000895CF93DF93FC01448155816081718123
:1011F00089E394E00E947F02EC018DE691E00E9479
:10120000D6088C0F9D1FDF91CF9108954F925F926A
:101210006F927F928F929F92AF92BF92EF92FF92C6
:101220000F931F93CF93DF93D82F2FB7F89480910C
:10123000310490913204A0913304B09134042FBF53
:101240008093EA049093EB04A093EC04B093ED0434
:1012500015EE05ECC1E0FF24FA948FE0E82E2FB7DD
:10126000F8948091310490913204A0913304B091AC
:1012700034042FBF4091EA045091EB046091EC04D8
:101280007091ED04841B950BA60BB70B4091E604FF
:101290005091E7046091E8047091E90448175907F8
:1012A0006A077B0708F41FC18091E2049091E30470
:1012B000009709F4F3C0DC01ED91FC910084F18505
:1012C000E02D0995892B09F093C00E946D044B0114
:1012D0005C0180910904811161C0C0930904C0932D
:1012E0000804F092070410920604E0920504C093EB
:1012F00004048091040484668093040480910304B0
:10130000813009F0A4C0109203040E946D044B01C7
:101310005C01809104048093BB0080910B04909148
:101320000C04A0910D04B0910E04892B8A2B8B2BF9
:10133000A1F00E946D0440900B0450900C0460904A
:101340000D0470900E04681979098A099B094616E4
:1013500057066806790608F442C08091BC0083FDF8
:10136000D8CF0093BC000E946D044B015C018091BA
:101370000904813009F46EC080910604803108F0C0
:101380008BC080910604A3EEB3E0E1E1F4E090E0CD
:10139000981751F12D9121939F5FFACF80910B0403
:1013A00090910C04A0910D04B0910E04892B8A2B0E
:1013B0008B2B09F48ECF0E946D0440900B0450904B
:1013C0000C0460900D0470900E04681979098A0964
:1013D0009B09461657066806790608F07ACF809171
:1013E0000A040E940A0580E01092100480930F0402
:1013F0008091E2049091E304DC01ED91FC91008482
:10140000F185E02D0995892B09F429CF8091E2041B
:101410009091E304DC01ED91FC910284F385E02DD1
:1014200009950E94CC07882319F3DD2371F0809180
:101430006703D81314CF85E090E090936203809304
:1014400061031092600310925F0381E04DC010931E
:10145000BC0089CF80910B0490910C04A0910D04E5
:10146000B0910E04892B8A2B8B2B09F480CF0E941C
:101470006D0440900B0450900C0460900D0470902B
:101480000E04681979098A099B09461657066806E9
:10149000790608F06CCFA3CF80E175CF8091E4048A
:1014A0009091E504892B09F4DACE8091E4049091BF
:1014B000E504DC01ED91FC910084F185E02D0995B6
:1014C000892B09F4CCCE8091E4049091E504DC01F1
:1014D000ED91FC910284F385E02D09950E94CC07E3
:1014E000882319F3A2CF80E0DF91CF911F910F9154
:1014F000FF90EF90BF90AF909F908F907F906F90F4
:101500005F904F9008958F929F92AF92BF92CF922B
:10151000DF92EF92FF920F931F93CF93DF93CDB79C
:10152000DEB7A1970FB6F894DEBF0FBECDBF6C013A
:10153000990FEE08FF08F7FE41C06DE289E394E0E1
:101540000E941F038C0122273327A9012C193D0972
:101550004E095F0919A2CE0181967C019AE0892E7D
:10156000912CA12CB12CCA01B901A50194010E94B2
:101570009E1F605DF70162937F01211531054105D2
:10158000510589F790E080E0309719F0CF010E9473
:10159000D608800F911FA1960FB6F894DEBF0FBE3C
:1015A000CDBFDF91CF911F910F91FF90EF90DF9012
:1015B000CF90BF90AF909F908F900895A701960114
:1015C00019A28E010F5D1F4F8AE0C82ED12CE12C8D
:1015D000F12CCA01B901A70196010E949E1F605D0E
:1015E000F80162938F01211531054105510589F7F5
:1015F00090E080E0309779F2CF010E94D608CBCFFF
:10160000CF93DF930E94830AEC018DE691E00E9464
:10161000D6088C0F9D1FDF91CF9108950F931F93D4
:10162000CF93DF93EB0163E070E00E948A1F9B0180
:10163000220F331F620F731F860F971F880F991F8A
:10164000FC01E050FF4FD183C083845D9E4FFC01BD
:10165000008111818CEE91E00E946C03C8010E9410
:10166000830A83EE91E00E946C03CE010E94830AFC
:101670008FED91E0DF91CF911F910F910C94E308D2
:10168000EF92FF921F93CF93DF9310925E0385E555
:101690008093DE028AEA8093DF0281E18093E00298
:1016A00080E28093E20285E090E09093DD028093F7
:1016B000DC020E948707BC018EED92E00E949D062D
:1016C0001092EF041092EE0489E20E940609182F8E
:1016D000882309F449C069E280E395E00E94230869
:1016E00060913105709132051616170614F061E00D
:1016F00070E086E0660F771F8A95E1F780917005AC
:10170000909171050E94FF20909371058093700560
:10171000D0E0C0E0F12CE12C8091310590913205B0
:10172000E816F90614F580E00E9406098823E1F026
:1017300080917005909171056AE28C0F9D1F0E9447
:101740002308882331F08FEFE81AF80AC05CDF4FD6
:10175000E3CF80917005909171056BE28C0F9D1F16
:101760000E9423088111EFCF10E0812FDF91CF91EC
:101770001F91FF90EF9008950F931F93CF93DF93E6
:10178000CDB7DEB7C054D1090FB6F894DEBF0FBE97
:10179000CDBF10E000E00E94400B882351F0809103
:1017A000330590913405892B21F00E944D02892B3D
:1017B00041F40F5F1F4F033011056CF310E000E0A0
:1017C00027C010E000E00E944D02892BF1F06091EB
:1017D000EE047091EF04CB0101969093EF04809397
:1017E000EE04CE0101960E9460024E815F81288541
:1017F0003985429FC001439F900D529F900D112447
:101800000817190704F78C01DECF0115110519F22D
:10181000C801C05CDF4F0FB6F894DEBF0FBECDBF6E
:10182000DF91CF911F910F910895EF92FF920F9347
:101830001F93CF93DF93CDB7DEB7C054D1090FB656
:10184000F894DEBF0FBECDBF0E94400B811156C081
:101850008CE991E00E946C030E94400B8823A1F365
:101860008091330590913405892B71F30E944D02CC
:10187000892B51F30E944D02892B31F36091EE04C4
:101880007091EF04CB0101969093EF048093EE04E6
:10189000CE0101960E94600289818A3259F70A8539
:1018A0001B85C8010197039728F780E791E00E9404
:1018B0006C03C8010E94000B03C00115110521F241
:1018C0008AE791E00E946C03C8010E94000B81E04E
:1018D0002091D5023091D6022017310709F080E01F
:1018E000C05CDF4F0FB6F894DEBF0FBECDBFDF91F7
:1018F000CF911F910F91FF90EF9008958091330544
:1019000090913405892B09F4A3CF0E944D02892BB5
:1019100009F49ECF10E000E00E944D027C01892B6B
:1019200089F06091EE047091EF04CB0101969093E1
:10193000EF048093EE04CE0101960E9460020F5FD7
:101940001F4FEACF023011050CF482CF89E891E0F5
:101950000E946C030E94400B882309F475CF80918C
:10196000330590913405892B09F46ECF0E944D0206
:10197000892B09F469CF10E000E00E944D02892B09
:1019800009F49BCF6091EE047091EF04CB010196B6
:101990009093EF048093EE04CE0101960E946002C2
:1019A0004E815F8128853985429FC001439F900DFC
:1019B000529F900D1124E816F906FCF60A851B8546
:1019C0007C01DBCF0F931F93CF93DF93EC018881D2
:1019D0009981009759F02A813B812617370730F00B
:1019E00081E0DF91CF911F910F9108958B016F5F7F
:1019F0007F4F0E94FF20009759F0998388831B83B3
:101A00000A832C813D81232B59F7FC011082E8CFFA
:101A100080E0E7CF0F931F938BE99FE00197F1F7E9
:101A200061E084E00E94270460E084E00E94F90302
:101A300083E090E00197F1F761E084E00E94F90310
:101A40008FE090E00197F1F760E084E00E94F903F5
:101A500060E084E00E942704ECE0F4E06491E8EFA9
:101A6000F3E0E491F0E0EE0FFF1FE651FC4F8591AB
:101A7000949100E412E42FE030E0462F0E943515E7
:101A8000611571058105910529F06F5F7F4F8F4FBB
:101A90009F4F9F70CB016AE370E00E948A1FCB01C9
:101AA0001F910F910895CF92DF92EF92FF920F93C3
:101AB0001F93CF93DF938C017B0183E0C82ED12C41
:101AC000D0E0C0E00E940A0DC80FD91F64E670E0A4
:101AD00080E090E00E94920481E0C81AD10891F75A
:101AE000CE0163E070E00E948A1FEB0182E691E084
:101AF0000E946C03CE010E94000BCE010C97089748
:101B000098F40E94150C61E070E0811102C062E05F
:101B100070E0C801DF91CF911F910F91FF90EF907E
:101B2000DF90CF900C940E0BE39770E060E0C8015B
:101B30002A9760F40E940E0B0E94150C61E070E081
:101B4000811102C062E070E0C701E4CF0E940E0B79
:101B500070E060E0F9CFEF92FF920F931F93CF9365
:101B6000DF936115710541F480E0DF91CF911F9102
:101B70000F91FF90EF90089541155105B1F07B0151
:101B8000EC010C811D81040F151FB8010E94E20CAD
:101B9000882351F3288139818C819D81B701820F7F
:101BA000931F0E94D9211D830C8381E0DECFCF9348
:101BB000DF93EC0188819981009711F00E947620D3
:101BC000198218821D821C821B821A82DF91CF919A
:101BD0000895CF93DF93EC01FB0101900020E9F71A
:101BE0003197AF01461B570B0E94AB0D811103C00B
:101BF000CE010E94D70DCE01DF91CF910895CF93F2
:101C0000DF93EC01FB0144815581608171810E9469
:101C1000AB0D811103C0CE010E94D70DCE01DF9123
:101C2000CF910895EF92FF920F931F93CF93DF937D
:101C3000EC017B018A01BA010E94E20C81110BC008
:101C4000CE010E94D70DCE01DF91CF911F910F9150
:101C5000FF90EF9008951D830C83B70188819981CF
:101C60000E94D921F0CFFB0101900020E9F73197C4
:101C7000AF01461B570B0C94120E0F931F93CF937B
:101C8000DF93CDB7DEB762970FB6F894DEBF0FBE15
:101C9000CDBF8C01CB01F801118210821382128218
:101CA000158214824AE0BE016F5F7F4F0E94341B91
:101CB000BE016F5F7F4FC8010E94330E62960FB660
:101CC000F894DEBF0FBECDBFDF91CF911F910F9172
:101CD0000895FC01118210821382128215821482EF
:101CE000FB0101900020E9F73197AF01461B570B2C
:101CF0000C94120EAF92BF92CF92DF92EF92FF92AE
:101D00000F931F93CF93DF936C015B017A018901DD
:101D10002417350720F48F2D7901042F182F6FE633
:101D200071E0C6010E94690ED5011496CD91DC9137
:101D3000EC16FD06E0F40C171D0708F4E801D501C8
:101D4000ED91FC911197EC0FFD1F108110826D91A8
:101D50007C916E0D7F1DC60161157105A1F00E9479
:101D6000330EF50180819181C80FD91F1883C601F8
:101D7000DF91CF911F910F91FF90EF90DF90CF9067
:101D8000BF90AF9008950E94D70DEBCFFC018081EA
:101D90009181009711F00C9476200895CF92DF92F4
:101DA000EF92FF920F931F93CF93DF93CDB7DEB7E0
:101DB000E9970FB6F894DEBF0FBECDBF6B017C0173
:101DC000C0921401D0921501E0921601F092170111
:101DD000509313014093120188E290E09093250103
:101DE0008093240183E290E09093B3058093B20541
:101DF0008CE194E00E946C031BA21AA21DA21CA2FB
:101E00001FA21EA28E010F5F1F4F22E044E0C701F8
:101E1000B6010E94EF1A009709F46AC0BC01CE0116
:101E200082960E94330E6091120170911301CE01CF
:101E300001960E943D0E6091B2057091B305CE01EE
:101E400088960E943D0E6091240170912501CE017B
:101E50008E960E943D0E60E771E0CE01C4960E940E
:101E6000690EBE01625D7F4FCE01C4960E94FF0DD8
:101E70006BE771E00E94E90DBE01685D7F4F0E9433
:101E8000FF0D68E871E00E94E90DBE016F5F7F4FB2
:101E90000E94FF0D69E971E00E94E90DBE016E5DCF
:101EA0007F4F0E94FF0D0E94F108CE01C4960E9450
:101EB000C60ECE018E960E94C60ECE0188960E9456
:101EC000C60ECE0101960E94C60ECE0182960E94D9
:101ED000C60EE9960FB6F894DEBF0FBECDBFDF91F8
:101EE000CF911F910F91FF90EF90DF90CF900895C9
:101EF000CE0182960E94D70D96CFCF93DF93CDB7B8
:101F0000DEB72C970FB6F894DEBF0FBECDBF60E0F2
:101F100082E00E94270482E00E94D003019759F5D5
:101F200060916002709161026F5F7F4F70936102F8
:101F300060936002CE0107960E943D0E61EA71E057
:101F4000CE0101960E94690EBE01695F7F4FCE01EE
:101F500001960E94FF0D0E94F108CE0101960E9499
:101F6000C60ECE0107960E94C60E6FE070E08CE3AD
:101F700090E00E94680864E170E080E090E00E94D8
:101F800092042C960FB6F894DEBF0FBECDBFDF9142
:101F9000CF91089580916002909161021816190600
:101FA0002CF00E947D0F0E947608F4CF10926102FF
:101FB00010926002089562E370E080E090E00E9479
:101FC00054080E947D0F8091600290916102181662
:101FD0001906B4F485ED91E00E94E30868ED7FEF07
:101FE00088E290E00E94DC0662E370E080E090E02E
:101FF0000E94920462E370E080E090E00E94540846
:102000001092610210926002089568EC70E080E026
:1020100090E00E94540860E971E08CE390E00E9437
:1020200068086CE97FEF84E690E00E94DC066AE1D4
:1020300074E080E090E00E9492046DE770E08DE72C
:1020400090E00E94DC060E94DB0F6CEB72E080E007
:1020500090E00C94540868E270E088ED9FEF0E94D5
:10206000DC066EEE72E080E090E00E9492046DE784
:1020700070E08DE790E00E94DC060C94DB0F68ECCA
:1020800070E080E090E00E9454086CE771E08CE31F
:1020900090E00E9468080E942B106CEB72E080E0D8
:1020A00090E00C94540868ED7FEF88E290E00E9485
:1020B000DC066EEE72E080E090E00E9492046DE734
:1020C00070E08DE790E00E94DC060C94DB0F68EC7A
:1020D00070E080E090E00E94540862EC71E08CE3D4
:1020E00090E00E9468080E9453106CEB72E080E060
:1020F00090E00C945408CF938091D902811175C05F
:1021000064E670E080E090E00E9454080E94BC0BFE
:102110008B3A95400CF464C00E94BC0B0E94000BEB
:1021200082EC91E00E94E3084FE050E063E373E348
:1021300083E39FE30E94CE0EC1E08091D90281111A
:1021400046C08091600290916102892B09F03FC0E6
:102150000E940A0D0497B4F58FEA91E00E94E3080B
:1021600062E370E080E090E00E9454086091B60560
:102170007091B70581E090E00E94FD066091B40582
:102180007091B50582E090E00E94FD066EE170E07E
:1021900083E090E00E94FD0668EE73E080E090E04E
:1021A0000E949204C093D90261E070E08091D7024E
:1021B0009091D8020E940E0B60ED77E080E090E0F5
:1021C0000E9454080E947D0F0E947608B6CF4CE30F
:1021D00050E060E070E080E490E4CF910C94CE0E8B
:1021E0000E94BC0BCF910C94000BCF910895CF931C
:1021F000DF93EC018091DA029091DB029E01281BB3
:10220000390BC9018F3F3FEF930701F1A4F48D3FD4
:102210003FEF9307C1F00296E1F0D093DB02C09349
:10222000DA020E947B1088E092E00E94E308DF91CE
:10223000CF910C94CA0F8230910559F083309105EB
:1022400029F0019751F70E946710E7CF0E943F10D5
:10225000E4CF0E940510E1CF85ED8093BC00809112
:102260000B0490910C04A0910D04B0910E040796FC
:10227000A11DB11D23E0B695A795979587952A9541
:10228000D1F72091BC0024FD03C0109209040895E9
:1022900040910B0450910C0460910D0470910E0458
:1022A000452B462B472B69F30097A105B10541F05B
:1022B0002AE22A95F1F700C00197A109B109E1CFFF
:1022C00080910A040C940A052F923F924F925F92DC
:1022D0006F927F928F929F92AF92BF92CF92DF9236
:1022E000EF92FF920F931F93CF93DF93CDB7DEB79B
:1022F0002E970FB6F894DEBF0FBECDBF18861F8293
:102300001A8619861C861B86FC0160817181611505
:10231000710531F044815581CE0107960E94120E5D
:102320008B859C85892B09F459C0EF80F8846CE279
:1023300070E0C7010E94C521009709F44FC08C01CD
:102340000E191F09F12CE12CC0905E02D0905F02A3
:102350000F3F100709F444C08FE0C816D1040CF0F9
:102360003FC09801A701BE01695F7F4FCE01019672
:102370000E947A0E89819A81009761F10E940D1B5B
:1023800096012F5F3F4F30935F0220935E02F6016C
:10239000EE0FFF1FE05CFD4F71836083CE0101965D
:1023A0000E94C60E78019FEFE91AF90A8B859C8579
:1023B000E816F906A8F4CF80D8846CE270E0C60174
:1023C0008E0D9F1D0E94C521009751F08C010C19A4
:1023D0001D09BACF60E070E0CB01D2CFF12CE12C27
:1023E00000915E0210915F020F30110514F52B85EC
:1023F0003C85A701BE01695F7F4FCE0101960E9417
:102400007A0E89819A81009729F10E940D1B98010B
:102410002F5F3F4F30935F0220935E02000F111F2A
:10242000F801E05CFD4F71836083CE0101960E944C
:10243000C60E40905E0250905F02F201EE0FFF1F49
:10244000E05CFD4FC2018F30910544F4119211926E
:102450000196F9CF60E070E0CB01D9CFCE010796AD
:102460000E94C60E93E0292E312C00915E0210913D
:102470005F02101611060CF0ACC082E792E00E94D9
:102480006C03C8010E94000B80915E0290915F0274
:10249000F201E81BF90BEE0FFF1FE05CFD4F80819E
:1024A00091810197712C612C8B30910538F4825CFD
:1024B0009E4FFC016080062C000C77088091D702AB
:1024C0009091D802B1010E948A1F5B016C01C30187
:1024D000B1010E948A1F7B018C014501861A970A6F
:1024E0008C199D099E878D8780E692E00E946C037F
:1024F000C5010E94830A8EE592E00E946C03C6012A
:102500000E94830A87E592E00E946C03C7010E9443
:10251000830A85E592E00E946C03C8010E94830A49
:1025200081E592E00E946C039AE0989D8001999D5C
:10253000100D1124ED85FE850E0F1F1FC8010E948E
:10254000000B7092D8026092D70201151105E1F0DC
:1025500074F4063FFFEF1F07A9F10F3F1F4F59F11A
:1025600060EA76E881E090E00E9454081AC00130E9
:10257000110579F00A30110599F780E292E00E9486
:10258000E30890E080E00BC085E492E00E94E3085D
:10259000E7CF89E392E00E94E30881E090E00E94A7
:1025A000F71080915E0290915F02019790935F0215
:1025B00080935E025ACF8DE292E00E94E30883E0AE
:1025C00090E0EDCF83E192E00E94E30882E090E0AA
:1025D000E6CFE0E4F2E08EE592E0119211928E17E0
:1025E0009F07D9F72E960FB6F894DEBF0FBECDBF6A
:1025F000DF91CF911F910F91FF90EF90DF90CF90DF
:10260000BF90AF909F908F907F906F905F904F9012
:102610003F902F900895CF92DF92EF92FF920F9309
:102620001F93CF93DF9300D000D000D0CDB7DEB79B
:1026300087EF91E00E94E30800E011E06801F12CCF
:10264000E12CF601619171916F01CE0101960E941A
:102650003D0E8D819E81892B71F06DEC71E0898139
:102660009A810E94D021892B31F46FEC71E0CE0168
:1026700001960E94330E4D815E8169817A8189E3E2
:1026800094E00E947F02F2E0EF16F10421F083EF64
:1026900091E00E946C03CE0101960E94C60E8FEF5E
:1026A000E81AF80AE3E0EE16F10459F68FE691E035
:1026B0000E94D6088DE691E00E94D6080A5F1F4F5F
:1026C000F1E002311F0709F0B9CF26960FB6F89452
:1026D000DEBF0FBECDBFDF91CF911F910F91FF9055
:1026E000EF90DF90CF9008951F920F920FB60F9248
:1026F00011242F933F934F935F936F937F938F9307
:102700009F93AF93BF93EF93FF9389E394E00E946D
:10271000FD02FF91EF91BF91AF919F918F917F91BA
:102720006F915F914F913F912F910F900FBE0F903E
:102730001F9018951F920F920FB60F9211242F938E
:102740008F939F93EF93FF93E0914904F0914A0494
:102750008081E0914F04F091500482FD1BC0908174
:10276000809152048F5F8F7320915304821741F040
:10277000E0915204F0E0E75CFB4F958F80935204A8
:10278000FF91EF919F918F912F910F900FBE0F901E
:102790001F9018958081F4CF1F920F920FB60F9261
:1027A00011242F933F938F939F93AF93BF93809167
:1027B000310490913204A0913304B09134043091EB
:1027C000CA0223E0230F2D3758F50196A11DB11D34
:1027D0002093CA028093310490933204A09333046F
:1027E000B09334048091CB029091CC02A091CD02A1
:1027F000B091CE020196A11DB11D8093CB029093A2
:10280000CC02A093CD02B093CE02BF91AF919F9125
:102810008F913F912F910F900FBE0F901F901895A1
:1028200026E8230F0296A11DB11DD2CF1F920F9251
:102830000FB60F9211242F933F934F935F936F9393
:102840007F938F939F93AF93BF93EF93FF93809169
:10285000B900887F803609F44AC0F0F5883209F45F
:10286000A7C018F5803109F49BC0B8F4882309F497
:10287000F9C0883009F494C0FF91EF91BF91AF91F6
:102880009F918F917F916F915F914F913F912F9188
:102890000F900FBE0F901F901895883109F488C0D3
:1028A000803251F78093070414C0803409F49DC02E
:1028B00040F48033B9F38833F9F68093070485EC4C
:1028C000B0C0803509F485C0883509F496C08834D5
:1028D00099F60E942C11D0CF883909F48CC038F5B4
:1028E000883729F050F4883611F0803729F683E0D4
:1028F000809309041092C90257C0883809F47BC03C
:10290000803919F0803809F0B7CF8091C902803240
:1029100008F071C0E091C90281E08E0F8093C90276
:102920008091BB00F0E0E755FD4F80833DC0803BC8
:1029300039F0E0F4803A09F479C0883A09F09CCF84
:1029400084E0809309041092A8021092A702E091FB
:10295000CF02F091D00209958091A70281110FC09A
:1029600081E08093A7021092870209C0803C09F49D
:10297000A6CF883C09F4A3CF883B09F07DCFE09136
:10298000A80281E08E0F8093A802F0E0E957FD4F86
:1029900080818093BB009091A8028091A70229C0FA
:1029A000809104048093BB0085EC8093BC0064CFCD
:1029B0009091060480910504981758F5E09106045B
:1029C00081E08E0F80930604F0E0ED51FC4F808192
:1029D000E9CFE091060481E08E0F80930604809198
:1029E000BB00F0E0ED51FC4F808390910604809194
:1029F00005049817C8F285E8D8CFE091060481E075
:102A00008E0F809306048091BB00F0E0ED51FC4FE7
:102A100080838091080481115CCF81E0809303045E
:102A200084EA8093BC001092090426CF85EC809341
:102A3000BC00109209048091C902803230F4E09108
:102A4000C902F0E0E755FD4F10826091C90270E0C5
:102A5000E091D102F091D20289EA92E009951092B8
:102A6000C9020ACF1092070434CFCF92DF92EF92BF
:102A7000FF920F931F93E82FF92F05C00150110902
:102A80002109310961F1908196239417B9F305C0AA
:102A9000015011092109310911F1908196239413F4
:102AA000F7CFC12CD12CE12CF12C0AC08FEFC81A22
:102AB000D80AE80AF80A0C151D052E053F0579F01D
:102AC00080818623841791F36C2D7D2D8E2D9F2D73
:102AD0001F910F91FF90EF90DF90CF90089560E0ED
:102AE00070E080E090E01F910F91FF90EF90DF90F9
:102AF000CF90089510923C0410923B0488EE93E02E
:102B0000A0E0B0E080933D0490933E04A0933F0486
:102B1000B09340042DE431E030933A04209339041B
:102B200025EC30E0309346042093450424EC30E05B
:102B3000309348042093470420EC30E030934A045B
:102B40002093490421EC30E030934C0420934B0453
:102B500022EC30E030934E0420934D0426EC30E01C
:102B60003093500420934F04109252041092530457
:102B700010925404109255041092D9041092D80463
:102B80008093DA049093DB04A093DC04B093DD041B
:102B90008FE591E09093D7048093D60485E390E08D
:102BA0009093B7058093B6058CE590E09093B505BA
:102BB0008093B4052091240130912501C9014396E9
:102BC00097FD01969595879501969093B30580930F
:102BD000B20584E690E0A0E0B0E08093E604909334
:102BE000E704A093E804B093E9041092EF04109274
:102BF000EE0410927105109270051092E304109289
:102C0000E2041092E5041092E4048FEF80937205C1
:102C10008FEF9FEF909374058093730590937605E3
:102C200080937505909378058093770590937A0546
:102C30008093790590937C0580937B050895CF93CD
:102C4000DF93CDB7DEB762970FB6F894DEBF0FBE45
:102C5000CDBF789484B5826084BD84B5816084BD25
:102C600085B5826085BD85B5816085BD80916E002A
:102C7000816080936E00109281008091810082605B
:102C80008093810080918100816080938100809198
:102C900080008160809380008091B1008460809387
:102CA000B1008091B00081608093B00080917A0083
:102CB000846080937A0080917A00826080937A00A9
:102CC00080917A00816080937A0080917A00806898
:102CD00080937A001092C1001092100410920F0499
:102CE00010923604109235040E94EC048DE792E0B5
:102CF0009093D0028093CF028EE792E09093D2021D
:102D00008093D10264EF71E080E090E00E94920431
:102D100085E00E94430287E290E00E94B10586EDC3
:102D200094E00E94B6056AE070E080E090E00E94C6
:102D3000920486E00E94430287E290E00E94B1057F
:102D400086ED94E00E94B6056AE070E080E090E0D5
:102D50000E94920481E00E94430287E290E00E9478
:102D6000B10586ED94E00E94B6056AE070E080E06F
:102D700090E00E94920482E00E94430287E290E089
:102D80000E94B10586ED94E00E94B6056AE070E00D
:102D900080E090E00E94920483E00E94430287E278
:102DA00090E00E94B10586ED94E00E94B6056AE0CD
:102DB00070E080E090E00E94920484E00E94430270
:102DC00087E290E00E94B10586ED94E00E94B6058E
:102DD0006AE070E080E090E00E94920461E087E0A9
:102DE0000E94270461E087E00E94F90360E088E028
:102DF0000E94270488E00E94D003892BB9F761E084
:102E000087E00E94270460E087E00E94F90385E0E4
:102E10000E94430287E290E00E94B10586ED94E0B3
:102E20000E94B6056AE070E080E090E00E949204A3
:102E300086E00E94430287E290E00E94B10586EDA1
:102E400094E00E94B6056AE070E080E090E00E94A5
:102E5000920481E00E94430287E290E00E94B10563
:102E600086ED94E00E94B6056AE070E080E090E0B4
:102E70000E94920482E00E94430287E290E00E9456
:102E8000B10586ED94E00E94B6056AE070E080E04E
:102E900090E00E94920483E00E94430287E290E067
:102EA0000E94B10586ED94E00E94B6056AE070E0EC
:102EB00080E090E00E94920484E00E94430287E256
:102EC00090E00E94B10586ED94E00E94B6056AE0AC
:102ED00070E080E090E00E94920468EE73E080E091
:102EE00090E00E94920485E00E94430285E290E017
:102EF0000E94B10586ED94E00E94B6056AE070E09C
:102F000080E090E00E94920486E00E94430285E205
:102F100090E00E94B10586ED94E00E94B6056AE05B
:102F200070E080E090E00E94920481E00E94430201
:102F300085E290E00E94B10586ED94E00E94B6051E
:102F40006AE070E080E090E00E94920482E00E94DB
:102F5000430285E290E00E94B10586ED94E00E9474
:102F6000B6056AE070E080E090E00E94920483E0A1
:102F70000E94430285E290E00E94B10586ED94E054
:102F80000E94B6056AE070E080E090E00E94920442
:102F900084E00E94430285E290E00E94B10586ED44
:102FA00094E00E94B6056AE070E080E090E00E9444
:102FB0009204E0914904F0914A0482E08083E09118
:102FC0004504F09146041082E0914704F0914804D2
:102FD00080E1808310925104E0914D04F0914E0401
:102FE00086E08083E0914B04F0914C048081806105
:102FF0008083E0914B04F0914C0480818860808351
:10300000E0914B04F0914C04808180688083E091D2
:103010004B04F0914C0480818F7D80838FE193E09D
:103020000E946C0385E00E94430281E590E00E94CB
:10303000B10581E090E00E94B10586ED94E00E9428
:10304000B6056AE070E080E090E00E9492046CE3D4
:1030500070E081E090E00E945D076CE370E082E048
:1030600090E00E945D076AE070E083E090E00E94DB
:103070005D076EE670E081E090E00E94FD0663E28D
:1030800070E082E090E00E94FD06109236041092FB
:1030900035040E94EC04E6EDEE2EE4E0FE2EF5E5AC
:1030A000DF2EAAEACA2EB1E1BB2E1CE2A12E05E05A
:1030B000802E912C1092E5041092E404F092E30427
:1030C000E092E20405E010E010925E03D092DE028E
:1030D000C092DF02B092E002A092E2029092DD0282
:1030E0008092DC020E948707BC018EED92E00E9474
:1030F0009D068EE20E9406098111F2C1015011095C
:1031000019F783EA92E00E94E30864E670E080E049
:1031100090E00E949204CECF83EB93E00E94E308FC
:1031200061ED71E0CE0101960E94690ECE0101961B
:103130000E946411CE0101960E94C60E35C08BEA32
:1031400093E00E94E30867ED71E0ECCF63E072E08A
:10315000E9CF0E942B101092DB021092DA0268EC89
:1031600070E080E090E00E94540867EE71E0DACFF2
:103170000E940A0D0B971CF00E947608F9CF0E945E
:103180007B108091D902811103C00E947608F9CF8B
:1031900088E090E09093D8028093D70281E090E09D
:1031A0009093DB028093DA020E940B1360E472E4D6
:1031B0008FE090E00E945408C114D10429F00E94CD
:1031C000E90281110E94000089ED93E00E94E3086A
:1031D0000E94CA0F0E94CA0FB092D802A092D702D2
:1031E0001092DB021092DA0285E393E00E94E3087A
:1031F00064E670E080E090E00E94540864EF71E0C3
:1032000084E690E00E9468088BEB93E00E94E3085C
:1032100060E070E0CB010E94540810E000E073E031
:10322000872E912C0E940A0D080F191F64E670E08A
:1032300080E090E00E94920481E0881A910891F762
:10324000C801B7010E948A1F8B018EE493E00E949F
:103250006C03C8010E94000B0153110970E060E08B
:103260000A30110540F40E94150C61E070E08111F4
:1032700002C062E070E090E080E00E940E0B80915E
:103280000001909101018130910509F445CF823010
:10329000910509F454CF892B09F086CF0E94531071
:1032A00001E010E01093DB020093DA0268EC70E0BA
:1032B00080E090E00E9454088BE893E00E94E308CD
:1032C00068E070E087E090E00E94530D80910E016D
:1032D00090910F018130910509F438CF823091052A
:1032E00009F437CF892B09F05FCF809110019091BD
:1032F00011018130910509F43BCF8230910509F429
:10330000CBC0892B09F050CF0E942B101092DB020A
:103310001092DA0268EC70E080E090E00E945408BD
:1033200065ED71E0CE0101960E94690ECE01019615
:103330000E946411CE0101960E94C60E0E94671081
:103340001093DB020093DA028AE693E00E94E3081E
:1033500065E070E084E090E00E94530D80910801E8
:10336000909109018130910509F4A5C08230910541
:1033700009F4A4C0892B09F017CF00910A0110911C
:103380000B010130110509F4A2C00230110509F446
:10339000A1C00115110509F007CF65E272E0CE0169
:1033A00001960E94690ECE0101960E946411CE0121
:1033B00001960E94C60E0E943F101092DB021092EE
:1033C000DA0263E0862E912C0E940A0D080F191F65
:1033D00064E670E080E090E00E94920481E0881A48
:1033E000910891F7C801B7010E948A1F8B018CE5F3
:1033F00093E00E946C03C8010E94000B0450110965
:1034000070E060E00C30110540F40E94150C61E0A2
:1034100070E0811102C062E070E081E090E00E9403
:103420000E0B00910201109103010130110509F406
:1034300054C00230110509F0B7CE62E370E088EDA8
:103440009FEF0E9468080E94531081E090E09093E3
:10345000DB028093DA0267E272E0CE0101960E94FD
:10346000690ECE0101960E946411CE0101960E9460
:10347000C60E68EC70E080E590E00E9468080E944B
:1034800005101093D8020093D7021093DB0200932B
:10349000DA026CE072E046CE0E942B101092DB0242
:1034A0001092DA0268EC70E080E090E00E9454082C
:1034B00065EF71E037CE61E072E034CE0E942B10F0
:1034C0001092DB021092DA0265E072E02BCE61E12D
:1034D00072E028CE68E172E025CE6FE172E022CE84
:1034E00080E00E945804880F991F64E670E00E94F3
:1034F0008A1F8B01BC01CE0101960E943D0EB801CE
:10350000CE0107960E943D0E6DE272E0CE010D964F
:103510000E94690EBE01695F7F4FCE010D960E9429
:10352000FF0D6CE372E00E94E90DBE016F5F7F4FFB
:103530000E94FF0D6EE372E00E94E90D0E94F10807
:10354000CE010D960E94C60ECE0107960E94C60EB1
:10355000CE0101960E94C60E4CE350E060E070E0A0
:1035600080E490E40E94CE0E83E090E09093D60237
:103570008093D50281E090E09093D4028093D302AF
:103580008FEE92E00E946C0383EE92E00E946C0347
:103590008EED92E00E946C0382ED92E00E946C033B
:1035A0008AEC92E00E946C038AEB92E00E946C032A
:1035B00084EB92E00E946C0381EB92E00E94E308AE
:1035C00088E093E00E946C0336E0A32EB12C43E028
:1035D000E42EF12C50E0C52E50E0D52EF5CDEF9223
:1035E0000F931F93CF93DF93E80134E047FD34E15D
:1035F000042E000C550B57FF03C0519541955109FE
:10360000E32E022F242FAE010E946E1BCE01DF910C
:10361000CF911F910F91EF9008951F93FC0199276F
:103620008827BC01E89411911032E9F3193010F0A9
:103630001E30C8F31B3251F01D3249F4689406C0A5
:103640000E943F1B610F711D811D911D119110532F
:103650001A30B0F33EF490958095709561957F4F48
:103660008F4F9F4F1F910895BB274A3031F4992304
:1036700022F4BDE2909581959F4F0C94551B592FD4
:10368000482F372F262F660F771F881F991F660F29
:10369000771F881F991F620F731F841F951F660F66
:1036A000771F881F991F0895BB27FB015527AA275D
:1036B000880F991FAA1FA41710F0A41B83955051BF
:1036C000B9F7A05DAA3308F0A95DA193009779F737
:1036D000B111B1931192CB010C94A51DA9E0B0E0FA
:1036E000E4E7FBE10C94B61E6A01F22EB02E102F17
:1036F000FBE3AF2EA01608F41BE31F5F012F27E0AA
:10370000AE014F5F5F4F0E94CD1CBC018981982F95
:103710009970913009F43FC09BE2E1FC04C09E2DFA
:103720009170E0FC3AC05E2D5071E82FE87083FF85
:1037300046C084E0911101C083E0EF2DE81B8F1596
:1037400008F0E0E0D6018E2F20E2552351F19923B5
:1037500029F0D6019C93C60101966C0196012D5F5C
:103760003F4FE2FE24C08EE4D6018C9391E4119683
:103770009C93119712968C93D9018E2F90E2811110
:103780001BC0E20FF32FF11D10828EEF9FEF2996E1
:10379000ECE00C94D21E9DE2C6CF90E2C4CF2D93F4
:1037A00081508111FCCFCE0ED11CE0E0D0CF8EE64F
:1037B000D6018C9391E6DBCF9D938150E0CF482FCB
:1037C000447082FF3DC084E0911101C083E08F15F9
:1037D00010F4EF2DE81BD6018E2F20E2552309F1BE
:1037E000992329F0D6019C93C60101966C0196019C
:1037F0002D5F3F4FE2FE1BC089E4D6018C938EE41F
:1038000011968C93119786E412968C93D9018E2F82
:1038100090E2882309F4B5CF9D938150FACF2D9380
:1038200081508111FCCFCE0ED11CE0E0D9CF89E6CA
:10383000D6018C938EE611968C93119786E6E4CF91
:103840009B0177FF02C030E020E0A1E0B0E09111E1
:1038500002C0B0E0A0E0F9013196AE0FBF1F8B2C83
:10386000912CBB2009F461C05401EFEFAE1ABE0ADF
:10387000AA0DBB1DFA161B0619F014F04F2D4A1B9A
:10388000511188C0E3FC59C07601A42FB0E2A11108
:103890004FC0C40ED11C992309F45BC040E0D6018F
:1038A0001196F60190836D01552309F448C0012F4C
:1038B000060F9A81582F507184FF03C0913309F489
:1038C000015010160CF047C0093008F008E0EEE295
:1038D000FE2E5B01A01AB108850191948194910894
:1038E0002F3F320729F4D601FC92F60131966F0181
:1038F0006217730794F1021713077CF5DB01A21B13
:10390000B30BAA24A394B12CAC0EBD1EAA0DBB1DF3
:1039100011968C9121503109D6011196281539053F
:10392000F4F0F60180836D01DBCFB12CA12CA0CF88
:10393000F701B1937F01A150AACF9111B0CFD60169
:10394000942F50E302C05D9391509111FCCFC40EAF
:10395000D11C40E0ACCF01E0BACF80E3DBCF6217EF
:10396000730731F4963388F4953311F4552369F0D5
:10397000F6018083FD01842F90E2811108C0A40F1D
:10398000B11D1C9290E080E002CF81E3F1CF9193D2
:103990008150F3CF911183CF8ACF283008F027E0F0
:1039A0003327DA01990F311D87FD9160009661057B
:1039B000710539F432602E5F3D9330E32A95E1F7CB
:1039C00008959F3F30F080387105610509F03C5F34
:1039D0003C5F3D93913008F08068911DDF93CF9359
:1039E0001F930F93FF92EF92192F987F9695E92FCF
:1039F00096959695E90FFF27EE53FF4F99273327AA
:103A0000EE24FF24A701E70105900894079428F409
:103A1000360FE71EF81E491F511D660F771F881FBE
:103A2000991F0694A1F70590079428F4E70EF81E55
:103A3000491F561FC11D770F881F991F661F0694C7
:103A4000A1F70590079428F4F80E491F561FC71FC9
:103A5000D11D880F991F661F771F0694A1F7059047
:103A6000079420F4490F561FC71FD81F990F661FD0
:103A7000771F881F0694A9F784911095177041F05D
:103A8000D695C79557954795F794E7941A95C1F73A
:103A9000E8E6F0E06894159015913591659195915F
:103AA00005907FE27395E118F10A430B560BC90BA1
:103AB000D009C0F7E10CF11E431F561FC91FD01DCE
:103AC0007EF4703311F48A95E6CFE894015030F01B
:103AD000080F0AF40027021708F4202F2395022F5D
:103AE0007A3328F079E37D932A95E9F710C07D9326
:103AF0002A9589F6069497956795379517951794A3
:103B0000E118F10A430B560BC90BD00998F0239525
:103B10007E9173957A3308F070E37C932013B8F7A5
:103B20007E9170617D9330F0839571E37D9370E3B6
:103B30002A95E1F71124EF90FF900F911F91CF91FB
:103B4000DF91992787FD90950895DC01FC01672F8F
:103B500071917723E1F7329704C07C916D93708364
:103B60006291AE17BF07C8F30895E89409C097FBA8
:103B70003EF490958095709561957F4F8F4F9F4F44
:103B80009923A9F0F92F96E9BB279395F695879588
:103B900077956795B795F111F8CFFAF4BB0F11F44B
:103BA00060FF1BC06F5F7F4F8F4F9F4F16C08823F2
:103BB00011F096E911C0772321F09EE8872F762F28
:103BC00005C0662371F096E8862F70E060E02AF069
:103BD0009A95660F771F881FDAF7880F9695879555
:103BE00097F908950E94051E0C94761E0E94681E87
:103BF00038F00E946F1E20F0952311F00C945F1E88
:103C00000C94651E11240C94AA1E0E94871E70F34A
:103C1000959FC1F3950F50E0551F629FF001729F71
:103C2000BB27F00DB11D639FAA27F00DB11DAA1F80
:103C3000649F6627B00DA11D661F829F2227B00DCD
:103C4000A11D621F739FB00DA11D621F839FA00D58
:103C5000611D221F749F3327A00D611D231F849FA8
:103C6000600D211D822F762F6A2F11249F575040FF
:103C70009AF0F1F088234AF0EE0FFF1FBB1F661F7A
:103C8000771F881F91505040A9F79E3F510580F043
:103C90000C945F1E0C94AA1E5F3FE4F3983ED4F38D
:103CA000869577956795B795F795E7959F5FC1F7E7
:103CB000FE2B880F911D9695879597F9089597F992
:103CC0009F6780E870E060E008959FEF80EC0895C2
:103CD00000240A94161617061806090608950024EB
:103CE0000A9412161306140605060895092E039465
:103CF000000C11F4882352F0BB0F40F4BF2B11F4D9
:103D000060FF04C06F5F7F4F8F4F9F4F089557FD37
:103D10009058440F551F59F05F3F71F04795880F39
:103D200097FB991F61F09F3F79F0879508951216D0
:103D300013061406551FF2CF4695F1DF08C016167C
:103D400017061806991FF1CF86957105610508942D
:103D50000895E894BB2766277727CB0197F9089544
:103D60002F923F924F925F926F927F928F929F928B
:103D7000AF92BF92CF92DF92EF92FF920F931F9379
:103D8000CF93DF93CDB7DEB7CA1BDB0B0FB6F8942A
:103D9000DEBF0FBECDBF09942A88398848885F846A
:103DA0006E847D848C849B84AA84B984C884DF80DB
:103DB000EE80FD800C811B81AA81B981CE0FD11DBF
:103DC0000FB6F894DEBF0FBECDBFED010895505879
:103DD000BB27AA270E94FF1E0C94761E0E94681E15
:103DE00038F00E946F1E20F039F49F3F19F426F43A
:103DF0000C94651E0EF4E095E7FB0C945F1EE92F12
:103E00000E94871E58F3BA17620773078407950745
:103E100020F079F4A6F50C94A91E0EF4E0950B2E73
:103E2000BA2FA02D0B01B90190010C01CA01A0010C
:103E30001124FF27591B99F0593F50F4503E68F167
:103E40001A16F040A22F232F342F4427585FF3CFA8
:103E5000469537952795A795F0405395C9F77EF479
:103E60001F16BA0B620B730B840BBAF09150A1F0C2
:103E7000FF0FBB1F661F771F881FC2F70EC0BA0F48
:103E8000621F731F841F48F4879577956795B795D0
:103E9000F7959E3F08F0B0CF9395880F08F09927CB
:103EA000EE0F9795879508950E945B1F6894B11156
:103EB0000C94AA1E08950E948F1E88F09F5798F0B8
:103EC000B92F9927B751B0F0E1F0660F771F881F1F
:103ED000991F1AF0BA95C9F714C0B13091F00E9439
:103EE000A91EB1E008950C94A91E672F782F88278A
:103EF000B85F39F0B93FCCF3869577956795B39560
:103F0000D9F73EF490958095709561957F4F8F4FCE
:103F10009F4F089597FB072E16F4009407D077FD66
:103F200009D00E94C01F07FC05D03EF490958195F2
:103F30009F4F0895709561957F4F0895A1E21A2EC5
:103F4000AA1BBB1BFD010DC0AA1FBB1FEE1FFF1F3D
:103F5000A217B307E407F50720F0A21BB30BE40B8D
:103F6000F50B661F771F881F991F1A9469F76095D4
:103F70007095809590959B01AC01BD01CF0108958E
:103F8000AA1BBB1B51E107C0AA1FBB1FA617B7077F
:103F900010F0A61BB70B881F991F5A95A9F780959B
:103FA0009095BC01CD010895EE0FFF1F0590F4918F
:103FB000E02D09940F931F93CF93DF9382309105E7
:103FC00010F482E090E0E091BA05F091BB0530E09A
:103FD00020E0B0E0A0E0309799F42115310509F414
:103FE0004AC0281B390B24303105D8F58A819B81C2
:103FF0006115710589F1FB0193838283FE0111C074
:10400000408151810281138148175907E0F0481718
:10401000590799F4109761F012960C931297139622
:104020001C933296CF01DF91CF911F910F9108958C
:104030000093BA051093BB05F4CF2115310551F05B
:104040004217530738F0A901DB019A01BD01DF01D6
:10405000F801C1CFEF01F9CF9093BB058093BA056A
:10406000CDCFFE01E20FF31F8193919322503109CE
:1040700039832883D7CF2091B8053091B905232BF8
:1040800041F420912801309129013093B905209302
:10409000B80520912601309127012115310541F401
:1040A0002DB73EB740912A0150912B01241B350BAF
:1040B000E091B805F091B905E217F307A0F42E1BC3
:1040C0003F0B2817390778F0AC014E5F5F4F24177C
:1040D000350748F04E0F5F1F5093B9054093B80560
:1040E000819391939FCFF0E0E0E09CCFCF93DF935B
:1040F0000097E9F0FC01329713821282A091BA0571
:10410000B091BB05ED0130E020E01097A1F42081D3
:104110003181820F931F2091B8053091B90528177E
:10412000390709F061C0F093B905E093B805DF9154
:10413000CF910895EA01CE17DF07E8F54A815B8148
:104140009E0141155105B1F7E901FB83EA834991CD
:104150005991C40FD51FEC17FD0761F4808191813F
:104160000296840F951FE901998388838281938148
:104170009B838A83F0E0E0E012968D919C911397E7
:104180000097B9F52D913C911197CD010296820FC0
:10419000931F2091B8053091B9052817390739F6D2
:1041A000309751F51092BB051092BA05B093B9053E
:1041B000A093B805BCCFD383C28340815181840FC3
:1041C000951FC817D90761F44E5F5F4F88819981A9
:1041D000480F591F518340838A819B819383828337
:1041E0002115310509F0B0CFF093BB05E093BA0576
:1041F0009ECFFD01DC01C0CF13821282D7CFB0E089
:10420000A0E0E5E0F1E20C94B21E8C01009751F4BD
:10421000CB010E94DA1F8C01C801CDB7DEB7E0E107
:104220000C94CE1EFC01E60FF71F9C0122503109B1
:10423000E217F30708F49DC0D901CD91DC911197E5
:10424000C617D70798F0C530D10530F3CE010497D3
:104250008617970708F3C61BD70B2297C193D193F4
:104260006D937C93CF010E947620D6CF5B01AC1A70
:10427000BD0A4C018C0E9D1EA091BA05B091BB05E4
:10428000512C412CF12CE12C109731F58091B8057F
:104290009091B9058815990509F05CC04616570636
:1042A00008F058C08091260190912701009741F4B1
:1042B0008DB79EB740912A0150912B01841B950B1D
:1042C000E817F90708F055C0F093B905E093B80571
:1042D000F90171836083A0CF8D919C911197129603
:1042E0006C90129713967C901397A815B90559F501
:1042F0006C0142E0C40ED11CCA14DB0420F1AC01F5
:104300004A195B09DA011296159780F0628273826E
:1043100051834083D9016D937C93E114F10471F0D2
:10432000D7011396FC93EE93129776CF22968C0FBB
:104330009D1FF90191838083F301EFCFF093BB05BB
:10434000E093BA0569CF4816590608F42C017D019F
:10435000D3019ACFCB010E94DA1F7C01009749F06C
:10436000AE01B8010E94BC21C8010E9476208701DD
:1043700053CF10E000E050CFFB01DC0102C0019000
:104380000D9241505040D8F70895FC018191861755
:1043900021F08823D9F7992708953197CF010895FF
:1043A000FB01DC018D91019080190110D9F3990B6B
:1043B0000895FB01DC0101900D920020E1F70895C2
:0443C000F894FFCF9F
:1043C40007000700070000000700070000000700BF
:1043D40007000A009A99B93F5A005A005A005A0035
:1043E4005A005A001A000000BC05800003000700B0
:1043F4000B00020006000A00010005000900060384
:10440400000007040100080502000000001F037FEC
:1044140002AC028703DD02BB02CF0200000000826F
:1044240005550584072B054E053B052C050D0A0093
:104434006972446174614D41583A00202074687275
:104444006573686F6C643A00202064656661756CFE
:10445400745F73706565643A0020206761696E3A21
:10446400005B5B5B696E74657273656374696F6E20
:104474004445544543545D5D5D20696E74657273B3
:10448400656374696F6E434E54203A200037003FD1
:1044940000322C332C3200322C362C372C31312C78
:1044A40031302C392C3500322C362C372C31312C30
:1044B40031302C3900322C332C372C31312C313023
:1044C4002C362C3500332C372C31312C31302C390F
:1044D40000362C31302C3900362C372C31312C3726
:1044E4002C362C3500360031302C313100626174A9
:1044F40074566F6C74616765203A20002E00560074
:00000001FF
