:020000040000FA
:100000000C9417020C943F020C943F020C943F0294
:100010000C943F020C943F020C943F020C943F025C
:100020000C943F020C943F020C943F020C943F024C
:100030000C943F020C943F020C943F020C943F023C
:100040000C9472130C943F020C94E2130C94BC13A6
:100050000C943F020C943F020C943F020C943F021C
:100060000C9414140C943F0200407A10F35A00A030
:10007000724E18090010A5D4E80000E87648170071
:1000800000E40B54020000CA9A3B000000E1F505B1
:10009000000080969800000040420F000000A086FB
:1000A00001000000102700000000E803000000002D
:1000B0006400000000000A000000000001000000D1
:1000C00000002C76D888DC674F0823DFC1DFAE59EB
:1000D000E1B1B796E5E3E453C63AE651997696E87E
:1000E000E6C28426EB898C9B62ED407C6FFCEFBC02
:1000F0009C9F40F2BAA56FA5F490055A2AF75C932D
:100100006B6CF9676DC11BFCE0E40D47FEF520E662
:10011000B500D0ED902E0300943577050080841E45
:10012000080000204E0A000000C80C333333330FA0
:10013000986E12831141EF8D2114893BE65516CF3D
:10014000FEE6DB18D1844B381BF77C1D901DA4BB49
:10015000E424203284725E228100C9F124ECA1E5FE
:100160003D27736F6E69632064617461203A2000DB
:10017000426C6F636B2049443D0064657465637431
:100180006564206964203A20004F626A65637420C8
:10019000434E54203E3D2032202F20004F626A659E
:1001A000637420434E54203D3D2031202F200021F8
:1001B000212143616E204465746563746564212167
:1001C000210021212143616E20417070726F6163B3
:1001D00068212121005475726E43616C69620020B0
:1001E0005D5D002064617461203A20005B5B4E4FCE
:1001F000444500202E20000A4E4F444520444154DF
:1002000041205052494E54006D6F76655F316E6FDC
:100210006465006D6F7665203A20534F5554480051
:100220006D6F7665203A204E4F525448006D6F76C0
:1002300065203A2057455354006D6F7665203A206B
:1002400045415354006D6F7665203A20737461798F
:1002500000202F20002C00202F20746F3A002C004B
:100260004E4F44455F6D6F7665202F2066726F6D2F
:100270003A006D6F7665434E543A00426567696E89
:10028000206661696C65642100205D004752454528
:100290004E00202F2052657475726E20746F203AC4
:1002A000200054454100202F2041766F6964203A98
:1002B0002000434F4C41005B2054617267657420FD
:1002C0003A20004D697373696F6E20446174612038
:1002D00052656365766564203A3A20000A0A5B5BE2
:1002E0005B53657475702046696E6973685D5D5D0A
:1002F0000A0A000A0A5B5B5B5365747570205374CD
:100300006172745D5D5D0A0A003E3E3E20417420CC
:100310005374617274696E6720506F736974696F8A
:100320006E00736F6E69632064617461203A20000F
:10033000736F6E69632064617461203A20003E3EF1
:100340003E20434845434B2046554E43203A3A20F1
:10035000636865636B5F4E4F4445362C3130003E19
:100360003E3E20434845434B2046554E43203A3AB3
:1003700020636865636B5F4E4F4445352C39004EF2
:100380004F4445332032004E4F4445332031003E28
:100390003E3E20434845434B2046554E43203A3A83
:1003A00020636865636B5F4E4F444533004D69734E
:1003B00073696F6E205374617274212121000000F3
:1003C0000000240027002A0000000000250028006B
:1003D0002B000000000800020100000304070000D9
:1003E000000000000000000000002300260029009B
:1003F00004040404040404040202020202020303CB
:1004000003030303010204081020408001020408D2
:1004100010200102040810204C696E65547261635B
:10042000652053657474696E673A0000781511246D
:100430001FBECFEFD8E0DEBFCDBF25E0A2E4B2E023
:1004400001C01D92AE3BB207E1F712E0A0E0B1E0BF
:10045000E6EDF3E402C005900D92A234B107D9F79E
:1004600012E0C7E1D2E004C02197FE010E94DD1F27
:10047000C631D107C9F70E9422160C94E9210C94C9
:10048000000091E090933A0480933904109238046C
:10049000109237040895809133059091340520918E
:1004A000F0043091F104821793070CF49C0130930F
:1004B000F1042093F004821B930B089520913305DF
:1004C000309134056217730794F426E0660F771FA6
:1004D0002A95E1F7E0917205F0917305E60FF71F99
:1004E00020E4DC0101900D922A95E1F7089520E4C3
:1004F000E4E7F5E0F6CF833081F028F4813099F01D
:100500008230A9F008958730A9F08830C9F084308E
:10051000B1F4809180008F7D03C0809180008F773F
:1005200080938000089584B58F7784BD089584B545
:100530008F7DFBCF8091B0008F778093B0000895BE
:100540008091B0008F7DF9CFCF93DF93282F30E0DB
:10055000F901EE52FC4F8491F901EC5FFB4FD4910D
:10056000F901E051FC4FC491CC23A1F081110E940C
:100570007B02EC2FF0E0EE0FFF1FEA51FC4FA5913C
:10058000B491EC91ED2381E090E009F480E0DF91FB
:10059000CF91089580E090E0FACF1F93CF93DF933F
:1005A000282F30E0F901EE52FC4F8491F901EC5F05
:1005B000FB4FD491F901E051FC4FC491CC23A9F039
:1005C000162F81110E947B02EC2FF0E0EE0FFF1F2F
:1005D000E853FC4FA591B4918FB7F894EC911111A9
:1005E00008C0D095DE23DC938FBFDF91CF911F91A0
:1005F0000895DE2BF8CFCF93DF9390E0FC01EC5F02
:10060000FB4F249180519C4FFC0184918823D1F0B1
:1006100090E0880F991FFC01E254FC4FA591B49122
:10062000FC01E853FC4FC591D49161110EC09FB7F6
:10063000F8948C91E22FE0958E238C932881E2230D
:10064000E8839FBFDF91CF9108958FB7F894EC9125
:10065000E22BEC938FBFF6CF8E3008F08E50877070
:10066000806480937C0080917A00806480937A001B
:1006700080917A0086FDFCCF80917800909179007E
:1006800008953FB7F8948091DA029091DB02A0912F
:10069000DC02B091DD0226B5A89B05C02F3F19F002
:1006A0000196A11DB11D3FBFBA2FA92F982F8827F2
:1006B000BC01CD01620F711D811D911D42E0660FCD
:1006C000771F881F991F4A95D1F708958F929F929F
:1006D000AF92BF92CF92DF92EF92FF926B017C01BB
:1006E0000E9441034B015C01C114D104E104F104F7
:1006F000B9F00E944103681979098A099B09683E8B
:1007000073408105910580F321E0C21AD108E10808
:10071000F10888EE880E83E0981EA11CB11CE4CF7E
:10072000FF90EF90DF90CF90BF90AF909F908F9011
:10073000089508950895AF92BF92CF92DF92EF92FD
:10074000FF920F931F93CF93DF936C017B018B017B
:10075000040F151FEB015E01AE18BF08C017D107CB
:1007600059F06991D601ED91FC910190F081E02D55
:10077000C6010995892B79F7C501DF91CF911F91AA
:100780000F91FF90EF90DF90CF90BF90AF900895C2
:10079000FC01538D448D252F30E0842F90E0821B87
:1007A000930B541710F0CF96089501970895FC010C
:1007B000918D828D981761F0A28DAE0FBF2FB11D64
:1007C0005D968C91928D9F5F9F73928F90E00895BC
:1007D0008FEF9FEF0895FC01918D828D981731F076
:1007E000828DE80FF11D858D90E008958FEF9FEFCA
:1007F0000895FC01918D228D892F90E0805C9F4FA0
:10080000821B91098F73992708958BE394E00E94CE
:10081000F90321E0892B09F420E0822F089580E07C
:1008200090E0892B29F00E94050481110C940000AE
:100830000895FC01A48DA80FB92FB11DA35ABF4F75
:100840002C91848D90E001968F739927848FA689CF
:10085000B7892C93A089B1898C91837080648C9323
:10086000938D848D981306C00288F389E02D8081D2
:100870008F7D80830895EF92FF920F931F93CF9304
:10088000DF93EC0181E0888F9B8D8C8D98131AC0CB
:10089000E889F989808185FF15C09FB7F894EE89B2
:1008A000FF896083E889F98980818370806480830F
:1008B0009FBF81E090E0DF91CF911F910F91FF905A
:1008C000EF900895F62E0B8D10E00F5F1F4F0F7302
:1008D0001127E02E8C8D8E110CC00FB607FCFACFBD
:1008E000E889F989808185FFF5CFCE010E9419043E
:1008F000F1CFEB8DEC0FFD2FF11DE35AFF4FF0828E
:100900009FB7F8940B8FEA89FB8980818062CFCFF3
:100910000F931F93CF93DF938C01D0E0C0E0F801D9
:10092000EC0FFD1F6491662341F08BE394E00E947D
:100930003B04892B11F02196F2CFCE01DF91CF91AC
:100940001F910F910895CF93DF93EC01888D882339
:10095000B9F0AA89BB89E889F9898C9185FD03C022
:10096000808186FD0DC00FB607FCF7CF8C9185FF07
:10097000F2CF808185FFEDCFCE010E941904E9CF2F
:10098000DF91CF9108952091A902260F3327331FBD
:1009900021323105ECF420910B04FC0190E080E061
:1009A000243069F082E00895A091A9022191AC0160
:1009B00047575D4FA40FB52FB11D2C930196861795
:1009C00098F38091A902680F6093A90280E00895CE
:1009D00081E0089510920B0481E080930A04109244
:1009E000050461E082E10E94CD0261E083E10E94A2
:1009F000CD02E9EBF0E080818E7F808380818D7F66
:100A0000808388E48093B80085E48093BC000895D7
:100A1000CF93DF9391E0909388028823B9F0C0913F
:100A2000B800D091BA008091BC008A7B8093BC0052
:100A300060E082E10E94CD0260E083E10E94CD028D
:100A40000E94EA04D093BA00C093B800DF91CF911E
:100A500008950895E091120480911104E81730F48C
:100A6000F0E0ED5EFB4F808190E008958FEF9FEF07
:100A7000089590911204809111042FEF3FEF981781
:100A800048F4E92FF0E0ED5EFB4F208130E09F5FFE
:100A900090931204C9010895809111049091120459
:100AA000891B990B0895CF92DF92EF92FF920F93DB
:100AB0001F93CF93DF937C01CB018A0120913A04ED
:100AC000222389F0EB016B01C40ED51ECC15DD0588
:100AD00069F06991D701ED91FC910190F081E02DD1
:100AE000C7010995F3CF642F0E94C304C801DF91A9
:100AF000CF911F910F91FF90EF90DF90CF900895CD
:100B0000CF93DF931F92CDB7DEB7698320913A046C
:100B10002223F9F020913704203258F021E030E010
:100B2000FC013383228390E080E00F90DF91CF912E
:100B3000089580913804E82FF0E0E859FD4F99813D
:100B400090838F5F809338048093370481E090E036
:100B5000ECCF61E0CE0101960E94C304F7CF682F6D
:100B600088ED94E00C948005CF92DF92EF92FF9293
:100B70000F931F93CF93DF93D091370481E0D1324D
:100B800008F09CC0C09139040E9441036B017C01B4
:100B900080910B0481116CC082E080930B0481E092
:100BA00080930A048FEF8093090410920804D09375
:100BB0000704A8E6B2E0E5EEF3E080E0D8138DC0CC
:100BC0001092060480910604CC0FC82BC093060433
:100BD00080910504813009F084C0109205040E94C0
:100BE00041036B017C01809106048093BB008091DE
:100BF0000D0490910E04A0910F04B0911004892B64
:100C00008A2B8B2BA1F00E94410300910D041091BF
:100C10000E0420910F04309110046C197D098E0987
:100C20009F09061717072807390708F442C0809163
:100C3000BC0083FDD8CF85EC8093BC000E944103AB
:100C40006B017C0180910B04823009F44CC08091CF
:100C500009048F3F09F469C080910904803209F4C6
:100C600066C080910904803309F463C084E026C023
:100C700080910D0490910E04A0910F04B091100486
:100C8000892B8A2B8B2B09F483CF0E94410300917F
:100C90000D0410910E0420910F04309110046C1972
:100CA0007D098E099F09061717072807390708F0DD
:100CB0006FCF80910C040E94080585E010923804E3
:100CC0001092370410923A04DF91CF911F910F9147
:100CD000FF90EF90DF90CF9008959D9191938F5F5B
:100CE0006DCF85EEA9CF80910D0490910E04A09157
:100CF0000F04B0911004892B8A2B8B2B09F4A2CFFF
:100D00000E94410300910D0410910E0420910F04E4
:100D1000309110046C197D098E099F090617170779
:100D20002807390708F08ECFC4CF80E0C7CF82E014
:100D3000C5CF83E0C3CF0F931F93CF93DF93AB0156
:100D40002091E4043091E504232BE1F08B01EC01C8
:100D500082E30E9441028091E4049091E504DC0169
:100D6000ED91FC910280F381E02DA801BE0109956F
:100D70008091E4049091E504DF91CF911F910F9150
:100D80000C94B405A091E604B091E704109769F0C3
:100D9000ED91FC9111970280F381E02DBC01CD0112
:100DA000DF91CF911F910F910994DF91CF911F9106
:100DB0000F9108950F931F93CF93DF938C01EB0155
:100DC00085E00E94410282E490E00E94AF05C801E4
:100DD0000E94AF05CE010E94AF0588ED94E00E940D
:100DE000B4056AE070E080E090E0DF91CF911F9160
:100DF0000F910C9466038130910509F041C08091F8
:100E00001801909119018617970709F453C0709340
:100E100019016093180186E00E94410285E390E089
:100E20000E94AF0580911801909119010E94AF05B1
:100E300080911A0190911B010E94AF0580911C01C5
:100E400090911D010E94AF0580911E0190911F019C
:100E50000E94AF0580912001909121010E94AF0571
:100E600080912201909123010E94AF0588ED94E0CA
:100E70000E94B4056AE070E080E090E00C946603A4
:100E8000029761F480911A0190911B01681779070C
:100E900089F070931B0160931A01BDCF80911C01F2
:100EA00090911D016817790729F070931D016093D7
:100EB0001C01B1CF08950F931F93CF93DF938B0144
:100EC000C8E2D0E08130910531F0CAE2D0E002976B
:100ED00011F4C9E2D0E086E00E944102CE010E94F6
:100EE000AF05C8010E94AF0588ED94E00E94B405EB
:100EF0006AE070E080E090E0DF91CF911F910F9168
:100F00000C94660390E080E008958091DE02909159
:100F1000DF028F379105D4F42BEF280F2093E302E3
:100F2000E0EEF2E020E0AF01405E52404817590782
:100F300054F0FC01E052FD4F208301969093DF02B4
:100F40008093DE0208953191230FEDCF90E080E091
:100F5000089520916303309164038091660290911B
:100F600067022817390724F480916203882331F03F
:100F700081E08093610390E080E00895F901EB59EE
:100F8000FC4F808191812E5F3F4F3093640320930B
:100F90006303089520916402309165022130310588
:100FA000F1F13CF52115310579F1F901EB59FC4FCF
:100FB000808340916803842F90E0059628173907B5
:100FC00039F5909367028093660210926502109241
:100FD00064024B5FE5E6F3E030E020E0341768F1AF
:100FE0009927FC01EB59FC4F81E0908192131DC0C1
:100FF000089522303105F1F023303105B1F68A37FA
:1010000080F48093680304C0853579F48093650388
:101010002F5F3F4F309365022093640206C08A3AE7
:1010200031F0109265021092640280E0E1CF80936B
:101030006603EECF80936703EBCF5191250F3F5F9F
:10104000CDCFCF93DF9320916903621327C0EC01CA
:1010500085E090E0909364038093630310926203B1
:101060001092610368830E94A9079A8389830E9472
:10107000A9079C838B830E94A9079E838D830E946E
:10108000A90798878F830E94A9079A8789878091EB
:10109000610381111092610381E001C080E0DF9162
:1010A000CF910895CF92DF92EF92FF926B017C0176
:1010B0006DE770E08DE790E00E94DA06C701B601A7
:1010C000FF90EF90DF90CF900C946603CF93DF9367
:1010D000EB01BC010E94DA06BE01DD0F880B990B03
:1010E000DF91CF910C9466034F925F926F927F9243
:1010F0008F929F92AF92BF92CF92DF92EF92FF9228
:101100008FE00E942C0360912401709125018617C5
:1011100097070CF4BC018091B4059091B505681B4C
:10112000790B072E000C880B990B0E94C01D209193
:1011300014013091150140911601509117010E9440
:10114000FB1D4B015C016091120170911301072E90
:10115000000C880B990B0E94C01D6B017C01A5013E
:1011600094010E94F11E0E945D1F2B01A5019401B4
:10117000C701B6010E94F01E0E945D1FCB01B201A3
:101180000E94DA0664E170E080E090E0FF90EF906A
:10119000DF90CF90BF90AF909F908F907F906F9097
:1011A0005F904F900C946603FC0101900020E9F7DA
:1011B0003197AF01481B590BBC018BE394E00C94B1
:1011C0009B03CF93DF930E948804EC018FE691E0AC
:1011D0000E94D4088C0F9D1FDF91CF910895CF936B
:1011E000DF93FC0144815581608171818BE394E040
:1011F0000E949B03EC018FE691E00E94D4088C0FC3
:101200009D1FDF91CF9108954F925F926F927F92D1
:101210008F929F92AF92BF92EF92FF920F931F9384
:10122000CF93DF93D82F2FB7F89480913304909108
:101230003404A0913504B09136042FBF8093EC04A0
:101240009093ED04A093EE04B093EF0415EE05EC3B
:10125000C1E0FF24FA948FE0E82E2FB7F894809134
:10126000330490913404A0913504B09136042FBF1B
:101270004091EC045091ED046091EE047091EF0404
:10128000841B950BA60BB70B4091E8045091E90421
:101290006091EA047091EB04481759076A077B07CD
:1012A00008F41FC18091E4049091E504009709F4CB
:1012B000F3C0DC01ED91FC910084F185E02D0995EE
:1012C000892B09F093C00E9441034B015C0180917E
:1012D0000B04811161C0C0930B04C0930A04F09207
:1012E000090410920804E0920704C0930604809158
:1012F000060484668093060480910504813009F019
:10130000A4C0109205040E9441034B015C0180912E
:1013100006048093BB0080910D0490910E04A0916F
:101320000F04B0911004892B8A2B8B2BA1F00E9403
:10133000410340900D0450900E0460900F04709093
:101340001004681979098A099B0946165706680628
:10135000790608F442C08091BC0083FDD8CF009389
:10136000BC000E9441034B015C0180910B04813061
:1013700009F46EC080910804803108F08BC0809120
:101380000804A5EEB3E0E3E1F4E090E0981751F132
:101390002D9121939F5FFACF80910D0490910E04BF
:1013A000A0910F04B0911004892B8A2B8B2B09F488
:1013B0008ECF0E94410340900D0450900E04609027
:1013C0000F0470901004681979098A099B09461660
:1013D00057066806790608F07ACF80910C040E94BF
:1013E000080580E010921204809311048091E404B7
:1013F0009091E504DC01ED91FC910084F185E02DF4
:101400000995892B09F429CF8091E4049091E50492
:10141000DC01ED91FC910284F385E02D09950E9499
:10142000CA07882319F3DD2371F080916903D8136B
:1014300014CF85E090E0909364038093630310924F
:1014400062031092610381E04DC01093BC0089CF0C
:1014500080910D0490910E04A0910F04B09110049E
:10146000892B8A2B8B2B09F480CF0E94410340905B
:101470000D0450900E0460900F04709010046819D1
:1014800079098A099B09461657066806790608F005
:101490006CCFA3CF80E175CF8091E6049091E704F3
:1014A000892B09F4DACE8091E6049091E704DC01FF
:1014B000ED91FC910084F185E02D0995892B09F4CB
:1014C000CCCE8091E6049091E704DC01ED91FC9193
:1014D0000284F385E02D09950E94CA07882319F339
:1014E000A2CF80E0DF91CF911F910F91FF90EF90FD
:1014F000BF90AF909F908F907F906F905F904F9034
:1015000008958F929F92AF92BF92CF92DF92EF9207
:10151000FF920F931F93CF93DF93CDB7DEB7A197C1
:101520000FB6F894DEBF0FBECDBF6C01990FEE0869
:10153000FF08F7FE41C06DE28BE394E00E943B049C
:101540008C0122273327A9012C193D094E095F0977
:1015500019A2CE0181967C019AE0892E912CA12CB2
:10156000B12CCA01B901A50194010E94A71F605DB9
:10157000F70162937F01211531054105510589F776
:1015800090E080E0309719F0CF010E94D408800FDE
:10159000911FA1960FB6F894DEBF0FBECDBFDF91AD
:1015A000CF911F910F91FF90EF90DF90CF90BF9060
:1015B000AF909F908F900895A701960119A28E0178
:1015C0000F5D1F4F8AE0C82ED12CE12CF12CCA01EF
:1015D000B901A70196010E94A71F605DF8016293FF
:1015E0008F01211531054105510589F790E080E013
:1015F000309779F2CF010E94D408CBCFCF93DF93FD
:101600000E94810AEC018FE691E00E94D4088C0FC1
:101610009D1FDF91CF9108950F931F93CF93DF9379
:10162000EB0163E070E00E94931F9B01220F331FC8
:10163000620F731F860F971F880F991FFC01E050E0
:10164000FF4FD183C083825D9E4FFC0100811181D9
:101650008CEE91E00E948804C8010E94810A83EE0A
:1016600091E00E948804CE010E94810A8FED91E0F2
:10167000DF91CF911F910F910C94E108EF92FF92AF
:101680001F93CF93DF931092600385E58093E00270
:101690008AEA8093E10281E18093E20280E2809312
:1016A000E40285E090E09093DF028093DE020E94E6
:1016B0008507BC0180EE92E00E949B061092F10427
:1016C0001092F00489E20E940409182F882309F47B
:1016D00049C069E282E395E00E94210860913305E8
:1016E000709134051616170614F061E070E086E07C
:1016F000660F771F8A95E1F78091720590917305C7
:101700000E9408219093730580937205D0E0C0E099
:10171000F12CE12C8091330590913405E816F906FF
:1017200014F580E00E9404098823E1F0809172059D
:10173000909173056AE28C0F9D1F0E9421088823F7
:1017400031F08FEFE81AF80AC05CDF4FE3CF8091E9
:101750007205909173056BE28C0F9D1F0E9421080A
:101760008111EFCF10E0812FDF91CF911F91FF907A
:10177000EF9008950F931F93CF93DF93CDB7DEB70C
:10178000C054D1090FB6F894DEBF0FBECDBF10E034
:1017900000E00E943E0B882351F080913505909126
:1017A0003605892B21F00E944B02892B41F40F5FF3
:1017B0001F4F033011056CF310E000E027C010E06C
:1017C00000E00E944B02892BF1F06091F0047091CF
:1017D000F104CB0101969093F1048093F004CE01C3
:1017E00001960E945E024E815F8128853985429F65
:1017F000C001439F900D529F900D112408171907A7
:1018000004F78C01DECF0115110519F2C801C05C87
:10181000DF4F0FB6F894DEBF0FBECDBFDF91CF9183
:101820001F910F910895EF92FF920F931F93CF9303
:10183000DF93CDB7DEB7C054D1090FB6F894DEBF41
:101840000FBECDBF0E943E0B811156C08CE991E0C6
:101850000E9488040E943E0B8823A1F380913505E5
:1018600090913605892B71F30E944B02892B51F31D
:101870000E944B02892B31F36091F0047091F104C6
:10188000CB0101969093F1048093F004CE01019670
:101890000E945E0289818A3259F70A851B85C80138
:1018A0000197039728F780E791E00E948804C80118
:1018B0000E94FE0A03C00115110521F28AE791E09A
:1018C0000E948804C8010E94FE0A81E02091D20291
:1018D0003091D3022017310709F080E0C05CDF4F60
:1018E0000FB6F894DEBF0FBECDBFDF91CF911F9131
:1018F0000F91FF90EF9008958091350590913605F6
:10190000892B09F4A3CF0E944B02892B09F49ECFA7
:1019100010E000E00E944B027C01892B89F060916D
:10192000F0047091F104CB0101969093F10480933F
:10193000F004CE0101960E945E020F5F1F4FEACFB6
:10194000023011050CF482CF89E891E00E948804EE
:101950000E943E0B882309F475CF80913505909144
:101960003605892B09F46ECF0E944B02892B09F4AE
:1019700069CF10E000E00E944B02892B09F49BCF55
:101980006091F0047091F104CB0101969093F10401
:101990008093F004CE0101960E945E024E815F8129
:1019A00028853985429FC001439F900D529F900D1D
:1019B0001124E816F906FCF60A851B857C01DBCFAD
:1019C0000F931F93CF93DF93EC0188819981009748
:1019D00059F02A813B812617370730F081E0DF91EB
:1019E000CF911F910F9108958B016F5F7F4F0E94E0
:1019F0000821009759F0998388831B830A832C81DF
:101A00003D81232B59F7FC011082E8CF80E0E7CF1E
:101A10000F931F938BE99FE00197F1F761E084E05A
:101A20000E94FB0260E084E00E94CD0283E090E02F
:101A30000197F1F761E084E00E94CD028FE090E031
:101A40000197F1F760E084E00E94CD0260E084E05D
:101A50000E94FB02E8E0F4E06491E4EFF3E0E4913B
:101A6000F0E0EE0FFF1FEA51FC4F8591949100E4E6
:101A700012E42FE030E0462F0E9433156115710506
:101A80008105910529F06F5F7F4F8F4F9F4F9F70AA
:101A9000CB016AE370E00E94931FCB011F910F916D
:101AA0000895CF92DF92EF92FF920F931F93CF93FF
:101AB000DF938C017B0183E0C82ED12CD0E0C0E005
:101AC0000E94080DC80FD91F64E670E080E090E026
:101AD0000E94660381E0C81AD10891F7CE0163E045
:101AE00070E00E94931FEB0182E691E00E9488045F
:101AF000CE010E94FE0ACE010C97089798F40E942E
:101B0000130C61E070E0811102C062E070E0C80176
:101B1000DF91CF911F910F91FF90EF90DF90CF90C9
:101B20000C940C0BE39770E060E0C8012A9760F416
:101B30000E940C0B0E94130C61E070E0811102C046
:101B400062E070E0C701E4CF0E940C0B70E060E03F
:101B5000F9CFEF92FF920F931F93CF93DF9361150D
:101B6000710541F480E0DF91CF911F910F91FF90BB
:101B7000EF90089541155105B1F07B01EC010C8106
:101B80001D81040F151FB8010E94E00C882351F33A
:101B9000288139818C819D81B701820F931F0E941A
:101BA000E2211D830C8381E0DECFCF93DF93EC0134
:101BB00088819981009711F00E947F2019821882F4
:101BC0001D821C821B821A82DF91CF910895CF93D0
:101BD000DF93EC01FB0101900020E9F73197AF01A1
:101BE000461B570B0E94A90D811103C0CE010E9414
:101BF000D50DCE01DF91CF910895CF93DF93EC0106
:101C0000FB0144815581608171810E94A90D811180
:101C100003C0CE010E94D50DCE01DF91CF91089572
:101C2000EF92FF920F931F93CF93DF93EC017B0111
:101C30008A01BA010E94E00C81110BC0CE010E9402
:101C4000D50DCE01DF91CF911F910F91FF90EF90B5
:101C500008951D830C83B701888199810E94E22138
:101C6000F0CFFB0101900020E9F73197AF01461B4F
:101C7000570B0C94100E0F931F93CF93DF93CDB798
:101C8000DEB762970FB6F894DEBF0FBECDBF8C01F2
:101C9000CB01F80111821082138212821582148204
:101CA0004AE0BE016F5F7F4F0E943D1BBE016F5F28
:101CB0007F4FC8010E94310E62960FB6F894DEBFC6
:101CC0000FBECDBFDF91CF911F910F910895FC0101
:101CD000118210821382128215821482FB010190FC
:101CE0000020E9F73197AF01461B570B0C94100EFB
:101CF000AF92BF92CF92DF92EF92FF920F931F931A
:101D0000CF93DF936C015B017A01890124173507BA
:101D100020F48F2D7901042F182F61E771E0C6019F
:101D20000E94670ED5011496CD91DC91EC16FD064C
:101D3000E0F40C171D0708F4E801D501ED91FC91C2
:101D40001197EC0FFD1F108110826D917C916E0D2B
:101D50007F1DC60161157105A1F00E94310EF501CC
:101D600080819181C80FD91F1883C601DF91CF915F
:101D70001F910F91FF90EF90DF90CF90BF90AF90A9
:101D800008950E94D50DEBCFFC01808191810097D1
:101D900011F00C947F200895CF92DF92EF92FF9282
:101DA0000F931F93CF93DF93CDB7DEB7E9970FB6AD
:101DB000F894DEBF0FBECDBF6B017C01C092140151
:101DC000D0921501E0921601F09217015093130181
:101DD0004093120188E290E09093250180932401C2
:101DE00083E290E09093B5058093B40588E194E098
:101DF0000E9488041BA21AA21DA21CA21FA21EA23E
:101E00008E010F5F1F4F22E044E0C701B6010E9420
:101E1000F81A009709F46AC0BC01CE0182960E94AC
:101E2000310E6091120170911301CE0101960E9452
:101E30003B0E6091B4057091B505CE0188960E9465
:101E40003B0E6091240170912501CE018E960E9477
:101E50003B0E62E771E0CE01C4960E94670EBE01A0
:101E6000625D7F4FCE01C4960E94FD0D6DE771E06B
:101E70000E94E70DBE01685D7F4F0E94FD0D6AE87C
:101E800071E00E94E70DBE016F5F7F4F0E94FD0D64
:101E90006BE971E00E94E70DBE016E5D7F4F0E940D
:101EA000FD0D0E94EF08CE01C4960E94C40ECE0123
:101EB0008E960E94C40ECE0188960E94C40ECE015A
:101EC00001960E94C40ECE0182960E94C40EE9962D
:101ED0000FB6F894DEBF0FBECDBFDF91CF911F913B
:101EE0000F91FF90EF90DF90CF900895CE018296F2
:101EF0000E94D50D96CFCF93DF93CDB7DEB72C9749
:101F00000FB6F894DEBF0FBECDBF60E082E00E9446
:101F1000FB0282E00E94A402019759F560916202DF
:101F2000709163026F5F7F4F7093630260936202F0
:101F3000CE0107960E943B0E63EA71E0CE01019646
:101F40000E94670EBE01695F7F4FCE0101960E941D
:101F5000FD0D0E94EF08CE0101960E94C40ECE0135
:101F600007960E94C40E6FE070E08CE390E00E9440
:101F7000660864E170E080E090E00E9466032C96C1
:101F80000FB6F894DEBF0FBECDBFDF91CF9108959D
:101F90008091620290916302181619062CF00E943B
:101FA0007B0F0E947408F4CF1092630210926202B9
:101FB000089562E370E080E090E00E9452080E9481
:101FC0007B0F809162029091630218161906B4F497
:101FD00085ED91E00E94E10868ED7FEF88E290E0F6
:101FE0000E94DA0662E370E080E090E00E946603FF
:101FF00062E370E080E090E00E9452081092630279
:1020000010926202089568EC70E080E090E00E9417
:10201000520860E971E08CE390E00E9466086CE988
:102020007FEF84E690E00E94DA066AE174E080E0E7
:1020300090E00E9466036DE770E08DE790E00E94FB
:10204000DA060E94D90F6CEB72E080E090E00C940D
:10205000520868E270E088ED9FEF0E94DA066EEEAB
:1020600072E080E090E00E9466036DE770E08DE72B
:1020700090E00E94DA060C94D90F68EC70E080E0E2
:1020800090E00E9452086CE771E08CE390E00E94BF
:1020900066080E9429106CEB72E080E090E00C94DE
:1020A000520868ED7FEF88E290E00E94DA066EEE5B
:1020B00072E080E090E00E9466036DE770E08DE7DB
:1020C00090E00E94DA060C94D90F68EC70E080E092
:1020D00090E00E94520862EC71E08CE390E00E9474
:1020E00066080E9451106CEB72E080E090E00C9466
:1020F0005208CF938091D602811175C064E670E0DA
:1021000080E090E00E9452080E94BA0B8937954007
:102110000CF464C00E94BA0B0E94FE0A82EC91E0AB
:102120000E94E1084FE050E063E373E383E39FE341
:102130000E94CC0EC1E08091D602811146C08091F0
:10214000620290916302892B09F03FC00E94080D42
:102150000497B4F58FEA91E00E94E10862E370E031
:1021600080E090E00E9452086091B8057091B90536
:1021700081E090E00E94FB066091B6057091B70582
:1021800082E090E00E94FB066EE170E083E090E068
:102190000E94FB0668EE73E080E090E00E94660318
:1021A000C093D60261E070E08091D4029091D50294
:1021B0000E940C0B60ED77E080E090E00E945208F6
:1021C0000E947B0F0E947408B6CF4CE350E060E0A1
:1021D00070E080E490E4CF910C94CC0E0E94BA0B96
:1021E000CF910C94FE0ACF910895CF93DF93EC0129
:1021F0008091D7029091D8029E01281B390BC9010A
:102200008F3F3FEF930701F1A4F48D3F3FEF93071A
:10221000C1F00296E1F0D093D802C093D7020E9499
:10222000791088E092E00E94E108DF91CF910C9450
:10223000C80F8230910559F08330910529F001973C
:1022400051F70E946510E7CF0E943D10E4CF0E9435
:102250000310E1CF85ED8093BC0080910D04909137
:102260000E04A0910F04B09110040796A11DB11D9A
:1022700023E0B695A795979587952A95D1F7209154
:10228000BC0024FD03C010920B04089540910D047E
:1022900050910E0460910F0470911004452B462B51
:1022A000472B69F30097A105B10541F02AE22A9571
:1022B000F1F700C00197A109B109E1CF80910C04A9
:1022C0000C9408052F923F924F925F926F927F92EB
:1022D0008F929F92AF92BF92CF92DF92EF92FF9236
:1022E0000F931F93CF93DF93CDB7DEB72E970FB623
:1022F000F894DEBF0FBECDBF18861F821A861986DE
:102300001C861B86FC01608171816115710531F0AD
:1023100044815581CE0107960E94100E8B859C85C5
:10232000892B09F459C0EF80F8846CE270E0C70192
:102330000E94CE21009709F44FC08C010E191F098D
:10234000F12CE12CC0906002D09061020F3F100789
:1023500009F444C08FE0C816D1040CF03FC09801C6
:10236000A701BE01695F7F4FCE0101960E94780EE2
:1023700089819A81009761F10E94161B96012F5F57
:102380003F4F3093610220936002F601EE0FFF1F72
:10239000EE5BFD4F71836083CE0101960E94C40EF7
:1023A00078019FEFE91AF90A8B859C85E816F906F2
:1023B000A8F4CF80D8846CE270E0C6018E0D9F1D1A
:1023C0000E94CE21009751F08C010C191D09BACF43
:1023D00060E070E0CB01D2CFF12CE12C00916002E3
:1023E000109161020F30110514F52B853C85A70172
:1023F000BE01695F7F4FCE0101960E94780E8981F0
:102400009A81009729F10E94161B98012F5F3F4F78
:102410003093610220936002000F111FF801EE5B00
:10242000FD4F71836083CE0101960E94C40E4090DF
:10243000600250906102F201EE0FFF1FEE5BFD4F54
:10244000C2018F30910544F4119211920196F9CF97
:1024500060E070E0CB01D9CFCE0107960E94C40E98
:1024600093E0292E312C0091600210916102101628
:1024700011060CF0ACC082E792E00E948804C8010B
:102480000E94FE0A8091600290916102F201E81BB5
:10249000F90BEE0FFF1FEE5BFD4F808191810197DD
:1024A000712C612C8B30910538F4805C9E4FFC01BF
:1024B0006080062C000C77088091D4029091D502A0
:1024C000B1010E94931F5B016C01C301B1010E9425
:1024D000931F7B018C014501861A970A8C199D096F
:1024E0009E878D8780E692E00E948804C5010E9445
:1024F000810A8EE592E00E948804C6010E94810A4A
:1025000087E592E00E948804C7010E94810A85E560
:1025100092E00E948804C8010E94810A81E592E04D
:102520000E9488049AE0989D8001999D100D1124C5
:10253000ED85FE850E0F1F1FC8010E94FE0A7092D6
:10254000D5026092D40201151105E1F074F4063F42
:10255000FFEF1F07A9F10F3F1F4F59F160EA76E81F
:1025600081E090E00E9452081AC00130110579F014
:102570000A30110599F780E292E00E94E10890E0AC
:1025800080E00BC085E492E00E94E108E7CF89E398
:1025900092E00E94E10881E090E00E94F5108091B5
:1025A00060029091610201979093610280936002B2
:1025B0005ACF8DE292E00E94E10883E090E0EDCFF7
:1025C00083E192E00E94E10882E090E0E6CFE2E45D
:1025D000F2E080E692E0119211928E179F07D9F7F0
:1025E0002E960FB6F894DEBF0FBECDBFDF91CF9110
:1025F0001F910F91FF90EF90DF90CF90BF90AF9021
:102600009F908F907F906F905F904F903F902F9012
:102610000895CF92DF92EF92FF920F931F93CF9383
:10262000DF9300D000D000D0CDB7DEB787EF91E0C8
:102630000E94E10800E011E06801F12CE12CF601B4
:10264000619171916F01CE0101960E943B0E8D81C7
:102650009E81892B71F06FEC71E089819A810E94D3
:10266000D921892B31F461ED71E0CE0101960E94F0
:10267000310E4D815E8169817A818BE394E00E9405
:102680009B03F2E0EF16F10421F083EF91E00E944A
:102690008804CE0101960E94C40E8FEFE81AF80A52
:1026A000E3E0EE16F10459F681E791E00E94D408C8
:1026B0008FE691E00E94D4080A5F1F4FF1E00231DB
:1026C0001F0709F0B9CF26960FB6F894DEBF0FBEEC
:1026D000CDBFDF91CF911F910F91FF90EF90DF90D1
:1026E000CF9008951F920F920FB60F9211242F933F
:1026F0003F938F939F93AF93BF93809133049091B7
:102700003404A0913504B09136043091D90223E00D
:10271000230F2D3758F50196A11DB11D2093D90225
:102720008093330490933404A0933504B09336041B
:102730008091DA029091DB02A091DC02B091DD027F
:102740000196A11DB11D8093DA029093DB02A09344
:10275000DC02B093DD02BF91AF919F918F913F91C9
:102760002F910F900FBE0F901F90189526E8230F02
:102770000296A11DB11DD2CF1F920F920FB60F92DC
:1027800011242F933F934F935F936F937F938F9376
:102790009F93AF93BF93EF93FF938BE394E00E94DB
:1027A0001904FF91EF91BF91AF919F918F917F910C
:1027B0006F915F914F913F912F910F900FBE0F90AE
:1027C0001F9018951F920F920FB60F9211242F93FE
:1027D0008F939F93EF93FF93E0914B04F0914C0400
:1027E0008081E0915104F091520482FD1BC09081E0
:1027F000809154048F5F8F7320915504821741F0AC
:10280000E0915404F0E0E55CFB4F958F8093540415
:10281000FF91EF919F918F912F910F900FBE0F908D
:102820001F9018958081F4CF1F920F920FB60F92D0
:1028300011242F933F934F935F936F937F938F93C5
:102840009F93AF93BF93EF93FF938091B900887FDD
:10285000803609F44AC0F0F5883209F4A7C018F5AB
:10286000803109F49BC0B8F4882309F4F9C088309A
:1028700009F494C0FF91EF91BF91AF919F918F9117
:102880007F916F915F914F913F912F910F900FBE6C
:102890000F901F901895883109F488C0803251F745
:1028A0008093090414C0803409F49DC040F480333F
:1028B000B9F38833F9F68093090485ECB0C080350C
:1028C00009F485C0883509F496C0883499F60E94C9
:1028D0002A11D0CF883909F48CC038F5883729F00F
:1028E00050F4883611F0803729F683E080930B048A
:1028F0001092CB0257C0883809F47BC0803919F098
:10290000803809F0B7CF8091CB02803208F071C0D7
:10291000E091CB0281E08E0F8093CB028091BB00CF
:10292000F0E0E555FD4F80833DC0803B39F0E0F499
:10293000803A09F479C0883A09F09CCF84E080930A
:102940000B041092AA021092A902E091CC02F0911D
:10295000CD0209958091A90281110FC081E0809379
:10296000A9021092890209C0803C09F4A6CF883CD4
:1029700009F4A3CF883B09F07DCFE091AA0281E062
:102980008E0F8093AA02F0E0E757FD4F808180937D
:10299000BB009091AA028091A90229C080910604EF
:1029A0008093BB0085EC8093BC0064CF90910804B9
:1029B00080910704981758F5E091080481E08E0F84
:1029C00080930804F0E0EB51FC4F8081E9CFE09167
:1029D000080481E08E0F809308048091BB00F0E032
:1029E000EB51FC4F80839091080480910704981765
:1029F000C8F285E8D8CFE091080481E08E0F80937B
:102A000008048091BB00F0E0EB51FC4F8083809183
:102A10000A0481115CCF81E08093050484EA8093ED
:102A2000BC0010920B0426CF85EC8093BC00109262
:102A30000B048091CB02803230F4E091CB02F0E0C5
:102A4000E555FD4F10826091CB0270E0E091CE021F
:102A5000F091CF028BEA92E009951092CB020ACF57
:102A60001092090434CFCF92DF92EF92FF920F932E
:102A70001F93E82FF92F05C00150110921093109D1
:102A800061F1908196239417B9F305C001501109A3
:102A90002109310911F1908196239413F7CFC12CAC
:102AA000D12CE12CF12C0AC08FEFC81AD80AE80A01
:102AB000F80A0C151D052E053F0579F08081862347
:102AC000841791F36C2D7D2D8E2D9F2D1F910F91CD
:102AD000FF90EF90DF90CF90089560E070E080E08D
:102AE00090E01F910F91FF90EF90DF90CF900895AD
:102AF00010923E0410923D0488EE93E0A0E0B0E016
:102B000080933F0490934004A0934104B093420407
:102B10002FE431E030933C0420933B0425EC30E07B
:102B2000309348042093470424EC30E030934A0467
:102B30002093490420EC30E030934C0420934B0464
:102B400021EC30E030934E0420934D0422EC30E031
:102B50003093500420934F0426EC30E0309352041D
:102B6000209351041092540410925504109256046C
:102B7000109257041092DB041092DA048093DC0464
:102B80009093DD04A093DE04B093DF0481E691E02E
:102B90009093D9048093D8048091260190912701C5
:102BA0002EE630E0281B390B3093B9052093B80589
:102BB00083969093B7058093B605209124013091B8
:102BC0002501C901439697FD019695958795019634
:102BD0009093B5058093B40584E690E0A0E0B0E062
:102BE0008093E8049093E904A093EA04B093EB0483
:102BF0001092F1041092F004109273051092720575
:102C00001092E5041092E4041092E7041092E60496
:102C10008FEF809374058FEF9FEF909376058093ED
:102C20007505909378058093770590937A05809346
:102C3000790590937C0580937B0590937E05809326
:102C40007D050895CF93DF93CDB7DEB762970FB6BA
:102C5000F894DEBF0FBECDBF789484B5826084BD8A
:102C600084B5816084BD85B5826085BD85B5816090
:102C700085BD80916E00816080936E00109281000E
:102C800080918100826080938100809181008160C9
:102C9000809381008091800081608093800080918A
:102CA000B10084608093B1008091B0008160809316
:102CB000B00080917A00846080937A0080917A00DD
:102CC000826080937A0080917A00816080937A009C
:102CD00080917A00806880937A001092C1001092EF
:102CE00012041092110410923804109237040E94BA
:102CF000EA0489E993E09093CD028093CC028AE9BB
:102D000093E09093CF028093CE0264EF71E080E075
:102D100090E00E94660385E00E94410287E290E015
:102D20000E94AF0588ED94E00E94B4056AE070E06F
:102D300080E090E00E94660386E00E94410287E204
:102D400090E00E94AF0588ED94E00E94B4056AE02F
:102D500070E080E090E00E94660381E00E94410202
:102D600087E290E00E94AF0588ED94E00E94B405F0
:102D70006AE070E080E090E00E94660382E00E94DA
:102D8000410287E290E00E94AF0588ED94E00E9446
:102D9000B4056AE070E080E090E00E94660383E0A2
:102DA0000E94410287E290E00E94AF0588ED94E026
:102DB0000E94B4056AE070E080E090E00E94660343
:102DC00084E00E94410287E290E00E94AF0588ED16
:102DD00094E00E94B4056AE070E080E090E00E9418
:102DE000660361E087E00E94FB0261E087E00E94E9
:102DF000CD0260E088E00E94FB0288E00E94A4020D
:102E0000892BB9F761E087E00E94FB0260E087E070
:102E10000E94CD0285E00E94410287E290E00E947C
:102E2000AF0588ED94E00E94B4056AE070E080E0B0
:102E300090E00E94660386E00E94410287E290E0F3
:102E40000E94AF0588ED94E00E94B4056AE070E04E
:102E500080E090E00E94660381E00E94410287E2E8
:102E600090E00E94AF0588ED94E00E94B4056AE00E
:102E700070E080E090E00E94660382E00E944102E0
:102E800087E290E00E94AF0588ED94E00E94B405CF
:102E90006AE070E080E090E00E94660383E00E94B8
:102EA000410287E290E00E94AF0588ED94E00E9425
:102EB000B4056AE070E080E090E00E94660384E080
:102EC0000E94410287E290E00E94AF0588ED94E005
:102ED0000E94B4056AE070E080E090E00E94660322
:102EE00068EE73E080E090E00E94660385E00E9457
:102EF000410285E290E00E94AF0588ED94E00E94D7
:102F0000B4056AE070E080E090E00E94660386E02D
:102F10000E94410285E290E00E94AF0588ED94E0B6
:102F20000E94B4056AE070E080E090E00E946603D1
:102F300081E00E94410285E290E00E94AF0588EDA9
:102F400094E00E94B4056AE070E080E090E00E94A6
:102F5000660382E00E94410285E290E00E94AF0594
:102F600088ED94E00E94B4056AE070E080E090E0B3
:102F70000E94660383E00E94410285E290E00E9485
:102F8000AF0588ED94E00E94B4056AE070E080E04F
:102F900090E00E94660384E00E94410285E290E096
:102FA0000E94AF0588ED94E00E94B4056AE070E0ED
:102FB00080E090E00E946603E0914B04F0914C04A5
:102FC00082E08083E0914704F09148041082E09110
:102FD0004904F0914A0480E1808310925304E09107
:102FE0004F04F091500486E08083E0914D04F0910D
:102FF0004E04808180618083E0914D04F0914E0405
:10300000808188608083E0914D04F0914E0480813E
:1030100080688083E0914D04F0914E0480818F7D23
:10302000808383EF92E00E94880485E00E94410241
:1030300081E590E00E94AF0581E090E00E94AF053D
:1030400088ED94E00E94B4056AE070E080E090E0D2
:103050000E9466036CE370E081E090E00E945B07F1
:103060006CE370E082E090E00E945B076AE070E051
:1030700083E090E00E945B076EE670E081E090E004
:103080000E94FB0663E270E082E090E00E94FB0693
:1030900010923804109237040E94EA04E8EDEE2EF4
:1030A000E4E0FE2EF5E5DF2EAAEACA2EB1E1BB2E42
:1030B0001CE2A12E05E0802E912C1092E7041092C4
:1030C000E604F092E504E092E40405E010E01092DA
:1030D0006003D092E002C092E102B092E202A092BC
:1030E000E4029092DF028092DE020E948507BC011A
:1030F00080EE92E00E949B068EE20E9404098111FC
:10310000F2C10150110919F78BE792E00E94E10822
:1031100064E670E080E090E00E946603CECF87E82E
:1031200093E00E94E10863ED71E0CE0101960E94F8
:10313000670ECE0101960E946211CE0101960E9497
:10314000C40E35C08FE793E00E94E10869ED71E09D
:10315000ECCF65E072E0E9CF0E9429101092D8020E
:103160001092D70268EC70E080E090E00E94520874
:1031700069EE71E0DACF0E94080D0B971CF00E94F7
:103180007408F9CF0E9479108091D602811103C092
:103190000E947408F9CF88E090E09093D502809364
:1031A000D40281E090E09093D8028093D7020E94ED
:1031B000091360E472E48FE090E00E945208C114A9
:1031C000D10429F00E94050481110E9400008DEABB
:1031D00093E00E94E1080E94C80F0E94C80FB092BD
:1031E000D502A092D4021092D8021092D70289E0A0
:1031F00093E00E94E10864E670E080E090E00E94C5
:10320000520864EF71E084E690E00E9466088FE85F
:1032100093E00E94E10860E070E0CB010E94520858
:1032200010E000E073E0872E912C0E94080D080F3B
:10323000191F64E670E080E090E00E94660381E080
:10324000881A910891F7C801B7010E94931F8B015A
:1032500082E293E00E948804C8010E94FE0A0153A2
:10326000110970E060E00A30110540F40E94130C6F
:1032700061E070E0811102C062E070E090E080E007
:103280000E940C0B80910001909101018130910509
:1032900009F445CF8230910509F454CF892B09F008
:1032A00086CF0E94511001E010E01093D8020093E5
:1032B000D70268EC70E080E090E00E9452088FE551
:1032C00093E00E94E10868E070E087E090E00E94EF
:1032D000510D80910E0190910F018130910509F4FB
:1032E00038CF8230910509F437CF892B09F05FCFB1
:1032F00080911001909111018130910509F43BCF2B
:103300008230910509F4CBC0892B09F050CF0E947F
:1033100029101092D8021092D70268EC70E080E079
:1033200090E00E94520867ED71E0CE0101960E9484
:10333000670ECE0101960E946211CE0101960E9495
:10334000C40E0E9465101093D8020093D7028EE33A
:1033500093E00E94E10865E070E084E090E00E9464
:10336000510D80910801909109018130910509F476
:10337000A5C08230910509F4A4C0892B09F017CFAC
:1033800000910A0110910B010130110509F4A2C04E
:103390000230110509F4A1C00115110509F007CF8C
:1033A00067E272E0CE0101960E94670ECE0101969F
:1033B0000E946211CE0101960E94C40E0E943D102F
:1033C0001092D8021092D70263E0862E912C0E94B0
:1033D000080D080F191F64E670E080E090E00E947D
:1033E000660381E0881A910891F7C801B7010E942D
:1033F000931F8B0180E393E00E948804C8010E9420
:10340000FE0A0450110970E060E00C30110540F430
:103410000E94130C61E070E0811102C062E070E074
:1034200081E090E00E940C0B0091020110910301D9
:103430000130110509F454C00230110509F0B7CE6E
:1034400062E370E088ED9FEF0E9466080E945110D1
:1034500081E090E09093D8028093D70269E272E015
:10346000CE0101960E94670ECE0101960E94621164
:10347000CE0101960E94C40E68EC70E080E590E0F9
:103480000E9466080E9403101093D5020093D40294
:103490001093D8020093D7026EE072E046CE0E94ED
:1034A00029101092D8021092D70268EC70E080E0E8
:1034B00090E00E94520867EF71E037CE63E072E05F
:1034C00034CE0E9429101092D8021092D70267E0E1
:1034D00072E02BCE63E172E028CE6AE172E025CE85
:1034E00061E272E022CE80E00E942C03880F991FD7
:1034F00064E670E00E94931F8B01BC01CE0101962F
:103500000E943B0EB801CE0107960E943B0E6FE26F
:1035100072E0CE010D960E94670EBE01695F7F4F7B
:10352000CE010D960E94FD0D6EE372E00E94E70D44
:10353000BE016F5F7F4F0E94FD0D60E472E00E944C
:10354000E70D0E94EF08CE010D960E94C40ECE0139
:1035500007960E94C40ECE0101960E94C40E4CE351
:1035600050E060E070E080E490E40E94CC0E83E0E4
:1035700090E09093D3028093D20282E090E0909307
:10358000D1028093D00283EC92E00E94880487EB02
:1035900092E00E94880482EB92E00E94880489E312
:1035A00090E0909327018093260186EA92E00E94A2
:1035B000880482EA92E00E94880482E992E00E94F4
:1035C00088048CE892E00E94880489E892E00E94D6
:1035D000E1088CED92E00E94880436E0A32EB12C25
:1035E00043E0E42EF12C50E0C52E50E0D52EEFCD77
:1035F000EF920F931F93CF93DF93E80134E047FDE1
:1036000034E1042E000C550B57FF03C05195419532
:103610005109E32E022F242FAE010E94771BCE0109
:10362000DF91CF911F910F91EF9008951F93FC01AF
:1036300099278827BC01E89411911032E9F31930D9
:1036400010F01E30C8F31B3251F01D3249F468945B
:1036500006C00E94481B610F711D811D911D1191B3
:1036600010531A30B0F33EF49095809570956195A3
:103670007F4F8F4F9F4F1F910895BB274A3031F4E2
:10368000992322F4BDE2909581959F4F0C945E1B87
:10369000592F482F372F262F660F771F881F991F06
:1036A000660F771F881F991F620F731F841F951F56
:1036B000660F771F881F991F0895BB27FB015527A9
:1036C000AA27880F991FAA1FA41710F0A41B83957F
:1036D0005051B9F7A05DAA3308F0A95DA1930097F6
:1036E00079F7B111B1931192CB010C94AE1DA9E001
:1036F000B0E0EDE7FBE10C94BF1E6A01F22EB02EA4
:10370000102FFBE3AF2EA01608F41BE31F5F012F61
:1037100027E0AE014F5F5F4F0E94D61CBC0189813C
:10372000982F9970913009F43FC09BE2E1FC04C0EE
:103730009E2D9170E0FC3AC05E2D5071E82FE8702C
:1037400083FF46C084E0911101C083E0EF2DE81BA8
:103750008F1508F0E0E0D6018E2F20E2552351F1BD
:10376000992329F0D6019C93C60101966C0196011C
:103770002D5F3F4FE2FE24C08EE4D6018C9391E48E
:1037800011969C93119712968C93D9018E2F90E2EB
:1037900081111BC0E20FF32FF11D10828EEF9FEFFE
:1037A0002996ECE00C94DB1E9DE2C6CF90E2C4CFDC
:1037B0002D9381508111FCCFCE0ED11CE0E0D0CFF3
:1037C0008EE6D6018C9391E6DBCF9D938150E0CFBE
:1037D000482F447082FF3DC084E0911101C083E016
:1037E0008F1510F4EF2DE81BD6018E2F20E2552304
:1037F00009F1992329F0D6019C93C60101966C0129
:1038000096012D5F3F4FE2FE1BC089E4D6018C93E9
:103810008EE411968C93119786E412968C93D901BD
:103820008E2F90E2882309F4B5CF9D938150FACF73
:103830002D9381508111FCCFCE0ED11CE0E0D9CF69
:1038400089E6D6018C938EE611968C93119786E6C5
:10385000E4CF9B0177FF02C030E020E0A1E0B0E0C0
:10386000911102C0B0E0A0E0F9013196AE0FBF1F88
:103870008B2C912CBB2009F461C05401EFEFAE1AE0
:10388000BE0AAA0DBB1DFA161B0619F014F04F2D27
:103890004A1B511188C0E3FC59C07601A42FB0E245
:1038A000A1114FC0C40ED11C992309F45BC040E0A4
:1038B000D6011196F60190836D01552309F448C095
:1038C000012F060F9A81582F507184FF03C0913346
:1038D00009F4015010160CF047C0093008F008E058
:1038E000EEE2FE2E5B01A01AB1088501919481944D
:1038F00091082F3F320729F4D601FC92F601319648
:103900006F016217730794F1021713077CF5DB014F
:10391000A21BB30BAA24A394B12CAC0EBD1EAA0DFE
:10392000BB1D11968C9121503109D6011196281595
:103930003905F4F0F60180836D01DBCFB12CA12CA9
:10394000A0CFF701B1937F01A150AACF9111B0CFC1
:10395000D601942F50E302C05D9391509111FCCF9A
:10396000C40ED11C40E0ACCF01E0BACF80E3DBCF86
:103970006217730731F4963388F4953311F45523A5
:1039800069F0F6018083FD01842F90E2811108C067
:10399000A40FB11D1C9290E080E002CF81E3F1CF33
:1039A00091938150F3CF911183CF8ACF283008F0C3
:1039B00027E03327DA01990F311D87FD91600096CA
:1039C0006105710539F432602E5F3D9330E32A952D
:1039D000E1F708959F3F30F080387105610509F0E7
:1039E0003C5F3C5F3D93913008F08068911DDF9310
:1039F000CF931F930F93FF92EF92192F987F969575
:103A0000E92F96959695E90FFF27EE53FF4F9927DB
:103A10003327EE24FF24A701E701059008940794BB
:103A200028F4360FE71EF81E491F511D660F771F39
:103A3000881F991F0694A1F70590079428F4E70EB4
:103A4000F81E491F561FC11D770F881F991F661F3B
:103A50000694A1F70590079428F4F80E491F561F05
:103A6000C71FD11D880F991F661F771F0694A1F7E6
:103A70000590079420F4490F561FC71FD81F990FB0
:103A8000661F771F881F0694A9F7849110951770F9
:103A900041F0D695C79557954795F794E7941A95B1
:103AA000C1F7E8E6F0E068941590159135916591BD
:103AB000959105907FE27395E118F10A430B560B3F
:103AC000C90BD009C0F7E10CF11E431F561FC91FD7
:103AD000D01D7EF4703311F48A95E6CFE89401503E
:103AE00030F0080F0AF40027021708F4202F23955E
:103AF000022F7A3328F079E37D932A95E9F710C0F5
:103B00007D932A9589F6069497956795379517952D
:103B10001794E118F10A430B560BC90BD00998F022
:103B200023957E9173957A3308F070E37C9320138C
:103B3000B8F77E9170617D9330F0839571E37D934A
:103B400070E32A95E1F71124EF90FF900F911F91F8
:103B5000CF91DF91992787FD90950895DC01FC01B5
:103B6000672F71917723E1F7329704C07C916D93B1
:103B700070836291AE17BF07C8F30895E89409C037
:103B800097FB3EF490958095709561957F4F8F4F90
:103B90009F4F9923A9F0F92F96E9BB279395F695A6
:103BA000879577956795B795F111F8CFFAF4BB0F24
:103BB00011F460FF1BC06F5F7F4F8F4F9F4F16C088
:103BC000882311F096E911C0772321F09EE8872F12
:103BD000762F05C0662371F096E8862F70E060E0CE
:103BE0002AF09A95660F771F881FDAF7880F969547
:103BF000879597F908950E940E1E0C947F1E0E94CF
:103C0000711E38F00E94781E20F0952311F00C945C
:103C1000681E0C946E1E11240C94B31E0E94901EFC
:103C200070F3959FC1F3950F50E0551F629FF0010F
:103C3000729FBB27F00DB11D639FAA27F00DB11D28
:103C4000AA1F649F6627B00DA11D661F829F2227B1
:103C5000B00DA11D621F739FB00DA11D621F839F38
:103C6000A00D611D221F749F3327A00D611D231F0E
:103C7000849F600D211D822F762F6A2F11249F575C
:103C800050409AF0F1F088234AF0EE0FFF1FBB1F5F
:103C9000661F771F881F91505040A9F79E3F51051E
:103CA00080F00C94681E0C94B31E5F3FE4F3983EC2
:103CB000D4F3869577956795B795F795E7959F5FC8
:103CC000C1F7FE2B880F911D9695879597F908955A
:103CD00097F99F6780E870E060E008959FEF80ECBF
:103CE000089500240A941616170618060906089562
:103CF00000240A9412161306140605060895092EC8
:103D00000394000C11F4882352F0BB0F40F4BF2B36
:103D100011F460FF04C06F5F7F4F8F4F9F4F089576
:103D200057FD9058440F551F59F05F3F71F047956C
:103D3000880F97FB991F61F09F3F79F08795089551
:103D4000121613061406551FF2CF4695F1DF08C070
:103D5000161617061806991FF1CF8695710561058D
:103D600008940895E894BB2766277727CB0197F935
:103D700008952F923F924F925F926F927F928F920F
:103D80009F92AF92BF92CF92DF92EF92FF920F93EA
:103D90001F93CF93DF93CDB7DEB7CA1BDB0B0FB6F4
:103DA000F894DEBF0FBECDBF09942A8839884888B1
:103DB0005F846E847D848C849B84AA84B984C88447
:103DC000DF80EE80FD800C811B81AA81B981CE0F3E
:103DD000D11D0FB6F894DEBF0FBECDBFED01089523
:103DE0005058BB27AA270E94081F0C947F1E0E94D0
:103DF000711E38F00E94781E20F039F49F3F19F4AC
:103E000026F40C946E1E0EF4E095E7FB0C94681EED
:103E1000E92F0E94901E58F3BA17620773078407B0
:103E2000950720F079F4A6F50C94B21E0EF4E095F7
:103E30000B2EBA2FA02D0B01B90190010C01CA0164
:103E4000A0011124FF27591B99F0593F50F4503E0F
:103E500068F11A16F040A22F232F342F4427585F01
:103E6000F3CF469537952795A795F0405395C9F719
:103E70007EF41F16BA0B620B730B840BBAF09150D1
:103E8000A1F0FF0FBB1F661F771F881FC2F70EC070
:103E9000BA0F621F731F841F48F487957795679543
:103EA000B795F7959E3F08F0B0CF9395880F08F02F
:103EB0009927EE0F9795879508950E94641F68943F
:103EC000B1110C94B31E08950E94981E88F09F575C
:103ED00098F0B92F9927B751B0F0E1F0660F771F2E
:103EE000881F991F1AF0BA95C9F714C0B13091F024
:103EF0000E94B21EB1E008950C94B21E672F782F75
:103F00008827B85F39F0B93FCCF3869577956795E8
:103F1000B395D9F73EF490958095709561957F4F54
:103F20008F4F9F4F089597FB072E16F4009407D0EC
:103F300077FD09D00E94C91F07FC05D03EF490957B
:103F400081959F4F0895709561957F4F0895A1E2E7
:103F50001A2EAA1BBB1BFD010DC0AA1FBB1FEE1F03
:103F6000FF1FA217B307E407F50720F0A21BB30B4E
:103F7000E40BF50B661F771F881F991F1A9469F7CA
:103F800060957095809590959B01AC01BD01CF0126
:103F90000895AA1BBB1B51E107C0AA1FBB1FA61790
:103FA000B70710F0A61BB70B881F991F5A95A9F7E2
:103FB00080959095BC01CD010895EE0FFF1F0590EF
:103FC000F491E02D09940F931F93CF93DF938230E8
:103FD000910510F482E090E0E091BC05F091BD0500
:103FE00030E020E0B0E0A0E0309799F421153105F1
:103FF00009F44AC0281B390B24303105D8F58A81D1
:104000009B816115710589F1FB0193838283FE0118
:1040100011C0408151810281138148175907E0F096
:104020004817590799F4109761F012960C9312975C
:1040300013961C933296CF01DF91CF911F910F9170
:1040400008950093BC051093BD05F4CF21153105EB
:1040500051F04217530738F0A901DB019A01BD0165
:10406000DF01F801C1CFEF01F9CF9093BD05809337
:10407000BC05CDCFFE01E20FF31F81939193225037
:10408000310939832883D7CF2091BA053091BB05F8
:10409000232B41F420912A0130912B013093BB0551
:1040A0002093BA052091280130912901211531056D
:1040B00041F42DB73EB740912C0150912D01241BA6
:1040C000350BE091BA05F091BB05E217F307A0F4B8
:1040D0002E1B3F0B2817390778F0AC014E5F5F4F5E
:1040E0002417350748F04E0F5F1F5093BB054093D0
:1040F000BA05819391939FCFF0E0E0E09CCFCF93FE
:10410000DF930097E9F0FC01329713821282A091AD
:10411000BC05B091BD05ED0130E020E01097A1F4A1
:1041200020813181820F931F2091BA053091BB0508
:104130002817390709F061C0F093BB05E093BA0571
:10414000DF91CF910895EA01CE17DF07E8F54A81A4
:104150005B819E0141155105B1F7E901FB83EA83BB
:1041600049915991C40FD51FEC17FD0761F4808167
:1041700091810296840F951FE9019983888382813A
:1041800093819B838A83F0E0E0E012968D919C916D
:1041900013970097B9F52D913C911197CD01029697
:1041A000820F931F2091BA053091BB05281739075C
:1041B00039F6309751F51092BD051092BC05B093B9
:1041C000BB05A093BA05BCCFD383C2834081518184
:1041D000840F951FC817D90761F44E5F5F4F888120
:1041E0009981480F591F518340838A819B81938312
:1041F00082832115310509F0B0CFF093BD05E0931E
:10420000BC059ECFFD01DC01C0CF13821282D7CF47
:10421000B0E0A0E0EEE0F1E20C94BB1E8C01009750
:1042200051F4CB010E94E31F8C01C801CDB7DEB76A
:10423000E0E10C94D71EFC01E60FF71F9C01225011
:104240003109E217F30708F49DC0D901CD91DC9143
:104250001197C617D70798F0C530D10530F3CE01B6
:1042600004978617970708F3C61BD70B2297C193AD
:10427000D1936D937C93CF010E947F20D6CF5B01B9
:10428000AC1ABD0A4C018C0E9D1EA091BC05B091CC
:10429000BD05512C412CF12CE12C109731F580916A
:1042A000BA059091BB058815990509F05CC04616C2
:1042B000570608F058C08091280190912901009775
:1042C00041F48DB79EB740912C0150912D01841B74
:1042D000950BE817F90708F055C0F093BB05E0937C
:1042E000BA05F90171836083A0CF8D919C911197DC
:1042F00012966C90129713967C901397A815B90597
:1043000059F56C0142E0C40ED11CCA14DB0420F143
:10431000AC014A195B09DA011296159780F06282A6
:10432000738251834083D9016D937C93E114F1042E
:1043300071F0D7011396FC93EE93129776CF2296E5
:104340008C0F9D1FF90191838083F301EFCFF093D0
:10435000BD05E093BC0569CF4816590608F42C0149
:104360007D01D3019ACFCB010E94E31F7C0100970E
:1043700049F0AE01B8010E94C521C8010E947F200A
:10438000870153CF10E000E050CFFB01DC0102C0F9
:1043900001900D9241505040D8F70895FC01819151
:1043A000861721F08823D9F7992708953197CF01EF
:1043B0000895FB01DC018D91019080190110D9F362
:1043C000990B0895FB01DC0101900D920020E1F7AB
:1043D0000895F894FFCF07000700070000000700CA
:1043E00007000000070007000A009A99B93F5A0029
:1043F0005A005A005A005A005A001A0039000000A8
:10440000BE058000030007000B00020006000A0042
:10441000010005000900060300000704010008056B
:1044200002000000003B049B03C803A304F903D768
:1044300003EB030000000080055305820729054CAB
:104440000539052A050D0A006972446174614D4100
:10445000583A0020207468726573686F6C643A0083
:10446000202064656661756C745F73706565643A7D
:104470000020206761696E3A005B5B5B696E746562
:104480007273656374696F6E4445544543545D5D52
:104490005D20696E74657273656374696F6E434EF7
:1044A00054203A200037003F00322C332C320032A7
:1044B0002C362C372C31312C31302C392C35003224
:1044C0002C362C372C31312C31302C3900322C3316
:1044D0002C372C31312C31302C362C3500332C3705
:1044E0002C31312C31302C3900362C31302C390024
:1044F000362C372C31312C372C362C350036003108
:10450000302C31310062617474566F6C7461676570
:08451000203A20002E005600A5
:107E0000112484B714BE81FFF0D085E080938100F7
:107E100082E08093C00088E18093C10086E0809377
:107E2000C20080E18093C4008EE0C9D0259A86E02C
:107E300020E33CEF91E0309385002093840096BBD3
:107E4000B09BFECF1D9AA8958150A9F7CC24DD24C4
:107E500088248394B5E0AB2EA1E19A2EF3E0BF2EE7
:107E6000A2D0813461F49FD0082FAFD0023811F036
:107E7000013811F484E001C083E08DD089C08234E0
:107E800011F484E103C0853419F485E0A6D080C0E4
:107E9000853579F488D0E82EFF2485D0082F10E0AE
:107EA000102F00270E291F29000F111F8ED06801E7
:107EB0006FC0863521F484E090D080E0DECF843638
:107EC00009F040C070D06FD0082F6DD080E0C81688
:107ED00080E7D80618F4F601B7BEE895C0E0D1E017
:107EE00062D089930C17E1F7F0E0CF16F0E7DF06D8
:107EF00018F0F601B7BEE89568D007B600FCFDCFD4
:107F0000A601A0E0B1E02C9130E011968C91119780
:107F100090E0982F8827822B932B1296FA010C0160
:107F200087BEE89511244E5F5F4FF1E0A038BF0790
:107F300051F7F601A7BEE89507B600FCFDCF97BE46
:107F4000E89526C08437B1F42ED02DD0F82E2BD052
:107F50003CD0F601EF2C8F010F5F1F4F84911BD097
:107F6000EA94F801C1F70894C11CD11CFA94CF0C13
:107F7000D11C0EC0853739F428D08EE10CD085E9AC
:107F80000AD08FE07ACF813511F488E018D01DD067
:107F900080E101D065CF982F8091C00085FFFCCF94
:107FA0009093C60008958091C00087FFFCCF809118
:107FB000C00084FD01C0A8958091C6000895E0E648
:107FC000F0E098E1908380830895EDDF803219F02E
:107FD00088E0F5DFFFCF84E1DECF1F93182FE3DFCA
:107FE0001150E9F7F2DF1F91089580E0E8DFEE27F6
:047FF000FF270994CA
:027FFE00040479
:00000001FF
