:020000040000FA
:100000000C9498010C94C0010C94C0010C94C00194
:100010000C94C0010C94C0010C94C0010C94C0015C
:100020000C94C0010C94C0010C94C0010C94C0014C
:100030000C94C0010C94C0010C94C0010C94C0013C
:100040000C94390F0C94C0010C94A90F0C94830FDD
:100050000C94C0010C94C0010C94C0010C94C0011C
:100060000C94DB0F0C94C00100407A10F35A00A0EE
:10007000724E18090010A5D4E80000E87648170071
:1000800000E40B54020000CA9A3B000000E1F505B1
:10009000000080969800000040420F000000A086FB
:1000A00001000000102700000000E803000000002D
:1000B0006400000000000A000000000001000000D1
:1000C00000002C76D888DC674F0823DFC1DFAE59EB
:1000D000E1B1B796E5E3E453C63AE651997696E87E
:1000E000E6C28426EB898C9B62ED407C6FFCEFBC02
:1000F0009C9F40F2BAA56FA5F490055A2AF75C932D
:100100006B6CF9676DC11BFCE0E40D47FEF520E662
:10011000B500D0ED902E0300943577050080841E45
:10012000080000204E0A000000C80C333333330FA0
:10013000986E12831141EF8D2114893BE65516CF3D
:10014000FEE6DB18D1844B381BF77C1D901DA4BB49
:10015000E424203284725E228100C9F124ECA1E5FE
:100160003D275475726E43616C696200205D5D00CD
:100170002064617461203A20005B5B4E4F4445006F
:1001800021212143616E2044657465637465642197
:1001900021210021212143616E20417070726F6125
:1001A0006368212121006D6F76655F316E6F646534
:1001B00000426567696E206661696C656421002094
:1001C0005D00475245454E00202F205265747572E0
:1001D0006E20746F203A200054454100202F2041AA
:1001E000766F6964203A2000434F4C41005B2054F5
:1001F0006172676574203A20004D697373696F6E90
:1002000020446174612052656365766564203A3AE2
:1002100020000A0A5B5B5B53657475702046696E4B
:100220006973685D5D5D0A0A000A0A5B5B5B536582
:100230007475702053746172745D5D5D0A0A003ECE
:100240003E3E204174205374617274696E67205081
:100250006F736974696F6E006D6F7665203A205315
:100260004F555448006D6F7665203A204E4F5254DA
:1002700048006D6F7665203A2057455354006D6FE6
:100280007665203A2045415354006D6F7665203ADB
:10029000207374617900202F20002C00202F2074FF
:1002A0006F3A002C004E4F44455F6D6F7665202FEE
:1002B0002066726F6D3A006D6F7665434E543A005A
:1002C00000000000240027002A0000000000250094
:1002D00028002B0000000000230026002900040451
:1002E00004040404040402020202020203030303DE
:1002F00003030102040810204080010204081020BA
:1003000001020408102000000008000201000003A0
:10031000040700000000000000004C696E65547284
:100320006163652053657474696E673A00003F111C
:1003300011241FBECFEFD8E0DEBFCDBF25E0ACEE6D
:10034000B1E001C01D92A836B207E1F711E0A0E0CC
:10035000B1E0E0E8FBE302C005900D92AC3EB107CE
:10036000D9F711E0C8E9D1E004C02197FE010E944D
:10037000BB1BC739D107C9F70E94E9110C94BE1DF8
:100380000C94000091E09093E4038093E3031092B7
:10039000E2031092E1030895833081F028F4813064
:1003A00099F08230A9F008958730A9F08830C9F01B
:1003B0008430B1F4809180008F7D03C080918000F3
:1003C0008F7780938000089584B58F7784BD0895DA
:1003D00084B58F7DFBCF8091B0008F778093B00084
:1003E00008958091B0008F7DF9CFCF93DF93282FB0
:1003F00030E0F901EA5FFC4F8491F901EE50FD4FC6
:10040000D491F901E252FD4FC491CC23A1F08111A6
:100410000E94CC01EC2FF0E0EE0FFF1FEC52FD4FDD
:10042000A591B491EC91ED2381E090E009F480E096
:10043000DF91CF91089580E090E0FACF1F93CF93A2
:10044000DF93282F30E0F901EA5FFC4F8491F90136
:10045000EE50FD4FD491F901E252FD4FC491CC23EF
:10046000A9F0162F81110E94CC01EC2FF0E0EE0FC5
:10047000FF1FE653FD4FA591B4918FB7F894EC910F
:10048000111108C0D095DE23DC938FBFDF91CF918F
:100490001F910895DE2BF8CFCF93DF9390E0FC01FE
:1004A000EE50FD4F249182529D4FFC018491882390
:1004B000D1F090E0880F991FFC01E054FD4FA59109
:1004C000B491FC01E653FD4FC591D49161110EC06A
:1004D0009FB7F8948C91E22FE0958E238C9328811E
:1004E000E223E8839FBFDF91CF9108958FB7F894FF
:1004F000EC91E22BEC938FBFF6CF8E3008F08E504C
:100500008770806480937C0080917A0080648093FF
:100510007A0080917A0086FDFCCF809178009091DE
:10052000790008953FB7F8948091070390910803EC
:10053000A0910903B0910A0326B5A89B05C02F3FDF
:1005400019F00196A11DB11D3FBFBA2FA92F982FF9
:100550008827BC01CD01620F711D811D911D42E0F4
:10056000660F771F881F991F4A95D1F708958F92BC
:100570009F92AF92BF92CF92DF92EF92FF926B0168
:100580007C010E9492024B015C01C114D104E10480
:10059000F104B9F00E949202681979098A099B094D
:1005A000683E73408105910580F321E0C21AD108AD
:1005B000E108F10888EE880E83E0981EA11CB11CAA
:1005C000E4CFFF90EF90DF90CF90BF90AF909F90DF
:1005D0008F90089508950895AF92BF92CF92DF92C1
:1005E000EF92FF920F931F93CF93DF936C017B01E8
:1005F0008B01040F151FEB015E01AE18BF08C01779
:10060000D10759F06991D601ED91FC910190F081EB
:10061000E02DC6010995892B79F7C501DF91CF91AE
:100620001F910F91FF90EF90DF90CF90BF90AF9010
:100630000895FC01538D448D252F30E0842F90E0E8
:10064000821B930B541710F0CF96089501970895CD
:10065000FC01918D828D981761F0A28DAE0FBF2F96
:10066000B11D5D968C91928D9F5F9F73928F90E0EC
:1006700008958FEF9FEF0895FC01918D828D98175B
:1006800031F0828DE80FF11D858D90E008958FEF98
:100690009FEF0895FC01918D228D892F90E0805C61
:1006A0009F4F821B91098F739927089585EE93E0E0
:1006B0000E944A0321E0892B09F420E0822F08954B
:1006C00080E090E0892B29F00E94560381110C9460
:1006D00000000895FC01A48DA80FB92FB11DA35AE5
:1006E000BF4F2C91848D90E001968F739927848F52
:1006F000A689B7892C93A089B1898C918370806475
:100700008C93938D848D981306C00288F389E02D15
:1007100080818F7D80830895EF92FF920F931F93C6
:10072000CF93DF93EC0181E0888F9B8D8C8D9813A4
:100730001AC0E889F989808185FF15C09FB7F894B0
:10074000EE89FF896083E889F989808183708064FC
:1007500080839FBF81E090E0DF91CF911F910F9147
:10076000FF90EF900895F62E0B8D10E00F5F1F4F56
:100770000F731127E02E8C8D8E110CC00FB607FC65
:10078000FACFE889F989808185FFF5CFCE010E94F3
:100790006A03F1CFEB8DEC0FFD2FF11DE35AFF4FF4
:1007A000F0829FB7F8940B8FEA89FB898081806281
:1007B000CFCF0F931F93CF93DF938C01D0E0C0E096
:1007C000F801EC0FFD1F6491662341F085EE93E084
:1007D0000E948C03892B11F02196F2CFCE01DF917C
:1007E000CF911F910F910895CF93DF93EC01888DE6
:1007F0008823B9F0AA89BB89E889F9898C9185FD9C
:1008000003C0808186FD0DC00FB607FCF7CF8C9129
:1008100085FFF2CF808185FFEDCFCE010E946A0374
:10082000E9CFDF91CF91089520913402260F33272D
:10083000331F21323105ECF42091B503FC0190E027
:1008400080E0243069F082E00895A0913402219183
:10085000AC014C5E5D4FA40FB52FB11D2C930196DA
:10086000861798F380913402680F6093340280E019
:10087000089581E008951092B50381E08093B40358
:100880001092AF0361E082E10E941E0261E083E109
:100890000E941E02E9EBF0E080818E7F80838081E0
:1008A0008D7F808388E48093B80085E48093BC00CA
:1008B0000895CF93DF9391E0909313028823B9F0CA
:1008C000C091B800D091BA008091BC008A7B80931F
:1008D000BC0060E082E10E941E0260E083E10E94B1
:1008E0001E020E943B04D093BA00C093B800DF916F
:1008F000CF9108950895E091BC038091BB03E81760
:1009000030F4F0E0E354FC4F808190E008958FEFE5
:100910009FEF08959091BC038091BB032FEF3FEFB1
:10092000981748F4E92FF0E0E354FC4F208130E0C1
:100930009F5F9093BC03C90108958091BB03909180
:10094000BC03891B990B0895CF92DF92EF92FF921F
:100950000F931F93CF93DF937C01CB018A012091EA
:10096000E403222389F0EB016B01C40ED51ECC15E4
:10097000DD0569F06991D701ED91FC910190F0815D
:10098000E02DC7010995F3CF642F0E941404C8011C
:10099000DF91CF911F910F91FF90EF90DF90CF905B
:1009A0000895CF93DF931F92CDB7DEB7698320916F
:1009B000E4032223F9F02091E103203258F021E0F2
:1009C00030E0FC013383228390E080E00F90DF91E0
:1009D000CF9108958091E203E82FF0E0ED50FE4FB3
:1009E000998190838F5F8093E2038093E10381E09C
:1009F00090E0ECCF61E0CE0101960E941404F7CFA5
:100A0000682F82E894E00C94D104CF92DF92EF92A9
:100A1000FF920F931F93CF93DF93D091E10381E077
:100A2000D13208F09CC0C091E3030E9492026B0196
:100A30007C018091B50381116CC082E08093B50385
:100A400081E08093B4038FEF8093B3031092B203DD
:100A5000D093B103A3EFB1E0EFE8F3E080E0D81367
:100A60008DC01092B0038091B003CC0FC82BC093FF
:100A7000B0038091AF03813009F084C01092AF03BE
:100A80000E9492026B017C018091B0038093BB00B5
:100A90008091B7039091B803A091B903B091BA03C4
:100AA000892B8A2B8B2BA1F00E9492020091B70315
:100AB0001091B8032091B9033091BA036C197D09E4
:100AC0008E099F09061717072807390708F442C03F
:100AD0008091BC0083FDD8CF85EC8093BC000E9440
:100AE00092026B017C018091B503823009F44CC005
:100AF0008091B3038F3F09F469C08091B3038032C2
:100B000009F466C08091B303803309F463C084E0C4
:100B100026C08091B7039091B803A091B903B0911A
:100B2000BA03892B8A2B8B2B09F483CF0E94920264
:100B30000091B7031091B8032091B9033091BA0323
:100B40006C197D098E099F090617170728073907B1
:100B500008F06FCF8091B6030E94590485E010928F
:100B6000E2031092E1031092E403DF91CF911F9111
:100B70000F91FF90EF90DF90CF9008959D9191930A
:100B80008F5F6DCF85EEA9CF8091B7039091B803A9
:100B9000A091B903B091BA03892B8A2B8B2B09F44E
:100BA000A2CF0E9492020091B7031091B803209146
:100BB000B9033091BA036C197D098E099F09061794
:100BC00017072807390708F08ECFC4CF80E0C7CFBA
:100BD00082E0C5CF83E0C3CF0F931F93CF93DF9302
:100BE000AB0120918E0430918F04232BE1F08B0117
:100BF000EC0182E30E94C20180918E0490918F04E7
:100C0000DC01ED91FC910280F381E02DA801BE0191
:100C1000099580918E0490918F04DF91CF911F915F
:100C20000F910C940505A0919004B0919104109738
:100C300069F0ED91FC9111970280F381E02DBC01E8
:100C4000CD01DF91CF911F910F910994DF91CF9149
:100C50001F910F9108950F931F93CF93DF938C01F2
:100C6000EB0185E00E94C20182E490E00E94000551
:100C7000C8010E940005CE010E94000582E894E0B0
:100C80000E9405056AE070E080E090E0DF91CF917E
:100C90001F910F910C94B702CF93DF93EC016CE39B
:100CA00070E08CE390E00E942B06BE01DD0F880B04
:100CB000990BDF91CF910C94B7028130910509F027
:100CC00041C080911801909119018617970709F486
:100CD00053C0709319016093180186E00E94C2010D
:100CE00085E390E00E940005809118019091190120
:100CF0000E94000580911A0190911B010E9400053D
:100D000080911C0190911D010E94000580911E019F
:100D100090911F010E940005809120019091210176
:100D20000E94000580912201909123010E940005FC
:100D300082E894E00E9405056AE070E080E090E0BF
:100D40000C94B702029761F480911A0190911B01F3
:100D50006817790789F070931B0160931A01BDCF62
:100D600080911C0190911D016817790729F07093FB
:100D70001D0160931C01B1CF08950F931F93CF9372
:100D8000DF938B01C8E2D0E08130910531F0CAE2F7
:100D9000D0E0029711F4C9E2D0E086E00E94C201DF
:100DA000CE010E940005C8010E94000582E894E07F
:100DB0000E9405056AE070E080E090E0DF91CF914D
:100DC0001F910F910C94B70290E080E008958091FC
:100DD0005B0290915C028F379105D4F42BEF280FC2
:100DE00020936002EDE5F2E020E0AF014D55524066
:100DF0004817590754F0FC01E35AFD4F2083019630
:100E000090935C0280935B0208953191230FEDCFA4
:100E100090E080E0089520910D0330910E038091C1
:100E2000F1019091F2012817390724F480910C0305
:100E3000882331F081E080930B0390E080E00895F7
:100E4000F901E15FFC4F808191812E5F3F4F30932C
:100E50000E0320930D0308952091EF013091F001CE
:100E600021303105F1F13CF52115310579F1F90118
:100E7000E15FFC4F808340911203842F90E0059640
:100E80002817390739F59093F2018093F1011092F8
:100E9000F0011092EF014B5FEFE0F3E030E020E073
:100EA000341768F19927FC01E15FFC4F81E09081E4
:100EB00092131DC0089522303105F1F02330310521
:100EC000B1F68A3780F48093120304C0853579F433
:100ED00080930F032F5F3F4F3093F0012093EF017A
:100EE00006C08A3A31F01092F0011092EF0180E0D2
:100EF000E1CF80931003EECF80931103EBCF51919C
:100F0000250F3F5FCDCFCF93DF9320911303621363
:100F100027C0EC0185E090E090930E0380930D03D1
:100F200010920C0310920B0368830E940B079A83A4
:100F300089830E940B079C838B830E940B079E83EF
:100F40008D830E940B0798878F830E940B079A87D7
:100F5000898780910B03811110920B0381E001C0FE
:100F600080E0DF91CF910895CF92DF92EF92FF92D0
:100F70006B017C016DE770E08DE790E00E942B062D
:100F8000C701B601FF90EF90DF90CF900C94B702AD
:100F90004F925F926F927F928F929F92AF92BF9289
:100FA000CF92DF92EF92FF928FE00E947D026091DC
:100FB000240170912501861797070CF4BC018091DC
:100FC0005E0590915F05681B790B072E000C880B5E
:100FD000990B0E949E1920911401309115014091A6
:100FE0001601509117010E94D9194B015C016091C3
:100FF000120170911301072E000C880B990B0E94AF
:101000009E196B017C01A50194010E94CF1A0E94D8
:101010003B1B2B01A5019401C701B6010E94CE1A0A
:101020000E943B1BCB01B2010E942B0664E170E0E1
:1010300080E090E0FF90EF90DF90CF90BF90AF9076
:101040009F908F907F906F905F904F900C94B7021D
:101050004F925F926F927F928F929F92AF92BF92C8
:10106000EF92FF920F931F93CF93DF93D82F2FB759
:10107000F8948091DD039091DE03A091DF03B0919D
:10108000E0032FBF8093960490939704A093980455
:10109000B093990415EE05ECC1E0FF24FA948FE0BB
:1010A000E82E2FB7F8948091DD039091DE03A09194
:1010B000DF03B091E0032FBF409196045091970455
:1010C0006091980470919904841B950BA60BB70B43
:1010D000409192045091930460919404709195040E
:1010E000481759076A077B0708F41FC180918E04CF
:1010F00090918F04009709F4F3C0DC01ED91FC910D
:101100000084F185E02D0995892B09F093C00E9498
:1011100092024B015C018091B503811161C0C093C3
:10112000B503C093B403F092B3031092B203E092FC
:10113000B103C093B0038091B00384668093B00381
:101140008091AF03813009F0A4C01092AF030E94D8
:1011500092024B015C018091B0038093BB008091AF
:10116000B7039091B803A091B903B091BA03892B4A
:101170008A2B8B2BA1F00E9492024090B7035090D3
:10118000B8036090B9037090BA03681979098A09A5
:101190009B09461657066806790608F442C08091F6
:1011A000BC0083FDD8CF0093BC000E9492024B018B
:1011B0005C018091B503813009F46EC08091B20367
:1011C000803108F08BC08091B203AFE8B3E0EDEB63
:1011D000F3E090E0981751F12D9121939F5FFACFA2
:1011E0008091B7039091B803A091B903B091BA036D
:1011F000892B8A2B8B2B09F48ECF0E949202409070
:10120000B7035090B8036090B9037090BA0368199F
:1012100079098A099B09461657066806790608F077
:101220007ACF8091B6030E94590480E01092BC03EB
:101230008093BB0380918E0490918F04DC01ED912B
:10124000FC910084F185E02D0995892B09F429CFC3
:1012500080918E0490918F04DC01ED91FC910284C9
:10126000F385E02D09950E942C07882319F3DD23CF
:1012700071F080911303D81314CF85E090E0909320
:101280000E0380930D0310920C0310920B0381E068
:101290004DC01093BC0089CF8091B7039091B803E3
:1012A000A091B903B091BA03892B8A2B8B2B09F437
:1012B00080CF0E9492024090B7035090B803609094
:1012C000B9037090BA03681979098A099B0946160F
:1012D00057066806790608F06CCFA3CF80E175CF7A
:1012E0008091900490919104892B09F4DACE809139
:1012F000900490919104DC01ED91FC910084F185C2
:10130000E02D0995892B09F4CCCE80919004909121
:101310009104DC01ED91FC910284F385E02D0995A7
:101320000E942C07882319F3A2CF80E0DF91CF9190
:101330001F910F91FF90EF90BF90AF909F908F9073
:101340007F906F905F904F9008958F929F92AF9291
:10135000BF920F931F93CF93DF93CDB7DEB7A197C3
:101360000FB6F894DEBF0FBECDBF19A2423008F40D
:101370004AE08E010F5D1F4F842E912CB12CA12CC1
:10138000A50194010E94851BE62FB901CA01EA302C
:1013900044F5E05DD801EE938D01232B242B252B02
:1013A00079F790E080E0109769F0FD01019000204E
:1013B000E9F73197AF014A1B5B0BBD0185EE93E066
:1013C0000E94EC02A1960FB6F894DEBF0FBECDBF0F
:1013D000DF91CF911F910F91BF90AF909F908F9011
:1013E0000895E95CD7CFCF92DF92EF92FF92CF932F
:1013F000DF936C01990FEE08FF08F7FE19C06DE24C
:1014000085EE93E00E948C03EC0166277727CB01E1
:101410006C197D098E099F094AE00E94A5098C0F6D
:101420009D1FDF91CF91FF90EF90DF90CF900895B7
:101430004AE0C701B601DF91CF91FF90EF90DF90B6
:10144000CF900C94A50942E050E06FE671E085EE84
:1014500093E00C94EC02CF93DF93FC01448155811F
:101460006081718185EE93E00E94EC02EC010E94A4
:10147000230A8C0F9D1FDF91CF910895CF93DF93A7
:101480000E94D903EC010E94230A8C0F9D1FDF915B
:10149000CF910895CF93DF930E94F309EC010E944E
:1014A000230A8C0F9D1FDF91CF910895CF93DF9377
:1014B000EC0188819981009711F00E945D1C1982CE
:1014C00018821D821C821B821A82DF91CF9108959F
:1014D000FC0180819181009711F00C945D1C0895AE
:1014E0000F931F93CF93DF93EC018881998100972D
:1014F00059F02A813B812617370730F081E0DF91D0
:10150000CF911F910F9108958B016F5F7F4F0E94C4
:10151000E61C009759F0998388831B830A832C81EA
:101520003D81232B59F7FC011082E8CF80E0E7CF03
:10153000EF92FF920F931F93CF93DF936115710585
:1015400041F480E0DF91CF911F910F91FF90EF90D8
:10155000089541155105B1F07B01EC010C811D810D
:10156000040F151FB8010E94700A882351F32881C7
:1015700039818C819D81B701820F931F0E94B71D15
:101580001D830C8381E0DECFCF93DF93EC01FB0161
:1015900001900020E9F73197AF01461B570B0E94DD
:1015A000980A811103C0CE010E94560ACE01DF9134
:1015B000CF910895CF93DF93EC01FB0144815581D6
:1015C000608171810E94980A811103C0CE010E943E
:1015D000560ACE01DF91CF910895EF92FF920F93BB
:1015E0001F93CF93DF93EC017B018A01BA010E9424
:1015F000700A81110BC0CE010E94560ACE01DF9104
:10160000CF911F910F91FF90EF9008951D830C8350
:10161000B701888199810E94B71DF0CFEF92FF92A8
:101620000F931F93CF93DF93CDB7DEB762970FB6BB
:10163000F894DEBF0FBECDBF8C01CB01F801118243
:10164000108213821282158214824AE09E012F5F5B
:101650003F4F7901B9010E941B17F701019000204B
:10166000E9F73197AF014E195F09B701C8010E9430
:10167000ED0A62960FB6F894DEBF0FBECDBFDF91C4
:10168000CF911F910F91FF90EF900895FC0111826F
:1016900010821382128215821482FB0101900020B5
:1016A000E9F73197AF01461B570B0C94ED0ACF9326
:1016B000DF93CDB7DEB72C970FB6F894DEBF0FBE21
:1016C000CDBF60E082E00E944C0282E00E94F50102
:1016D000019749F56091ED017091EE016F5F7F4FC9
:1016E0007093EE016093ED01CE0107960E940E0B00
:1016F00062E771E0CE0101960E94460BBE01695F70
:101700007F4FCE0101960E94DA0A0E942B0ACE0179
:1017100001960E94680ACE0107960E94680A8FE02F
:1017200090E00E944C0664E170E080E090E00E944E
:10173000B7022C960FB6F894DEBF0FBECDBFDF9177
:10174000CF9108958091ED019091EE011816190640
:101750002CF00E94570B0E94C807F4CF1092EE01A4
:101760001092ED01089562E370E080E090E00E9445
:10177000B4070E94570B8091ED019091EE0118166D
:101780001906B4F482E691E00E943E0A68ED7FEF0C
:1017900088E290E00E942B0662E370E080E090E037
:1017A0000E94B70262E370E080E090E00E94B4071C
:1017B0001092EE011092ED010895CF93DF93EC01AA
:1017C0006115710571F0FB0101900020E9F7319777
:1017D000AF01461B570B0E94ED0ACE01DF91CF915E
:1017E00008950E94560AF9CFCF92DF92EF92FF92AE
:1017F0000F931F93CF93DF93CDB7DEB7E9970FB663
:10180000F894DEBF0FBECDBF6B017C01C092140106
:10181000D0921501E0921601F09217015093130136
:101820004093120188E290E0909325018093240177
:1018300083E290E090935F0580935E058AE193E0F8
:101840000E94D9031BA21AA21DA21CA21FA21EA2A3
:101850008E010F5F1F4F22E044E0C701B6010E94D6
:10186000D616BC01CE0182960E94DD0B609112015A
:1018700070911301C8010E940E0B60915E0570917A
:101880005F05CE0188960E940E0B60912401709135
:101890002501CE018E960E940E0B6EE971E0CE01FD
:1018A000C4960E94460BBE01625D7F4FCE01C49676
:1018B0000E94DA0A69EA71E00E94C40ABE01685D0A
:1018C0007F4F0E94DA0A66EB71E00E94C40AB801F9
:1018D0000E94DA0A67EC71E00E94C40ABE016E5DE4
:1018E0007F4F0E94DA0A0E942B0ACE01C4960E9402
:1018F000680ACE018E960E94680ACE0188960E94E0
:10190000680AC8010E94680ACE0182960E94680A8D
:10191000E9960FB6F894DEBF0FBECDBFDF91CF9131
:101920001F910F91FF90EF90DF90CF9008958F92CD
:101930009F92AF92BF92CF92DF92EF92FF920F935E
:101940001F93CF93DF93D0E0C0E065E5B62E7AEA2F
:10195000A72EE1E19E2EF0E28F2E05E010E010921E
:10196000DD02B0925D02A0925E0290925F028092D0
:10197000610210935C0200935B020E94E706BC01C7
:101980008DE592E00E94EC0510929B0410929A045F
:1019900089E20E942808882309F44BC069E28CED93
:1019A00094E00E9483076091DD047091DE041616B6
:1019B000170614F061E070E056E0660F771F5A9545
:1019C000E1F780911C0590911D050E94E61C909303
:1019D0001D0580931C05F12CE12CD12CC12C80918C
:1019E000DD049091DE04C816D9060CF044C080E0F6
:1019F0000E9428088823E9F080911C0590911D051C
:101A00006AE28E0D9F1D0E948307882339F08FEFB5
:101A1000C81AD80A80E4E80EF11CE1CF80911C05B9
:101A200090911D056BE28E0D9F1D0E948307811111
:101A3000EECF2196C330D1050CF491CFD0E0C0E0B9
:101A40000CC06091230570912405409125055091AB
:101A5000260555C0209709F482CFCE01DF91CF91A2
:101A60001F910F91FF90EF90DF90CF90BF90AF90BC
:101A70009F908F9008952091DF043091E004232BF4
:101A8000C1F220919A0430919B04582F492F2817B6
:101A9000390714F4522F432F50939A0440939B0418
:101AA0002817390734F6D0E0C0E040919A045091ED
:101AB0009B049C01481759070CF49A0130939B042E
:101AC00020939A04481759072CF6A9014F5F5F4FDE
:101AD00050939B0440939A04281739070CF0B1CF18
:101AE00046E0220F331F4A95E1F7E0911C05F09183
:101AF0001D05E20FF31F6581768147815085649F44
:101B00009001659F300D749F300D1124C217D307CB
:101B100064F6E901CACF85ED8093BC008091B703DC
:101B20009091B803A091B903B091BA030796A11D93
:101B3000B11D23E0B695A795979587952A95D1F77E
:101B40002091BC0024FD03C01092B503089540917C
:101B5000B7035091B8036091B9037091BA03452B54
:101B6000462B472B69F30097A105B10541F02AE206
:101B70002A95F1F700C00197A109B109E1CF809141
:101B8000B6030C9459048F929F92AF92BF92CF925A
:101B9000DF92EF92FF920F931F93CF93DF93EC01AD
:101BA0008091E2029091E3029E01281B390BC9014A
:101BB0008F3F3FEF930709F419C10CF0E9C08D3F47
:101BC000FFEF9F0709F4EDC0029609F41EC1D09300
:101BD000E302C093E2028091EC01811133C164E61B
:101BE00070E080E090E00E94B4070E94970C893773
:101BF00095400CF439C10E94970C0E944A0A83E96F
:101C000091E00E943E0A4FE050E063E373E383E318
:101C10009FE30E94F40BEBE9EE2EEFE0FE2EC3E013
:101C2000D0E0FFE0CF2ED12CA6EF8A2EA2E09A2E94
:101C3000B2EEAB2EB2E0BB2E8091EC018111FAC066
:101C40008091ED019091EE01892B09F0F3C0C7015D
:101C50000197F1F761E084E00E944C0260E084E0CB
:101C60000E941E02CE010197F1F761E084E00E941C
:101C70001E02C6010197F1F760E084E00E941E0297
:101C800060E084E00E944C02F4016491F5018491CB
:101C9000E82FF0E0EE0FFF1FEC52FD4F859194917D
:101CA00000E412E42FE030E0462F0E94FA106115A4
:101CB00071058105910529F06F5F7F4F8F4F9F4F11
:101CC0009F70683E71050CF05EC080E891E00E9454
:101CD0003E0A62E370E080E090E00E94B407609109
:101CE00062057091630581E090E00E945D0660915D
:101CF00060057091610582E090E00E945D066EE1F2
:101D000070E083E090E00E945D0668EE73E080E0A2
:101D100090E00E94B70281E08093EC018091E402A0
:101D20009091E502BE010E94711B9B01220F331F9F
:101D3000620F731F860F971F880F991FFC01E050D9
:101D4000FF4F21E030E031832083825D9E4FFC0114
:101D50000081118189E791E00E94D903C8010E94A6
:101D6000F30980E791E00E94D90381E090E00E94AE
:101D7000F3098CE691E00E943E0A60ED77E080E096
:101D800090E00E94B4070E94570B0E94C80754CFEE
:101D900082309105D1F18330910541F1019709F02D
:101DA00016CF68EC70E080E090E00E94B40782EC0F
:101DB00091E00E944C0668ED7FEF88E290E00E947F
:101DC0002B066EEE72E080E090E00E94B7026DE7B5
:101DD00070E08DE790E00E942B060E94B30B6CEB45
:101DE00072E080E090E00E94B407F1CE68EC70E011
:101DF00080E090E00E94B4078CE791E00E944C06DE
:101E000068E270E088ED9FEFDACF68EC70E080E088
:101E100090E00E94B40780E991E00E944C066CE9D2
:101E20007FEF84E690E00E942B066AE174E080E098
:101E300090E0CBCF4CE350E060E070E080E490E4D1
:101E40000E94F40B86EA91E00E943E0ADF91CF9156
:101E50001F910F91FF90EF90DF90CF90BF90AF90C8
:101E60009F908F900C94A20B0E94970C0E944A0A9C
:101E7000E9CF1F920F920FB60F9211242F933F9329
:101E80008F939F93AF93BF938091DD039091DE0377
:101E9000A091DF03B091E0033091060323E0230F0C
:101EA0002D3758F50196A11DB11D2093060380938F
:101EB000DD039093DE03A093DF03B093E0038091F2
:101EC000070390910803A0910903B0910A030196BA
:101ED000A11DB11D8093070390930803A0930903EC
:101EE000B0930A03BF91AF919F918F913F912F9132
:101EF0000F900FBE0F901F90189526E8230F0296A3
:101F0000A11DB11DD2CF1F920F920FB60F921124B7
:101F10002F933F934F935F936F937F938F939F93F1
:101F2000AF93BF93EF93FF9385EE93E00E946A0314
:101F3000FF91EF91BF91AF919F918F917F916F91A1
:101F40005F914F913F912F910F900FBE0F901F9077
:101F500018951F920F920FB60F9211242F938F9303
:101F60009F93EF93FF93E091F503F091F603808147
:101F7000E091FB03F091FC0382FD1BC090818091F6
:101F8000FE038F5F8F732091FF03821741F0E09172
:101F9000FE03F0E0EB51FC4F958F8093FE03FF9121
:101FA000EF919F918F912F910F900FBE0F901F90E7
:101FB00018958081F4CF1F920F920FB60F921124C3
:101FC0002F933F934F935F936F937F938F939F9341
:101FD000AF93BF93EF93FF938091B900887F8036D2
:101FE00009F44AC0F0F5883209F4A7C018F5803129
:101FF00009F49BC0B8F4882309F4F9C0883009F4C7
:1020000094C0FF91EF91BF91AF919F918F917F917C
:102010006F915F914F913F912F910F900FBE0F9055
:102020001F901895883109F488C0803251F7809349
:10203000B30314C0803409F49DC040F48033B9F375
:102040008833F9F68093B30385ECB0C0803509F48A
:1020500085C0883509F496C0883499F60E948B0DA6
:10206000D0CF883909F48CC038F5883729F050F47E
:10207000883611F0803729F683E08093B5031092FB
:10208000560257C0883809F47BC0803919F080386F
:1020900009F0B7CF80915602803208F071C0E0910C
:1020A000560281E08E0F809356028091BB00F0E0D3
:1020B000EA5CFD4F80833DC0803B39F0E0F4803A1C
:1020C00009F479C0883A09F09CCF84E08093B50385
:1020D0001092350210923402E0915702F0915802AA
:1020E00009958091340281110FC081E08093340200
:1020F0001092140209C0803C09F4A6CF883C09F470
:10210000A3CF883B09F07DCFE091350281E08E0FAF
:1021100080933502F0E0EC5EFD4F80818093BB0040
:10212000909135028091340229C08091B003809350
:10213000BB0085EC8093BC0064CF9091B20380918A
:10214000B103981758F5E091B20381E08E0F8093A8
:10215000B203F0E0E157FC4F8081E9CFE091B20398
:1021600081E08E0F8093B2038091BB00F0E0E157D5
:10217000FC4F80839091B2038091B1039817C8F20D
:1021800085E8D8CFE091B20381E08E0F8093B2034F
:102190008091BB00F0E0E157FC4F80838091B40355
:1021A00081115CCF81E08093AF0384EA8093BC000F
:1021B0001092B50326CF85EC8093BC001092B50336
:1021C00080915602803230F4E0915602F0E0EA5CF1
:1021D000FD4F10826091560270E0E0915902F0913B
:1021E0005A0286E392E00995109256020ACF1092A5
:1021F000B30334CFCF92DF92EF92FF920F931F93EE
:10220000E82FF92F05C0015011092109310961F1A9
:10221000908196239417B9F305C001501109210943
:10222000310911F1908196239413F7CFC12CD12C51
:10223000E12CF12C0AC08FEFC81AD80AE80AF80A74
:102240000C151D052E053F0579F080818623841726
:1022500091F36C2D7D2D8E2D9F2D1F910F91FF9051
:10226000EF90DF90CF90089560E070E080E090E024
:102270001F910F91FF90EF90DF90CF9008951092F3
:10228000E8031092E70388EE93E0A0E0B0E08093CB
:10229000E9039093EA03A093EB03B093EC032FE4DC
:1022A00031E03093E6032093E50325EC30E03093F2
:1022B000F2032093F10324EC30E03093F4032093F5
:1022C000F30320EC30E03093F6032093F50321EC88
:1022D00030E03093F8032093F70322EC30E03093A2
:1022E000FA032093F90326EC30E03093FC032093AB
:1022F000FB031092FE031092FF0310920004109251
:1023000001041092850410928404809386049093B3
:102310008704A0938804B093890481E691E09093A8
:1023200083048093820480912601909127012EE6F8
:1023300030E0281B390B30936305209362058396A8
:1023400090936105809360052091240130912501CF
:10235000C901439697FD01969595879501969093AF
:102360005F0580935E0584E690E0A0E0B0E0809396
:10237000920490939304A0939404B09395041092C4
:102380009B0410929A0410921D0510921C05109245
:102390008F0410928E0410929104109290048FEF8B
:1023A00080931E058FEF9FEF9093200580931F056C
:1023B0009093220580932105909324058093230513
:1023C00090932605809325059093280580932705F3
:1023D0000895CF93DF93CDB7DEB766970FB6F89425
:1023E000DEBF0FBECDBF789484B5826084BD84B556
:1023F000816084BD85B5826085BD85B5816085BD00
:1024000080916E00816080936E00109281008091B7
:10241000810082608093810080918100816080933F
:102420008100809180008160809380008091B10064
:1024300084608093B1008091B00081608093B0008F
:1024400080917A00846080937A0080917A00826023
:1024500080937A0080917A00816080937A008091E5
:102460007A00806880937A001092C1001092BC03B9
:102470001092BB031092E2031092E1030E943B040E
:102480008AEE92E090935802809357028BEE92E08E
:1024900090935A028093590264EF71E080E090E0DB
:1024A0000E94B70285E00E94C20187E290E00E948C
:1024B000000582E894E00E9405056AE070E080E093
:1024C00090E00E94B70286E00E94C20187E290E09D
:1024D0000E94000582E894E00E9405056AE070E031
:1024E00080E090E00E94B70281E00E94C20187E292
:1024F00090E00E94000582E894E00E9405056AE0F1
:1025000070E080E090E00E94B70282E00E94C20189
:1025100087E290E00E94000582E894E00E940505B1
:102520006AE070E080E090E00E94B70283E00E94E1
:10253000C20187E290E00E94000582E894E00E94D8
:1025400005056AE070E080E090E00E94B70284E058
:102550000E94C20187E290E00E94000582E894E0B8
:102560000E9405056AE070E080E090E00E94B702FA
:1025700061E087E00E944C0261E087E00E941E0259
:1025800060E088E00E944C0288E00E94F501892BFF
:10259000B9F761E087E00E944C0260E087E00E94AA
:1025A0001E0285E00E94C20187E290E00E940005C1
:1025B00082E894E00E9405056AE070E080E090E027
:1025C0000E94B70286E00E94C20187E290E00E946A
:1025D000000582E894E00E9405056AE070E080E072
:1025E00090E00E94B70281E00E94C20187E290E081
:1025F0000E94000582E894E00E9405056AE070E010
:1026000080E090E00E94B70282E00E94C20187E26F
:1026100090E00E94000582E894E00E9405056AE0CF
:1026200070E080E090E00E94B70283E00E94C20167
:1026300087E290E00E94000582E894E00E94050590
:102640006AE070E080E090E00E94B70284E00E94BF
:10265000C20187E290E00E94000582E894E00E94B7
:1026600005056AE070E080E090E00E94B70268EE45
:1026700073E080E090E00E94B70285E00E94C20112
:1026800085E290E00E94000582E894E00E94050542
:102690006AE070E080E090E00E94B70286E00E946D
:1026A000C20185E290E00E94000582E894E00E9469
:1026B00005056AE070E080E090E00E94B70281E0EA
:1026C0000E94C20185E290E00E94000582E894E049
:1026D0000E9405056AE070E080E090E00E94B70289
:1026E00082E00E94C20185E290E00E94000582E83B
:1026F00094E00E9405056AE070E080E090E00E94AE
:10270000B70283E00E94C20185E290E00E940005CA
:1027100082E894E00E9405056AE070E080E090E0C5
:102720000E94B70284E00E94C20185E290E00E940C
:10273000000582E894E00E9405056AE070E080E010
:1027400090E00E94B702E091F503F091F60382E079
:102750008083E091F103F091F2031082E091F303A2
:10276000F091F40380E180831092FD03E091F9037E
:10277000F091FA0386E08083E091F703F091F8038B
:10278000808180618083E091F703F091F80380817C
:1027900088608083E091F703F091F803808180687E
:1027A0008083E091F703F091F80380818F7D80832F
:1027B00089E292E00E94D90385E00E94C20181E58E
:1027C00090E00E94000581E090E00E94000582E810
:1027D00094E00E9405056AE070E080E090E00E94CD
:1027E000B7026CE370E081E090E00E94BD066CE30C
:1027F00070E082E090E00E94BD066AE070E083E055
:1028000090E00E94BD066EE670E081E090E00E94DC
:102810005D0663E270E082E090E00E945D06109247
:10282000E2031092E1030E943B0412E8E12E14E05F
:10283000F12E05E5D02E8AEAC82E91E1B92E2CE2C0
:10284000A22E35E0832E912C1092910410929004C8
:10285000F0928F04E0928E0405E010E01092DD0209
:10286000D0925D02C0925E02B0925F02A0926102BD
:1028700090925C0280925B020E94E706BC018DE5AB
:1028800092E00E94EC058EE20E94280881110EC29F
:102890000150110919F781EB91E00E943E0A64E6AC
:1028A00070E080E090E00E94B702CECF60E070E080
:1028B000CB01D1C110E000E0E0900403F0900503EB
:1028C000FFE0EF16F1040CF04DC0AB84BC84A01601
:1028D000B10628F09A2D8B2D5801092F182F1A8236
:1028E00019821C821B821E821D8250E040E061E73B
:1028F00071E0CE0101960E94ED0ACB84DC84AC1419
:10290000BD04C0F40C151D0508F46801EF81F885BD
:10291000EC0DFD1D108110826F8178856A0D7B1D85
:10292000CE0101960E94DD0B8F819885C80ED91EBD
:10293000F601108389819A81009729F10E94F4168B
:1029400097012F5F3F4F3093050320930403F70156
:10295000EE0FFF1FEA51FD4F71836083CE01019698
:102960000E94680A4090040350900503F201EE0FA4
:10297000FF1FEA51FD4FC2018F30910544F41192BF
:1029800011920196F9CF60E070E0CB01D9CFCE0172
:1029900007960E94680A009104031091050310161F
:1029A00011060CF0ACC087EB92E00E94D903C8017D
:1029B0000E944A0A8091040390910503F201E81BEA
:1029C000F90BEE0FFF1FEA51FD4F808191810197B6
:1029D000712C612C8B30910538F4805C9E4FFC018A
:1029E0006080062C000C77088091E4029091E5024B
:1029F000B1010E94711B5B016C01C301B1010E9416
:102A0000711B7B018C014501861A970A8C199D095F
:102A10009E8B8D8B85EA92E00E94D903C5010E94AE
:102A2000F30983EA92E00E94D903C6010E94F309E8
:102A30008CE992E00E94D903C7010E94F3098AE958
:102A400092E00E94D903C8010E94F30986E992E04E
:102A50000E94D9039AE0989D8001999D100D112440
:102A6000ED89FE890E0F1F1FC8010E944A0A70924D
:102A7000E5026092E40201151105E1F074F4063FED
:102A8000FFEF1F07A9F10F3F1F4F59F160EA76E8EA
:102A900081E090E00E94B4071AC00130110579F07E
:102AA0000A30110599F785E692E00E943E0A90E00F
:102AB00080E00BC08AE892E00E943E0AE7CF8EE7F2
:102AC00092E00E943E0A81E090E00E94C30D809156
:102AD00004039091050301979093050380930403E9
:102AE0005ACF82E792E00E943E0A83E090E0EDCF69
:102AF00088E592E00E943E0A82E090E0E6CFE6EEB2
:102B0000F2E01192119293E0E430F907D1F78B894A
:102B10009C890E94680A60EA76E881E090E00E9461
:102B2000B407E0E0F0E0EF2B29F00E94560381119A
:102B30000E9400000E94A20B0E94A20B86E090E07F
:102B40009093E5028093E4021092E3021092E20275
:102B50008FE392E00E943E0A64E670E080E090E03D
:102B60000E94B4071E861D86188A1F861A8A198A33
:102B700049E050E06FEC71E08B899C890E94ED0A7E
:102B800018861F821A8619861C861B866D857E858F
:102B90006115710531F049895A89CE0107960E9465
:102BA000ED0A8B859C85892B09F484CE0F811885CD
:102BB0006CE270E0C8010E94AC1D009709F47ACE67
:102BC0007C01E01AF10A10E000E0C0900403D0900C
:102BD00005039FEFE916F90609F46ECEEFE0CE1675
:102BE000D1040CF069CE4701E016F10610F048015F
:102BF00087011A8219821C821B821E821D8250E06C
:102C000040E061E771E0CE0101960E94ED0AAB84DD
:102C1000BC848A149B04C0F40A151B0508F45801EF
:102C2000EF81F885EA0DFB1D108110826F81788598
:102C3000680D791DCE0101960E94DD0B8F8198856C
:102C4000A80EB91EF501108389819A81009709F4B5
:102C50002DCE0E94F41696012F5F3F4F309305034F
:102C600020930403F601EE0FFF1FEA51FD4F71831D
:102C70006083CE0101960E94680A87010F5F1F4F93
:102C80008B859C850817190708F016CECF80D8844D
:102C90006CE270E0C601800F911F0E94AC1D00978E
:102CA00009F40ACE7C01EC18FD088FCF80E00E9469
:102CB0007D02880F991F64E670E00E94711B8B01F2
:102CC000BC01CE0101960E940E0BB801CE01079601
:102CD0000E940E0B8E01035F1F4F69ED71E0C8016A
:102CE0000E94460BBE01695F7F4FC8010E94DA0A4D
:102CF00068EE71E00E94C40ABE016F5F7F4F0E94C0
:102D0000DA0A6AEE71E00E94C40A0E942B0AC80126
:102D10000E94680ACE0107960E94680ACE010196B9
:102D20000E94680A4CE350E060E070E080E490E4C8
:102D30000E94F40B83E090E09093E1028093E00224
:102D400082E090E09093DF028093DE0289EF91E0D1
:102D50000E94D9038DEE91E00E94D90388EE91E0A4
:102D60000E94D90389E390E0909327018093260184
:102D70008CED91E00E94D90388ED91E00E94D90387
:102D800088EC91E00E94D90382EC91E00E94D90383
:102D90008FEB91E00E943E0A82E192E00E94D9030B
:102DA0000B8B1C8B33E0232E312CC4CEEF920F9370
:102DB0001F93CF93DF93E80134E047FD34E1042E05
:102DC000000C550B57FF03C0519541955109E32E57
:102DD000022F242FAE010E945517CE01DF91CF9113
:102DE0001F910F91EF9008951F93FC019927882759
:102DF000BC01E89411911032E9F3193010F01E3043
:102E0000C8F31B3251F01D3249F4689406C00E9489
:102E10002617610F711D811D911D119110531A30DC
:102E2000B0F33EF490958095709561957F4F8F4FEC
:102E30009F4F1F910895BB274A3031F4992322F404
:102E4000BDE2909581959F4F0C943C17592F482FC8
:102E5000372F262F660F771F881F991F660F771F42
:102E6000881F991F620F731F841F951F660F771F9E
:102E7000881F991F0895BB27FB015527AA27880F94
:102E8000991FAA1FA41710F0A41B83955051B9F7DE
:102E9000A05DAA3308F0A95DA193009779F7B1115D
:102EA000B1931192CB010C948C19A9E0B0E0EBE541
:102EB000F7E10C949D1A6A01F22EB02E102FFBE35D
:102EC000AF2EA01608F41BE31F5F012F27E0AE0111
:102ED0004F5F5F4F0E94B418BC018981982F997091
:102EE000913009F43FC09BE2E1FC04C09E2D91703B
:102EF000E0FC3AC05E2D5071E82FE87083FF46C0B9
:102F000084E0911101C083E0EF2DE81B8F1508F0DC
:102F1000E0E0D6018E2F20E2552351F1992329F0CC
:102F2000D6019C93C60101966C0196012D5F3F4F1F
:102F3000E2FE24C08EE4D6018C9391E411969C931A
:102F4000119712968C93D9018E2F90E281111BC09C
:102F5000E20FF32FF11D10828EEF9FEF2996ECE028
:102F60000C94B91A9DE2C6CF90E2C4CF2D93815044
:102F70008111FCCFCE0ED11CE0E0D0CF8EE6D60181
:102F80008C9391E6DBCF9D938150E0CF482F447026
:102F900082FF3DC084E0911101C083E08F1510F4E1
:102FA000EF2DE81BD6018E2F20E2552309F199233E
:102FB00029F0D6019C93C60101966C0196012D5F04
:102FC0003F4FE2FE1BC089E4D6018C938EE411963C
:102FD0008C93119786E412968C93D9018E2F90E2F0
:102FE000882309F4B5CF9D938150FACF2D9381505A
:102FF0008111FCCFCE0ED11CE0E0D9CF89E6D601FD
:103000008C938EE611968C93119786E6E4CF9B0104
:1030100077FF02C030E020E0A1E0B0E0911102C0F3
:10302000B0E0A0E0F9013196AE0FBF1F8B2C912CC0
:10303000BB2009F461C05401EFEFAE1ABE0AAA0D1D
:10304000BB1DFA161B0619F014F04F2D4A1B511127
:1030500088C0E3FC59C07601A42FB0E2A1114FC093
:10306000C40ED11C992309F45BC040E0D60111962F
:10307000F60190836D01552309F448C0012F060F16
:103080009A81582F507184FF03C0913309F4015085
:1030900010160CF047C0093008F008E0EEE2FE2EF2
:1030A0005B01A01AB10885019194819491082F3F8A
:1030B000320729F4D601FC92F60131966F016217AE
:1030C000730794F1021713077CF5DB01A21BB30B06
:1030D000AA24A394B12CAC0EBD1EAA0DBB1D119643
:1030E0008C9121503109D601119628153905F4F03B
:1030F000F60180836D01DBCFB12CA12CA0CFF701AD
:10310000B1937F01A150AACF9111B0CFD601942FD6
:1031100050E302C05D9391509111FCCFC40ED11CBD
:1031200040E0ACCF01E0BACF80E3DBCF621773079A
:1031300031F4963388F4953311F4552369F0F60190
:103140008083FD01842F90E2811108C0A40FB11D7E
:103150001C9290E080E002CF81E3F1CF9193815007
:10316000F3CF911183CF8ACF283008F027E033279F
:10317000DA01990F311D87FD916000966105710597
:1031800039F432602E5F3D9330E32A95E1F70895DC
:103190009F3F30F080387105610509F03C5F3C5F6E
:1031A0003D93913008F08068911DDF93CF931F937A
:1031B0000F93FF92EF92192F987F9695E92F96958E
:1031C0009695E90FFF27EE53FF4F99273327EE24FB
:1031D000FF24A701E70105900894079428F4360F0F
:1031E000E71EF81E491F511D660F771F881F991F84
:1031F0000694A1F70590079428F4E70EF81E491FDE
:10320000561FC11D770F881F991F661F0694A1F7CF
:103210000590079428F4F80E491F561FC71FD11DAB
:10322000880F991F661F771F0694A1F705900794D2
:1032300020F4490F561FC71FD81F990F661F771F0D
:10324000881F0694A9F784911095177041F0D695C0
:10325000C79557954795F794E7941A95C1F7E8E60F
:10326000F0E06894159015913591659195910590D0
:103270007FE27395E118F10A430B560BC90BD00995
:10328000C0F7E10CF11E431F561FC91FD01D7EF46D
:10329000703311F48A95E6CFE894015030F0080FAE
:1032A0000AF40027021708F4202F2395022F7A33FF
:1032B00028F079E37D932A95E9F710C07D932A954C
:1032C00089F6069497956795379517951794E118A1
:1032D000F10A430B560BC90BD00998F023957E9148
:1032E00073957A3308F070E37C932013B8F77E91DE
:1032F00070617D9330F0839571E37D9370E32A953F
:10330000E1F71124EF90FF900F911F91CF91DF9182
:10331000992787FD90950895DC01FC01672F719135
:103320007723E1F7329704C07C916D9370836291AB
:10333000AE17BF07C8F30895E89409C097FB3EF4A1
:1033400090958095709561957F4F8F4F9F4F9923F2
:10335000A9F0F92F96E9BB279395F6958795779570
:103360006795B795F111F8CFFAF4BB0F11F460FF30
:103370001BC06F5F7F4F8F4F9F4F16C0882311F088
:1033800096E911C0772321F09EE8872F762F05C09C
:10339000662371F096E8862F70E060E02AF09A9537
:1033A000660F771F881FDAF7880F9695879597F92C
:1033B00008950E94EC190C945D1A0E944F1A38F07F
:1033C0000E94561A20F0952311F00C94461A0C9482
:1033D0004C1A11240C94911A0E946E1A70F3959F46
:1033E000C1F3950F50E0551F629FF001729FBB27FC
:1033F000F00DB11D639FAA27F00DB11DAA1F649F98
:103400006627B00DA11D661F829F2227B00DA11D4A
:10341000621F739FB00DA11D621F839FA00D611DD0
:10342000221F749F3327A00D611D231F849F600DF1
:10343000211D822F762F6A2F11249F5750409AF01A
:10344000F1F088234AF0EE0FFF1FBB1F661F771FA6
:10345000881F91505040A9F79E3F510580F00C9471
:10346000461A0C94911A5F3FE4F3983ED4F3869584
:1034700077956795B795F795E7959F5FC1F7FE2B11
:10348000880F911D9695879597F9089597F99F67ED
:1034900080E870E060E008959FEF80EC08950024DC
:1034A0000A941616170618060906089500240A94A9
:1034B00012161306140605060895092E0394000C2F
:1034C00011F4882352F0BB0F40F4BF2B11F460FFBE
:1034D00004C06F5F7F4F8F4F9F4F089557FD9058E7
:1034E000440F551F59F05F3F71F04795880F97FBC8
:1034F000991F61F09F3F79F0879508951216130682
:103500001406551FF2CF4695F1DF08C016161706B0
:103510001806991FF1CF86957105610508940895E5
:10352000E894BB2766277727CB0197F908952F9258
:103530003F924F925F926F927F928F929F92AF9243
:10354000BF92CF92DF92EF92FF920F931F93CF9390
:10355000DF93CDB7DEB7CA1BDB0B0FB6F894DEBF27
:103560000FBECDBF09942A88398848885F846E844D
:103570007D848C849B84AA84B984C884DF80EE8097
:10358000FD800C811B81AA81B981CE0FD11D0FB6A0
:10359000F894DEBF0FBECDBFED0108955058BB2794
:1035A000AA270E94E61A0C945D1A0E944F1A38F05E
:1035B0000E94561A20F039F49F3F19F426F40C9417
:1035C0004C1A0EF4E095E7FB0C94461AE92F0E9482
:1035D0006E1A58F3BA17620773078407950720F02D
:1035E00079F4A6F50C94901A0EF4E0950B2EBA2FF0
:1035F000A02D0B01B90190010C01CA01A0011124F9
:10360000FF27591B99F0593F50F4503E68F11A16A4
:10361000F040A22F232F342F4427585FF3CF469535
:1036200037952795A795F0405395C9F77EF41F1657
:10363000BA0B620B730B840BBAF09150A1F0FF0F21
:10364000BB1F661F771F881FC2F70EC0BA0F621F0D
:10365000731F841F48F4879577956795B795F795FD
:103660009E3F08F0B0CF9395880F08F09927EE0F92
:103670009795879508950E94421B6894B1110C9408
:10368000911A08950E94761A88F09F5798F0B92FE2
:103690009927B751B0F0E1F0660F771F881F991F87
:1036A0001AF0BA95C9F714C0B13091F00E94901A7F
:1036B000B1E008950C94901A672F782F8827B85F8F
:1036C00039F0B93FCCF3869577956795B395D9F7DF
:1036D0003EF490958095709561957F4F8F4F9F4FE9
:1036E000089597FB072E16F4009407D077FD09D0B4
:1036F0000E94A71B07FC05D03EF4909581959F4F33
:103700000895709561957F4F0895A1E21A2EAA1B26
:10371000BB1BFD010DC0AA1FBB1FEE1FFF1FA21781
:10372000B307E407F50720F0A21BB30BE40BF50B7E
:10373000661F771F881F991F1A9469F76095709507
:10374000809590959B01AC01BD01CF010895AA1B06
:10375000BB1B51E107C0AA1FBB1FA617B70710F07C
:10376000A61BB70B881F991F5A95A9F780959095AE
:10377000BC01CD010895EE0FFF1F0590F491E02DDF
:1037800009940F931F93CF93DF938230910510F428
:1037900082E090E0E0916605F091670530E020E07E
:1037A000B0E0A0E0309799F42115310509F44AC042
:1037B000281B390B24303105D8F58A819B8161158E
:1037C000710589F1FB0193838283FE0111C0408161
:1037D00051810281138148175907E0F048175907B2
:1037E00099F4109761F012960C93129713961C930C
:1037F0003296CF01DF91CF911F910F9108950093E1
:10380000660510936705F4CF2115310551F0421775
:10381000530738F0A901DB019A01BD01DF01F8016E
:10382000C1CFEF01F9CF9093670580936605CDCFA7
:10383000FE01E20FF31F81939193225031093983E6
:103840002883D7CF2091640530916505232B41F45F
:1038500020912A0130912B01309365052093640556
:1038600020912801309129012115310541F42DB70E
:103870003EB740912C0150912D01241B350BE09156
:103880006405F0916505E217F307A0F42E1B3F0BCA
:103890002817390778F0AC014E5F5F4F24173507C2
:1038A00048F04E0F5F1F5093650540936405819368
:1038B00091939FCFF0E0E0E09CCFCF93DF93009710
:1038C000E9F0FC01329713821282A0916605B09153
:1038D0006705ED0130E020E01097A1F420813181EF
:1038E000820F931F209164053091650528173907D1
:1038F00009F061C0F0936505E0936405DF91CF9115
:103900000895EA01CE17DF07E8F54A815B819E0141
:1039100041155105B1F7E901FB83EA8349915991BA
:10392000C40FD51FEC17FD0761F4808191810296C9
:10393000840F951FE90199838883828193819B83FA
:103940008A83F0E0E0E012968D919C9113970097A6
:10395000B9F52D913C911197CD010296820F931FDD
:1039600020916405309165052817390739F630979D
:1039700051F51092670510926605B0936505A09306
:103980006405BCCFD383C28340815181840F951FCE
:10399000C817D90761F44E5F5F4F88819981480F3E
:1039A000591F518340838A819B8193838283211590
:1039B000310509F0B0CFF0936705E09366059ECF1F
:1039C000FD01DC01C0CF13821282D7CFB0E0A0E0AE
:1039D000ECEEFCE10C94991A8C01009751F4CB01A8
:1039E0000E94C11B8C01C801CDB7DEB7E0E10C9489
:1039F000B51AFC01E60FF71F9C0122503109E217AE
:103A0000F30708F49DC0D901CD91DC911197C61739
:103A1000D70798F0C530D10530F3CE01049786174B
:103A2000970708F3C61BD70B2297C193D1936D93C9
:103A30007C93CF010E945D1CD6CF5B01AC1ABD0AFE
:103A40004C018C0E9D1EA0916605B0916705512C0E
:103A5000412CF12CE12C109731F580916405909167
:103A600065058815990509F05CC04616570608F0EB
:103A700058C08091280190912901009741F48DB799
:103A80009EB740912C0150912D01841B950BE81796
:103A9000F90708F055C0F0936505E0936405F90156
:103AA00071836083A0CF8D919C91119712966C9039
:103AB000129713967C901397A815B90559F56C01C8
:103AC00042E0C40ED11CCA14DB0420F1AC014A1937
:103AD0005B09DA011296159780F062827382518336
:103AE0004083D9016D937C93E114F10471F0D70107
:103AF0001396FC93EE93129776CF22968C0F9D1F10
:103B0000F90191838083F301EFCFF0936705E09390
:103B1000660569CF4816590608F42C017D01D301CA
:103B20009ACFCB010E94C11B7C01009749F0AE01E6
:103B3000B8010E94A31DC8010E945D1C870153CFDC
:103B400010E000E050CFFB01DC0102C001900D92BB
:103B500041505040D8F70895FC018191861721F01B
:103B60008823D9F7992708953197CF010895FB014C
:103B7000DC0101900D920020E1F70895F894FFCF49
:103B8000070007000700000007000700000007000B
:103B900007000A009A99B93F5A005A005A005A0081
:103BA0005A005A001A00390000006805800003001E
:103BB00007000B00020006000A00010005000900D2
:103BC0000603000007040100080502000000008C45
:103BD00003EC021903F4034A0328033C030000002A
:103BE00000D104A404E4067A049D048A047B040D35
:103BF0000A005B5B5B696E74657273656374696F01
:103C00006E4445544543545D5D5D20696E74657234
:103C100073656374696F6E434E54203A2000697275
:103C2000446174614D41583A002020746872657394
:103C3000686F6C643A00202064656661756C745F1F
:103C400073706565643A0020206761696E3A0032DE
:103C50002C332C372C362C350062617474566F6C03
:0C3C600074616765203A20002E005600B9
:107E0000112484B714BE81FFF0D085E080938100F7
:107E100082E08093C00088E18093C10086E0809377
:107E2000C20080E18093C4008EE0C9D0259A86E02C
:107E300020E33CEF91E0309385002093840096BBD3
:107E4000B09BFECF1D9AA8958150A9F7CC24DD24C4
:107E500088248394B5E0AB2EA1E19A2EF3E0BF2EE7
:107E6000A2D0813461F49FD0082FAFD0023811F036
:107E7000013811F484E001C083E08DD089C08234E0
:107E800011F484E103C0853419F485E0A6D080C0E4
:107E9000853579F488D0E82EFF2485D0082F10E0AE
:107EA000102F00270E291F29000F111F8ED06801E7
:107EB0006FC0863521F484E090D080E0DECF843638
:107EC00009F040C070D06FD0082F6DD080E0C81688
:107ED00080E7D80618F4F601B7BEE895C0E0D1E017
:107EE00062D089930C17E1F7F0E0CF16F0E7DF06D8
:107EF00018F0F601B7BEE89568D007B600FCFDCFD4
:107F0000A601A0E0B1E02C9130E011968C91119780
:107F100090E0982F8827822B932B1296FA010C0160
:107F200087BEE89511244E5F5F4FF1E0A038BF0790
:107F300051F7F601A7BEE89507B600FCFDCF97BE46
:107F4000E89526C08437B1F42ED02DD0F82E2BD052
:107F50003CD0F601EF2C8F010F5F1F4F84911BD097
:107F6000EA94F801C1F70894C11CD11CFA94CF0C13
:107F7000D11C0EC0853739F428D08EE10CD085E9AC
:107F80000AD08FE07ACF813511F488E018D01DD067
:107F900080E101D065CF982F8091C00085FFFCCF94
:107FA0009093C60008958091C00087FFFCCF809118
:107FB000C00084FD01C0A8958091C6000895E0E648
:107FC000F0E098E1908380830895EDDF803219F02E
:107FD00088E0F5DFFFCF84E1DECF1F93182FE3DFCA
:107FE0001150E9F7F2DF1F91089580E0E8DFEE27F6
:047FF000FF270994CA
:027FFE00040479
:00000001FF
