:100000000C9450020C9478020C9478020C947802B0
:100010000C9478020C9478020C9478020C94780278
:100020000C9478020C9478020C9478020C94780268
:100030000C9478020C9478020C9478020C94780258
:100040000C94EB140C9478020C945B150C943515FD
:100050000C9478020C9478020C9478020C94780238
:100060000C948D150C94780200407A10F35A00A07D
:10007000724E18090010A5D4E80000E87648170071
:1000800000E40B54020000CA9A3B000000E1F505B1
:10009000000080969800000040420F000000A086FB
:1000A00001000000102700000000E803000000002D
:1000B0006400000000000A000000000001000000D1
:1000C00000002C76D888DC674F0823DFC1DFAE59EB
:1000D000E1B1B796E5E3E453C63AE651997696E87E
:1000E000E6C28426EB898C9B62ED407C6FFCEFBC02
:1000F0009C9F40F2BAA56FA5F490055A2AF75C932D
:100100006B6CF9676DC11BFCE0E40D47FEF520E662
:10011000B500D0ED902E0300943577050080841E45
:10012000080000204E0A000000C80C333333330FA0
:10013000986E12831141EF8D2114893BE65516CF3D
:10014000FEE6DB18D1844B381BF77C1D901DA4BB49
:10015000E424203284725E228100C9F124ECA1E5FE
:100160003D2753717561726553697A65434E54201A
:100170003A20004F626A636865636B434E54203ACD
:10018000200052657475726E5371756172655369A2
:100190007A65203A2000646574656374656420693B
:1001A00064203A20006C696E6574726163655F61FA
:1001B0006E616C6F6720434E54203A20002121214C
:1001C00043616E2044657465637465642121210078
:1001D00021212143616E20417070726F616368213B
:1001E00021210063616E20617070726F616368210C
:1001F000202F20005475726E43616C696200205D8F
:100200005D002064617461203A20005B5B4E4F44C6
:1002100045006D6F76655F316E6F6465006D6F765A
:1002200065203A20534F555448006D6F7665203A4B
:10023000204E4F525448006D6F7665203A20574546
:100240005354006D6F7665203A2045415354006D3C
:100250006F7665203A207374617900202F20002C7E
:1002600000202F20746F3A002C004E4F44455F6DE4
:100270006F7665202F2066726F6D3A006D6F766520
:10028000434E543A00205D5D005B5B204E4F444579
:100290005F6D6F76656D656E74203A2000457869F4
:1002A00074204E4F4445310045786974204E4F44C8
:1002B00045390045786974204E4F4445350045580E
:1002C00049542053455155454E43452041435449D7
:1002D0005641544544203A2000426567696E2066C5
:1002E00061696C6564210056002E00626174745669
:1002F0006F6C74616765203A2000205D00524544B0
:1003000000202F2052657475726E20746F203A2081
:100310000054454100202F2041766F6964203A2027
:1003200000434F4C41005B20546172676574203A72
:1003300020004D697373696F6E20446174612052AF
:10034000656365766564203A3A20000A0A5B5B5B68
:1003500053657475702046696E6973685D5D5D0AEA
:100360000A000A0A5B5B5B53657475702053746105
:1003700072745D5D5D0A0A003E3E3E20417420536A
:1003800074617274696E6720506F736974696F6EFF
:10039000003E3E3E20434845434B2046554E4320B9
:1003A0003A3A20636865636B5F4E4F4445362C31A3
:1003B00030003E3E3E20434845434B2046554E4389
:1003C000203A3A20636865636B5F4E4F4445352C95
:1003D00039004E4F4445332032004E4F44453320C0
:1003E00031003E3E3E20434845434B2046554E4358
:1003F000203A3A20636865636B5F4E4F4445330093
:1004000063616E44726F7021212100202E20000A4A
:100410004E4F44452044415441205052494E5400CF
:100420004D697373696F6E20537461727421212159
:100430000000000000240027002A00000000002522
:100440000028002B00000000080002010000030447
:10045000070000000000000000000000002300264C
:100460000029000404040404040404020202020239
:100470000203030303030301020408102040800168
:1004800002040810200102040810204C696E655413
:10049000726163652053657474696E673A00F11682
:1004A00011241FBECFEFD8E0DEBFCDBF25E0A4E210
:1004B000B2E001C01D92A23AB207E1F712E0A0E05B
:1004C000B1E0EAECF7E402C005900D92A432B10766
:1004D000D9F712E0C0E5D2E004C02197FE010E94E6
:1004E000D721CF34D107C9F70E949B170C94E3237F
:1004F0000C94000091E090931E0480931D041092D0
:100500001C0410921B040895809117059091180502
:100510002091D4043091D504821793070CF49C01E8
:100520003093D5042093D404821B930B0895833019
:1005300081F028F4813099F08230A9F00895873055
:10054000A9F08830C9F08430B1F4809180008F7DAB
:1005500003C0809180008F7780938000089584B5D8
:100560008F7784BD089584B58F7DFBCF8091B000D7
:100570008F778093B00008958091B0008F7DF9CF80
:10058000CF93DF93282F30E0F901EB5BFB4F849191
:10059000F901E958FB4FD491F901ED59FB4FC49192
:1005A000CC23A1F081110E949702EC2FF0E0EE0F16
:1005B000FF1FE75AFB4FA591B491EC91ED2381E029
:1005C00090E009F480E0DF91CF91089580E090E021
:1005D000FACF1F93CF93DF93282F30E0F901EB5B25
:1005E000FB4F8491F901E958FB4FD491F901ED5982
:1005F000FB4FC491CC23A9F0162F81110E949702C2
:10060000EC2FF0E0EE0FFF1FE55CFB4FA591B491DE
:100610008FB7F894EC91111108C0D095DE23DC93CC
:100620008FBFDF91CF911F910895DE2BF8CFCF932D
:10063000DF9390E0FC01E958FB4F24918D599B4FCB
:10064000FC0184918823D1F090E0880F991FFC0170
:10065000EF5CFB4FA591B491FC01E55CFB4FC591AC
:10066000D49161110EC09FB7F8948C91E22FE09560
:100670008E238C932881E223E8839FBFDF91CF9163
:1006800008958FB7F894EC91E22BEC938FBFF6CFDF
:100690008E3008F08E508770806480937C0080914B
:1006A0007A00806480937A0080917A0086FDFCCF86
:1006B000809178009091790008953FB7F8948091E7
:1006C000BE029091BF02A091C002B091C10226B5B6
:1006D000A89B05C02F3F19F00196A11DB11D3FBF7A
:1006E000BA2FA92F982F8827BC01CD01620F711D49
:1006F000811D911D42E0660F771F881F991F4A9543
:10070000D1F708958F929F92AF92BF92CF92DF92CE
:10071000EF92FF926B017C010E945D034B015C0133
:10072000C114D104E104F104B9F00E945D03681919
:1007300079098A099B09683E73408105910580F318
:1007400021E0C21AD108E108F10888EE880E83E0A2
:10075000981EA11CB11CE4CFFF90EF90DF90CF90CA
:10076000BF90AF909F908F90089508950895AF9295
:10077000BF92CF92DF92EF92FF920F931F93CF938E
:10078000DF936C017B018B01040F151FEB015E01F0
:10079000AE18BF08C017D10759F06991D601ED9185
:1007A000FC910190F081E02DC6010995892B79F724
:1007B000C501DF91CF911F910F91FF90EF90DF90D6
:1007C000CF90BF90AF900895FC0144815581608126
:1007D00071818FE194E00C94B703FC01538D448D3B
:1007E000252F30E0842F90E0821B930B541710F0DC
:1007F000CF96089501970895FC01918D828D9817E9
:1008000061F0A28DAE0FBF2FB11D5D968C91928DC0
:100810009F5F9F73928F90E008958FEF9FEF0895F1
:10082000FC01918D828D981731F0828DE80FF11DBA
:10083000858D90E008958FEF9FEF0895FC01918DD5
:10084000228D892F90E0805C9F4F821B91098F73CE
:10085000992708958FE194E00E941E0421E0892BDE
:1008600009F420E0822F089580E090E0892B29F0A0
:100870000E942A0481110C9400000895FC01A48DAB
:10088000A80FB92FB11DA35ABF4F2C91848D90E0B2
:1008900001968F739927848FA689B7892C93A08995
:1008A000B1898C91837080648C93938D848D98131F
:1008B00006C00288F389E02D80818F7D80830895B2
:1008C000EF92FF920F931F93CF93DF93EC0181E0A0
:1008D000888F9B8D8C8D98131AC0E889F989808147
:1008E00085FF15C09FB7F894EE89FF896083E8897A
:1008F000F98980818370806480839FBF81E090E06C
:10090000DF91CF911F910F91FF90EF900895F62EF8
:100910000B8D10E00F5F1F4F0F731127E02E8C8D92
:100920008E110CC00FB607FCFACFE889F9898081D7
:1009300085FFF5CFCE010E943E04F1CFEB8DEC0F89
:10094000FD2FF11DE35AFF4FF0829FB7F8940B8FF4
:10095000EA89FB8980818062CFCF0F931F93CF9369
:10096000DF938C01D0E0C0E0F801EC0FFD1F649133
:10097000662341F08FE194E00E946004892B11F01E
:100980002196F2CFCE01DF91CF911F910F91089563
:10099000CF93DF93EC01888D8823B9F0AA89BB89B6
:1009A000E889F9898C9185FD03C0808186FD0DC0A1
:1009B0000FB607FCF7CF8C9185FFF2CF808185FFC2
:1009C000EDCFCE010E943E04E9CFDF91CF91089593
:1009D00020918C02260F3327331F21323105ECF48E
:1009E0002091EF03FC0190E080E0243069F082E088
:1009F0000895A0918C022191AC0144595D4FA40F40
:100A0000B52FB11D2C930196861798F380918C0217
:100A1000680F60938C0280E0089581E00895109241
:100A2000EF0381E08093EE031092E90361E082E13D
:100A30000E94E90261E083E10E94E902E9EBF0E053
:100A400080818E7F808380818D7F808388E4809306
:100A5000B80085E48093BC000895CF93DF9391E0C4
:100A600090936B028823B9F0C091B800D091BA007E
:100A70008091BC008A7B8093BC0060E082E10E9490
:100A8000E90260E083E10E94E9020E940F05D09331
:100A9000BA00C093B800DF91CF9108950895E09116
:100AA000F6038091F503E81730F4F0E0E950FC4FCD
:100AB000808190E008958FEF9FEF08959091F60365
:100AC0008091F5032FEF3FEF981748F4E92FF0E0FE
:100AD000E950FC4F208130E09F5F9093F603C901FD
:100AE00008958091F5039091F603891B990B089561
:100AF000CF92DF92EF92FF920F931F93CF93DF93EA
:100B00007C01CB018A0120911E04222389F0EB0194
:100B10006B01C40ED51ECC15DD0569F06991D701B6
:100B2000ED91FC910190F081E02DC7010995F3CF83
:100B3000642F0E94E804C801DF91CF911F910F91AB
:100B4000FF90EF90DF90CF900895CF93DF931F92A7
:100B5000CDB7DEB7698320911E042223F9F02091DE
:100B60001B04203258F021E030E0FC013383228363
:100B700090E080E00F90DF91CF91089580911C0468
:100B8000E82FF0E0E55BFD4F998190838F5F8093C4
:100B90001C0480931B0481E090E0ECCF61E0CE0167
:100BA00001960E94E804F7CF682F8CEB94E00C9438
:100BB000A505CF92DF92EF92FF920F931F93CF93F1
:100BC000DF93D0911B0481E0D13208F09CC0C0912A
:100BD0001D040E945D036B017C018091EF03811174
:100BE0006CC082E08093EF0381E08093EE038FEF8F
:100BF0008093ED031092EC03D093EB03ABE4B2E0EF
:100C0000E9ECF3E080E0D8138DC01092EA03809104
:100C1000EA03CC0FC82BC093EA038091E90381302B
:100C200009F084C01092E9030E945D036B017C010E
:100C30008091EA038093BB008091F1039091F203CD
:100C4000A091F303B091F403892B8A2B8B2BA1F095
:100C50000E945D030091F1031091F2032091F303D0
:100C60003091F4036C197D098E099F090617170747
:100C70002807390708F442C08091BC0083FDD8CF13
:100C800085EC8093BC000E945D036B017C01809128
:100C9000EF03823009F44CC08091ED038F3F09F4DB
:100CA00069C08091ED03803209F466C08091ED0344
:100CB000803309F463C084E026C08091F1039091F1
:100CC000F203A091F303B091F403892B8A2B8B2BB1
:100CD00009F483CF0E945D030091F1031091F203A8
:100CE0002091F3033091F4036C197D098E099F095B
:100CF000061717072807390708F06FCF8091F00310
:100D00000E942D0585E010921C0410921B04109285
:100D10001E04DF91CF911F910F91FF90EF90DF9014
:100D2000CF9008959D9191938F5F6DCF85EEA9CF60
:100D30008091F1039091F203A091F303B091F40339
:100D4000892B8A2B8B2B09F4A2CF0E945D03009183
:100D5000F1031091F2032091F3033091F4036C1925
:100D60007D098E099F09061717072807390708F01C
:100D70008ECFC4CF80E0C7CF82E0C5CF83E0C3CFA2
:100D80000F931F93CF93DF93AB012091C804309151
:100D9000C904232BE1F08B01EC0182E30E947A026B
:100DA0008091C8049091C904DC01ED91FC9102800E
:100DB000F381E02DA801BE0109958091C8049091AE
:100DC000C904DF91CF911F910F910C94D905A09187
:100DD000CA04B091CB04109769F0ED91FC91119782
:100DE0000280F381E02DBC01CD01DF91CF911F91F5
:100DF0000F910994DF91CF911F910F9108950F9357
:100E00001F93CF93DF938C01EB0185E00E947A0260
:100E100082E490E00E94D405C8010E94D405CE016E
:100E20000E94D4058CEB94E00E94D9056AE070E042
:100E300080E090E0DF91CF911F910F910C9482039D
:100E40008130910509F041C080911A0190911B01F8
:100E50008617970709F453C070931B0160931A011A
:100E600086E00E947A0285E390E00E94D40580919A
:100E70001A0190911B010E94D40580911C01909150
:100E80001D010E94D40580911E0190911F010E94B6
:100E9000D40580912001909121010E94D405809178
:100EA0002201909123010E94D40580912401909108
:100EB00025010E94D4058CEB94E00E94D9056AE0DC
:100EC00070E080E090E00C948203029761F48091DE
:100ED0001C0190911D016817790789F070931D011D
:100EE00060931C01BDCF80911E0190911F01681776
:100EF000790729F070931F0160931E01B1CF089507
:100F0000CF93DF93C8E2D0E08130910531F0CAE29F
:100F1000D0E0029711F4C9E2D0E086E00E947A02A4
:100F2000CE010E94D4058CE390E00E94D4058CEBA6
:100F300094E00E94D9056AE070E080E090E0DF91E3
:100F4000CF910C94820390E080E008958091C202DA
:100F50009091C3028F379105D4F42BEF280F209383
:100F6000C702E4ECF2E020E0AF01445C52404817D5
:100F7000590754F0FC01EC53FD4F208301969093E8
:100F8000C3028093C20208953191230FEDCF90E008
:100F900080E00895209147033091480380914902F1
:100FA00090914A022817390724F480914603882338
:100FB00031F081E08093450390E080E00895F901ED
:100FC000E75BFC4F808191812E5F3F4F3093480358
:100FD0002093470308952091470230914802213021
:100FE0003105F1F13CF52115310579F1F901E75BA6
:100FF000FC4F808340914C03842F90E00596281786
:10100000390739F590934A028093490210924802B9
:10101000109247024B5FE9E4F3E030E020E0341740
:1010200068F19927FC01E75BFC4F81E09081921306
:101030001DC0089522303105F1F023303105B1F69D
:101040008A3780F480934C0304C0853579F480930B
:1010500049032F5F3F4F309348022093470206C059
:101060008A3A31F0109248021092470280E0E1CFB4
:1010700080934A03EECF80934B03EBCF5191250F22
:101080003F5FCDCFCF93DF9320914D03621327C0F5
:10109000EC0185E090E09093480380934703109221
:1010A00046031092450368830E94CA079A83898386
:1010B0000E94CA079C838B830E94CA079E838D83EC
:1010C0000E94CA0798878F830E94CA079A878987D8
:1010D0008091450381111092450381E001C080E0B9
:1010E000DF91CF910895CF92DF92EF92FF926B0143
:1010F0007C016DE770E08DE790E00E94FF06C7017C
:10110000B601FF90EF90DF90CF900C948203CF93C5
:10111000DF93EB01BC010E94FF06BE01DD0F880BCF
:10112000990BDF91CF910C9482036EE670E081E021
:1011300090E00E94200763E270E082E090E00C946F
:1011400020074F925F926F927F928F929F92AF9201
:10115000BF92CF92DF92EF92FF928FE00E944803FE
:101160006091260170912701861797070CF4BC0146
:101170008091980590919905681B790B072E000CBA
:10118000880B990B0E94BA1F20911601309117010C
:1011900040911801509119010E94F51F4B015C010B
:1011A0006091140170911501072E000C880B990BAA
:1011B0000E94BA1F6B017C01A50194010E94EB20E3
:1011C0000E9457212B01A5019401C701B6010E947D
:1011D000EA200E945721CB01B2010E94FF0664E180
:1011E00070E080E090E0FF90EF90DF90CF90BF90B4
:1011F000AF909F908F907F906F905F904F900C94E6
:1012000082034F925F926F927F928F929F92AF92E2
:10121000BF92EF92FF920F931F93CF93DF93D82F3C
:101220002FB7F8948091170490911804A091190495
:10123000B0911A042FBF8093D0049093D104A0934F
:10124000D204B093D30415EE05ECC1E0FF24FA9468
:101250008FE0E82E2FB7F89480911704909118042E
:10126000A0911904B0911A042FBF4091D00450915D
:10127000D1046091D2047091D304841B950BA60B0A
:10128000B70B4091CC045091CD046091CE04709185
:10129000CF04481759076A077B0708F41FC18091DC
:1012A000C8049091C904009709F4F3C0DC01ED91E2
:1012B000FC910084F185E02D0995892B09F093C0FC
:1012C0000E945D034B015C018091EF03811161C0BD
:1012D000C093EF03C093EE03F092ED031092EC0382
:1012E000E092EB03C093EA038091EA038466809363
:1012F000EA038091E903813009F0A4C01092E90368
:101300000E945D034B015C018091EA038093BB0066
:101310008091F1039091F203A091F303B091F40353
:10132000892B8A2B8B2BA1F00E945D034090F10347
:101330005090F2036090F3037090F40368197909F8
:101340008A099B09461657066806790608F442C0C2
:101350008091BC0083FDD8CF0093BC000E945D0348
:101360004B015C018091EF03813009F46EC08091E4
:10137000EC03803108F08BC08091EC03A9ECB3E062
:10138000E7EFF3E090E0981751F12D9121939F5FE3
:10139000FACF8091F1039091F203A091F303B09101
:1013A000F403892B8A2B8B2B09F48ECF0E945D03CB
:1013B0004090F1035090F2036090F3037090F403B7
:1013C000681979098A099B0946165706680679063D
:1013D00008F07ACF8091F0030E942D0580E01092F2
:1013E000F6038093F5038091C8049091C904DC0151
:1013F000ED91FC910084F185E02D0995892B09F48C
:1014000029CF8091C8049091C904DC01ED91FC9131
:101410000284F385E02D09950E94EB07882319F3D8
:10142000DD2371F080914D03D81314CF85E090E057
:10143000909348038093470310924603109245030C
:1014400081E04DC01093BC0089CF8091F103909151
:10145000F203A091F303B091F403892B8A2B8B2B19
:1014600009F480CF0E945D034090F1035090F20395
:101470006090F3037090F403681979098A099B0955
:10148000461657066806790608F06CCFA3CF80E1B0
:1014900075CF8091CA049091CB04892B09F4DACEE0
:1014A0008091CA049091CB04DC01ED91FC91008401
:1014B000F185E02D0995892B09F4CCCE8091CA04E1
:1014C0009091CB04DC01ED91FC910284F385E02D39
:1014D00009950E94EB07882319F3A2CF80E0DF91E2
:1014E000CF911F910F91FF90EF90BF90AF909F9081
:1014F0008F907F906F905F904F900895EF92FF9242
:101500001F93CF93DF931092440385E58093C40229
:101510008AEA8093C50281E18093C60280E28093CB
:10152000C80285E090E09093C3028093C2020E94BB
:10153000A607BC0184EC92E00E94C0061092D5047C
:101540001092D40489E20E940109182F882309F41B
:1015500049C069E286E195E00E9442086091170562
:10156000709118051616170614F061E070E086E019
:10157000660F771F8A95E1F7809156059091570580
:101580000E9402239093570580935605D0E0C0E057
:10159000F12CE12C8091170590911805E816F906B9
:1015A00014F580E00E9401098823E1F0809156053E
:1015B000909157056AE28C0F9D1F0E944208882374
:1015C00031F08FEFE81AF80AC05CDF4FE3CF80916B
:1015D0005605909157056BE28C0F9D1F0E944208A3
:1015E0008111EFCF10E0812FDF91CF911F91FF90FC
:1015F000EF900895CF93DF930E947E0A8823D9F05D
:101600008091190590911A05892BA9F00E948402F6
:10161000892B89F0D0E0C0E00E948402892B69F018
:101620008091D4049091D50401969093D504809331
:10163000D4042196F1CFD0E0C0E0CE01DF91CF916C
:101640000895CF93DF93D0E0C0E00E947E0A882304
:1016500051F08091190590911A05892B21F00E9473
:101660008402892B39F42196C330D10574F3D0E07C
:10167000C0E03FC0D0E0C0E00E948402892BB1F1FD
:101680008091D4049091D5049C012F5F3F4F3093FB
:10169000D5042093D40420911705309118058217A2
:1016A0009307DCF426E0880F991F2A95E1F7E09173
:1016B0005605F0915705E80FF91F4581568127819E
:1016C0003085429FC001439F900D529F900D112481
:1016D000C817D9078CF6EC01CFCF40915D0550912A
:1016E0005E0520915F0530916005EBCF209709F4EE
:1016F000ACCFCE01DF91CF9108950F931F93CF937D
:10170000DF93EC0188819981009759F02A813B8110
:101710002617370730F081E0DF91CF911F910F91AD
:1017200008958B016F5F7F4F0E940223009759F04D
:10173000998388831B830A832C813D81232B59F74E
:10174000FC011082E8CF80E0E7CFFC01019000208F
:10175000E9F73197AF01481B590BBC018FE194E0C9
:101760000C94B703CF93DF930E94AD04EC0181E7A3
:1017700091E00E94A50B8C0F9D1FDF91CF910895E2
:10178000CF93DF93EC018EEB92E00E94AD0464EF07
:1017900071E080E090E00E947308C730D105A9F0A5
:1017A000289709F444C08DE992E00E94B20B809121
:1017B000B3029091B4028230910509F473C003978B
:1017C00009F490C0DF91CF91089583EB92E00E94DD
:1017D000B20B8091B3029091B40282309105D1F0A6
:1017E00083309105F9F0019769F768ED7FEF88E2A2
:1017F00090E00E94FF0664EB70E080E090E00E94C1
:10180000820364EF71E080E090E00E94730868E07A
:1018100077E002C060ED77E08CE390E0DF91CF915C
:101820000C94870868E270E088ED9FEFE2CF88EAC9
:1018300092E00E94B20B8091B3029091B402823088
:101840009105D9F08330910529F3019709F0BACFBA
:1018500068ED7FEF88E290E00E94FF0662E771E0AA
:1018600080E090E00E94820364EF71E080E090E00D
:101870000E94730864EC79E0CFCF68ED7FEF88E2D7
:1018800090E00E94FF0668E171E080E090E00E9435
:10189000820364EF71E080E090E00E9473086CE6E0
:1018A00077E0BACF60EB74E088E290E00E948708AE
:1018B00064EF71E080E090E00E94730868E270E0FD
:1018C00088ED9FEF0E94FF066CEB72E080E090E0F5
:1018D0000E94820360E070E0CB010E94730864EF15
:1018E00071E09ACF60EB74E088E290E00E94870894
:1018F00064EF71E080E090E00E94730868E270E0BD
:1019000088ED9FEF0E94FF066CEB72E080E090E0B4
:101910000E94820360E070E0CB010E94730860EBDC
:1019200074E07ACF8F929F92AF92BF92CF92DF9264
:10193000EF92FF920F931F93CF93DF93CDB7DEB754
:10194000A1970FB6F894DEBF0FBECDBF6C01990F03
:10195000EE08FF08F7FE41C06DE28FE194E00E94BF
:1019600060048C0122273327A9012C193D094E0957
:101970005F0919A2CE0181967C019AE0892E912CF3
:10198000A12CB12CCA01B901A50194010E94A12189
:10199000605DF70162937F01211531054105510515
:1019A00089F790E080E0309719F0CF010E94A50BF5
:1019B000800F911FA1960FB6F894DEBF0FBECDBF6A
:1019C000DF91CF911F910F91FF90EF90DF90CF901B
:1019D000BF90AF909F908F900895A701960119A294
:1019E0008E010F5D1F4F8AE0C82ED12CE12CF12C07
:1019F000CA01B901A70196010E94A121605DF80109
:101A000062938F01211531054105510589F790E059
:101A100080E0309779F2CF010E94A50BCBCFCF9316
:101A2000DF930E94920CEC0181E791E00E94A50BEC
:101A30008C0F9D1FDF91CF9108954F925F926F920F
:101A40007F928F929F92AF92BF92CF92DF92EF924E
:101A5000FF920F931F93CF93DF938C01D0E0C0E0F0
:101A60002196C017D10709F450C085EA91E00E9481
:101A7000AD04CE010E940F0D8FE00E9448036091DB
:101A8000260170912701861797070CF4BC018091FD
:101A9000980590919905681B790B072E000C880B0F
:101AA000990B0E94BA1F20911601309117014091A5
:101AB0001801509119010E94F51F4B015C016091C2
:101AC000140170911501072E000C880B990B0E94D0
:101AD000BA1F6B017C01A50194010E94EB200E94BA
:101AE00057212B01A5019401C701B6010E94EA20EC
:101AF0000E945721CB01B2010E94FF0664E170E011
:101B000080E090E00E948203ABCFDF91CF911F91E4
:101B10000F91FF90EF90DF90CF90BF90AF909F908C
:101B20008F907F906F905F904F900895EF92FF920B
:101B30000F931F93CF93DF9310E000E00F5F1F4FD1
:101B4000063011050CF071C00E947E0A8823B1F3A3
:101B50008091190590911A05892B81F30E948402C6
:101B6000892B61F3D0E0C0E0F12CE12C0E948402CB
:101B7000892BA1F1E091D404F091D504CF01019615
:101B80009093D5048093D404809117059091180503
:101B9000E817F907ECF5CF0126E0880F991F2A9581
:101BA000E1F7E0915605F0915705E80FF91F4581DF
:101BB00056816781708531852285649FC001659F4C
:101BC000900D749F900D1124E816F9061CF03C2F1F
:101BD0002D2FC701C32FD22F7C01C8CF209709F426
:101BE000ADCF86E991E00E94AD04CE010E940F0DB9
:101BF00081E02091B7023091B8022C173D0709F01F
:101C000080E0DF91CF911F910F91FF90EF900895A9
:101C100040915D0550915E0560915F057091600592
:101C20003091610520916205C8CFD0E0C0E0D9CFE6
:101C30000F931F93CF93DF93EB0163E070E00E945B
:101C40008D219B01220F331F620F731F860F971F79
:101C5000880F991FFC01EE5FFE4FD183C083805D2A
:101C60009E4FFC01008111818BE092E00E94AD0447
:101C7000C8010E94920C82E092E00E94AD04CE0165
:101C80000E94920C8EEF91E0DF91CF911F910F9106
:101C90000C94B20BEF92FF920F931F93CF93DF93AD
:101CA0008C017B010E94210BEC0182E891E00E94F3
:101CB000AD04CE010E940F0DC83883E1D8078CF027
:101CC0000E94960D61E070E0811102C062E070E058
:101CD000C801DF91CF911F910F91FF90EF900C946D
:101CE000180EC456D10970E060E0C432D34168F5E3
:101CF000C8010E94180E0E94FA0A8C01D0E0C0E0D0
:101D000001151105A9F42196C630D10521F164E62B
:101D100070E080E090E00E9482030E94FA0A8C0149
:101D200083E791E00E94AD04CE010E940F0DE8CF41
:101D30001016110684F40E94960D61E070E0811186
:101D400002C062E070E0C701C4CFC8010E94180E53
:101D500070E060E0F8CFDF91CF911F910F91FF907D
:101D6000EF900895EF92FF920F931F93CF93DF931D
:101D70008C010E94210B7C01D0E0C0E0E114F10451
:101D8000A9F4C330D10539F1219662E370E080E017
:101D900090E00E9482030E94210B7C0182E691E088
:101DA0000E94AD04CE010E940F0DE8CF85E6E81633
:101DB000F1048CF00E94960D61E070E0811102C088
:101DC00062E070E0C801DF91CF911F910F91FF9009
:101DD000EF900C94180E70E060E0F4CF0F931F9317
:101DE0008BE99FE00197F1F761E084E00E9417031F
:101DF00060E084E00E94E90283E090E00197F1F75F
:101E000061E084E00E94E9028FE090E00197F1F741
:101E100060E084E00E94E90260E084E00E94170331
:101E2000EBE7F4E06491E7E6F4E0E491F0E0EE0F34
:101E3000FF1FE75AFB4F8591949100E412E42FE0D5
:101E400030E0462F0E94AC166115710581059105A1
:101E500029F06F5F7F4F8F4F9F4F9F70CB016AE3D9
:101E600070E00E948D21CB011F910F910895EF9298
:101E7000FF920F931F93CF93DF936115710541F488
:101E800080E0DF91CF911F910F91FF90EF90089527
:101E900041155105B1F07B01EC010C811D81040F4E
:101EA000151FB8010E947D0B882351F328813981C9
:101EB0008C819D81B701820F931F0E94DC231D83BB
:101EC0000C8381E0DECFCF93DF93EC018881998191
:101ED000009711F00E947922198218821D821C82BB
:101EE0001B821A82DF91CF910895CF93DF93EC018B
:101EF000FB0101900020E9F73197AF01461B570B1A
:101F00000E94370F811103C0CE010E94630FCE01E2
:101F1000DF91CF910895CF93DF93EC01FB014481D2
:101F20005581608171810E94370F811103C0CE01FC
:101F30000E94630FCE01DF91CF910895EF92FF923F
:101F40000F931F93CF93DF93EC017B018A01BA01BA
:101F50000E947D0B81110BC0CE010E94630FCE0148
:101F6000DF91CF911F910F91FF90EF9008951D8306
:101F70000C83B701888199810E94DC23F0CFFB019B
:101F800001900020E9F73197AF01461B570B0C94E5
:101F90009E0F0F931F93CF93DF93CDB7DEB762975A
:101FA0000FB6F894DEBF0FBECDBF8C01CB01F80198
:101FB0001182108213821282158214824AE0BE01BD
:101FC0006F5F7F4F0E94371DBE016F5F7F4FC8015B
:101FD0000E94BF0F62960FB6F894DEBF0FBECDBF52
:101FE000DF91CF911F910F910895FC011182108212
:101FF0001382128215821482FB0101900020E9F7FE
:102000003197AF01461B570B0C949E0FAF92BF92B6
:10201000CF92DF92EF92FF920F931F93CF93DF93B4
:102020006C015B017A0189012417350720F48F2D9B
:102030007901042F182F63E771E0C6010E94F50FA4
:10204000D5011496CD91DC91EC16FD06E0F40C1749
:102050001D0708F4E801D501ED91FC911197EC0FF3
:10206000FD1F108110826D917C916E0D7F1DC60148
:1020700061157105A1F00E94BF0FF501808191816A
:10208000C80FD91F1883C601DF91CF911F910F91FF
:10209000FF90EF90DF90CF90BF90AF9008950E9497
:1020A000630FEBCFFC0180819181009711F00C94BC
:1020B00079220895CF92DF92EF92FF920F931F93B0
:1020C000CF93DF93CDB7DEB7E9970FB6F894DEBFB5
:1020D0000FBECDBF6B017C01C0921601D0921701DB
:1020E000E0921801F09219015093150140931401E8
:1020F00088E290E0909327018093260183E290E0AC
:1021000090939905809398058BE894E00E94AD0424
:102110001BA21AA21DA21CA21FA21EA28E010F5F4B
:102120001F4F22E044E0C701B6010E94F21C009755
:1021300009F46EC0BC01CE0182960E94BF0F60916F
:10214000140170911501CE0101960E94C90F609192
:10215000980570919905CE0188960E94C90F6091EB
:10216000260170912701CE018E960E94C90F64E767
:1021700071E0CE01C4960E94F50FBE01625D7F4FF3
:10218000CE01C4960E948B0F6FE771E00E94750F1D
:10219000BE01685D7F4F0E948B0F6CE871E00E946A
:1021A000750FBE016F5F7F4F0E948B0F6DE971E06D
:1021B0000E94750FBE016E5D7F4F0E948B0F0E94C3
:1021C000E40381E791E00E94A50BCE01C4960E9432
:1021D0005210CE018E960E945210CE0188960E9417
:1021E0005210CE0101960E945210CE0182960E949A
:1021F0005210E9960FB6F894DEBF0FBECDBFDF9147
:10220000CF911F910F91FF90EF90DF90CF900895A5
:10221000CE0182960E94630F92CFCF93DF93CDB70A
:10222000DEB72C970FB6F894DEBF0FBECDBF60E0CF
:1022300082E00E94170382E00E94C002019779F5B4
:1022400060914502709146026F5F7F4F7093460226
:1022500060934502CE0107960E94C90F65EA71E0BE
:10226000CE0101960E94F50FBE01695F7F4FCE013E
:1022700001960E948B0F0E94E40381E791E00E9487
:10228000A50BCE0101960E945210CE0107960E9426
:1022900052106FE070E08CE390E00E94870864E1E8
:1022A00070E080E090E00E9482032C960FB6F894D4
:1022B000DEBF0FBECDBFDF91CF9108958091450263
:1022C00090914602181619062CF00E940D110E94DA
:1022D000A108F4CF1092460210924502089562E3DD
:1022E00070E080E090E00E9473080E940D118091E0
:1022F00045029091460218161906B4F484EF91E055
:102300000E94B20B68ED7FEF88E290E00E94FF062A
:1023100062E370E080E090E00E94820362E370E09C
:1023200080E090E00E9473081092460210924502ED
:10233000089568EC70E080E090E00E94730860E926
:1023400071E08CE390E00E9487086CE97FEF84E6FF
:1023500090E00E94FF0668EE73E080E090E00E944B
:1023600082036DE770E08DE790E00E94FF060E9417
:102370006F116CEB72E080E090E00C94730868E2FF
:1023800070E088ED9FEF0E94FF066EEE72E080E045
:1023900090E00E9482036DE770E08DE790E00E947C
:1023A000FF060C946F1168EC70E080E090E00E94F2
:1023B00073086CE771E08CE390E00E9487080E944C
:1023C000BF116CEB72E080E090E00C94730868ED54
:1023D0007FEF88E290E00E94FF066EEE72E080E000
:1023E00090E00E9482036DE770E08DE790E00E942C
:1023F000FF060C946F1168EC70E080E090E00E94A2
:10240000730862EC71E08CE390E00E9487080E9400
:10241000E7116CEB72E080E090E00C947308CF93CE
:10242000DF93809124028111B3C083EE91E00E947A
:10243000AD0464E670E080E090E00E9473080E94C2
:10244000210BEC01C53F81E0D8070CF476C0CE012A
:102450000E940F0D80ED91E00E94B20B4AE050E027
:1024600063E373E383E39FE30E945A1010924602F2
:1024700010924502C1E080912402811169C08091CF
:10248000450290914602892B09F062C00E94EE0E2F
:10249000209100013091010128173907B4F18DEB2B
:1024A00091E00E94B20B62E370E080E090E00E9455
:1024B000730860919C0570919D0581E090E00E94F9
:1024C000200760919A0570919B0582E090E00E9440
:1024D000200762E370E083E090E00E94200764E65A
:1024E00070E080E090E00E948203C093240261E0EB
:1024F00070E08091B9029091BA020E94180E68EEC5
:1025000073E080E090E00E94730880911001909148
:102510001101892B31F480911201909113010197DF
:1025200011F40E940D1180914502909146021816F7
:10253000190674F00E94A1089ECF0E94EE0E4097EB
:102540000CF485CF0E94210BDF91CF910C940F0DDD
:102550004CE350E060E070E080E490E40E945A10A8
:102560008091020190910301892B61F48091100107
:1025700090911101892B31F48091120190911301F6
:10258000019731F082E090E0DF91CF910C941D0D26
:10259000DF91CF910895CF93DF93EC018091BB023F
:1025A0009091BC029E01281B390BC9018F3F3FEF60
:1025B000930701F1A4F48D3F3FEF9307C1F002961A
:1025C000E1F0D093BC02C093BB020E940F1282E1E3
:1025D00092E00E94B20BDF91CF910C945E11823099
:1025E000910559F08330910529F0019751F70E9428
:1025F000FB11E7CF0E94D311E4CF0E949911E1CFE4
:1026000085ED8093BC008091F1039091F203A0913D
:10261000F303B091F4030796A11DB11D23E0B69515
:10262000A795979587952A95D1F72091BC0024FD11
:1026300003C01092EF0308954091F1035091F2030B
:102640006091F3037091F403452B462B472B69F3FC
:102650000097A105B10541F02AE22A95F1F700C0E3
:102660000197A109B109E1CF8091F0030C942D05E8
:102670002F923F924F925F926F927F928F929F9292
:10268000AF92BF92CF92DF92EF92FF920F931F9380
:10269000CF93DF93CDB7DEB72E970FB6F894DEBF9A
:1026A0000FBECDBF8C0189E892E00E94AD04C80145
:1026B0000E94E40385E892E00E94B20B18861F8214
:1026C0001A8619861C861B86F80160817181611546
:1026D000710531F044815581CE0107960E949E0F0D
:1026E0008B859C85892B09F459C0EF80F8846CE2B6
:1026F00070E0C7010E94C823009709F44FC08C0105
:102700000E191F09F12CE12CC0904302D090440215
:102710000F3F100709F444C08FE0C816D1040CF035
:102720003FC09801A701BE01695F7F4FCE010196AE
:102730000E94061089819A81009761F10E94101D04
:1027400096012F5F3F4F3093440220934302F601DE
:10275000EE0FFF1FEB5DFD4F71836083CE0101968D
:102760000E94521078019FEFE91AF90A8B859C8527
:10277000E816F906A8F4CF80D8846CE270E0C601B0
:102780008E0D9F1D0E94C823009751F08C010C19DB
:102790001D09BACF60E070E0CB01D2CFF12CE12C63
:1027A00000914302109144020F30110514F52B855E
:1027B0003C85A701BE01695F7F4FCE0101960E9453
:1027C000061089819A81009729F10E94101D9801B5
:1027D0002F5F3F4F3093440220934302000F111F9D
:1027E000F801EB5DFD4F71836083CE0101960E947D
:1027F00052104090430250904402F201EE0FFF1F2E
:10280000EB5DFD4FC2018F30910544F4119211929E
:102810000196F9CF60E070E0CB01D9CFCE010796E9
:102820000E94521093E0292E312C00914302109106
:102830004402101611060CF0ACC08CE792E00E9426
:10284000AD04C8010E940F0D809143029091440293
:10285000F201E81BF90BEE0FFF1FEB5DFD4F8081CE
:1028600091810197712C612C8B30910538F48E5B2E
:102870009E4FFC016080062C000C77088091B90205
:102880009091BA02B1010E948D215B016C01C301DC
:10289000B1010E948D217B018C014501861A970AA6
:1028A0008C199D099E878D878AE692E00E94AD046F
:1028B000C5010E94920C88E692E00E94AD04C60118
:1028C0000E94920C81E692E00E94AD04C7010E9432
:1028D000920C8FE592E00E94AD04C8010E94920C18
:1028E0008BE592E00E94AD049AE0989D8001999D4D
:1028F000100D1124ED85FE850E0F1F1FC8010E94CB
:102900000F0D7092BA026092B90201151105E1F043
:1029100074F4063FFFEF1F07A9F10F3F1F4F59F156
:1029200060EA76E881E090E00E94730811C001300F
:102930001105C1F00A30110599F78AE292E00E9470
:10294000B20B90E080E014C08FE492E00E94B20BE2
:1029500080914302909144020197909344028093A6
:10296000430263CF83E492E00E94B20B81E090E0E7
:102970000E94CB12EDCF87E392E00E94B20B83E07E
:1029800090E0F6CF8DE192E00E94B20B82E090E001
:10299000EFCFE5E2F2E083E492E0119211928E171C
:1029A0009F07D9F72E960FB6F894DEBF0FBECDBFA6
:1029B000DF91CF911F910F91FF90EF90DF90CF901B
:1029C000BF90AF909F908F907F906F905F904F904F
:1029D0003F902F9008951F920F920FB60F921124DF
:1029E0002F933F938F939F93AF93BF93809117043F
:1029F00090911804A0911904B0911A043091BD026D
:102A000023E0230F2D3758F50196A11DB11D20930A
:102A1000BD028093170490931804A0931904B093F7
:102A20001A048091BE029091BF02A091C002B091A1
:102A3000C1020196A11DB11D8093BE029093BF02F9
:102A4000A093C002B093C102BF91AF919F918F91AB
:102A50003F912F910F900FBE0F901F90189526E871
:102A6000230F0296A11DB11DD2CF1F920F920FB658
:102A70000F9211242F933F934F935F936F937F9304
:102A80008F939F93AF93BF93EF93FF938FE194E066
:102A90000E943E04FF91EF91BF91AF919F918F9162
:102AA0007F916F915F914F913F912F910F900FBE4A
:102AB0000F901F9018951F920F920FB60F9211242E
:102AC0002F938F939F93EF93FF93E0912F04F091B7
:102AD00030048081E0913504F091360482FD1BC002
:102AE0009081809138048F5F8F7320913904821711
:102AF00041F0E0913804F0E0E15EFB4F958F809368
:102B00003804FF91EF919F918F912F910F900FBEFD
:102B10000F901F9018958081F4CF1F920F920FB6DF
:102B20000F9211242F933F934F935F936F937F9353
:102B30008F939F93AF93BF93EF93FF938091B900CF
:102B4000887F803609F44AC0F0F5883209F4A7C0BE
:102B500018F5803109F49BC0B8F4882309F4F9C052
:102B6000883009F494C0FF91EF91BF91AF919F918C
:102B70008F917F916F915F914F913F912F910F9026
:102B80000FBE0F901F901895883109F488C08032CD
:102B900051F78093ED0314C0803409F49DC040F4D4
:102BA0008033B9F38833F9F68093ED0385ECB0C038
:102BB000803509F485C0883509F496C0883499F6C3
:102BC0000E940013D0CF883909F48CC038F58837BB
:102BD00029F050F4883611F0803729F683E080938D
:102BE000EF031092AE0257C0883809F47BC08039D9
:102BF00019F0803809F0B7CF8091AE02803208F02A
:102C000071C0E091AE0281E08E0F8093AE028091A0
:102C1000BB00F0E0E257FD4F80833DC0803B39F0C0
:102C2000E0F4803A09F479C0883A09F09CCF84E056
:102C30008093EF0310928D0210928C02E091AF020C
:102C4000F091B002099580918C0281110FC081E052
:102C500080938C0210926C0209C0803C09F4A6CFCC
:102C6000883C09F4A3CF883B09F07DCFE0918D0229
:102C700081E08E0F80938D02F0E0E459FD4F80815A
:102C80008093BB0090918D0280918C0229C080912D
:102C9000EA038093BB0085EC8093BC0064CF9091E5
:102CA000EC038091EB03981758F5E091EC0381E079
:102CB0008E0F8093EC03F0E0E753FC4F8081E9CF67
:102CC000E091EC0381E08E0F8093EC038091BB00D8
:102CD000F0E0E753FC4F80839091EC038091EB038D
:102CE0009817C8F285E8D8CFE091EC0381E08E0F09
:102CF0008093EC038091BB00F0E0E753FC4F8083AE
:102D00008091EE0381115CCF81E08093E90384EA36
:102D10008093BC001092EF0326CF85EC8093BC001B
:102D20001092EF038091AE02803230F4E091AE0257
:102D3000F0E0E257FD4F10826091AE0270E0E0914A
:102D4000B102F091B2028EE892E009951092AE02C3
:102D50000ACF1092ED0334CFCF92DF92EF92FF9221
:102D60000F931F93E82FF92F05C001501109210976
:102D7000310961F1908196239417B9F305C0015090
:102D800011092109310911F1908196239413F7CF8C
:102D9000C12CD12CE12CF12C0AC08FEFC81AD80A13
:102DA000E80AF80A0C151D052E053F0579F080810B
:102DB0008623841791F36C2D7D2D8E2D9F2D1F91D1
:102DC0000F91FF90EF90DF90CF90089560E070E05A
:102DD00080E090E01F910F91FF90EF90DF90CF90F7
:102DE0000895109222041092210488EE93E0A0E04E
:102DF000B0E08093230490932404A0932504B0931F
:102E0000260421E531E03093200420931F0425ECB3
:102E100030E030932C0420932B0424EC30E03093EA
:102E20002E0420932D0420EC30E0309330042093C6
:102E30002F0421EC30E0309332042093310422EC53
:102E400030E0309334042093330426EC30E03093A8
:102E500036042093350410923804109239041092ED
:102E60003A0410923B041092BF041092BE04809367
:102E7000C0049093C104A093C204B093C30483E63A
:102E800091E09093BD048093BC04809128019091BF
:102E900029012EE630E0281B390B30939D05209345
:102EA0009C05839690939B0580939A05209126011B
:102EB00030912701C901439697FD01969595879515
:102EC0000196909399058093980584E690E0A0E0A0
:102ED000B0E08093CC049093CD04A093CE04B09343
:102EE000CF041092D5041092D4041092570510927A
:102EF00056051092C9041092C8041092CB04109287
:102F0000CA048FEF809358058FEF9FEF90935A0577
:102F10008093590590935C0580935B0590935E05C3
:102F200080935D059093600580935F0590936205A3
:102F3000809361050895CF93DF9300D000D000D037
:102F4000CDB7DEB7789484B5826084BD84B58160E6
:102F500084BD85B5826085BD85B5816085BD809164
:102F60006E00816080936E001092810080918100DC
:102F700082608093810080918100816080938100D4
:102F8000809180008160809380008091B100846096
:102F90008093B1008091B00081608093B0008091F7
:102FA0007A00846080937A0080917A0082608093B6
:102FB0007A0080917A00816080937A0080917A0013
:102FC000806880937A001092C1001092F6031092EC
:102FD000F50310921C0410921B040E940F0585EB50
:102FE00093E09093B0028093AF0286EB93E09093CE
:102FF000B2028093B10264EF71E080E090E00E9441
:10300000820385E00E947A0287E290E00E94D40564
:103010008CEB94E00E94D9056AE070E080E090E0DB
:103020000E94820386E00E947A0287E290E00E947A
:10303000D4058CEB94E00E94D9056AE070E080E052
:1030400090E00E94820381E00E947A0287E290E091
:103050000E94D4058CEB94E00E94D9056AE070E0F0
:1030600080E090E00E94820382E00E947A0287E280
:1030700090E00E94D4058CEB94E00E94D9056AE0B0
:1030800070E080E090E00E94820383E00E947A0278
:1030900087E290E00E94D4058CEB94E00E94D90571
:1030A0006AE070E080E090E00E94820384E00E9489
:1030B0007A0287E290E00E94D4058CEB94E00E94B3
:1030C000D9056AE070E080E090E00E94820361E050
:1030D00087E00E94170361E087E00E94E90260E058
:1030E00088E00E94170388E00E94C002892BB9F78C
:1030F00061E087E00E94170360E087E00E94E90238
:1031000085E00E947A0287E290E00E94D4058CEB71
:1031100094E00E94D9056AE070E080E090E00E94AF
:10312000820386E00E947A0287E290E00E94D40542
:103130008CEB94E00E94D9056AE070E080E090E0BA
:103140000E94820381E00E947A0287E290E00E945E
:10315000D4058CEB94E00E94D9056AE070E080E031
:1031600090E00E94820382E00E947A0287E290E06F
:103170000E94D4058CEB94E00E94D9056AE070E0CF
:1031800080E090E00E94820383E00E947A0287E25E
:1031900090E00E94D4058CEB94E00E94D9056AE08F
:1031A00070E080E090E00E94820384E00E947A0256
:1031B00087E290E00E94D4058CEB94E00E94D90550
:1031C0006AE070E080E090E00E94820368EE73E0C5
:1031D00080E090E00E94820385E00E947A0285E20E
:1031E00090E00E94D4058CEB94E00E94D9056AE03F
:1031F00070E080E090E00E94820386E00E947A0204
:1032000085E290E00E94D4058CEB94E00E94D90501
:103210006AE070E080E090E00E94820381E00E941A
:103220007A0285E290E00E94D4058CEB94E00E9443
:10323000D9056AE070E080E090E00E94820382E0BD
:103240000E947A0285E290E00E94D4058CEB94E023
:103250000E94D9056AE070E080E090E00E9482035D
:1032600083E00E947A0285E290E00E94D4058CEB14
:1032700094E00E94D9056AE070E080E090E00E944E
:10328000820384E00E947A0285E290E00E94D405E5
:103290008CEB94E00E94D9056AE070E080E090E059
:1032A0000E948203E0912F04F091300482E0808339
:1032B000E0912B04F0912C041082E0912D04F09108
:1032C0002E0480E1808310923704E0913304F09162
:1032D000340486E08083E0913104F09132048081EF
:1032E00080618083E0913104F091320480818860B4
:1032F0008083E0913104F091320480818068808382
:10330000E0913104F091320480818F7D808382E6E8
:1033100093E00E94AD0410921C0410921B040E94C2
:103320000F056CEBE62E64E0F62E75E5B72EEAEAA3
:10333000AE2EF1E19F2EACE28A2EB5E0CB2ED12C41
:103340001092CB041092CA04F092C904E092C8040F
:1033500005E010E010924403B092C402A092C502AE
:103360009092C6028092C802D092C302C092C2025A
:103370000E94A607BC0184EC92E00E94C0068EE287
:103380000E940109811194C20150110919F789EDB8
:1033900092E00E94B20B60919C0570919D0581E0C6
:1033A00090E00E94200760919A0570919B0582E051
:1033B00090E00E94200764E670E080E090E00E94C8
:1033C0008203BECF8AED93E00E94B20B61ED71E003
:1033D000CE0101960E94F50FCE0101960E9438138E
:1033E000CE0101960E94521086E090E00E94C00B30
:1033F00096C082ED93E00E94B20B67ED71E0CE01C2
:1034000001960E94F50FCE0101960E943813CE015D
:1034100001960E9452100E94D31160E273E084EC86
:103420009FEF0E94870887E090E0E0CF63E072E0C2
:10343000CE0101960E94F50FCE0101960E9438132D
:10344000CE0101960E9452100E94FB11E6CF0E940D
:10345000BF111092BC021092BB0268EC70E080E0D9
:1034600090E00E94730867EE71E0CE0101960E9421
:10347000F50FCE0101960E943813CE0101960E94ED
:10348000521021C068EE73E080E090E00E94730863
:103490000E94EE0E40971CF00E94A108F9CF88E030
:1034A00090E09093BA028093B9021093BC0200930B
:1034B000BB020E940F120E94FB1160E273E084ECD9
:1034C0009FEF0E94870888E090E090CF0E94BF1194
:1034D0001092BC021092BB0268EC70E080E090E0B9
:1034E0000E94730865EF71E0CE0101960E94F50F0E
:1034F000CE0101960E943813CE0101960E9452100F
:1035000092CF61E072E0CE0101960E94F50FCE01EC
:1035100001960E943813CE0101960E94521068EC69
:1035200070E080E090E00E94730880E094E00E94E8
:10353000B20B0E9495088FE094E00E94B20B52E01B
:10354000E52E51E0F52E5701D12CC12CF5016191EA
:1035500071915F01CE0101960E94C90F8D819E81FC
:10356000892B71F06FE172E089819A810E94D323E7
:10357000892B31F461E272E0CE0101960E94BF0F07
:10358000CE0101960E94E403F2E0CF16D10421F0AF
:103590008BE094E00E94AD04CE0101960E9452108F
:1035A0008FEFC81AD80AE3E0CE16D10479F683E784
:1035B00091E00E94A50B81E791E00E94A50BF6E047
:1035C000EF0EF11C6E147F0409F0BDCF60E472E4CD
:1035D0008FE090E00E9473084114510429F00E948A
:1035E0002A0481110E94000080E294E00E94B20B44
:1035F0000E945E110E945E119092BA028092B902FE
:103600001092BC021092BB0288E793E00E94B20BBA
:1036100064E670E080E090E00E94730864EF71E07F
:1036200084E690E00E94870882EE93E00E94B20B4D
:1036300060E070E0CB010E94730890E080E00E949F
:10364000B20E80910201909103018130910509F43D
:10365000B9CE8230910509F4CCCE892B09F05FCF29
:103660000E94E7111093BC020093BB0268EC70E06B
:1036700080E090E00E94730882EB93E00E94B20B1E
:1036800068E070E087E090E00E944A0E80911001AF
:10369000909111018130910509F4C8CE82309105D5
:1036A00009F4D5CE892B09F03ACF8091120190917F
:1036B00013018130910509F4E5CE8230910509F4BA
:1036C00005CF892B09F02BCF0E94BF111092BC02AD
:1036D0001092BB0268EC70E080E090E00E947308FA
:1036E00065ED71E0CE0101960E94F50FCE010196C5
:1036F0000E943813CE0101960E9452100E94FB11C5
:103700001093BC020093BB0281E993E00E94B20BCC
:1037100065E070E084E090E00E944A0E80910A012A
:1037200090910B018130910509F4EBCE8230910527
:1037300009F471C0892B09F0F2CEE0900C01F090F1
:103740000D010E945E1184E090E09093BA02809394
:10375000B9021093BC020093BB0281E0E816F104A9
:1037600009F456C0E2E0EE16F10409F45DC0EF285A
:1037700009F0D5CE0E94D3111092BC021092BB0268
:1037800081E090E00E94B20EE0900401F09005010B
:10379000F1E0EF16F10409F457C082E0E816F104F5
:1037A00009F0BDCE62E370E088ED9FEF0E948708CC
:1037B0000E94E7111093BC020093BB026CE172E01F
:1037C000CE0101960E94F50FCE0101960E9438139A
:1037D000CE0101960E9452100E94D311F092BA02BB
:1037E000E092B9021092BC021092BB020E940F122A
:1037F00068EC70E080E590E00E9487080E949911D3
:10380000F092BA02E092B902F092BC02E092BB02DE
:103810006CE072E02ACE0E94BF111092BC0210929E
:10382000BB0265E072E021CE0E94D3111092BC026F
:103830001092BB0281E090E00E94B20E80910401E0
:1038400090910501019719F461E172E04DCE67E1B5
:1038500072E0CE0101960E94F50FCE0101960E9402
:103860003813CE0101960E9452100E9499116CE902
:103870007FEF84E690E00E94FF0664E670E080E05F
:1038800090E00E9482033092BC022092BB0283E24D
:1038900090E00E941D0D0E94BF111093BA02009388
:1038A000B902F092BC02E092BB0261E072E01CCE71
:1038B0000E94950885E00E947A0281E590E00E94CE
:1038C000D40581E090E00E94D4058CEB94E00E9446
:1038D000D9056AE070E080E090E00E94820381E018
:1038E00090E00E94800782E090E00E94800783E0E1
:1038F00090E00E9480070E94950880E00E944803A3
:103900008C01000F111F8BEE92E00E94AD04C801E4
:1039100064E670E00E948D218C01CB010E94920C24
:1039200089EE92E00E94AD04C8010E94920C87EEDD
:1039300092E00E94B20B4CE350E060E070E080E463
:1039400090E40E945A1003E010E01093B802009334
:10395000B70282E090E09093B6028093B502909314
:10396000B4028093B30282E393E00E94AD0486E246
:1039700093E00E94AD0481E293E00E94AD048AE3EB
:1039800090E0909329018093280110930101009306
:10399000000185E193E00E94AD0481E193E00E9483
:1039A000AD0481E093E00E94AD048DEF92E00E94AF
:1039B000AD048AEF92E00E94B20B8BE493E00E9488
:1039C000AD0496E0892E912C24E1622E21E0722E26
:1039D00030E0432E30E0532E01E010E043E0242E8F
:1039E000312C02CEEF920F931F93CF93DF93E80118
:1039F00034E047FD34E1042E000C550B57FF03C0A3
:103A0000519541955109E32E022F242FAE010E94BA
:103A1000711DCE01DF91CF911F910F91EF9008950D
:103A20001F93FC0199278827BC01E894119110325B
:103A3000E9F3193010F01E30C8F31B3251F01D327B
:103A400049F4689406C00E94421D610F711D811DDA
:103A5000911D119110531A30B0F33EF4909580955A
:103A6000709561957F4F8F4F9F4F1F910895BB2792
:103A70004A3031F4992322F4BDE2909581959F4F0D
:103A80000C94581D592F482F372F262F660F771F5C
:103A9000881F991F660F771F881F991F620F731F5A
:103AA000841F951F660F771F881F991F0895BB27D6
:103AB000FB015527AA27880F991FAA1FA41710F0EA
:103AC000A41B83955051B9F7A05DAA3308F0A95DF6
:103AD000A193009779F7B111B1931192CB010C9496
:103AE000A81FA9E0B0E0E7E7FDE10C94B9206A0166
:103AF000F22EB02E102FFBE3AF2EA01608F41BE31E
:103B00001F5F012F27E0AE014F5F5F4F0E94D01E65
:103B1000BC018981982F9970913009F43FC09BE2D4
:103B2000E1FC04C09E2D9170E0FC3AC05E2D507106
:103B3000E82FE87083FF46C084E0911101C083E064
:103B4000EF2DE81B8F1508F0E0E0D6018E2F20E264
:103B5000552351F1992329F0D6019C93C601019672
:103B60006C0196012D5F3F4FE2FE24C08EE4D6012A
:103B70008C9391E411969C93119712968C93D90192
:103B80008E2F90E281111BC0E20FF32FF11D1082E6
:103B90008EEF9FEF2996ECE00C94D5209DE2C6CFE6
:103BA00090E2C4CF2D9381508111FCCFCE0ED11C59
:103BB000E0E0D0CF8EE6D6018C9391E6DBCF9D93EB
:103BC0008150E0CF482F447082FF3DC084E09111C6
:103BD00001C083E08F1510F4EF2DE81BD6018E2F66
:103BE00020E2552309F1992329F0D6019C93C601BF
:103BF00001966C0196012D5F3F4FE2FE1BC089E4E8
:103C0000D6018C938EE411968C93119786E41296CC
:103C10008C93D9018E2F90E2882309F4B5CF9D9320
:103C20008150FACF2D9381508111FCCFCE0ED11C43
:103C3000E0E0D9CF89E6D6018C938EE611968C937D
:103C4000119786E6E4CF9B0177FF02C030E020E0C9
:103C5000A1E0B0E0911102C0B0E0A0E0F90131961E
:103C6000AE0FBF1F8B2C912CBB2009F461C05401F7
:103C7000EFEFAE1ABE0AAA0DBB1DFA161B0619F00D
:103C800014F04F2D4A1B511188C0E3FC59C0760136
:103C9000A42FB0E2A1114FC0C40ED11C992309F486
:103CA0005BC040E0D6011196F60190836D0155236B
:103CB00009F448C0012F060F9A81582F507184FFD4
:103CC00003C0913309F4015010160CF047C00930BD
:103CD00008F008E0EEE2FE2E5B01A01AB1088501B3
:103CE0009194819491082F3F320729F4D601FC92D8
:103CF000F60131966F016217730794F102171307EB
:103D00007CF5DB01A21BB30BAA24A394B12CAC0E4F
:103D1000BD1EAA0DBB1D11968C9121503109D601F3
:103D2000119628153905F4F0F60180836D01DBCF7B
:103D3000B12CA12CA0CFF701B1937F01A150AACF44
:103D40009111B0CFD601942F50E302C05D939150F2
:103D50009111FCCFC40ED11C40E0ACCF01E0BACF32
:103D600080E3DBCF6217730731F4963388F4953321
:103D700011F4552369F0F6018083FD01842F90E250
:103D8000811108C0A40FB11D1C9290E080E002CF09
:103D900081E3F1CF91938150F3CF911183CF8ACFFB
:103DA000283008F027E03327DA01990F311D87FD0D
:103DB000916000966105710539F432602E5F3D9384
:103DC00030E32A95E1F708959F3F30F08038710580
:103DD000610509F03C5F3C5F3D93913008F08068DD
:103DE000911DDF93CF931F930F93FF92EF92192FA3
:103DF000987F9695E92F96959695E90FFF27EE53B4
:103E0000FF4F99273327EE24FF24A701E7010590F0
:103E10000894079428F4360FE71EF81E491F511D19
:103E2000660F771F881F991F0694A1F705900794C6
:103E300028F4E70EF81E491F561FC11D770F881F73
:103E4000991F661F0694A1F70590079428F4F80EB1
:103E5000491F561FC71FD11D880F991F661F771F47
:103E60000694A1F70590079420F4490F561FC71F29
:103E7000D81F990F661F771F881F0694A9F7849192
:103E80001095177041F0D695C79557954795F794BB
:103E9000E7941A95C1F7E8E6F0E06894159015915B
:103EA00035916591959105907FE27395E118F10A3E
:103EB000430B560BC90BD009C0F7E10CF11E431F91
:103EC000561FC91FD01D7EF4703311F48A95E6CFBA
:103ED000E894015030F0080F0AF40027021708F4A4
:103EE000202F2395022F7A3328F079E37D932A95AA
:103EF000E9F710C07D932A9589F606949795679502
:103F0000379517951794E118F10A430B560BC90B17
:103F1000D00998F023957E9173957A3308F070E379
:103F20007C932013B8F77E9170617D9330F0839578
:103F300071E37D9370E32A95E1F71124EF90FF90F0
:103F40000F911F91CF91DF91992787FD909508954B
:103F5000DC01FC01672F71917723E1F7329704C0F0
:103F60007C916D9370836291AE17BF07C8F308957B
:103F7000E89409C097FB3EF4909580957095619503
:103F80007F4F8F4F9F4F9923A9F0F92F96E9BB27B9
:103F90009395F695879577956795B795F111F8CF35
:103FA000FAF4BB0F11F460FF1BC06F5F7F4F8F4FA0
:103FB0009F4F16C0882311F096E911C0772321F096
:103FC0009EE8872F762F05C0662371F096E8862F2E
:103FD00070E060E02AF09A95660F771F881FDAF785
:103FE000880F9695879597F908950E9408200C945C
:103FF00079200E946B2038F00E94722020F09523D7
:1040000011F00C9462200C94682011240C94AD20C3
:104010000E948A2070F3959FC1F3950F50E0551FC1
:10402000629FF001729FBB27F00DB11D639FAA270D
:10403000F00DB11DAA1F649F6627B00DA11D661F5C
:10404000829F2227B00DA11D621F739FB00DA11D7D
:10405000621F839FA00D611D221F749F3327A00D37
:10406000611D231F849F600D211D822F762F6A2FD3
:1040700011249F5750409AF0F1F088234AF0EE0F38
:10408000FF1FBB1F661F771F881F91505040A9F765
:104090009E3F510580F00C9462200C94AD205F3F50
:1040A000E4F3983ED4F3869577956795B795F795A1
:1040B000E7959F5FC1F7FE2B880F911D9695879519
:1040C00097F9089597F99F6780E870E060E0089598
:1040D0009FEF80EC089500240A9416161706180620
:1040E0000906089500240A941216130614060506FC
:1040F0000895092E0394000C11F4882352F0BB0F8D
:1041000040F4BF2B11F460FF04C06F5F7F4F8F4FEF
:104110009F4F089557FD9058440F551F59F05F3F2A
:1041200071F04795880F97FB991F61F09F3F79F0D9
:1041300087950895121613061406551FF2CF46955B
:10414000F1DF08C0161617061806991FF1CF8695DD
:104150007105610508940895E894BB2766277727C1
:10416000CB0197F908952F923F924F925F926F92F1
:104170007F928F929F92AF92BF92CF92DF92EF92F7
:10418000FF920F931F93CF93DF93CDB7DEB7CA1B78
:10419000DB0B0FB6F894DEBF0FBECDBF09942A88A3
:1041A000398848885F846E847D848C849B84AA844B
:1041B000B984C884DF80EE80FD800C811B81AA81D8
:1041C000B981CE0FD11D0FB6F894DEBF0FBECDBFA3
:1041D000ED0108955058BB27AA270E9402210C9494
:1041E00079200E946B2038F00E94722020F039F470
:1041F0009F3F19F426F40C9468200EF4E095E7FB39
:104200000C946220E92F0E948A2058F3BA176207A3
:1042100073078407950720F079F4A6F50C94AC2079
:104220000EF4E0950B2EBA2FA02D0B01B9019001D1
:104230000C01CA01A0011124FF27591B99F0593F15
:1042400050F4503E68F11A16F040A22F232F342F5D
:104250004427585FF3CF469537952795A795F040AB
:104260005395C9F77EF41F16BA0B620B730B840BC0
:10427000BAF09150A1F0FF0FBB1F661F771F881F78
:10428000C2F70EC0BA0F621F731F841F48F48795D0
:1042900077956795B795F7959E3F08F0B0CF9395C2
:1042A000880F08F09927EE0F9795879508950E943B
:1042B0005E216894B1110C94AD2008950E94922063
:1042C00088F09F5798F0B92F9927B751B0F0E1F0D7
:1042D000660F771F881F991F1AF0BA95C9F714C087
:1042E000B13091F00E94AC20B1E008950C94AC2064
:1042F000672F782F8827B85F39F0B93FCCF38695C0
:1043000077956795B395D9F73EF49095809570951C
:1043100061957F4F8F4F9F4F089597FB072E16F49F
:10432000009407D077FD09D00E94C32107FC05D077
:104330003EF4909581959F4F0895709561957F4FBC
:104340000895A1E21A2EAA1BBB1BFD010DC0AA1FD6
:10435000BB1FEE1FFF1FA217B307E407F50720F0EE
:10436000A21BB30BE40BF50B661F771F881F991F69
:104370001A9469F760957095809590959B01AC01B2
:10438000BD01CF010895AA1BBB1B51E107C0AA1FA5
:10439000BB1FA617B70710F0A61BB70B881F991FE6
:1043A0005A95A9F780959095BC01CD010895EE0F1F
:1043B000FF1F0590F491E02D09940F931F93CF9365
:1043C000DF938230910510F482E090E0E091A00547
:1043D000F091A10530E020E0B0E0A0E0309799F442
:1043E0002115310509F44AC0281B390B2430310549
:1043F000D8F58A819B816115710589F1FB01938351
:104400008283FE0111C040815181028113814817CE
:104410005907E0F04817590799F4109761F0129680
:104420000C93129713961C933296CF01DF91CF9184
:104430001F910F9108950093A0051093A105F4CF4B
:104440002115310551F04217530738F0A901DB015E
:104450009A01BD01DF01F801C1CFEF01F9CF9093BF
:10446000A1058093A005CDCFFE01E20FF31F81933C
:1044700091932250310939832883D7CF20919E050B
:1044800030919F05232B41F420912C0130912D0177
:1044900030939F0520939E0520912A0130912B0196
:1044A0002115310541F42DB73EB740912E015091B1
:1044B0002F01241B350BE0919E05F0919F05E2171B
:1044C000F307A0F42E1B3F0B2817390778F0AC0137
:1044D0004E5F5F4F2417350748F04E0F5F1F509314
:1044E0009F0540939E05819391939FCFF0E0E0E07C
:1044F0009CCFCF93DF930097E9F0FC0132971382B2
:104500001282A091A005B091A105ED0130E020E05C
:104510001097A1F420813181820F931F20919E0575
:1045200030919F052817390709F061C0F0939F0566
:10453000E0939E05DF91CF910895EA01CE17DF0742
:10454000E8F54A815B819E0141155105B1F7E9010A
:10455000FB83EA8349915991C40FD51FEC17FD07DE
:1045600061F4808191810296840F951FE9019983FE
:104570008883828193819B838A83F0E0E0E01296B6
:104580008D919C9113970097B9F52D913C911197BE
:10459000CD010296820F931F20919E0530919F05B9
:1045A0002817390739F6309751F51092A105109266
:1045B000A005B0939F05A0939E05BCCFD383C28373
:1045C00040815181840F951FC817D90761F44E5F50
:1045D0005F4F88819981480F591F518340838A8199
:1045E0009B81938382832115310509F0B0CFF0932D
:1045F000A105E093A0059ECFFD01DC01C0CF138291
:104600001282D7CFB0E0A0E0E8E0F3E20C94B5204E
:104610008C01009751F4CB010E94DD218C01C8016F
:10462000CDB7DEB7E0E10C94D120FC01E60FF71F17
:104630009C0122503109E217F30708F49DC0D9010B
:10464000CD91DC911197C617D70798F0C530D105E9
:1046500030F3CE0104978617970708F3C61BD70BD4
:104660002297C193D1936D937C93CF010E947922BD
:10467000D6CF5B01AC1ABD0A4C018C0E9D1EA091D9
:10468000A005B091A105512C412CF12CE12C1097E3
:1046900031F580919E0590919F058815990509F047
:1046A0005CC04616570608F058C080912A019091C8
:1046B0002B01009741F48DB79EB740912E01509188
:1046C0002F01841B950BE817F90708F055C0F093EC
:1046D0009F05E0939E05F90171836083A0CF8D91C2
:1046E0009C91119712966C90129713967C90139749
:1046F000A815B90559F56C0142E0C40ED11CCA14C5
:10470000DB0420F1AC014A195B09DA011296159716
:1047100080F06282738251834083D9016D937C93D0
:10472000E114F10471F0D7011396FC93EE93129704
:1047300076CF22968C0F9D1FF90191838083F30120
:10474000EFCFF093A105E093A00569CF4816590675
:1047500008F42C017D01D3019ACFCB010E94DD2109
:104760007C01009749F0AE01B8010E94BF23C80147
:104770000E947922870153CF10E000E050CFFB0167
:10478000DC0102C001900D9241505040D8F70895CD
:10479000FC018191861721F08823D9F79927089584
:1047A0003197CF010895FB01DC018D9101908019B3
:1047B0000110D9F3990B0895FB01DC0101900D92D2
:0A47C0000020E1F70895F894FFCF00
:1047CA0003000700070007000000070007000000B9
:1047DA00070007000A009A99B93F5A005A005A007E
:1047EA005A005A005A001A0036000000A20580003A
:1047FA00030007000B00020006000A000100050082
:10480A000900060300000704010008050200000071
:10481A00006004B703ED03C8041E04FC031004007F
:10482A00000000A5057805A3074E0571055E054F32
:10483A00050D0A006972446174614D41583A0020BD
:10484A00207468726573686F6C643A00202064652E
:10485A006661756C745F73706565643A00202067E1
:10486A0061696E3A005B5B5B696E7465727365635E
:10487A0074696F6E4445544543545D5D5D20696EAD
:10488A0074657273656374696F6E434E54203A207F
:10489A0000322C332C3200322C362C372C31312C6E
:1048AA0031302C392C3500322C362C372C31312C26
:1048BA0031302C3900322C332C372C31312C313019
:1048CA002C362C3500332C372C31312C31302C3905
:1048DA0000372C362C3500372C3131003130003777
:0448EA00003F00008B
:00000001FF
