:020000040000FA
:100000000C94DF010C9407020C9407020C94070275
:100010000C9407020C9407020C9407020C9407023C
:100020000C9407020C9407020C9407020C9407022C
:100030000C9407020C9407020C9407020C9407021C
:100040000C94F4110C9407020C94C2110C949C11A2
:100050000C9407020C9407020C9407020C940702FC
:100060000C943E120C94070200407A10F35A00A040
:10007000724E18090010A5D4E80000E87648170071
:1000800000E40B54020000CA9A3B000000E1F505B1
:10009000000080969800000040420F000000A086FB
:1000A00001000000102700000000E803000000002D
:1000B0006400000000000A000000000001000000D1
:1000C00000002C76D888DC674F0823DFC1DFAE59EB
:1000D000E1B1B796E5E3E453C63AE651997696E87E
:1000E000E6C28426EB898C9B62ED407C6FFCEFBC02
:1000F0009C9F40F2BAA56FA5F490055A2AF75C932D
:100100006B6CF9676DC11BFCE0E40D47FEF520E662
:10011000B500D0ED902E0300943577050080841E45
:10012000080000204E0A000000C80C333333330FA0
:10013000986E12831141EF8D2114893BE65516CF3D
:10014000FEE6DB18D1844B381BF77C1D901DA4BB49
:10015000E424203284725E228100C9F124ECA1E5FE
:100160003D27736F6E69632064617461203A2000DB
:10017000426C6F636B2049443D0064657465637431
:100180006564206964203A20004F626A65637420C8
:10019000434E54203E3D2032202F20004F626A659E
:1001A000637420434E54203D3D2031202F200054C5
:1001B00075726E43616C696200205D5D0020646150
:1001C0007461203A20005B5B4E4F444500202E2096
:1001D000000A4E4F44452044415441205052494E5C
:1001E00054006D6F76655F316E6F6465006D6F767C
:1001F00065203A20534F555448006D6F7665203A7C
:10020000204E4F525448006D6F7665203A20574576
:100210005354006D6F7665203A2045415354006D6C
:100220006F7665203A207374617900202F20002CAE
:1002300000202F20746F3A002C004E4F44455F6D14
:100240006F7665202F2066726F6D3A006D6F766550
:10025000434E543A0000000000240027002A00000A
:10026000000000250028002B00000000080002010B
:100270000000030407000000000000000042656762
:10028000696E206661696C65642100205D004752DB
:1002900045454E00202F2052657475726E20746F94
:1002A000203A20004D4F4E5354455200202F2041FC
:1002B000766F6964203A2000434F4C41005B205424
:1002C0006172676574203A20004D697373696F6EBF
:1002D00020446174612052656365766564203A3A12
:1002E00020003E3E3E204174205374617274696E5A
:1002F0006720506F736974696F6E00736F6E696306
:100300002064617461203A20003E3E3E204348450F
:10031000434B2046554E43203A3A20636865636B51
:100320005F4E4F4445362C3130003E3E3E20434820
:1003300045434B2046554E43203A3A206368656357
:100340006B5F4E4F4445352C39004E4F44453320AA
:1003500032004E4F4445332031003E3E3E2043485C
:1003600045434B2046554E43203A3A206368656327
:100370006B5F4E4F444533004D697373696F6E2058
:1003800053746172742121210000000000230026B3
:10039000002900040404040404040402020202020A
:1003A0000203030303030301020408102040800139
:1003B000020408102001020408102000A2131124D6
:1003C0001FBECFEFD8E0DEBFCDBF25E0ACE5B2E089
:1003D00001C01D92A33DB207E1F712E0A0E0B1E039
:1003E000EAE9FFE302C005900D92AC35B107D9F7F9
:1003F00011E0CFEDD1E004C02197FE010E94BF1DA6
:10040000CE3DD107C9F70E943B140C94CB1F0C942E
:10041000000091E090935304809352041092510491
:1004200010925004089580914C0590914D052091B3
:10043000090530910A05821793070CF49C0130934B
:100440000A0520930905821B930B089508950895CA
:10045000AF92BF92CF92DF92EF92FF920F931F93D2
:10046000CF93DF936C017B018B01040F151FEB0110
:100470005E01AE18BF08C017D10759F06991D601C7
:10048000ED91FC910190F081E02DC6010995892B39
:1004900079F7C501DF91CF911F910F91FF90EF90F8
:1004A000DF90CF90BF90AF900895FC01538D448DA5
:1004B000252F30E0842F90E0821B930B541710F00F
:1004C000CF96089501970895FC01918D828D98171C
:1004D00061F0A28DAE0FBF2FB11D5D968C91928DF4
:1004E0009F5F9F73928F90E008958FEF9FEF089525
:1004F000FC01918D828D981731F0828DE80FF11DEE
:10050000858D90E008958FEF9FEF0895FC01918D08
:10051000228D892F90E0805C9F4F821B91098F7301
:100520009927089584E594E00E94860221E0892BB2
:1005300009F420E0822F089580E090E0892B29F0D3
:100540000E94920281110C9400000895FC01A48D78
:10055000A80FB92FB11DA35ABF4F2C91848D90E0E5
:1005600001968F739927848FA689B7892C93A089C8
:10057000B1898C91837080648C93938D848D981352
:1005800006C00288F389E02D80818F7D80830895E5
:10059000EF92FF920F931F93CF93DF93EC0181E0D3
:1005A000888F9B8D8C8D98131AC0E889F98980817A
:1005B00085FF15C09FB7F894EE89FF896083E889AD
:1005C000F98980818370806480839FBF81E090E09F
:1005D000DF91CF911F910F91FF90EF900895F62E2C
:1005E0000B8D10E00F5F1F4F0F731127E02E8C8DC6
:1005F0008E110CC00FB607FCFACFE889F98980810B
:1006000085FFF5CFCE010E94A602F1CFEB8DEC0F56
:10061000FD2FF11DE35AFF4FF0829FB7F8940B8F27
:10062000EA89FB8980818062CFCF0F931F93CF939C
:10063000DF938C01D0E0C0E0F801EC0FFD1F649166
:10064000662341F084E594E00E94C802892B11F0F2
:100650002196F2CFCE01DF91CF911F910F91089596
:10066000CF93DF93EC01888D8823B9F0AA89BB89E9
:10067000E889F9898C9185FD03C0808186FD0DC0D4
:100680000FB607FCF7CF8C9185FFF2CF808185FFF5
:10069000EDCFCE010E94A602E9CFDF91CF91089560
:1006A000833081F028F4813099F08230A9F00895E8
:1006B0008730A9F08830C9F08430B1F4809180008F
:1006C0008F7D03C0809180008F7780938000089594
:1006D00084B58F7784BD089584B58F7DFBCF8091DD
:1006E000B0008F778093B00008958091B0008F7D27
:1006F000F9CFCF93DF93282F30E0F901E759FD4F71
:100700008491F901E955FC4FD491F901ED56FC4F64
:10071000C491CC23A1F081110E945003EC2FF0E092
:10072000EE0FFF1FE757FC4FA591B491EC91ED231D
:1007300081E090E009F480E0DF91CF91089580E0BE
:1007400090E0FACF1F93CF93DF93282F30E0F90189
:10075000E759FD4F8491F901E955FC4FD491F90116
:10076000ED56FC4FC491CC23A9F0162F81110E94A5
:100770005003EC2FF0E0EE0FFF1FE15AFD4FA59163
:10078000B4918FB7F894EC91111108C0D095DE2385
:10079000DC938FBFDF91CF911F910895DE2BF8CFAF
:1007A000CF93DF9390E0FC01E955FC4F24918D56E7
:1007B0009C4FFC0184918823D1F090E0880F991F11
:1007C000FC01EB5AFD4FA591B491FC01E15AFD4F9C
:1007D000C591D49161110EC09FB7F8948C91E22F0E
:1007E000E0958E238C932881E223E8839FBFDF91DD
:1007F000CF9108958FB7F894EC91E22BEC938FBFD3
:10080000F6CF8E3008F08E508770806480937C0025
:1008100080917A00806480937A0080917A0086FDCE
:10082000FCCF809178009091790008953FB7F894BB
:100830008091E7029091E802A091E902B091EA026A
:1008400026B5A89B05C02F3F19F00196A11DB11D2B
:100850003FBFBA2FA92F982F8827BC01CD01620F67
:10086000711D811D911D42E0660F771F881F991F22
:100870004A95D1F708958F929F92AF92BF92CF92EF
:10088000DF92EF92FF926B017C010E9416044B01F4
:100890005C01C114D104E104F104B9F00E94160412
:1008A000681979098A099B09683E73408105910599
:1008B00080F321E0C21AD108E108F10888EE880E21
:1008C00083E0981EA11CB11CE4CFFF90EF90DF9055
:1008D000CF90BF90AF909F908F9008952091C302CA
:1008E000260F3327331F21323105ECF420912404E5
:1008F000FC0190E080E0243069F082E00895A0914E
:10090000C3022191AC014D555D4FA40FB52FB11D10
:100910002C930196861798F38091C302680F609319
:10092000C30280E0089581E008951092240481E0DC
:100930008093230410921E0461E082E10E94A203CE
:1009400061E083E10E94A203E9EBF0E080818E7F09
:10095000808380818D7F808388E48093B80085E4E4
:100960008093BC000895CF93DF9391E09093A2020F
:100970008823B9F0C091B800D091BA008091BC0032
:100980008A7B8093BC0060E082E10E94A20360E069
:1009900083E10E94A2030E949504D093BA00C09301
:1009A000B800DF91CF9108950895E0912B048091D4
:1009B0002A04E81730F4F0E0E45DFB4F808190E01A
:1009C00008958FEF9FEF089590912B0480912A0452
:1009D0002FEF3FEF981748F4E92FF0E0E45DFB4F6D
:1009E000208130E09F5F90932B04C901089580918E
:1009F0002A0490912B04891B990B0895CF92DF92C2
:100A0000EF92FF920F931F93CF93DF937C01CB0163
:100A10008A0120915304222389F0EB016B01C40E5B
:100A2000D51ECC15DD0569F06991D701ED91FC91DA
:100A30000190F081E02DC7010995F3CF642F0E944A
:100A40006E04C801DF91CF911F910F91FF90EF903D
:100A5000DF90CF900895CF93DF931F92CDB7DEB78D
:100A60006983209153042223F9F02091500420320D
:100A700058F021E030E0FC013383228390E080E0F5
:100A80000F90DF91CF91089580915104E82FF0E00D
:100A9000EE57FD4F998190838F5F8093510480932F
:100AA000500481E090E0ECCF61E0CE0101960E941D
:100AB0006E04F7CF682F81EF94E00C942B05CF9252
:100AC000DF92EF92FF920F931F93CF93DF93D0911A
:100AD000500481E0D13208F09CC0C09152040E94C1
:100AE00016046B017C018091240481116CC082E0AA
:100AF0008093240481E0809323048FEF8093220469
:100B000010922104D0932004A2E8B2E0EEEFF3E0CB
:100B100080E0D8138DC010921F0480911F04CC0F69
:100B2000C82BC0931F0480911E04813009F084C03B
:100B300010921E040E9416046B017C0180911F0418
:100B40008093BB008091260490912704A0912804F3
:100B5000B0912904892B8A2B8B2BA1F00E941604BB
:100B60000091260410912704209128043091290433
:100B70006C197D098E099F09061717072807390781
:100B800008F442C08091BC0083FDD8CF85EC8093EF
:100B9000BC000E9416046B017C0180912404823009
:100BA00009F44CC0809122048F3F09F469C0809100
:100BB0002204803209F466C080912204803309F453
:100BC00063C084E026C08091260490912704A09100
:100BD0002804B0912904892B8A2B8B2B09F483CF0D
:100BE0000E941604009126041091270420912804E5
:100BF000309129046C197D098E099F090617170782
:100C00002807390708F06FCF809125040E94B304AC
:100C100085E0109251041092500410925304DF9119
:100C2000CF911F910F91FF90EF90DF90CF9008959B
:100C30009D9191938F5F6DCF85EEA9CF8091260412
:100C400090912704A0912804B0912904892B8A2B24
:100C50008B2B09F4A2CF0E94160400912604109158
:100C6000270420912804309129046C197D098E09EC
:100C70009F09061717072807390708F08ECFC4CF3A
:100C800080E0C7CF82E0C5CF83E0C3CF0F931F932F
:100C9000CF93DF93AB012091FD043091FE04232B11
:100CA000E1F08B01EC0182E30E9409028091FD04D6
:100CB0009091FE04DC01ED91FC910280F381E02D26
:100CC000A801BE0109958091FD049091FE04DF9179
:100CD000CF911F910F910C945F05A091FF04B091EB
:100CE0000005109769F0ED91FC9111970280F38156
:100CF000E02DBC01CD01DF91CF911F910F9109949F
:100D0000DF91CF911F910F9108950F931F93CF9370
:100D1000DF938C01EB0185E00E94090282E490E000
:100D20000E945A05C8010E945A05CE010E945A0528
:100D300081EF94E00E945F056AE070E080E090E05F
:100D4000DF91CF911F910F910C943B04019709F013
:100D500041C080911801909119018617970709F4F5
:100D600045C0709319016093180186E00E94090242
:100D700085E390E00E945A05809118019091190135
:100D80000E945A0580911A0190911B010E945A05F8
:100D900080911C0190911D010E945A0580911E01B5
:100DA00090911F010E945A0580912001909121018C
:100DB0000E945A0580912201909123010E945A05B8
:100DC00081EF94E00E945F056AE070E080E090E0CF
:100DD0000C943B0480911A0190911B0168177907CC
:100DE00029F070931B0160931A01BFCF08950F93F0
:100DF0001F93CF93DF938B01C8E2D0E08130910540
:100E000031F0CAE2D0E0029711F4C9E2D0E086E006
:100E10000E940902CE010E945A05C8010E945A058B
:100E200081EF94E00E945F056AE070E080E090E06E
:100E3000DF91CF911F910F910C943B0490E080E0E3
:100E400008958091F7029091F8028F379105D4F4BC
:100E50002BEF280F2093FC02E9EFF2E020E0AF0136
:100E6000495F52404817590754F0FC01E750FD4FC5
:100E7000208301969093F8028093F70208953191B0
:100E8000230FEDCF90E080E0089520917C03309116
:100E90007D0380918002909181022817390724F404
:100EA00080917B03882331F081E080937A0390E086
:100EB00080E00895F901E258FC4F808191812E5F16
:100EC0003F4F30937D0320937C03089520917E0251
:100ED00030917F0221303105F1F13CF521153105CA
:100EE00079F1F901E258FC4F808340918103842F0E
:100EF00090E005962817390739F590938102809381
:100F0000800210927F0210927E024B5FEEE7F3E0C8
:100F100030E020E0341768F19927FC01E258FC4FDB
:100F200081E0908192131DC0089522303105F1F0C7
:100F300023303105B1F68A3780F48093810304C0F1
:100F4000853579F480937E032F5F3F4F30937F0286
:100F500020937E0206C08A3A31F010927F021092EE
:100F60007E0280E0E1CF80937F03EECF8093800309
:100F7000EBCF5191250F3F5FCDCFCF93DF932091E2
:100F80008203621327C0EC0185E090E090937D031B
:100F900080937C0310927B0310927A0368830E94F3
:100FA00045079A8389830E9445079C838B830E940F
:100FB00045079E838D830E94450798878F830E94F3
:100FC00045079A87898780917A03811110927A0365
:100FD00081E001C080E0DF91CF910895CF92DF9250
:100FE000EF92FF926B017C016DE770E08DE790E07E
:100FF0000E948506C701B601FF90EF90DF90CF9069
:101000000C943B04CF93DF93EB01BC010E94850657
:10101000BE01DD0F880B990BDF91CF910C943B043F
:10102000FC0101900020E9F73197AF01481B590BF3
:10103000BC0184E594E00C942802CF93DF930E94D6
:101040001503EC018DE691E00E9410088C0F9D1FA6
:10105000DF91CF910895CF93DF93FC0144815581B7
:101060006081718184E594E00E942802EC018DE6A4
:1010700091E00E9410088C0F9D1FDF91CF91089581
:101080004F925F926F927F928F929F92AF92BF9298
:10109000EF92FF920F931F93CF93DF93D82F2FB729
:1010A000F89480914C0490914D04A0914E04B0911D
:1010B0004F042FBF8093050590930605A093070565
:1010C000B093080515EE05ECC1E0FF24FA948FE01B
:1010D000E82E2FB7F89480914C0490914D04A09184
:1010E0004E04B0914F042FBF409105055091060565
:1010F0006091070570910805841B950BA60BB70B33
:10110000409101055091020560910305709104051D
:10111000481759076A077B0708F41FC18091FD042F
:101120009091FE04009709F4F3C0DC01ED91FC916D
:101130000084F185E02D0995892B09F093C00E9468
:1011400016044B015C0180912404811161C0C0939D
:101150002404C0932304F092220410922104E0920C
:101160002004C0931F0480911F04846680931F0491
:1011700080911E04813009F0A4C010921E040E94C8
:1011800016044B015C0180911F048093BB00809189
:10119000260490912704A0912804B0912904892B5A
:1011A0008A2B8B2BA1F00E941604409026045090AD
:1011B00027046090280470902904681979098A0925
:1011C0009B09461657066806790608F442C08091C6
:1011D000BC0083FDD8CF0093BC000E9416044B01D5
:1011E0005C0180912404813009F46EC08091210457
:1011F000803108F08BC080912104AEEFB3E0ECE2C7
:10120000F4E090E0981751F12D9121939F5FFACF70
:101210008091260490912704A0912804B09129047C
:10122000892B8A2B8B2B09F48ECF0E9416044090B9
:1012300026045090270460902804709029046819AF
:1012400079098A099B09461657066806790608F047
:101250007ACF809125040E94B30480E010922B0481
:1012600080932A048091FD049091FE04DC01ED91AD
:10127000FC910084F185E02D0995892B09F429CF93
:101280008091FD049091FE04DC01ED91FC910284BB
:10129000F385E02D09950E946607882319F3DD2365
:1012A00071F080918203D81314CF85E090E0909381
:1012B0007D0380937C0310927B0310927A0381E07C
:1012C0004DC01093BC0089CF8091260490912704D3
:1012D000A0912804B0912904892B8A2B8B2B09F427
:1012E00080CF0E94160440902604509027046090FE
:1012F000280470902904681979098A099B094616FF
:1013000057066806790608F06CCFA3CF80E175CF49
:101310008091FF0490910005892B09F4DACE809129
:10132000FF0490910005DC01ED91FC910084F185B2
:10133000E02D0995892B09F4CCCE8091FF04909182
:101340000005DC01ED91FC910284F385E02D099507
:101350000E946607882319F3A2CF80E0DF91CF9126
:101360001F910F91FF90EF90BF90AF909F908F9043
:101370007F906F905F904F9008958F929F92AF9261
:10138000BF92CF92DF92EF92FF920F931F93CF9372
:10139000DF93CDB7DEB7A1970FB6F894DEBF0FBECF
:1013A000CDBF6C01990FEE08FF08F7FE41C06DE25A
:1013B00084E594E00E94C8028C0122273327A9010A
:1013C0002C193D094E095F0919A2CE0181967C01B5
:1013D0009AE0892E912CA12CB12CCA01B901A5014A
:1013E00094010E94891D605DF70162937F012115C0
:1013F00031054105510589F790E080E0309719F0FB
:10140000CF010E941008800F911FA1960FB6F8948B
:10141000DEBF0FBECDBFDF91CF911F910F91FF9027
:10142000EF90DF90CF90BF90AF909F908F900895F6
:10143000A701960119A28E010F5D1F4F8AE0C82EE9
:10144000D12CE12CF12CCA01B901A70196010E940F
:10145000891D605DF80162938F01211531054105F9
:10146000510589F790E080E0309779F2CF010E9432
:101470001008CBCFCF93DF930E94BD09EC018DE61E
:1014800091E00E9410088C0F9D1FDF91CF9108956D
:101490000F931F93CF93DF93EB0163E070E00E9403
:1014A000751D9B01220F331F620F731F860F971F3D
:1014B000880F991FFC01EA5FFE4FD183C083845DD2
:1014C0009E4FFC010081118186EC91E00E94150382
:1014D000C8010E94BD098DEB91E00E941503CE0169
:1014E0000E94BD0989EB91E0DF91CF911F910F918F
:1014F0000C941D08EF92FF921F93CF93DF931092ED
:10150000790385E58093F9028AEA8093FA0281E102
:101510008093FB0280E28093FD0285E090E090934F
:10152000F8028093F7020E942107BC0189EF92E044
:101530000E94460610920A051092090589E20E944F
:101540004008182F882309F449C069E28BE495E02C
:101550000E94BD0760914C0570914D051616170647
:1015600014F061E070E086E0660F771F8A95E1F77E
:1015700080918B0590918C050E94EA1E90938C05BA
:1015800080938B05D0E0C0E0F12CE12C80914C05DC
:1015900090914D05E816F90614F580E00E94400888
:1015A0008823E1F080918B0590918C056AE28C0F85
:1015B0009D1F0E94BD07882331F08FEFE81AF80ABB
:1015C000C05CDF4FE3CF80918B0590918C056BE27F
:1015D0008C0F9D1F0E94BD078111EFCF10E0812F5E
:1015E000DF91CF911F91FF90EF9008950F931F937C
:1015F000CF93DF930E947A0A81115DC08CE991E05C
:101600000E9415030E947A0A8823A1F380914E0557
:1016100090914F05892B71F30E941302892B51F38E
:101620000E941302892B31F38091090590910A05DC
:101630009C012F5F3F4F30930A05209309052091AD
:101640004C0530914D05821793070CF0A5C036E08C
:10165000880F991F3A95E1F7E0918B05F0918C0581
:10166000E80FF91F2081C185D2852A32C9F6CE0143
:1016700001970397A8F680E791E00E941503CE0139
:101680000E943A0A03C0209709F4B4CF8AE791E098
:101690000E941503CE010E943A0A81E02091F102D6
:1016A0003091F2022C173D0709F080E0DF91CF91D5
:1016B0001F910F91089580914E0590914F05892BB0
:1016C00009F49CCF0E941302892B09F497CFD0E034
:1016D000C0E00E9413028C01892B59F0809109050A
:1016E00090910A05019690930A0580930905219629
:1016F000F0CF22970CF482CF89E891E00E94150385
:101700000E947A0A882309F475CF80914E05909142
:101710004F05892B09F46ECF0E941302892B09F41F
:1017200069CFD0E0C0E00E941302892B09F4ABCF4F
:10173000E0910905F0910A05CF01019690930A0501
:101740008093090580914C0590914D05E817F907A4
:1017500054F5CF0126E0880F991F2A95E1F7E09113
:101760008B05F0918C05E80FF91F45815681678143
:10177000708531852285649FC001659F900D749F9F
:10178000900D1124081719071CF03C2F2D2FC801AC
:10179000C32FD22F8C01C7CF20918D05C091960504
:1017A000D091970562CF4091920550919305609139
:1017B0009405709195053091960520919705DBCFA2
:1017C0000F931F93CF93DF93EC018881998100974A
:1017D00059F02A813B812617370730F081E0DF91ED
:1017E000CF911F910F9108958B016F5F7F4F0E94E2
:1017F000EA1E009759F0998388831B830A832C8102
:101800003D81232B59F7FC011082E8CF80E0E7CF20
:101810000F931F938BE99FE00197F1F761E084E05C
:101820000E94D00360E084E00E94A20383E090E085
:101830000197F1F761E084E00E94A2038FE090E05D
:101840000197F1F760E084E00E94A20360E084E089
:101850000E94D003EBEAF3E06491E7E9F3E0E4915E
:10186000F0E0EE0FFF1FE757FC4F8591949100E4E5
:1018700012E42FE030E0462F0E945D1361157105E0
:101880008105910529F06F5F7F4F8F4F9F4F9F70AC
:10189000CB016AE370E00E94751DCB011F910F918F
:1018A0000895CF92DF92EF92FF920F931F93CF9301
:1018B000DF938C017B0183E0C82ED12CD0E0C0E007
:1018C0000E94080CC80FD91F64E670E080E090E029
:1018D0000E943B0481E0C81AD10891F7CE0163E071
:1018E00070E00E94751DEB0182E691E00E941503F5
:1018F000CE010E943A0ACE010C97089798F40E94F4
:10190000F60A61E070E0811102C062E070E0C80197
:10191000DF91CF911F910F91FF90EF90DF90CF90CB
:101920000C94480AE39770E060E0C8012A9760F4DD
:101930000E94480A0E94F60A61E070E0811102C02C
:1019400062E070E0C701E4CF0E94480A70E060E006
:10195000F9CFEF92FF920F931F93CF93DF9361150F
:10196000710541F480E0DF91CF911F910F91FF90BD
:10197000EF90089541155105B1F07B01EC010C8108
:101980001D81040F151FB8010E94E00B882351F33D
:10199000288139818C819D81B701820F931F0E941C
:1019A000C41F1D830C8381E0DECFCF93DF93EC0156
:1019B00088819981009711F00E94611E1982188216
:1019C0001D821C821B821A82DF91CF910895CF93D2
:1019D000DF93EC01FB0101900020E9F73197AF01A3
:1019E000461B570B0E94A90C811103C0CE010E9417
:1019F000D50CCE01DF91CF910895CF93DF93EC0109
:101A0000FB0144815581608171810E94A90C811183
:101A100003C0CE010E94D50CCE01DF91CF91089575
:101A2000EF92FF920F931F93CF93DF93EC017B0113
:101A30008A01BA010E94E00B81110BC0CE010E9405
:101A4000D50CCE01DF91CF911F910F91FF90EF90B8
:101A500008951D830C83B701888199810E94C41F5A
:101A6000F0CFFB0101900020E9F73197AF01461B51
:101A7000570B0C94100D0F931F93CF93DF93CDB79B
:101A8000DEB762970FB6F894DEBF0FBECDBF8C01F4
:101A9000CB01F80111821082138212821582148206
:101AA0004AE0BE016F5F7F4F0E941F19BE016F5F4A
:101AB0007F4FC8010E94310D62960FB6F894DEBFC9
:101AC0000FBECDBFDF91CF911F910F910895FC0103
:101AD000118210821382128215821482FB010190FE
:101AE0000020E9F73197AF01461B570B0C94100DFE
:101AF000AF92BF92CF92DF92EF92FF920F931F931C
:101B0000CF93DF936C015B017A01890124173507BC
:101B100020F48F2D7901042F182F6DEF71E0C6018D
:101B20000E94670DD5011496CD91DC91EC16FD064F
:101B3000E0F40C171D0708F4E801D501ED91FC91C4
:101B40001197EC0FFD1F108110826D917C916E0D2D
:101B50007F1DC60161157105A1F00E94310DF501CF
:101B600080819181C80FD91F1883C601DF91CF9161
:101B70001F910F91FF90EF90DF90CF90BF90AF90AB
:101B800008950E94D50CEBCFFC01808191810097D4
:101B900011F00C94611E0895CF93DF93CDB7DEB79B
:101BA0002C970FB6F894DEBF0FBECDBF60E082E089
:101BB0000E94D00382E00E947903019759F5609159
:101BC0007C0270917D026F5F7F4F70937D02609306
:101BD0007C02CE0107960E943B0D60E771E0CE01CA
:101BE00001960E94670DBE01695F7F4FCE0101968D
:101BF0000E94FD0C0E942B08CE0101960E94C40D8C
:101C0000CE0107960E94C40D6FE070E08CE390E077
:101C10000E94020864E170E080E090E00E943B04D2
:101C20002C960FB6F894DEBF0FBECDBFDF91CF91DB
:101C300008954F925F926F927F928F929F92AF9290
:101C4000BF92CF92DF92EF92FF9280917C029091AF
:101C50007D02181619060CF44DC00E94CC0D8FE0C1
:101C60000E94010460912401709125018617970755
:101C70000CF4BC018091CD059091CE05681B790BC9
:101C8000072E000C880B990B0E94A21B20910201C9
:101C90003091030140910401509105010E94DD1B28
:101CA0004B015C016091000170910101072E000C55
:101CB000880B990B0E94A21B6B017C01AC019B015C
:101CC000C501B4010E94D31C0E943F1D2B01A50138
:101CD0009401C701B6010E94D21C0E943F1DCB0196
:101CE000B2010E94850664E170E080E090E00E940D
:101CF0003B04ABCF10927D0210927C02FF90EF90DC
:101D0000DF90CF90BF90AF909F908F907F906F901B
:101D10005F904F90089562E370E080E090E00E9451
:101D2000EE070E94CC0D80917C0290917D021816E6
:101D30001906B4F48FEA91E00E941D0868ED7FEF68
:101D400088E290E00E94850662E370E080E090E027
:101D50000E943B0462E370E080E090E00E94EE07A6
:101D600010927D0210927C02089568E270E088ED86
:101D70009FEF0E9485066EEE72E080E090E00E9488
:101D80003B046DE770E08DE790E00E9485060C94BF
:101D90008B0E68ED7FEF88E290E00E9485066EEE84
:101DA00072E080E090E00E943B046DE770E08DE718
:101DB00090E00E9485060C948B0E68EC70E080E049
:101DC00090E00E94EE0762EC71E08CE390E00E94EC
:101DD00002080E94C90E6CEB72E080E090E00C9467
:101DE000EE07CF93DF93EC018091F5029091F6021C
:101DF0009E01281B390BC9018F3F3FEF9307F1F07C
:101E000094F48D3F3FEF9307B1F0029661F1D093C8
:101E1000F602C093F50282EE91E00E941D08DF9168
:101E2000CF910C94190E82309105E9F08330910521
:101E300029F0019761F70E94DD0EE9CF68EC70E0B0
:101E400080E090E00E94EE076CE771E08CE390E0A8
:101E50000E9402080E94B50E6CEB72E080E090E0F8
:101E60000E94EE07D4CF68EC70E080E090E00E9422
:101E7000EE0760E971E08CE390E00E9402086CE9F3
:101E80007FEF84E690E00E9485066AE174E080E0DE
:101E900090E00E943B046DE770E08DE790E00E94C7
:101EA00085060E948B0ED8CF85ED8093BC00809173
:101EB000260490912704A0912804B0912904079644
:101EC000A11DB11D23E0B695A795979587952A95F5
:101ED000D1F72091BC0024FD03C010922404089582
:101EE00040912604509127046091280470912904A0
:101EF000452B462B472B69F30097A105B10541F00F
:101F00002AE22A95F1F700C00197A109B109E1CFB2
:101F1000809125040C94B3042F923F924F925F92CC
:101F20006F927F928F929F92AF92BF92CF92DF92E9
:101F3000EF92FF920F931F93CF93DF93CDB7DEB74E
:101F40002E970FB6F894DEBF0FBECDBF18861F8246
:101F50001A8619861C861B86FC01608171816115B9
:101F6000710531F044815581CE0107960E94100D14
:101F70008B859C85892B09F459C0EF80F8846CE22D
:101F800070E0C7010E94B01F009709F44FC08C0198
:101F90000E191F09F12CE12CC0907A02D0907B021F
:101FA0000F3F100709F444C08FE0C816D1040CF0AD
:101FB0003FC09801A701BE01695F7F4FCE01019626
:101FC0000E94780D89819A81009761F10E94F8182A
:101FD00096012F5F3F4F30937B0220937A02F601E8
:101FE000EE0FFF1FE45AFD4F71836083CE0101960F
:101FF0000E94C40D78019FEFE91AF90A8B859C8530
:10200000E816F906A8F4CF80D8846CE270E0C60127
:102010008E0D9F1D0E94B01F009751F08C010C196E
:102020001D09BACF60E070E0CB01D2CFF12CE12CDA
:1020300000917A0210917B020F30110514F52B8567
:102040003C85A701BE01695F7F4FCE0101960E94CA
:10205000780D89819A81009729F10E94F8189801DA
:102060002F5F3F4F30937B0220937A02000F111FA6
:10207000F801E45AFD4F71836083CE0101960E94FE
:10208000C40D40907A0250907B02F201EE0FFF1FC8
:10209000E45AFD4FC2018F30910544F41192119220
:1020A0000196F9CF60E070E0CB01D9CFCE01079661
:1020B0000E94C40D93E0292E312C00917A021091D8
:1020C0007B02101611060CF0ACC08CE492E00E946A
:1020D0001503C8010E943A0A80917A0290917B020E
:1020E000F201E81BF90BEE0FFF1FE45AFD4F808150
:1020F00091810197712C612C8B30910538F4825CB1
:102100009E4FFC016080062C000C77088091F30242
:102110009091F402B1010E94751D5B016C01C30135
:10212000B1010E94751D7B018C014501861A970A39
:102130008C199D099E878D878AE392E00E94150382
:10214000C5010E94BD0988E392E00E941503C60103
:102150000E94BD0981E392E00E941503C7010E941D
:10216000BD098FE292E00E941503C8010E94BD09DB
:102170008BE292E00E9415039AE0989D8001999D60
:10218000100D1124ED85FE850E0F1F1FC8010E9442
:102190003A0A7092F4026092F30201151105E1F01F
:1021A00074F4063FFFEF1F07A9F10F3F1F4F59F1CE
:1021B00060EA76E881E090E00E94EE071AC0013004
:1021C000110579F00A30110599F78AEF91E00E9424
:1021D0001D0890E080E00BC08FE192E00E941D0896
:1021E000E7CF83E192E00E941D0881E090E00E9429
:1021F000F10E80917A0290917B02019790937B027D
:1022000080937A025ACF87E092E00E941D0883E013
:1022100090E0EDCF8DEE91E00E941D0882E090E00D
:10222000E6CFECE5F2E08AE792E0119211928E1788
:102230009F07D9F72E960FB6F894DEBF0FBECDBF1D
:10224000DF91CF911F910F91FF90EF90DF90CF9092
:10225000BF90AF909F908F907F906F905F904F90C6
:102260003F902F900895CF92DF92EF92FF920F93BD
:102270001F93CF93DF9300D000D000D0CDB7DEB74F
:1022800081ED91E00E941D0806E011E06801F12C4B
:10229000E12CF601619171916F01CE0101960E94CE
:1022A0003B0D8D819E81892B71F06CE971E08981F4
:1022B0009A810E94BB1F892B31F46EE971E0CE0137
:1022C00001960E94310D4D815E8169817A8184E59C
:1022D00094E00E942802F2E0EF16F10421F08DEC68
:1022E00091E00E941503CE0101960E94C40D8FEF6C
:1022F000E81AF80AE3E0EE16F10459F68DEF91E0E2
:102300000E9410088DE691E00E9410080A5F1F4F9E
:10231000F1E008311F0709F0B9CF26960FB6F894FF
:10232000DEBF0FBECDBFDF91CF911F910F91FF9008
:10233000EF90DF90CF9008951F920F920FB60F92FB
:1023400011242F933F934F935F936F937F938F93BA
:102350009F93AF93BF93EF93FF9384E594E00E9424
:10236000A602FF91EF91BF91AF919F918F917F91C5
:102370006F915F914F913F912F910F900FBE0F90F2
:102380001F9018951F920F920FB60F9211242F9342
:102390008F939F93EF93FF93E0916404F091650412
:1023A0008081E0916A04F0916B0482FD1BC09081F2
:1023B00080916D048F5F8F7320916E04821741F0BE
:1023C000E0916D04F0E0EC5AFB4F958F80936D0423
:1023D000FF91EF919F918F912F910F900FBE0F90D2
:1023E0001F9018958081F4CF1F920F920FB60F9215
:1023F00011242F933F938F939F93AF93BF9380911B
:102400004C0490914D04A0914E04B0914F04309132
:10241000E60223E0230F2D3758F50196A11DB11DCB
:102420002093E60280934C0490934D04A0934E04B5
:10243000B0934F048091E7029091E802A091E902E5
:10244000B091EA020196A11DB11D8093E70290931D
:10245000E802A093E902B093EA02BF91AF919F9185
:102460008F913F912F910F900FBE0F901F90189555
:1024700026E8230F0296A11DB11DD2CF1F920F9205
:102480000FB60F9211242F933F934F935F936F9347
:102490007F938F939F93AF93BF93EF93FF9380911D
:1024A000B900887F803609F44AC0F0F5883209F413
:1024B000A7C018F5803109F49BC0B8F4882309F44B
:1024C000F9C0883009F494C0FF91EF91BF91AF91AA
:1024D0009F918F917F916F915F914F913F912F913C
:1024E0000F900FBE0F901F901895883109F488C087
:1024F000803251F78093220414C0803409F49DC0C7
:1025000040F48033B9F38833F9F68093220485ECE4
:10251000B0C0803509F485C0883509F496C0883488
:1025200099F60E94540FD0CF883909F48CC038F541
:10253000883729F050F4883611F0803729F683E087
:10254000809324041092E50257C0883809F47BC0B8
:10255000803919F0803809F0B7CF8091E5028032D8
:1025600008F071C0E091E50281E08E0F8093E502F2
:102570008091BB00F0E0EB53FD4F80833DC0803B7A
:1025800039F0E0F4803A09F479C0883A09F09CCF38
:1025900084E0809324041092C4021092C302E0915C
:1025A000EB02F091EC0209958091C30281110FC0FA
:1025B00081E08093C3021092A30209C0803C09F419
:1025C000A6CF883C09F4A3CF883B09F07DCFE091EA
:1025D000C40281E08E0F8093C402F0E0ED55FD4F00
:1025E00080818093BB009091C4028091C30229C076
:1025F00080911F048093BB0085EC8093BC0064CF66
:102600009091210480912004981758F5E0912104BD
:1026100081E08E0F80932104F0E0E250FC4F808136
:10262000E9CFE091210481E08E0F80932104809115
:10263000BB00F0E0E250FC4F808390912104809138
:1026400020049817C8F285E8D8CFE091210481E0F2
:102650008E0F809321048091BB00F0E0E250FC4F8C
:1026600080838091230481115CCF81E080931E04DC
:1026700084EA8093BC001092240426CF85EC8093DA
:10268000BC00109224048091E502803230F4E09185
:10269000E502F0E0EB53FD4F10826091E50270E03F
:1026A000E091ED02F091EE0285EC92E00995109236
:1026B000E5020ACF1092220434CFCF92DF92EF923C
:1026C000FF920F931F93E82FF92F05C001501109B6
:1026D0002109310961F1908196239417B9F305C05E
:1026E000015011092109310911F1908196239413A8
:1026F000F7CFC12CD12CE12CF12C0AC08FEFC81AD6
:10270000D80AE80AF80A0C151D052E053F0579F0D0
:1027100080818623841791F36C2D7D2D8E2D9F2D26
:102720001F910F91FF90EF90DF90CF90089560E0A0
:1027300070E080E090E01F910F91FF90EF90DF90AC
:10274000CF900895109257041092560488EE93E0AB
:10275000A0E0B0E08093580490935904A0935A04E9
:10276000B0935B042DE431E030935504209354047E
:1027700025EC30E0309361042093600424EC30E0D9
:10278000309363042093620420EC30E030936504BE
:102790002093640421EC30E03093670420936604B6
:1027A00022EC30E0309369042093680426EC30E09A
:1027B00030936B0420936A0410926D0410926E049F
:1027C00010926F04109270041092F4041092F304AB
:1027D0008093F5049093F604A093F704B093F80463
:1027E0008FE591E09093F2048093F104209124010D
:1027F00030912501C901439697FD019695958795DE
:1028000001969093CE058093CD0584E690E0A0E0FC
:10281000B0E08093010590930205A0930305B09367
:10282000040510920A051092090510928C05109269
:102830008B051092FE041092FD0410920005109278
:10284000FF048FEF80938D058FEF9FEF90938F059F
:1028500080938E05909391058093900590939305B6
:102860008093920590939505809394059093970596
:10287000809396050895CF93DF93CDB7DEB7E997A0
:102880000FB6F894DEBF0FBECDBF789484B58260DA
:1028900084BD84B5816084BD85B5826085BD85B504
:1028A000816085BD80916E00816080936E00109282
:1028B00081008091810082608093810080918100FD
:1028C000816080938100809180008160809380008E
:1028D0008091B10084608093B1008091B0008160EC
:1028E0008093B00080917A00846080937A00809118
:1028F0007A00826080937A0080917A008160809370
:102900007A0080917A00806880937A001092C100EA
:1029100010922B0410922A04109251041092500429
:102920000E94950486E292E09093EC028093EB0281
:1029300087E292E09093EE028093ED0264EF71E003
:1029400080E090E00E943B0485E00E94090287E25B
:1029500090E00E945A0581EF94E00E945F056AE0D2
:1029600070E080E090E00E943B0486E00E94090253
:1029700087E290E00E945A0581EF94E00E945F0593
:102980006AE070E080E090E00E943B0481E00E94F9
:10299000090287E290E00E945A0581EF94E00E94CC
:1029A0005F056AE070E080E090E00E943B0482E016
:1029B0000E94090287E290E00E945A0581EF94E0AC
:1029C0000E945F056AE070E080E090E00E943B04B6
:1029D00083E00E94090287E290E00E945A0581EF9D
:1029E00094E00E945F056AE070E080E090E00E9461
:1029F0003B0484E00E94090287E290E00E945A05AD
:102A000081EF94E00E945F056AE070E080E090E072
:102A10000E943B0461E087E00E94D00361E087E010
:102A20000E94A20360E088E00E94D00388E00E9438
:102A30007903892BB9F761E087E00E94D00360E059
:102A400087E00E94A20385E00E94090287E290E0ED
:102A50000E945A0581EF94E00E945F056AE070E0F1
:102A600080E090E00E943B0486E00E94090287E239
:102A700090E00E945A0581EF94E00E945F056AE0B1
:102A800070E080E090E00E943B0481E00E94090237
:102A900087E290E00E945A0581EF94E00E945F0572
:102AA0006AE070E080E090E00E943B0482E00E94D7
:102AB000090287E290E00E945A0581EF94E00E94AB
:102AC0005F056AE070E080E090E00E943B0483E0F4
:102AD0000E94090287E290E00E945A0581EF94E08B
:102AE0000E945F056AE070E080E090E00E943B0495
:102AF00084E00E94090287E290E00E945A0581EF7B
:102B000094E00E945F056AE070E080E090E00E943F
:102B10003B0468EE73E080E090E00E943B0485E0B7
:102B20000E94090285E290E00E945A0581EF94E03C
:102B30000E945F056AE070E080E090E00E943B0444
:102B400086E00E94090285E290E00E945A0581EF2A
:102B500094E00E945F056AE070E080E090E00E94EF
:102B60003B0481E00E94090285E290E00E945A0540
:102B700081EF94E00E945F056AE070E080E090E001
:102B80000E943B0482E00E94090285E290E00E94DC
:102B90005A0581EF94E00E945F056AE070E080E0F2
:102BA00090E00E943B0483E00E94090285E290E0ED
:102BB0000E945A0581EF94E00E945F056AE070E090
:102BC00080E090E00E943B0484E00E94090285E2DC
:102BD00090E00E945A0581EF94E00E945F056AE050
:102BE00070E080E090E00E943B04E0916404F0918A
:102BF000650482E08083E0916004F09161041082BA
:102C0000E0916204F091630480E1808310926C048F
:102C1000E0916804F091690486E08083E0916604A5
:102C2000F0916704808180618083E0916604F09177
:102C30006704808188608083E0916604F091670476
:102C4000808180688083E0916604F09167048081D0
:102C50008F7D808380EA91E00E94100885E00E94C9
:102C6000090281E590E00E945A0581E090E00E940F
:102C70005A0581EF94E00E945F056AE070E080E011
:102C800090E00E943B046CE370E081E090E00E94E1
:102C9000F7066CE370E082E090E00E94F7066AE0DD
:102CA00070E083E090E00E94F7066EE670E081E05D
:102CB00090E00E94A60663E270E082E090E00E944D
:102CC000A60610922B0410922A041092510410921E
:102CD00050040E94950486E292E09093EC02809367
:102CE000EB0287E292E09093EE028093ED0271EFA7
:102CF000E72E74E0F72EE5E5DE2EFAEACF2EA1E10D
:102D0000BA2EBCE2AB2E15E0812E912C109200055C
:102D10001092FF04F092FE04E092FD0405E010E042
:102D200010927903D092F902C092FA02B092FB029B
:102D3000A092FD029092F8028092F7020E94210771
:102D4000BC0189EF92E00E9446068EE20E94400894
:102D5000811189C10150110919F78DE792E00E9494
:102D60001D0864E670E080E090E00E943B04CECF56
:102D7000BC01CE01C4960E94310D6091000170919A
:102D80000101CE018E960E943B0D6091CD057091A0
:102D9000CE05CE0188960E943B0D60912401709172
:102DA0002501CE0182960E943B0D66EB71E0CE01BB
:102DB00001960E94670DBE016E5D7F4FCE010196A8
:102DC0000E94FD0C61EC71E00E94E70CBE01685DA1
:102DD0007F4F0E94FD0C6EEC71E00E94E70CBE017B
:102DE000625D7F4F0E94FD0C6FED71E00E94E70C69
:102DF000BE016C5C7F4F0E94FD0C0E942B08CE012F
:102E000001960E94C40DCE0182960E94C40DCE018F
:102E100088960E94C40DCE018E960E94C40DCE01EC
:102E2000C4960E94C40D87EE91E00E94100846E00F
:102E3000E42EF12C53E0C52ED12C60E0A62E60E0EC
:102E4000B62E88E793E00E941D086CEB72E080E5E7
:102E500090E00E9402080E94190EF092F402E092A3
:102E6000F3021092F6021092F50282EE92E00E94B6
:102E70001D0864E670E080E090E00E94EE0764EFD9
:102E800071E084E690E00E9402088AE593E00E94E7
:102E90001D0860E070E0CB010E94EE0710E000E04A
:102EA00033E0832E912C0E94080C080F191F64E652
:102EB00070E080E090E00E943B0481E0881A910875
:102EC00091F7C801B6010E94751D8B018BEF92E04E
:102ED0000E941503C8010E943A0A0153110970E0CB
:102EE00060E00A30110540F40E94F60A61E070E0EB
:102EF000811102C062E070E090E080E00E94480A28
:102F0000809106019091070181309105B1F18230E5
:102F1000910509F458C0892B09F041C00E94C90EDF
:102F200001E010E01093F6020093F50268EC70E007
:102F300080E090E00E94EE078AE293E00E941D0884
:102F400068E070E087E090E00E94510C80911401ED
:102F5000909115010097F1F1029709F50E94B50EC5
:102F60001092F6021092F50268EC70E080E090E0BA
:102F70000E94EE0764E172E006C082E593E00E94E1
:102F80001D086EEF71E0CE0101960E94670DCE0123
:102F900001960E948C0FCE0101960E94C40D0E94E2
:102FA000331160E472E48FE090E00E94EE07A11418
:102FB000B10409F446CF0E949202882309F441CF5C
:102FC0000E9400003ECF8AE493E00E941D0864E066
:102FD00072E0D9CF8091160190911701813091054F
:102FE00081F18230910581F1892BC9F60E94B50EDD
:102FF0001092F6021092F50268EC70E080E090E02A
:103000000E94EE0762E072E0CE0101960E94670D19
:10301000CE0101960E948C0FCE0101960E94C40D34
:103020000E94DD0E1093F6020093F50289E093E012
:103030000E941D0865E070E084E090E00E94510C61
:10304000AECF62E272E09FCF0E94B50E1092F60200
:103050001092F50268EC70E080E090E00E94EE07CC
:1030600066E272E090CF83E090E09093F20280936A
:10307000F10281E090E09093F0028093EF0289ECFE
:1030800092E00E9415038DEB92E00E94150388EBFD
:1030900092E00E9415038CEA92E00E94150384EAF4
:1030A00092E00E94150384E992E00E9415038EE8E5
:1030B00092E00E9415038BE892E00E941D0880E0D8
:1030C0000E940104880F991F64E670E00E94751D3C
:1030D0008B01BC01CE0101960E943B0DB801CE01CF
:1030E00082960E943B0D66E372E0CE0188960E94B4
:1030F000670DBE016E5D7F4FCE0188960E94FD0C6C
:1031000065E472E00E94E70CBE016F5F7F4F0E9492
:10311000FD0C67E472E00E94E70C0E942B08CE01D0
:1031200088960E94C40DCE0182960E94C40DCE01E5
:1031300001960E94C40D80E090E0A0E4B0E480938A
:10314000020190930301A0930401B09305018CE365
:1031500090E0909301018093000188E290E09093C9
:1031600025018093240183E290E09093CE05809323
:10317000CD0589E492E00E941008609102017091EF
:10318000030180910401909105011DAA1CAA1FAAA8
:103190001EAA19AE18AE8E010F5F1F4F22E044E049
:1031A0000E94DA18009709F0E3CDCE01C4960E9480
:1031B000D50CE3CDEF920F931F93CF93DF93E801EC
:1031C00034E047FD34E1042E000C550B57FF03C0DB
:1031D000519541955109E32E022F242FAE010E94F3
:1031E0005919CE01DF91CF911F910F91EF90089562
:1031F0001F93FC0199278827BC01E8941191103294
:10320000E9F3193010F01E30C8F31B3251F01D32B3
:1032100049F4689406C00E942A19610F711D811D2E
:10322000911D119110531A30B0F33EF49095809592
:10323000709561957F4F8F4F9F4F1F910895BB27CA
:103240004A3031F4992322F4BDE2909581959F4F45
:103250000C944019592F482F372F262F660F771FB0
:10326000881F991F660F771F881F991F620F731F92
:10327000841F951F660F771F881F991F0895BB270E
:10328000FB015527AA27880F991FAA1FA41710F022
:10329000A41B83955051B9F7A05DAA3308F0A95D2E
:1032A000A193009779F7B111B1931192CB010C94CE
:1032B000901BA9E0B0E0EFE5F9E10C94A11C6A01D4
:1032C000F22EB02E102FFBE3AF2EA01608F41BE356
:1032D0001F5F012F27E0AE014F5F5F4F0E94B81ABA
:1032E000BC018981982F9970913009F43FC09BE20D
:1032F000E1FC04C09E2D9170E0FC3AC05E2D50713F
:10330000E82FE87083FF46C084E0911101C083E09C
:10331000EF2DE81B8F1508F0E0E0D6018E2F20E29C
:10332000552351F1992329F0D6019C93C6010196AA
:103330006C0196012D5F3F4FE2FE24C08EE4D60162
:103340008C9391E411969C93119712968C93D901CA
:103350008E2F90E281111BC0E20FF32FF11D10821E
:103360008EEF9FEF2996ECE00C94BD1C9DE2C6CF3A
:1033700090E2C4CF2D9381508111FCCFCE0ED11C91
:10338000E0E0D0CF8EE6D6018C9391E6DBCF9D9323
:103390008150E0CF482F447082FF3DC084E09111FE
:1033A00001C083E08F1510F4EF2DE81BD6018E2F9E
:1033B00020E2552309F1992329F0D6019C93C601F7
:1033C00001966C0196012D5F3F4FE2FE1BC089E420
:1033D000D6018C938EE411968C93119786E4129605
:1033E0008C93D9018E2F90E2882309F4B5CF9D9359
:1033F0008150FACF2D9381508111FCCFCE0ED11C7C
:10340000E0E0D9CF89E6D6018C938EE611968C93B5
:10341000119786E6E4CF9B0177FF02C030E020E001
:10342000A1E0B0E0911102C0B0E0A0E0F901319656
:10343000AE0FBF1F8B2C912CBB2009F461C054012F
:10344000EFEFAE1ABE0AAA0DBB1DFA161B0619F045
:1034500014F04F2D4A1B511188C0E3FC59C076016E
:10346000A42FB0E2A1114FC0C40ED11C992309F4BE
:103470005BC040E0D6011196F60190836D015523A3
:1034800009F448C0012F060F9A81582F507184FF0C
:1034900003C0913309F4015010160CF047C00930F5
:1034A00008F008E0EEE2FE2E5B01A01AB1088501EB
:1034B0009194819491082F3F320729F4D601FC9210
:1034C000F60131966F016217730794F10217130723
:1034D0007CF5DB01A21BB30BAA24A394B12CAC0E88
:1034E000BD1EAA0DBB1D11968C9121503109D6012C
:1034F000119628153905F4F0F60180836D01DBCFB4
:10350000B12CA12CA0CFF701B1937F01A150AACF7C
:103510009111B0CFD601942F50E302C05D9391502A
:103520009111FCCFC40ED11C40E0ACCF01E0BACF6A
:1035300080E3DBCF6217730731F4963388F4953359
:1035400011F4552369F0F6018083FD01842F90E288
:10355000811108C0A40FB11D1C9290E080E002CF41
:1035600081E3F1CF91938150F3CF911183CF8ACF33
:10357000283008F027E03327DA01990F311D87FD45
:10358000916000966105710539F432602E5F3D93BC
:1035900030E32A95E1F708959F3F30F080387105B8
:1035A000610509F03C5F3C5F3D93913008F0806815
:1035B000911DDF93CF931F930F93FF92EF92192FDB
:1035C000987F9695E92F96959695E90FFF27EE53EC
:1035D000FF4F99273327EE24FF24A701E701059029
:1035E0000894079428F4360FE71EF81E491F511D52
:1035F000660F771F881F991F0694A1F705900794FF
:1036000028F4E70EF81E491F561FC11D770F881FAB
:10361000991F661F0694A1F70590079428F4F80EE9
:10362000491F561FC71FD11D880F991F661F771F7F
:103630000694A1F70590079420F4490F561FC71F61
:10364000D81F990F661F771F881F0694A9F78491CA
:103650001095177041F0D695C79557954795F794F3
:10366000E7941A95C1F7E8E6F0E068941590159193
:1036700035916591959105907FE27395E118F10A76
:10368000430B560BC90BD009C0F7E10CF11E431FC9
:10369000561FC91FD01D7EF4703311F48A95E6CFF2
:1036A000E894015030F0080F0AF40027021708F4DC
:1036B000202F2395022F7A3328F079E37D932A95E2
:1036C000E9F710C07D932A9589F60694979567953A
:1036D000379517951794E118F10A430B560BC90B50
:1036E000D00998F023957E9173957A3308F070E3B2
:1036F0007C932013B8F77E9170617D9330F08395B1
:1037000071E37D9370E32A95E1F71124EF90FF9028
:103710000F911F91CF91DF91992787FD9095089583
:10372000DC01FC01672F71917723E1F7329704C028
:103730007C916D9370836291AE17BF07C8F30895B3
:10374000E89409C097FB3EF490958095709561953B
:103750007F4F8F4F9F4F9923A9F0F92F96E9BB27F1
:103760009395F695879577956795B795F111F8CF6D
:10377000FAF4BB0F11F460FF1BC06F5F7F4F8F4FD8
:103780009F4F16C0882311F096E911C0772321F0CE
:103790009EE8872F762F05C0662371F096E8862F66
:1037A00070E060E02AF09A95660F771F881FDAF7BD
:1037B000880F9695879597F908950E94F01B0C94B1
:1037C000611C0E94531C38F00E945A1C20F0952363
:1037D00011F00C944A1C0C94501C11240C94951C50
:1037E0000E94721C70F3959FC1F3950F50E0551F16
:1037F000629FF001729FBB27F00DB11D639FAA2746
:10380000F00DB11DAA1F649F6627B00DA11D661F94
:10381000829F2227B00DA11D621F739FB00DA11DB5
:10382000621F839FA00D611D221F749F3327A00D6F
:10383000611D231F849F600D211D822F762F6A2F0B
:1038400011249F5750409AF0F1F088234AF0EE0F70
:10385000FF1FBB1F661F771F881F91505040A9F79D
:103860009E3F510580F00C944A1C0C94951C5F3FC0
:10387000E4F3983ED4F3869577956795B795F795D9
:10388000E7959F5FC1F7FE2B880F911D9695879551
:1038900097F9089597F99F6780E870E060E00895D0
:1038A0009FEF80EC089500240A9416161706180658
:1038B0000906089500240A94121613061406050634
:1038C0000895092E0394000C11F4882352F0BB0FC5
:1038D00040F4BF2B11F460FF04C06F5F7F4F8F4F28
:1038E0009F4F089557FD9058440F551F59F05F3F63
:1038F00071F04795880F97FB991F61F09F3F79F012
:1039000087950895121613061406551FF2CF469593
:10391000F1DF08C0161617061806991FF1CF869515
:103920007105610508940895E894BB2766277727F9
:10393000CB0197F908952F923F924F925F926F9229
:103940007F928F929F92AF92BF92CF92DF92EF922F
:10395000FF920F931F93CF93DF93CDB7DEB7CA1BB0
:10396000DB0B0FB6F894DEBF0FBECDBF09942A88DB
:10397000398848885F846E847D848C849B84AA8483
:10398000B984C884DF80EE80FD800C811B81AA8110
:10399000B981CE0FD11D0FB6F894DEBF0FBECDBFDB
:1039A000ED0108955058BB27AA270E94EA1C0C94E9
:1039B000611C0E94531C38F00E945A1C20F039F4FC
:1039C0009F3F19F426F40C94501C0EF4E095E7FB8D
:1039D0000C944A1CE92F0E94721C58F3BA17620714
:1039E00073078407950720F079F4A6F50C94941CCE
:1039F0000EF4E0950B2EBA2FA02D0B01B90190010A
:103A00000C01CA01A0011124FF27591B99F0593F4D
:103A100050F4503E68F11A16F040A22F232F342F95
:103A20004427585FF3CF469537952795A795F040E3
:103A30005395C9F77EF41F16BA0B620B730B840BF8
:103A4000BAF09150A1F0FF0FBB1F661F771F881FB0
:103A5000C2F70EC0BA0F621F731F841F48F4879508
:103A600077956795B795F7959E3F08F0B0CF9395FA
:103A7000880F08F09927EE0F9795879508950E9473
:103A8000461D6894B1110C94951C08950E947A1CEF
:103A900088F09F5798F0B92F9927B751B0F0E1F00F
:103AA000660F771F881F991F1AF0BA95C9F714C0BF
:103AB000B13091F00E94941CB1E008950C94941CD4
:103AC000672F782F8827B85F39F0B93FCCF38695F8
:103AD00077956795B395D9F73EF490958095709555
:103AE00061957F4F8F4F9F4F089597FB072E16F4D8
:103AF000009407D077FD09D00E94AB1D07FC05D0CC
:103B00003EF4909581959F4F0895709561957F4FF4
:103B10000895A1E21A2EAA1BBB1BFD010DC0AA1F0E
:103B2000BB1FEE1FFF1FA217B307E407F50720F026
:103B3000A21BB30BE40BF50B661F771F881F991FA1
:103B40001A9469F760957095809590959B01AC01EA
:103B5000BD01CF010895AA1BBB1B51E107C0AA1FDD
:103B6000BB1FA617B70710F0A61BB70B881F991F1E
:103B70005A95A9F780959095BC01CD010895EE0F57
:103B8000FF1F0590F491E02D09940F931F93CF939D
:103B9000DF938230910510F482E090E0E091D1054E
:103BA000F091D20530E020E0B0E0A0E0309799F449
:103BB0002115310509F44AC0281B390B2430310581
:103BC000D8F58A819B816115710589F1FB01938389
:103BD0008283FE0111C04081518102811381481707
:103BE0005907E0F04817590799F4109761F01296B9
:103BF0000C93129713961C933296CF01DF91CF91BD
:103C00001F910F9108950093D1051093D205F4CF21
:103C10002115310551F04217530738F0A901DB0196
:103C20009A01BD01DF01F801C1CFEF01F9CF9093F7
:103C3000D2058093D105CDCFFE01E20FF31F819312
:103C400091932250310939832883D7CF2091CF0512
:103C50003091D005232B41F4209128013091290186
:103C60003093D0052093CF05209126013091270174
:103C70002115310541F42DB73EB740912A015091ED
:103C80002B01241B350BE091CF05F091D005E217F5
:103C9000F307A0F42E1B3F0B2817390778F0AC016F
:103CA0004E5F5F4F2417350748F04E0F5F1F50934C
:103CB000D0054093CF05819391939FCFF0E0E0E052
:103CC0009CCFCF93DF930097E9F0FC0132971382EA
:103CD0001282A091D105B091D205ED0130E020E033
:103CE0001097A1F420813181820F931F2091CF057D
:103CF0003091D0052817390709F061C0F093D0053D
:103D0000E093CF05DF91CF910895EA01CE17DF0749
:103D1000E8F54A815B819E0141155105B1F7E90142
:103D2000FB83EA8349915991C40FD51FEC17FD0716
:103D300061F4808191810296840F951FE901998336
:103D40008883828193819B838A83F0E0E0E01296EE
:103D50008D919C9113970097B9F52D913C911197F6
:103D6000CD010296820F931F2091CF053091D0058F
:103D70002817390739F6309751F51092D20510926D
:103D8000D105B093D005A093CF05BCCFD383C28318
:103D900040815181840F951FC817D90761F44E5F88
:103DA0005F4F88819981480F591F518340838A81D1
:103DB0009B81938382832115310509F0B0CFF09365
:103DC000D205E093D1059ECFFD01DC01C0CF138267
:103DD0001282D7CFB0E0A0E0E0EFFEE10C949D1C92
:103DE0008C01009751F4CB010E94C51D8C01C801C4
:103DF000CDB7DEB7E0E10C94B91CFC01E60FF71F6C
:103E00009C0122503109E217F30708F49DC0D90143
:103E1000CD91DC911197C617D70798F0C530D10521
:103E200030F3CE0104978617970708F3C61BD70B0C
:103E30002297C193D1936D937C93CF010E94611E11
:103E4000D6CF5B01AC1ABD0A4C018C0E9D1EA09111
:103E5000D105B091D205512C412CF12CE12C1097B9
:103E600031F58091CF059091D0058815990509F01D
:103E70005CC04616570608F058C080912601909104
:103E80002701009741F48DB79EB740912A015091C8
:103E90002B01841B950BE817F90708F055C0F09328
:103EA000D005E093CF05F90171836083A0CF8D9198
:103EB0009C91119712966C90129713967C90139781
:103EC000A815B90559F56C0142E0C40ED11CCA14FD
:103ED000DB0420F1AC014A195B09DA01129615974F
:103EE00080F06282738251834083D9016D937C9309
:103EF000E114F10471F0D7011396FC93EE9312973D
:103F000076CF22968C0F9D1FF90191838083F30158
:103F1000EFCFF093D205E093D10569CF481659064B
:103F200008F42C017D01D3019ACFCB010E94C51D5D
:103F30007C01009749F0AE01B8010E94A71FC8019B
:103F40000E94611E870153CF10E000E050CFFB01BB
:103F5000DC0102C001900D9241505040D8F7089505
:103F6000FC018191861721F08823D9F799270895BC
:103F70003197CF010895FB01DC018D9101908019EB
:103F80000110D9F3990B0895FB01DC0101900D920A
:103F90000020E1F70895F894FFCF0A009A99B93FFD
:103FA00007000700070000000700070000000700E7
:103FB00007005A005A005A005A005A005A001A00C4
:103FC0000000D3058000030007000B00020006007C
:103FD0000A000100050009000603000007040100B3
:103FE00008050200000000C80228025502300386BE
:103FF0000264027802000000002B05FE041E07D4B4
:1040000004F704E404D5040D0A005B5B5B696E747D
:10401000657273656374696F6E4445544543545DBE
:104020005D5D20696E74657273656374696F6E435C
:104030004E54203A200037003F000A0A5B5B5B5376
:10404000657475702053746172745D5D5D0A0A0059
:104050006972446174614D41583A0020207468725D
:104060006573686F6C643A00202064656661756CE6
:10407000745F73706565643A0020206761696E3A09
:10408000000A0A5B5B5B53657475702046696E6954
:1040900073685D5D5D0A0A00322C332C3200322CCD
:1040A000362C372C31312C31302C392C3500322C38
:1040B000362C372C31312C31302C3900352C39004D
:1040C000322C332C372C31312C31302C362C35001E
:1040D00062617474566F6C74616765203A20002EBB
:1040E0000056004C696E65547261636520536574B7
:0640F00074696E673A00DE
:107E0000112484B714BE81FFF0D085E080938100F7
:107E100082E08093C00088E18093C10086E0809377
:107E2000C20080E18093C4008EE0C9D0259A86E02C
:107E300020E33CEF91E0309385002093840096BBD3
:107E4000B09BFECF1D9AA8958150A9F7CC24DD24C4
:107E500088248394B5E0AB2EA1E19A2EF3E0BF2EE7
:107E6000A2D0813461F49FD0082FAFD0023811F036
:107E7000013811F484E001C083E08DD089C08234E0
:107E800011F484E103C0853419F485E0A6D080C0E4
:107E9000853579F488D0E82EFF2485D0082F10E0AE
:107EA000102F00270E291F29000F111F8ED06801E7
:107EB0006FC0863521F484E090D080E0DECF843638
:107EC00009F040C070D06FD0082F6DD080E0C81688
:107ED00080E7D80618F4F601B7BEE895C0E0D1E017
:107EE00062D089930C17E1F7F0E0CF16F0E7DF06D8
:107EF00018F0F601B7BEE89568D007B600FCFDCFD4
:107F0000A601A0E0B1E02C9130E011968C91119780
:107F100090E0982F8827822B932B1296FA010C0160
:107F200087BEE89511244E5F5F4FF1E0A038BF0790
:107F300051F7F601A7BEE89507B600FCFDCF97BE46
:107F4000E89526C08437B1F42ED02DD0F82E2BD052
:107F50003CD0F601EF2C8F010F5F1F4F84911BD097
:107F6000EA94F801C1F70894C11CD11CFA94CF0C13
:107F7000D11C0EC0853739F428D08EE10CD085E9AC
:107F80000AD08FE07ACF813511F488E018D01DD067
:107F900080E101D065CF982F8091C00085FFFCCF94
:107FA0009093C60008958091C00087FFFCCF809118
:107FB000C00084FD01C0A8958091C6000895E0E648
:107FC000F0E098E1908380830895EDDF803219F02E
:107FD00088E0F5DFFFCF84E1DECF1F93182FE3DFCA
:107FE0001150E9F7F2DF1F91089580E0E8DFEE27F6
:047FF000FF270994CA
:027FFE00040479
:00000001FF
