:020000040000FA
:100000000C943D020C9465020C9465020C946502FC
:100010000C9465020C9465020C9465020C946502C4
:100020000C9465020C9465020C9465020C946502B4
:100030000C9465020C9465020C9465020C946502A4
:100040000C94A0140C9465020C9410150C94EA14F2
:100050000C9465020C9465020C9465020C94650284
:100060000C9442150C94650200407A10F35A00A0DB
:10007000724E18090010A5D4E80000E87648170071
:1000800000E40B54020000CA9A3B000000E1F505B1
:10009000000080969800000040420F000000A086FB
:1000A00001000000102700000000E803000000002D
:1000B0006400000000000A000000000001000000D1
:1000C00000002C76D888DC674F0823DFC1DFAE59EB
:1000D000E1B1B796E5E3E453C63AE651997696E87E
:1000E000E6C28426EB898C9B62ED407C6FFCEFBC02
:1000F0009C9F40F2BAA56FA5F490055A2AF75C932D
:100100006B6CF9676DC11BFCE0E40D47FEF520E662
:10011000B500D0ED902E0300943577050080841E45
:10012000080000204E0A000000C80C333333330FA0
:10013000986E12831141EF8D2114893BE65516CF3D
:10014000FEE6DB18D1844B381BF77C1D901DA4BB49
:10015000E424203284725E228100C9F124ECA1E5FE
:100160003D2753717561726553697A65434E54201A
:100170003A20004F626A636865636B434E54203ACD
:10018000200052657475726E5371756172655369A2
:100190007A65203A2000646574656374656420693B
:1001A00064203A20005475726E43616C69620020CD
:1001B0005D5D002064617461203A20005B5B4E4FFE
:1001C000444500202E20000A4E4F4445204441540F
:1001D00041205052494E54006D6F76655F316E6F0D
:1001E0006465006D6F7665203A20534F5554480082
:1001F0006D6F7665203A204E4F525448006D6F76F1
:1002000065203A2057455354006D6F7665203A209B
:1002100045415354006D6F7665203A2073746179BF
:1002200000202F20002C00202F20746F3A002C007B
:100230004E4F44455F6D6F7665202F2066726F6D5F
:100240003A006D6F7665434E543A00205D5D005B69
:100250005B204E4F44455F6D6F76656D656E742013
:100260003A200045786974204E4F44453100457866
:100270006974204E4F4445390045786974204E4FCB
:1002800044453500455849542053455155454E4342
:100290004520414354495641544544203A200021C9
:1002A000212143616E204465746563746564212176
:1002B000210021212143616E20417070726F6163C2
:1002C0006821212100426567696E206661696C655D
:1002D00064210056002E0062617474566F6C746164
:1002E0006765203A2000205D00475245454E0020BA
:1002F0002F2052657475726E20746F203A2000436F
:100300004F4C4100202F2041766F6964203A200035
:10031000544541005B20546172676574203A2000A7
:100320004D697373696F6E20446174612052656317
:1003300065766564203A3A20000A0A5B5B5B536588
:100340007475702046696E6973685D5D5D0A0A00A8
:100350000A0A5B5B5B536574757020537461727439
:100360005D5D5D0A0A003E3E3E204174205374618B
:100370007274696E6720506F736974696F6E003EA6
:100380003E3E20434845434B2046554E43203A3A93
:1003900020636865636B5F4E4F4445362C313000F7
:1003A0003E3E3E20434845434B2046554E43203A6F
:1003B0003A20636865636B5F4E4F4445352C3900C6
:1003C0004E4F4445332032004E4F444533203100D8
:1003D0003E3E3E20434845434B2046554E43203A3F
:1003E0003A20636865636B5F4E4F44453300636139
:1003F0006E44726F70212121004D697373696F6EB5
:100400002053746172742121210000000000240037
:1004100027002A0000000000250028002B00000013
:1004200000080002010000030407000000000000B3
:10043000000000000000230026002900040404043A
:10044000040404040202020202020303030303037E
:10045000010204081020408001020408102001025B
:10046000040810204C696E65547261636520536501
:100470007474696E673A0000A61611241FBECFEF90
:10048000D8E0DEBFCDBF25E0AAE2B2E001C01D92F8
:10049000A83AB207E1F712E0A0E0B1E0E2E2F6E448
:1004A00002C005900D92AA32B107D9F712E0CDE350
:1004B000D2E004C02197FE010E940321CC33D10772
:1004C000C9F70E9450170C940F230C94000091E080
:1004D0009093240480932304109222041092210408
:1004E000089580911D0590911E052091DA043091A8
:1004F000DB04821793070CF49C013093DB042093F8
:10050000DA04821B930B0895833081F028F4813044
:1005100099F08230A9F008958730A9F08830C9F0A9
:100520008430B1F4809180008F7D03C08091800081
:100530008F7780938000089584B58F7784BD089568
:1005400084B58F7DFBCF8091B0008F778093B00012
:1005500008958091B0008F7DF9CFCF93DF93282F3E
:1005600030E0F901E25EFB4F8491F901E05BFB4F63
:10057000D491F901E45CFB4FC491CC23A1F081112B
:100580000E948402EC2FF0E0EE0FFF1FEE5CFB4FA9
:10059000A591B491EC91ED2381E090E009F480E025
:1005A000DF91CF91089580E090E0FACF1F93CF9331
:1005B000DF93282F30E0F901E25EFB4F8491F901CF
:1005C000E05BFB4FD491F901E45CFB4FC491CC2379
:1005D000A9F0162F81110E948402EC2FF0E0EE0F9B
:1005E000FF1FEC5EFB4FA591B4918FB7F894EC918F
:1005F000111108C0D095DE23DC938FBFDF91CF911E
:100600001F910895DE2BF8CFCF93DF9390E0FC018C
:10061000E05BFB4F2491845C9B4FFC018491882319
:10062000D1F090E0880F991FFC01E65FFB4FA59188
:10063000B491FC01EC5EFB4FC591D49161110EC0E9
:100640009FB7F8948C91E22FE0958E238C932881AC
:10065000E223E8839FBFDF91CF9108958FB7F8948D
:10066000EC91E22BEC938FBFF6CF8E3008F08E50DA
:100670008770806480937C0080917A00806480938E
:100680007A0080917A0086FDFCCF8091780090916D
:10069000790008953FB7F8948091C4029091C50203
:1006A000A091C602B091C70226B5A89B05C02F3FF6
:1006B00019F00196A11DB11D3FBFBA2FA92F982F88
:1006C0008827BC01CD01620F711D811D911D42E083
:1006D000660F771F881F991F4A95D1F708958F924B
:1006E0009F92AF92BF92CF92DF92EF92FF926B01F7
:1006F0007C010E944A034B015C01C114D104E10456
:10070000F104B9F00E944A03681979098A099B0922
:10071000683E73408105910580F321E0C21AD1083B
:10072000E108F10888EE880E83E0981EA11CB11C38
:10073000E4CFFF90EF90DF90CF90BF90AF909F906D
:100740008F90089508950895AF92BF92CF92DF924F
:10075000EF92FF920F931F93CF93DF936C017B0176
:100760008B01040F151FEB015E01AE18BF08C01707
:10077000D10759F06991D601ED91FC910190F0817A
:10078000E02DC6010995892B79F7C501DF91CF913D
:100790001F910F91FF90EF90DF90CF90BF90AF909F
:1007A0000895FC01448155816081718185E294E066
:1007B0000C94A403FC01538D448D252F30E0842F2D
:1007C00090E0821B930B541710F0CF960895019779
:1007D0000895FC01918D828D981761F0A28DAE0F66
:1007E000BF2FB11D5D968C91928D9F5F9F73928FED
:1007F00090E008958FEF9FEF0895FC01918D828D19
:10080000981731F0828DE80FF11D858D90E00895E5
:100810008FEF9FEF0895FC01918D228D892F90E03D
:10082000805C9F4F821B91098F739927089585E201
:1008300094E00E940B0421E0892B09F420E0822F30
:10084000089580E090E0892B29F00E94170481111F
:100850000C9400000895FC01A48DA80FB92FB11DC0
:10086000A35ABF4F2C91848D90E001968F739927E6
:10087000848FA689B7892C93A089B1898C918370C4
:1008800080648C93938D848D981306C00288F389BD
:10089000E02D80818F7D80830895EF92FF920F93EA
:1008A0001F93CF93DF93EC0181E0888F9B8D8C8D1C
:1008B00098131AC0E889F989808185FF15C09FB710
:1008C000F894EE89FF896083E889F98980818370D3
:1008D000806480839FBF81E090E0DF91CF911F9182
:1008E0000F91FF90EF900895F62E0B8D10E00F5FA3
:1008F0001F4F0F731127E02E8C8D8E110CC00FB679
:1009000007FCFACFE889F989808185FFF5CFCE0110
:100910000E942B04F1CFEB8DEC0FFD2FF11DE35A5C
:10092000FF4FF0829FB7F8940B8FEA89FB89808193
:100930008062CFCF0F931F93CF93DF938C01D0E0D2
:10094000C0E0F801EC0FFD1F6491662341F085E2E1
:1009500094E00E944D04892B11F02196F2CFCE0134
:10096000DF91CF911F910F910895CF93DF93EC0109
:10097000888D8823B9F0AA89BB89E889F9898C9187
:1009800085FD03C0808186FD0DC00FB607FCF7CF43
:100990008C9185FFF2CF808185FFEDCFCE010E9443
:1009A0002B04E9CFDF91CF91089520919102260F7A
:1009B0003327331F21323105ECF42091F503FC017C
:1009C00090E080E0243069F082E00895A0919102E7
:1009D0002191AC014F585D4FA40FB52FB11D2C9341
:1009E0000196861798F380919102680F60939102A7
:1009F00080E0089581E008951092F50381E08093EE
:100A0000F4031092EF0361E082E10E94D60261E0FC
:100A100083E10E94D602E9EBF0E080818E7F808343
:100A200080818D7F808388E48093B80085E4809303
:100A3000BC000895CF93DF9391E0909370028823D8
:100A4000B9F0C091B800D091BA008091BC008A7B07
:100A50008093BC0060E082E10E94D60260E083E106
:100A60000E94D6020E94FC04D093BA00C093B80042
:100A7000DF91CF9108950895E091FC038091FB03ED
:100A8000E81730F4F0E0E350FC4F808190E00895E7
:100A90008FEF9FEF08959091FC038091FB032FEF60
:100AA0003FEF981748F4E92FF0E0E350FC4F208126
:100AB00030E09F5F9093FC03C90108958091FB0390
:100AC0009091FC03891B990B0895CF92DF92EF92CE
:100AD000FF920F931F93CF93DF937C01CB018A0189
:100AE00020912404222389F0EB016B01C40ED51E52
:100AF000CC15DD0569F06991D701ED91FC9101906C
:100B0000F081E02DC7010995F3CF642F0E94D50431
:100B1000C801DF91CF911F910F91FF90EF90DF906F
:100B2000CF900895CF93DF931F92CDB7DEB769833F
:100B3000209124042223F9F020912104203258F03E
:100B400021E030E0FC013383228390E080E00F90CD
:100B5000DF91CF91089580912204E82FF0E0E05BCF
:100B6000FD4F998190838F5F8093220480932104AD
:100B700081E090E0ECCF61E0CE0101960E94D504C7
:100B8000F7CF682F82EC94E00C949205CF92DF921D
:100B9000EF92FF920F931F93CF93DF93D091210495
:100BA00081E0D13208F09CC0C09123040E944A0326
:100BB0006B017C018091F50381116CC082E0809310
:100BC000F50381E08093F4038FEF8093F303109299
:100BD000F203D093F103A0E5B2E0EFECF3E080E0A4
:100BE000D8138DC01092F0038091F003CC0FC82B66
:100BF000C093F0038091EF03813009F084C010921C
:100C0000EF030E944A036B017C018091F003809303
:100C1000BB008091F7039091F803A091F903B09184
:100C2000FA03892B8A2B8B2BA1F00E944A03009197
:100C3000F7031091F8032091F9033091FA036C192E
:100C40007D098E099F09061717072807390708F439
:100C500042C08091BC0083FDD8CF85EC8093BC005E
:100C60000E944A036B017C018091F503823009F4F4
:100C70004CC08091F3038F3F09F469C08091F30366
:100C8000803209F466C08091F303803309F463C0B5
:100C900084E026C08091F7039091F803A091F903B6
:100CA000B091FA03892B8A2B8B2B09F483CF0E94F6
:100CB0004A030091F7031091F8032091F903309152
:100CC000FA036C197D098E099F0906171707280773
:100CD000390708F06FCF8091F6030E941A0585E06E
:100CE000109222041092210410922404DF91CF91DB
:100CF0001F910F91FF90EF90DF90CF9008959D91FD
:100D000091938F5F6DCF85EEA9CF8091F70390917E
:100D1000F803A091F903B091FA03892B8A2B8B2B4E
:100D200009F4A2CF0E944A030091F7031091F8033F
:100D30002091F9033091FA036C197D098E099F09FE
:100D4000061717072807390708F08ECFC4CF80E0B1
:100D5000C7CF82E0C5CF83E0C3CF0F931F93CF935C
:100D6000DF93AB012091CE043091CF04232BE1F02F
:100D70008B01EC0182E30E9467028091CE04909186
:100D8000CF04DC01ED91FC910280F381E02DA801FC
:100D9000BE0109958091CE049091CF04DF91CF914F
:100DA0001F910F910C94C605A091D004B091D1046D
:100DB000109769F0ED91FC9111970280F381E02D7D
:100DC000BC01CD01DF91CF911F910F910994DF916B
:100DD000CF911F910F9108950F931F93CF93DF939E
:100DE0008C01EB0185E00E94670282E490E00E94A2
:100DF000C105C8010E94C105CE010E94C10582EC57
:100E000094E00E94C6056AE070E080E090E0DF9127
:100E1000CF911F910F910C946F038130910509F0D0
:100E200041C080911A0190911B018617970709F420
:100E300053C070931B0160931A0186E00E94670201
:100E400085E390E00E94C10580911A0190911B01F9
:100E50000E94C10580911C0190911D010E94C10555
:100E600080911E0190911F010E94C1058091200177
:100E7000909121010E94C10580912201909123014E
:100E80000E94C10580912401909125010E94C10515
:100E900082EC94E00E94C6056AE070E080E090E099
:100EA0000C946F03029761F480911C0190911D01D5
:100EB0006817790789F070931D0160931C01BDCFFD
:100EC00080911E0190911F016817790729F0709396
:100ED0001F0160931E01B1CF0895CF93DF93C8E245
:100EE000D0E08130910531F0CAE2D0E0029711F4F0
:100EF000C9E2D0E086E00E946702CE010E94C105EF
:100F00008CE390E00E94C10582EC94E00E94C6054B
:100F10006AE070E080E090E0DF91CF910C946F0385
:100F200090E080E008958091C8029091C9028F37C7
:100F30009105D4F42BEF280F2093CD02EAECF2E0D8
:100F400020E0AF014A5C52404817590754F0FC01B9
:100F5000E653FD4F208301969093C9028093C80207
:100F600008953191230FEDCF90E080E00895209116
:100F70004D0330914E0380914E0290914F022817FD
:100F8000390724F480914C03882331F081E0809369
:100F90004B0390E080E00895F901E15BFC4F808114
:100FA00091812E5F3F4F30934E0320934D03089560
:100FB00020914C0230914D0221303105F1F13CF588
:100FC0002115310579F1F901E15BFC4F80834091F6
:100FD0005203842F90E005962817390739F590932E
:100FE0004F0280934E0210924D0210924C024B5FC2
:100FF000EFE4F3E030E020E0341768F19927FC01DA
:10100000E15BFC4F81E0908192131DC00895223076
:101010003105F1F023303105B1F68A3780F4809341
:10102000520304C0853579F480934F032F5F3F4FFF
:1010300030934D0220934C0206C08A3A31F0109250
:101040004D0210924C0280E0E1CF80935003EECF2E
:1010500080935103EBCF5191250F3F5FCDCFCF93BD
:10106000DF9320915303621327C0EC0185E090E0E9
:1010700090934E0380934D0310924C0310924B03B8
:1010800068830E94B7079A8389830E94B7079C836D
:101090008B830E94B7079E838D830E94B707988732
:1010A0008F830E94B7079A87898780914B038111AC
:1010B00010924B0381E001C080E0DF91CF91089551
:1010C000CF92DF92EF92FF926B017C016DE770E0AF
:1010D0008DE790E00E94EC06C701B601FF90EF900B
:1010E000DF90CF900C946F03CF93DF93EB01BC01A3
:1010F0000E94EC06BE01DD0F880B990BDF91CF91AA
:101100000C946F036EE670E081E090E00E940D07A2
:1011100063E270E082E090E00C940D074F925F92E2
:101120006F927F928F929F92AF92BF92CF92DF92F7
:10113000EF92FF928FE00E9435036091260170913B
:101140002701861797070CF4BC0180919E059091AA
:101150009F05681B790B072E000C880B990B0E94CA
:10116000E61E20911601309117014091180150910F
:1011700019010E94211F4B015C01609114017091C3
:101180001501072E000C880B990B0E94E61E6B01BF
:101190007C01A50194010E9417200E9483202B014D
:1011A000A5019401C701B6010E9416200E94832068
:1011B000CB01B2010E94EC0664E170E080E090E0B7
:1011C000FF90EF90DF90CF90BF90AF909F908F9067
:1011D0007F906F905F904F900C946F03FC01019093
:1011E0000020E9F73197AF01481B590BBC0185E29C
:1011F00094E00C94A403CF93DF930E949A04EC0133
:1012000081E791E00E94EE088C0F9D1FDF91CF9146
:101210000895CF93DF93EC0184E892E00E949A0452
:1012200064EF71E080E090E00E946008C730D10573
:10123000A9F0289709F444C083E692E00E94FB08D5
:101240008091B8029091B9028230910509F473C07F
:10125000039709F490C0DF91CF91089589E792E058
:101260000E94FB088091B8029091B90282309105EA
:10127000D1F083309105F9F0019769F768ED7FEFC0
:1012800088E290E00E94EC0664EB70E080E090E081
:101290000E946F0364EF71E080E090E00E946008BC
:1012A00068E077E002C060ED77E08CE390E0DF91EA
:1012B000CF910C94740868E270E088ED9FEFE2CF64
:1012C0008EE692E00E94FB088091B8029091B902EC
:1012D00082309105D9F08330910529F3019709F007
:1012E000BACF68ED7FEF88E290E00E94EC0662E7FB
:1012F00071E080E090E00E946F0364EF71E080E0B5
:1013000090E00E94600864EC79E0CFCF68ED7FEF59
:1013100088E290E00E94EC066CE271E080E090E0F0
:101320000E946F0364EF71E080E090E00E9460082B
:101330006CE677E0BACF60EB74E088E290E00E9460
:10134000740864EF71E080E090E00E94600868E259
:1013500070E088ED9FEF0E94EC066CEB72E080E09D
:1013600090E00E946F0360E070E0CB010E94600893
:1013700064EF71E09ACF60EB74E088E290E00E9445
:10138000740864EF71E080E090E00E94600868E219
:1013900070E088ED9FEF0E94EC066CEB72E080E05D
:1013A00090E00E946F0360E070E0CB010E94600853
:1013B00060EB74E07ACF4F925F926F927F928F9240
:1013C0009F92AF92BF92EF92FF920F931F93CF9392
:1013D000DF93D82F2FB7F89480911D0490911E04AD
:1013E000A0911F04B09120042FBF8093D604909346
:1013F000D704A093D804B093D90415EE05ECC1E04E
:10140000FF24FA948FE0E82E2FB7F89480911D0402
:1014100090911E04A0911F04B09120042FBF409111
:10142000D6045091D7046091D8047091D904841BDC
:10143000950BA60BB70B4091D2045091D304609149
:10144000D4047091D504481759076A077B0708F43C
:101450001FC18091CE049091CF04009709F4F3C08E
:10146000DC01ED91FC910084F185E02D0995892B3B
:1014700009F093C00E944A034B015C018091F5037F
:10148000811161C0C093F503C093F403F092F3039C
:101490001092F203E092F103C093F0038091F00305
:1014A00084668093F0038091EF03813009F0A4C03B
:1014B0001092EF030E944A034B015C018091F003FC
:1014C0008093BB008091F7039091F803A091F903FA
:1014D000B091FA03892B8A2B8B2BA1F00E944A032F
:1014E0004090F7035090F8036090F9037090FA036E
:1014F000681979098A099B0946165706680679060C
:1015000008F442C08091BC0083FDD8CF0093BC009A
:101510000E944A034B015C018091F503813009F47C
:101520006EC08091F203803108F08BC08091F2038D
:10153000AFECB3E0EDEFF3E090E0981751F12D91AF
:1015400021939F5FFACF8091F7039091F803A091C8
:10155000F903B091FA03892B8A2B8B2B09F48ECFD8
:101560000E944A034090F7035090F8036090F903FB
:101570007090FA03681979098A099B09461657067B
:101580006806790608F07ACF8091F6030E941A0562
:1015900080E01092FC038093FB038091CE04909135
:1015A000CF04DC01ED91FC910084F185E02D0995DB
:1015B000892B09F429CF8091CE049091CF04DC01CE
:1015C000ED91FC910284F385E02D09950E94D807E6
:1015D000882319F3DD2371F080915303D81314CFBE
:1015E00085E090E090934E0380934D0310924C035E
:1015F00010924B0381E04DC01093BC0089CF8091C5
:10160000F7039091F803A091F903B091FA03892BA5
:101610008A2B8B2B09F480CF0E944A034090F7035A
:101620005090F8036090F9037090FA0368197909F3
:101630008A099B09461657066806790608F06CCF9A
:10164000A3CF80E175CF8091D0049091D104892BF4
:1016500009F4DACE8091D0049091D104DC01ED91AF
:10166000FC910084F185E02D0995892B09F4CCCEFD
:101670008091D0049091D104DC01ED91FC91028421
:10168000F385E02D09950E94D807882319F3A2CF8E
:1016900080E0DF91CF911F910F91FF90EF90BF906D
:1016A000AF909F908F907F906F905F904F90089534
:1016B0008F929F92AF92BF92CF92DF92EF92FF9262
:1016C0000F931F93CF93DF93CDB7DEB7A1970FB6DC
:1016D000F894DEBF0FBECDBF6C01990FEE08FF0876
:1016E000F7FE41C06DE285E294E00E944D048C015A
:1016F00022273327A9012C193D094E095F0919A298
:10170000CE0181967C019AE0892E912CA12CB12CDE
:10171000CA01B901A50194010E94CD20605DF701C5
:1017200062937F01211531054105510589F790E04C
:1017300080E0309719F0CF010E94EE08800F911FD2
:10174000A1960FB6F894DEBF0FBECDBFDF91CF914B
:101750001F910F91FF90EF90DF90CF90BF90AF90CF
:101760009F908F900895A701960119A28E010F5D99
:101770001F4F8AE0C82ED12CE12CF12CCA01B901EF
:10178000A70196010E94CD20605DF80162938F0150
:10179000211531054105510589F790E080E030972A
:1017A00079F2CF010E94EE08CBCFCF93DF930E9456
:1017B000580BEC0181E791E00E94EE088C0F9D1F11
:1017C000DF91CF9108950F931F93CF93DF93EB0198
:1017D00063E070E00E94B9209B01220F331F620F6B
:1017E000731F860F971F880F991FFC01EE5FFE4F36
:1017F000D183C083805D9E4FFC01008111818CEB01
:1018000091E00E949A04C8010E94580B83EB91E07A
:101810000E949A04CE010E94580B8FEA91E0DF915A
:10182000CF911F910F910C94FB08EF92FF921F93A1
:10183000CF93DF9310924A0385E58093CA028AEA28
:101840008093CB0281E18093CC0280E28093CE0230
:1018500085E090E09093C9028093C8020E949307AC
:10186000BC018AEC92E00E94AD061092DB0410925B
:10187000DA0489E20E94DB09182F882309F449C0A1
:1018800069E28CE195E00E942F0860911D0570913E
:101890001E051616170614F061E070E086E0660F6C
:1018A000771F8A95E1F780915C0590915D050E9414
:1018B0002E2290935D0580935C05D0E0C0E0F12C72
:1018C000E12C80911D0590911E05E816F90614F58E
:1018D00080E00E94DB098823E1F080915C05909113
:1018E0005D056AE28C0F9D1F0E942F08882331F04E
:1018F0008FEFE81AF80AC05CDF4FE3CF80915C05F8
:1019000090915D056BE28C0F9D1F0E942F08811145
:10191000EFCF10E0812FDF91CF911F91FF90EF90DB
:101920000895CF93DF930E94150C8823D9F08091FE
:101930001F0590912005892BA9F00E947102892B27
:1019400089F0D0E0C0E00E947102892B69F080919B
:10195000DA049091DB0401969093DB048093DA041F
:101960002196F1CFD0E0C0E0CE01DF91CF91089574
:10197000CF93DF93D0E0C0E00E94150C882351F094
:1019800080911F0590912005892B21F00E94710202
:10199000892B39F42196C330D10574F3D0E0C0E02F
:1019A0003FC0D0E0C0E00E947102892BB1F180916C
:1019B000DA049091DB049C012F5F3F4F3093DB04EE
:1019C0002093DA0420911D0530911E05821793079C
:1019D000DCF426E0880F991F2A95E1F7E0915C0579
:1019E000F0915D05E80FF91F45815681278130850B
:1019F000429FC001439F900D529F900D1124C81724
:101A0000D9078CF6EC01CFCF409163055091640566
:101A10002091650530916605EBCF209709F4ACCF96
:101A2000CE01DF91CF910895EF92FF920F931F9314
:101A3000CF93DF9310E000E00F5F1F4F06301105DA
:101A40000CF071C00E94150C8823B1F380911F0522
:101A500090912005892B81F30E947102892B61F3FB
:101A6000D0E0C0E0F12CE12C0E947102892BA1F1A1
:101A7000E091DA04F091DB04CF0101969093DB044E
:101A80008093DA0480911D0590911E05E817F907EF
:101A9000ECF5CF0126E0880F991F2A95E1F7E09138
:101AA0005C05F0915D05E80FF91F4581568167815E
:101AB000708531852285649FC001659F900D749F5C
:101AC000900D1124E816F9061CF03C2F2D2FC701AC
:101AD000C32FD22F7C01C8CF209709F4ADCF86E960
:101AE00091E00E949A04CE010E94D50B81E02091E2
:101AF000BC023091BD022C173D0709F080E0DF9158
:101B0000CF911F910F91FF90EF9008954091630541
:101B10005091640560916505709166053091670587
:101B200020916805C8CFD0E0C0E0D9CFEF92FF92F6
:101B30000F931F93CF93DF938C017B010E94B80C0E
:101B4000EC0182E891E00E949A04CE010E94D50B3C
:101B5000C83883E1D8078CF00E94140D61E070E072
:101B6000811102C062E070E0C801DF91CF911F9146
:101B70000F91FF90EF900C94E30BC456D10970E0E5
:101B800060E0C432D34168F5C8010E94E30B0E94B3
:101B9000910C8C01D0E0C0E001151105A9F421964B
:101BA000C630D10521F164E670E080E090E00E944B
:101BB0006F030E94910C8C0183E791E00E949A04CC
:101BC000CE010E94D50BE8CF1016110684F40E94B6
:101BD000140D61E070E0811102C062E070E0C701A5
:101BE000C4CFC8010E94E30B70E060E0F8CFDF9142
:101BF000CF911F910F91FF90EF900895EF92FF9278
:101C00000F931F93CF93DF938C010E94B80C7C013C
:101C1000D0E0C0E0E114F104A9F4C330D10539F1FA
:101C2000219662E370E080E090E00E946F030E94E2
:101C3000B80C7C0182E691E00E949A04CE010E94D9
:101C4000D50BE8CF85E6E816F1048CF00E94140D60
:101C500061E070E0811102C062E070E0C801DF91D4
:101C6000CF911F910F91FF90EF900C94E30B70E0D8
:101C700060E0F4CF0F931F93CF93DF93EC01888143
:101C80009981009759F02A813B812617370730F058
:101C900081E0DF91CF911F910F9108958B016F5FCC
:101CA0007F4F0E942E22009759F0998388831B83CF
:101CB0000A832C813D81232B59F7FC011082E8CF48
:101CC00080E0E7CF0F931F938BE99FE00197F1F737
:101CD00061E084E00E94040360E084E00E94D60298
:101CE00083E090E00197F1F761E084E00E94D60282
:101CF0008FE090E00197F1F760E084E00E94D60267
:101D000060E084E00E940403E4E5F4E06491E0E430
:101D1000F4E0E491F0E0EE0FFF1FEE5CFB4F8591E5
:101D2000949100E412E42FE030E0462F0E94611607
:101D3000611571058105910529F06F5F7F4F8F4F08
:101D40009F4F9F70CB016AE370E00E94B920CB01E6
:101D50001F910F910895EF92FF920F931F93CF93CE
:101D6000DF936115710541F480E0DF91CF911F9100
:101D70000F91FF90EF90089541155105B1F07B014F
:101D8000EC010C811D81040F151FB8010E943A0E51
:101D9000882351F3288139818C819D81B701820F7D
:101DA000931F0E9408231D830C8381E0DECFCF9315
:101DB000DF93EC0188819981009711F00E94A521A1
:101DC000198218821D821C821B821A82DF91CF9198
:101DD0000895CF93DF93EC01FB0101900020E9F718
:101DE0003197AF01461B570B0E94AB0E811103C008
:101DF000CE010E94D70ECE01DF91CF910895CF93EF
:101E0000DF93EC01FB0144815581608171810E9467
:101E1000AB0E811103C0CE010E94D70ECE01DF911F
:101E2000CF910895EF92FF920F931F93CF93DF937B
:101E3000EC017B018A01BA010E943A0E81110BC0AC
:101E4000CE010E94D70ECE01DF91CF911F910F914D
:101E5000FF90EF9008951D830C83B70188819981CD
:101E60000E940823F0CFFB0101900020E9F7319791
:101E7000AF01461B570B0C94120F0F931F93CF9378
:101E8000DF93CDB7DEB762970FB6F894DEBF0FBE13
:101E9000CDBF8C01CB01F801118210821382128216
:101EA000158214824AE0BE016F5F7F4F0E94631C5F
:101EB000BE016F5F7F4FC8010E94330F62960FB65D
:101EC000F894DEBF0FBECDBFDF91CF911F910F9170
:101ED0000895FC01118210821382128215821482ED
:101EE000FB0101900020E9F73197AF01461B570B2A
:101EF0000C94120FAF92BF92CF92DF92EF92FF92AB
:101F00000F931F93CF93DF936C015B017A018901DB
:101F10002417350720F48F2D7901042F182F63E73C
:101F200071E0C6010E94690FD5011496CD91DC9134
:101F3000EC16FD06E0F40C171D0708F4E801D501C6
:101F4000ED91FC911197EC0FFD1F108110826D91A6
:101F50007C916E0D7F1DC60161157105A1F00E9477
:101F6000330FF50180819181C80FD91F1883C601F5
:101F7000DF91CF911F910F91FF90EF90DF90CF9065
:101F8000BF90AF9008950E94D70EEBCFFC018081E7
:101F90009181009711F00C94A5210895CF92DF92C2
:101FA000EF92FF920F931F93CF93DF93CDB7DEB7DE
:101FB000E9970FB6F894DEBF0FBECDBF6B017C0171
:101FC000C0921601D0921701E0921801F092190107
:101FD000509315014093140188E290E090932701FB
:101FE0008093260183E290E090939F0580939E0565
:101FF00084E694E00E949A041BA21AA21DA21CA2CD
:102000001FA21EA28E010F5F1F4F22E044E0C701F6
:10201000B6010E941E1C009709F46EC0BC01CE01DF
:1020200082960E94330F6091140170911501CE01C8
:1020300001960E943D0F60919E0570919F05CE0113
:1020400088960E943D0F6091260170912701CE0174
:102050008E960E943D0F64E771E0CE01C4960E9407
:10206000690FBE01625D7F4FCE01C4960E94FF0ED4
:102070006FE771E00E94E90EBE01685D7F4F0E942C
:10208000FF0E6CE871E00E94E90EBE016F5F7F4FAA
:102090000E94FF0E6DE971E00E94E90EBE016E5DC7
:1020A0007F4F0E94FF0E0E94D10381E791E00E94C2
:1020B000EE08CE01C4960E94C60FCE018E960E94F5
:1020C000C60FCE0188960E94C60FCE0101960E94CF
:1020D000C60FCE0182960E94C60FE9960FB6F894FD
:1020E000DEBF0FBECDBFDF91CF911F910F91FF904B
:1020F000EF90DF90CF900895CE0182960E94D70E88
:1021000092CFCF93DF93CDB7DEB72C970FB6F8946D
:10211000DEBF0FBECDBF60E082E00E94040382E01C
:102120000E94AD02019779F560914A0270914B02CD
:102130006F5F7F4F70934B0260934A02CE01079608
:102140000E943D0F65EA71E0CE0101960E94690F81
:10215000BE01695F7F4FCE0101960E94FF0E0E9473
:10216000D10381E791E00E94EE08CE0101960E9422
:10217000C60FCE0107960E94C60F6FE070E08CE399
:1021800090E00E94740864E170E080E090E00E94BA
:102190006F032C960FB6F894DEBF0FBECDBFDF9154
:1021A000CF910895CF9364E670E080E090E00E94C4
:1021B00060080E94B80C853F21E092070CF47AC0B9
:1021C0000E94D50B82EB92E00E94FB084AE050E0AF
:1021D00063E373E383E39FE30E94CE0FC1E080914A
:1021E000BE0281115EC080914A0290914B02892B00
:1021F00009F057C00E94620E209100013091010148
:1022000028173907B4F18FE992E00E94FB0862E3D6
:1022100070E080E090E00E9460086091A2057091FB
:10222000A30581E090E00E940D076091A0057091E8
:10223000A10582E090E00E940D0762E370E083E078
:1022400090E00E940D0764E670E080E090E00E945C
:102250006F03C093BE0261E070E08091BF02909175
:10226000C0020E94E30B68EE73E080E090E00E9401
:1022700060088091100190911101892B31F48091B7
:10228000120190911301019711F40E948110809125
:102290004A0290914B02181619061CF00E948E08F3
:1022A0009ECF4CE350E060E070E080E490E4CF919A
:1022B0000C94CE0F0E94B80CCF910C94D50B80914A
:1022C0004A0290914B02181619062CF00E948110B8
:1022D0000E948E08F4CF10924B0210924A02089589
:1022E00062E370E080E090E00E9460080E9481104C
:1022F00080914A0290914B0218161906B4F485EAAF
:1023000091E00E94FB0868ED7FEF88E290E00E9478
:10231000EC0662E370E080E090E00E946F0362E30D
:1023200070E080E090E00E94600810924B021092F2
:102330004A02089568EC70E080E090E00E94600836
:1023400060E971E08CE390E00E9474086CE97FEF33
:1023500084E690E00E94EC066AE174E080E090E0A0
:102360000E946F036DE770E08DE790E00E94EC063D
:102370000E9470116CEB72E080E090E00C946008B9
:1023800068E270E088ED9FEF0E94EC066EEE72E06E
:1023900080E090E00E946F036DE770E08DE790E0D1
:1023A0000E94EC060C94701168EC70E080E090E004
:1023B0000E9460086CE771E08CE390E00E94740872
:1023C0000E94C0116CEB72E080E090E00C94600819
:1023D00068ED7FEF88E290E00E94EC066EEE72E01E
:1023E00080E090E00E946F036DE770E08DE790E081
:1023F0000E94EC060C94701168EC70E080E090E0B4
:102400000E94600862EC71E08CE390E00E94740826
:102410000E94E8116CEB72E080E090E00C946008A0
:10242000CF93DF93EC018091C1029091C2029E0193
:10243000281B390BC9018F3F3FEF930721F1C4F4EB
:102440008D3F3FEF9307E1F0029601F1D093C20276
:10245000C093C1028091BE02811102C00E94D210BD
:1024600088ED91E00E94FB08DF91CF910C945F1101
:102470008230910559F08330910529F0019731F7A9
:102480000E94FC11E3CF0E94D411E0CF0E949A1168
:10249000DDCF85ED8093BC008091F7039091F80328
:1024A000A091F903B091FA030796A11DB11D23E095
:1024B000B695A795979587952A95D1F72091BC0059
:1024C00024FD03C01092F50308954091F703509145
:1024D000F8036091F9037091FA03452B462B472BC3
:1024E00069F30097A105B10541F02AE22A95F1F7B9
:1024F00000C00197A109B109E1CF8091F6030C94C6
:102500001A052F923F924F925F926F927F928F9215
:102510009F92AF92BF92CF92DF92EF92FF920F9372
:102520001F93CF93DF93CDB7DEB72E970FB6F894F6
:10253000DEBF0FBECDBF8C018FE492E00E949A04F3
:10254000C8010E94D1038BE492E00E94FB08188628
:102550001F821A8619861C861B86F801608171818C
:102560006115710531F044815581CE0107960E94B5
:10257000120F8B859C85892B09F459C0EF80F88454
:102580006CE270E0C7010E94F422009709F44FC08A
:102590008C010E191F09F12CE12CC0904802D0903B
:1025A00049020F3F100709F444C08FE0C816D10458
:1025B0000CF03FC09801A701BE01695F7F4FCE01BB
:1025C00001960E947A0F89819A81009761F10E9499
:1025D0003C1C96012F5F3F4F3093490220934802E5
:1025E000F601EE0FFF1FE65DFD4F71836083CE01A4
:1025F00001960E94C60F78019FEFE91AF90A8B85B0
:102600009C85E816F906A8F4CF80D8846CE270E0C7
:10261000C6018E0D9F1D0E94F422009751F08C017F
:102620000C191D09BACF60E070E0CB01D2CFF12CBC
:10263000E12C00914802109149020F30110514F568
:102640002B853C85A701BE01695F7F4FCE010196B6
:102650000E947A0F89819A81009729F10E943C1C7F
:1026600098012F5F3F4F3093490220934802000F9B
:10267000111FF801E65DFD4F71836083CE01019665
:102680000E94C60F4090480250904902F201EE0F9E
:10269000FF1FE65DFD4FC2018F30910544F411929A
:1026A00011920196F9CF60E070E0CB01D9CFCE0155
:1026B00007960E94C60F93E0292E312C0091480204
:1026C00010914902101611060CF0ACC082E492E0A1
:1026D0000E949A04C8010E94D50B809148029091F3
:1026E0004902F201E81BF90BEE0FFF1FE65DFD4FFB
:1026F000808191810197712C612C8B30910538F488
:102700008E5B9E4FFC016080062C000C7708809148
:10271000BF029091C002B1010E94B9205B016C011F
:10272000C301B1010E94B9207B018C014501861AC9
:10273000970A8C199D099E878D8780E392E00E94FD
:102740009A04C5010E94580B8EE292E00E949A04FE
:10275000C6010E94580B87E292E00E949A04C701CA
:102760000E94580B85E292E00E949A04C8010E94E0
:10277000580B81E292E00E949A049AE0989D8001B1
:10278000999D100D1124ED85FE850E0F1F1FC801A8
:102790000E94D50B7092C0026092BF020115110514
:1027A000E1F074F4063FFFEF1F07A9F10F3F1F4F41
:1027B00059F160EA76E881E090E00E94600811C07B
:1027C00001301105C1F00A30110599F780EF91E051
:1027D0000E94FB0890E080E014C085E192E00E9436
:1027E000FB08809148029091490201979093490219
:1027F0008093480263CF89E092E00E94FB0881E069
:1028000090E00E941012EDCF8DEF91E00E94FB0846
:1028100083E090E0F6CF83EE91E00E94FB0882E037
:1028200090E0EFCFEAE2F2E088E492E011921192B8
:102830008E179F07D9F72E960FB6F894DEBF0FBEFE
:10284000CDBFDF91CF911F910F91FF90EF90DF905F
:10285000CF90BF90AF909F908F907F906F905F9040
:102860004F903F902F900895AF92BF92CF92DF92FA
:10287000EF92FF920F931F93CF93DF9300D000D07E
:1028800000D0CDB7DEB787EC91E00E94FB0802E0F4
:1028900011E084E1A82E81E0B82E6801F12CE12C32
:1028A000F601619171916F01CE0101960E943D0F79
:1028B0008D819E81892B71F061ED71E089819A8112
:1028C0000E94FF22892B31F463ED71E0CE01019665
:1028D0000E94330FCE0101960E94D103F2E0EF1661
:1028E000F10421F083EC91E00E949A04CE0101965C
:1028F0000E94C60F8FEFE81AF80AE3E0EE16F10423
:1029000079F683E791E00E94EE0881E791E00E946A
:10291000EE080A5F1F4FA016B10609F0BECF26963B
:102920000FB6F894DEBF0FBECDBFDF91CF911F91E0
:102930000F91FF90EF90DF90CF90BF90AF900895F0
:102940001F920F920FB60F9211242F933F938F93E4
:102950009F93AF93BF9380911D0490911E04A0910B
:102960001F04B09120043091C30223E0230F2D37C0
:1029700058F50196A11DB11D2093C30280931D043B
:1029800090931E04A0931F04B09320048091C4026E
:102990009091C502A091C602B091C7020196A11DF7
:1029A000B11D8093C4029093C502A093C602B09358
:1029B000C702BF91AF919F918F913F912F910F903F
:1029C0000FBE0F901F90189526E8230F0296A11DA9
:1029D000B11DD2CF1F920F920FB60F9211242F93D9
:1029E0003F934F935F936F937F938F939F93AF9397
:1029F000BF93EF93FF9385E294E00E942B04FF9135
:102A0000EF91BF91AF919F918F917F916F915F9166
:102A10004F913F912F910F900FBE0F901F901895DF
:102A20001F920F920FB60F9211242F938F939F93A3
:102A3000EF93FF93E0913504F09136048081E091AB
:102A40003B04F0913C0482FD1BC0908180913E04C8
:102A50008F5F8F7320913F04821741F0E0913E0415
:102A6000F0E0EB5DFB4F958F80933E04FF91EF917B
:102A70009F918F912F910F900FBE0F901F901895DF
:102A80008081F4CF1F920F920FB60F9211242F93D3
:102A90003F934F935F936F937F938F939F93AF93E6
:102AA000BF93EF93FF938091B900887F803609F43C
:102AB0004AC0F0F5883209F4A7C018F5803109F44E
:102AC0009BC0B8F4882309F4F9C0883009F494C095
:102AD000FF91EF91BF91AF919F918F917F916F91F6
:102AE0005F914F913F912F910F900FBE0F901F90CC
:102AF0001895883109F488C0803251F78093F30328
:102B000014C0803409F49DC040F48033B9F3883395
:102B1000F9F68093F30385ECB0C0803509F485C0E5
:102B2000883509F496C0883499F60E944912D0CFAE
:102B3000883909F48CC038F5883729F050F4883684
:102B400011F0803729F683E08093F5031092B302E9
:102B500057C0883809F47BC0803919F0803809F0F3
:102B6000B7CF8091B302803208F071C0E091B30218
:102B700081E08E0F8093B3028091BB00F0E0ED56B0
:102B8000FD4F80833DC0803B39F0E0F4803A09F48A
:102B900079C0883A09F09CCF84E08093F5031092C5
:102BA000920210929102E091B402F091B50209955F
:102BB0008091910281110FC081E080939102109267
:102BC000710209C0803C09F4A6CF883C09F4A3CF68
:102BD000883B09F07DCFE091920281E08E0F8093D7
:102BE0009202F0E0EF58FD4F80818093BB009091FE
:102BF00092028091910229C08091F0038093BB00E2
:102C000085EC8093BC0064CF9091F2038091F10336
:102C1000981758F5E091F20381E08E0F8093F2034C
:102C2000F0E0E153FC4F8081E9CFE091F20381E0D5
:102C30008E0F8093F2038091BB00F0E0E153FC4FD4
:102C400080839091F2038091F1039817C8F285E890
:102C5000D8CFE091F20381E08E0F8093F203809150
:102C6000BB00F0E0E153FC4F80838091F4038111BD
:102C70005CCF81E08093EF0384EA8093BC001092E4
:102C8000F50326CF85EC8093BC001092F50380916C
:102C9000B302803230F4E091B302F0E0ED56FD4F24
:102CA00010826091B30270E0E091B602F091B70239
:102CB00083E992E009951092B3020ACF1092F303D0
:102CC00034CFCF92DF92EF92FF920F931F93E82FB2
:102CD000F92F05C0015011092109310961F19081D5
:102CE00096239417B9F305C0015011092109310940
:102CF00011F1908196239413F7CFC12CD12CE12CA4
:102D0000F12C0AC08FEFC81AD80AE80AF80A0C1585
:102D10001D052E053F0579F080818623841791F3E8
:102D20006C2D7D2D8E2D9F2D1F910F91FF90EF907B
:102D3000DF90CF90089560E070E080E090E01F9118
:102D40000F91FF90EF90DF90CF900895109228049C
:102D50001092270488EE93E0A0E0B0E0809329046D
:102D600090932A04A0932B04B0932C0421E531E026
:102D7000309326042093250425EC30E03093320470
:102D80002093310424EC30E0309334042093330456
:102D900020EC30E0309336042093350421EC30E011
:102DA000309338042093370422EC30E030933A0417
:102DB0002093390426EC30E030933C0420933B040C
:102DC00010923E0410923F0410924004109241046D
:102DD0001092C5041092C4048093C6049093C70453
:102DE000A093C804B093C90483E691E09093C30410
:102DF0008093C20480912801909129012EE630E051
:102E0000281B390B3093A3052093A205839690933A
:102E1000A1058093A0052091260130912701C901C9
:102E2000439697FD019695958795019690939F05FA
:102E300080939E0584E690E0A0E0B0E08093D20409
:102E40009093D304A093D404B093D5041092DB04E0
:102E50001092DA0410925D0510925C051092CF0476
:102E60001092CE041092D1041092D0048FEF809370
:102E70005E058FEF9FEF9093600580935F059093C1
:102E80006205809361059093640580936305909338
:102E9000660580936505909368058093670508959E
:102EA000CF93DF9300D000D000D0CDB7DEB77894B9
:102EB00084B5826084BD84B5816084BD85B582603F
:102EC00085BD85B5816085BD80916E0081608093F0
:102ED0006E00109281008091810082608093810059
:102EE0008091810081608093810080918000816069
:102EF000809380008091B10084608093B1008091C4
:102F0000B00081608093B00080917A0084608093EB
:102F10007A0080917A00826080937A0080917A00B2
:102F2000816080937A0080917A00806880937A0033
:102F30001092C1001092FC031092FB031092220425
:102F4000109221040E94FC0482EA93E09093B5025F
:102F50008093B40283EA93E09093B7028093B60221
:102F600064EF71E080E090E00E946F0385E00E94D2
:102F7000670287E290E00E94C10582EC94E00E9423
:102F8000C6056AE070E080E090E00E946F0386E092
:102F90000E94670287E290E00E94C10582EC94E003
:102FA0000E94C6056AE070E080E090E00E946F0336
:102FB00081E00E94670287E290E00E94C10582ECF6
:102FC00094E00E94C6056AE070E080E090E00E9414
:102FD0006F0382E00E94670287E290E00E94C105D1
:102FE00082EC94E00E94C6056AE070E080E090E028
:102FF0000E946F0383E00E94670287E290E00E94D4
:10300000C10582EC94E00E94C6056AE070E080E0B1
:1030100090E00E946F0384E00E94670287E290E0E4
:103020000E94C10582EC94E00E94C6056AE070E04F
:1030300080E090E00E946F0361E087E00E9404035B
:1030400061E087E00E94D60260E088E00E9404030D
:1030500088E00E94AD02892BB9F761E087E00E9409
:10306000040360E087E00E94D60285E00E946702C8
:1030700087E290E00E94C10582EC94E00E94C605C0
:103080006AE070E080E090E00E946F0386E00E94BA
:10309000670287E290E00E94C10582EC94E00E9402
:1030A000C6056AE070E080E090E00E946F0381E076
:1030B0000E94670287E290E00E94C10582EC94E0E2
:1030C0000E94C6056AE070E080E090E00E946F0315
:1030D00082E00E94670287E290E00E94C10582ECD4
:1030E00094E00E94C6056AE070E080E090E00E94F3
:1030F0006F0383E00E94670287E290E00E94C105AF
:1031000082EC94E00E94C6056AE070E080E090E006
:103110000E946F0384E00E94670287E290E00E94B1
:10312000C10582EC94E00E94C6056AE070E080E090
:1031300090E00E946F0368EE73E080E090E00E94F0
:103140006F0385E00E94670285E290E00E94C1055E
:1031500082EC94E00E94C6056AE070E080E090E0B6
:103160000E946F0386E00E94670285E290E00E9461
:10317000C10582EC94E00E94C6056AE070E080E040
:1031800090E00E946F0381E00E94670285E290E078
:103190000E94C10582EC94E00E94C6056AE070E0DE
:1031A00080E090E00E946F0382E00E94670285E267
:1031B00090E00E94C10582EC94E00E94C6056AE09E
:1031C00070E080E090E00E946F0383E00E9467025D
:1031D00085E290E00E94C10582EC94E00E94C60561
:1031E0006AE070E080E090E00E946F0384E00E945B
:1031F000670285E290E00E94C10582EC94E00E94A3
:10320000C6056AE070E080E090E00E946F03E09104
:103210003504F091360482E08083E0913104F0912E
:1032200032041082E0913304F091340480E1808311
:1032300010923D04E0913904F0913A0486E08083D5
:10324000E0913704F0913804808180618083E091BF
:103250003704F0913804808188608083E0913704DE
:10326000F0913804808180688083E0913704F09188
:10327000380480818F7D808380E593E00E949A04EA
:1032800010922204109221040E94FC0432ECE32EDE
:1032900034E0F32E45E5B42E5AEAA52E61E1962ED0
:1032A0007CE2872EE5E0CE2ED12C1092D104109234
:1032B000D004F092CF04E092CE0405E010E010922A
:1032C0004A03B092CA02A092CB029092CC028092A2
:1032D000CE02D092C902C092C8020E949307BC01DC
:1032E0008AEC92E00E94AD068EE20E94DB09811119
:1032F00010C20150110919F785EC92E00E94FB08F9
:103300006091A2057091A30581E090E00E940D07F5
:103310006091A0057091A10582E090E00E940D07E8
:1033200064E670E080E090E00E946F03BECF88EC1E
:1033300093E00E94FB0865ED71E0CE0101960E94CA
:10334000690FCE0101960E948112CE0101960E9462
:10335000C60F86E090E00E9409099AC080EC93E0D5
:103360000E94FB086BED71E0CE0101960E94690F8F
:10337000CE0101960E948112CE0101960E94C60FD5
:103380000E94D41160E273E084EC9FEF0E94740805
:1033900087E090E0E0CF67E072E0CE0101960E9406
:1033A000690FCE0101960E948112CE0101960E9402
:1033B000C60F0E94FC11E6CF0E94C0111092C202FB
:1033C0001092C10268EC70E080E090E00E9460081A
:1033D0006BEE71E0CE0101960E94690FCE0101965D
:1033E0000E948112CE0101960E94C60F25C068EE90
:1033F00073E080E090E00E9460080E94620E4097B7
:103400001CF00E948E08F9CF88E090E09093C002F3
:103410008093BF021093C2020093C1028091BE024A
:10342000811102C00E94D2100E94FC1160E273E080
:1034300084EC9FEF0E94740888E090E08CCF0E949B
:10344000C0111092C2021092C10268EC70E080E0DC
:1034500090E00E94600869EF71E0CE0101960E9441
:10346000690FCE0101960E948112CE0101960E9441
:10347000C60F8ECF65E072E0CE0101960E94690F03
:10348000CE0101960E948112CE0101960E94C60FC4
:1034900068EC70E080E090E00E9460088EEE93E0BF
:1034A0000E94FB080E9482080E94341460E472E4C7
:1034B0008FE090E00E946008C114D10429F00E94BE
:1034C000170481110E94000089EF93E00E94FB081D
:1034D0000E945F110E945F11B092C002A092BF02D1
:1034E0001092C2021092C10286E693E00E94FB088D
:1034F00064E670E080E090E00E94600864EF71E0B4
:1035000084E690E00E94740880ED93E00E94FB083E
:1035100060E070E0CB010E94600890E080E00E94D3
:10352000FE0D80910201909103018130910509F413
:10353000FECE8230910509F411CF892B09F0A8CF76
:103540000E94E8111093C2020093C10268EC70E07F
:1035500080E090E00E94600880EA93E00E94FB080F
:1035600068E070E087E090E00E94960D8091100185
:10357000909111018130910509F40DCF82309105B0
:1035800009F41ACF892B09F083CF80911201909111
:1035900013018130910509F42ACF8230910509F495
:1035A0004ECF892B09F074CF0E94C0111092C20235
:1035B0001092C10268EC70E080E090E00E94600828
:1035C00069ED71E0CE0101960E94690FCE0101966E
:1035D0000E948112CE0101960E94C60F0E94FC112A
:1035E0001093C2020093C1028FE793E00E94FB0890
:1035F00065E070E084E090E00E94960D80910A0101
:1036000090910B018130910509F434CF82309105FE
:1036100009F461C0892B09F03BCFE0900C01F090D8
:103620000D0181E0E816F10409F45EC082E0E816BD
:10363000F10409F468C0EF2809F02ACF62E272E0D1
:10364000CE0101960E94690FCE0101960E9481125F
:10365000CE0101960E94C60F0E94D4111092C202A0
:103660001092C10281E090E00E94FE0DE090040102
:10367000F090050181E0E816F10409F447C082E00A
:10368000E816F10409F004CF62E370E088ED9FEFE3
:103690000E9474080E94E8111093C2020093C102B4
:1036A00064E272E0CE0101960E94690FCE0101969C
:1036B0000E948112CE0101960E94C60F68EC70E054
:1036C00080E590E00E9474080E949A11F092C00276
:1036D000E092BF0211C00E94C0111092C20210926B
:1036E000C10269E072E076CE0E945F1184E090E052
:1036F0009093C0028093BF02F092C202E092C10296
:1037000060E172E067CE65E172E0A7CE6CE172E045
:10371000A4CE0E94820885E00E94670281E590E0C5
:103720000E94C10581E090E00E94C10582EC94E016
:103730000E94C6056AE070E080E090E00E946F039E
:1037400081E090E00E946D0782E090E00E946D07AA
:1037500083E090E00E946D070E94820880E00E9452
:1037600035038C01000F111F87ED92E00E949A042F
:10377000C80164E670E00E94B9208C01CB010E9470
:10378000580B85ED92E00E949A04C8010E94580BE4
:1037900083ED92E00E94FB084CE350E060E070E0B3
:1037A00080E490E40E94CE0F02E010E01093BD028E
:1037B0000093BC0283E090E09093BB028093BA0236
:1037C00081E090E09093B9028093B80280E293E0A8
:1037D0000E949A0484E193E00E949A0480E193E0BD
:1037E0000E949A0486E390E0909329018093280137
:1037F000109301010093000184E093E00E949A0479
:103800008FEF92E00E949A048FEE92E00E949A0459
:1038100089EE92E00E949A0486EE92E00E94FB08F4
:1038200089E393E00E949A0496E0A92EB12C20E04F
:10383000C22E20E0D22E01E010E046CEEF920F9390
:103840001F93CF93DF93E80134E047FD34E1042E6A
:10385000000C550B57FF03C0519541955109E32EBC
:10386000022F242FAE010E949D1CCE01DF91CF912B
:103870001F910F91EF9008951F93FC0199278827BE
:10388000BC01E89411911032E9F3193010F01E30A8
:10389000C8F31B3251F01D3249F4689406C00E94EF
:1038A0006E1C610F711D811D911D119110531A30F5
:1038B000B0F33EF490958095709561957F4F8F4F52
:1038C0009F4F1F910895BB274A3031F4992322F46A
:1038D000BDE2909581959F4F0C94841C592F482FE1
:1038E000372F262F660F771F881F991F660F771FA8
:1038F000881F991F620F731F841F951F660F771F04
:10390000881F991F0895BB27FB015527AA27880FF9
:10391000991FAA1FA41710F0A41B83955051B9F743
:10392000A05DAA3308F0A95DA193009779F7B111C2
:10393000B1931192CB010C94D41EA9E0B0E0E3EA5C
:10394000FCE10C94E51F6A01F22EB02E102FFBE370
:10395000AF2EA01608F41BE31F5F012F27E0AE0176
:103960004F5F5F4F0E94FC1DBC018981982F9970A9
:10397000913009F43FC09BE2E1FC04C09E2D9170A0
:10398000E0FC3AC05E2D5071E82FE87083FF46C01E
:1039900084E0911101C083E0EF2DE81B8F1508F042
:1039A000E0E0D6018E2F20E2552351F1992329F032
:1039B000D6019C93C60101966C0196012D5F3F4F85
:1039C000E2FE24C08EE4D6018C9391E411969C9380
:1039D000119712968C93D9018E2F90E281111BC002
:1039E000E20FF32FF11D10828EEF9FEF2996ECE08E
:1039F0000C9401209DE2C6CF90E2C4CF2D9381505C
:103A00008111FCCFCE0ED11CE0E0D0CF8EE6D601E6
:103A10008C9391E6DBCF9D938150E0CF482F44708B
:103A200082FF3DC084E0911101C083E08F1510F446
:103A3000EF2DE81BD6018E2F20E2552309F19923A3
:103A400029F0D6019C93C60101966C0196012D5F69
:103A50003F4FE2FE1BC089E4D6018C938EE41196A1
:103A60008C93119786E412968C93D9018E2F90E255
:103A7000882309F4B5CF9D938150FACF2D938150BF
:103A80008111FCCFCE0ED11CE0E0D9CF89E6D60162
:103A90008C938EE611968C93119786E6E4CF9B016A
:103AA00077FF02C030E020E0A1E0B0E0911102C059
:103AB000B0E0A0E0F9013196AE0FBF1F8B2C912C26
:103AC000BB2009F461C05401EFEFAE1ABE0AAA0D83
:103AD000BB1DFA161B0619F014F04F2D4A1B51118D
:103AE00088C0E3FC59C07601A42FB0E2A1114FC0F9
:103AF000C40ED11C992309F45BC040E0D601119695
:103B0000F60190836D01552309F448C0012F060F7B
:103B10009A81582F507184FF03C0913309F40150EA
:103B200010160CF047C0093008F008E0EEE2FE2E57
:103B30005B01A01AB10885019194819491082F3FEF
:103B4000320729F4D601FC92F60131966F01621713
:103B5000730794F1021713077CF5DB01A21BB30B6B
:103B6000AA24A394B12CAC0EBD1EAA0DBB1D1196A8
:103B70008C9121503109D601119628153905F4F0A0
:103B8000F60180836D01DBCFB12CA12CA0CFF70112
:103B9000B1937F01A150AACF9111B0CFD601942F3C
:103BA00050E302C05D9391509111FCCFC40ED11C23
:103BB00040E0ACCF01E0BACF80E3DBCF6217730700
:103BC00031F4963388F4953311F4552369F0F601F6
:103BD0008083FD01842F90E2811108C0A40FB11DE4
:103BE0001C9290E080E002CF81E3F1CF919381506D
:103BF000F3CF911183CF8ACF283008F027E0332705
:103C0000DA01990F311D87FD9160009661057105FC
:103C100039F432602E5F3D9330E32A95E1F7089541
:103C20009F3F30F080387105610509F03C5F3C5FD3
:103C30003D93913008F08068911DDF93CF931F93DF
:103C40000F93FF92EF92192F987F9695E92F9695F3
:103C50009695E90FFF27EE53FF4F99273327EE2460
:103C6000FF24A701E70105900894079428F4360F74
:103C7000E71EF81E491F511D660F771F881F991FE9
:103C80000694A1F70590079428F4E70EF81E491F43
:103C9000561FC11D770F881F991F661F0694A1F735
:103CA0000590079428F4F80E491F561FC71FD11D11
:103CB000880F991F661F771F0694A1F70590079438
:103CC00020F4490F561FC71FD81F990F661F771F73
:103CD000881F0694A9F784911095177041F0D69526
:103CE000C79557954795F794E7941A95C1F7E8E675
:103CF000F0E0689415901591359165919591059036
:103D00007FE27395E118F10A430B560BC90BD009FA
:103D1000C0F7E10CF11E431F561FC91FD01D7EF4D2
:103D2000703311F48A95E6CFE894015030F0080F13
:103D30000AF40027021708F4202F2395022F7A3364
:103D400028F079E37D932A95E9F710C07D932A95B1
:103D500089F6069497956795379517951794E11806
:103D6000F10A430B560BC90BD00998F023957E91AD
:103D700073957A3308F070E37C932013B8F77E9143
:103D800070617D9330F0839571E37D9370E32A95A4
:103D9000E1F71124EF90FF900F911F91CF91DF91E8
:103DA000992787FD90950895DC01FC01672F71919B
:103DB0007723E1F7329704C07C916D937083629111
:103DC000AE17BF07C8F30895E89409C097FB3EF407
:103DD00090958095709561957F4F8F4F9F4F992358
:103DE000A9F0F92F96E9BB279395F69587957795D6
:103DF0006795B795F111F8CFFAF4BB0F11F460FF96
:103E00001BC06F5F7F4F8F4F9F4F16C0882311F0ED
:103E100096E911C0772321F09EE8872F762F05C001
:103E2000662371F096E8862F70E060E02AF09A959C
:103E3000660F771F881FDAF7880F9695879597F991
:103E400008950E94341F0C94A51F0E94971F38F0FC
:103E50000E949E1F20F0952311F00C948E1F0C944D
:103E6000941F11240C94D91F0E94B61F70F3959FC4
:103E7000C1F3950F50E0551F629FF001729FBB2761
:103E8000F00DB11D639FAA27F00DB11DAA1F649FFD
:103E90006627B00DA11D661F829F2227B00DA11DB0
:103EA000621F739FB00DA11D621F839FA00D611D36
:103EB000221F749F3327A00D611D231F849F600D57
:103EC000211D822F762F6A2F11249F5750409AF080
:103ED000F1F088234AF0EE0FFF1FBB1F661F771F0C
:103EE000881F91505040A9F79E3F510580F00C94D7
:103EF0008E1F0C94D91F5F3FE4F3983ED4F3869550
:103F000077956795B795F795E7959F5FC1F7FE2B76
:103F1000880F911D9695879597F9089597F99F6752
:103F200080E870E060E008959FEF80EC0895002441
:103F30000A941616170618060906089500240A940E
:103F400012161306140605060895092E0394000C94
:103F500011F4882352F0BB0F40F4BF2B11F460FF23
:103F600004C06F5F7F4F8F4F9F4F089557FD90584C
:103F7000440F551F59F05F3F71F04795880F97FB2D
:103F8000991F61F09F3F79F08795089512161306E7
:103F90001406551FF2CF4695F1DF08C01616170616
:103FA0001806991FF1CF869571056105089408954B
:103FB000E894BB2766277727CB0197F908952F92BE
:103FC0003F924F925F926F927F928F929F92AF92A9
:103FD000BF92CF92DF92EF92FF920F931F93CF93F6
:103FE000DF93CDB7DEB7CA1BDB0B0FB6F894DEBF8D
:103FF0000FBECDBF09942A88398848885F846E84B3
:104000007D848C849B84AA84B984C884DF80EE80FC
:10401000FD800C811B81AA81B981CE0FD11D0FB605
:10402000F894DEBF0FBECDBFED0108955058BB27F9
:10403000AA270E942E200C94A51F0E94971F38F0DB
:104040000E949E1F20F039F49F3F19F426F40C942F
:10405000941F0EF4E095E7FB0C948E1FE92F0E944D
:10406000B61F58F3BA17620773078407950720F045
:1040700079F4A6F50C94D81F0EF4E0950B2EBA2F08
:10408000A02D0B01B90190010C01CA01A00111245E
:10409000FF27591B99F0593F50F4503E68F11A160A
:1040A000F040A22F232F342F4427585FF3CF46959B
:1040B00037952795A795F0405395C9F77EF41F16BD
:1040C000BA0B620B730B840BBAF09150A1F0FF0F87
:1040D000BB1F661F771F881FC2F70EC0BA0F621F73
:1040E000731F841F48F4879577956795B795F79563
:1040F0009E3F08F0B0CF9395880F08F09927EE0FF8
:104100009795879508950E948A206894B1110C9420
:10411000D91F08950E94BE1F88F09F5798F0B92FAD
:104120009927B751B0F0E1F0660F771F881F991FEC
:104130001AF0BA95C9F714C0B13091F00E94D81F97
:10414000B1E008950C94D81F672F782F8827B85FA7
:1041500039F0B93FCCF3869577956795B395D9F744
:104160003EF490958095709561957F4F8F4F9F4F4E
:10417000089597FB072E16F4009407D077FD09D019
:104180000E94EF2007FC05D03EF4909581959F4F4B
:104190000895709561957F4F0895A1E21A2EAA1B8C
:1041A000BB1BFD010DC0AA1FBB1FEE1FFF1FA217E7
:1041B000B307E407F50720F0A21BB30BE40BF50BE4
:1041C000661F771F881F991F1A9469F7609570956D
:1041D000809590959B01AC01BD01CF010895AA1B6C
:1041E000BB1B51E107C0AA1FBB1FA617B70710F0E2
:1041F000A61BB70B881F991F5A95A9F78095909514
:10420000BC01CD010895EE0FFF1F0590F491E02D44
:1042100009940F931F93CF93DF938230910510F48D
:1042200082E090E0E091A605F091A70530E020E063
:10423000B0E0A0E0309799F42115310509F44AC0A7
:10424000281B390B24303105D8F58A819B816115F3
:10425000710589F1FB0193838283FE0111C04081C6
:1042600051810281138148175907E0F04817590717
:1042700099F4109761F012960C93129713961C9371
:104280003296CF01DF91CF911F910F910895009346
:10429000A6051093A705F4CF2115310551F042175B
:1042A000530738F0A901DB019A01BD01DF01F801D4
:1042B000C1CFEF01F9CF9093A7058093A605CDCF8D
:1042C000FE01E20FF31F819391932250310939834C
:1042D0002883D7CF2091A4053091A505232B41F445
:1042E00020912C0130912D013093A5052093A40538
:1042F00020912A0130912B012115310541F42DB770
:104300003EB740912E0150912F01241B350BE091B7
:10431000A405F091A505E217F307A0F42E1B3F0BAF
:104320002817390778F0AC014E5F5F4F2417350727
:1043300048F04E0F5F1F5093A5054093A40581934D
:1043400091939FCFF0E0E0E09CCFCF93DF93009775
:10435000E9F0FC01329713821282A091A605B09178
:10436000A705ED0130E020E01097A1F42081318114
:10437000820F931F2091A4053091A50528173907B6
:1043800009F061C0F093A505E093A405DF91CF91FA
:104390000895EA01CE17DF07E8F54A815B819E01A7
:1043A00041155105B1F7E901FB83EA834991599120
:1043B000C40FD51FEC17FD0761F48081918102962F
:1043C000840F951FE90199838883828193819B8360
:1043D0008A83F0E0E0E012968D919C91139700970C
:1043E000B9F52D913C911197CD010296820F931F43
:1043F0002091A4053091A5052817390739F6309783
:1044000051F51092A7051092A605B093A505A093AB
:10441000A405BCCFD383C28340815181840F951FF3
:10442000C817D90761F44E5F5F4F88819981480FA3
:10443000591F518340838A819B81938382832115F5
:10444000310509F0B0CFF093A705E093A6059ECF04
:10445000FD01DC01C0CF13821282D7CFB0E0A0E013
:10446000E4E3F2E20C94E11F8C01009751F4CB01DC
:104470000E9409218C01C801CDB7DEB7E0E10C94A0
:10448000FD1FFC01E60FF71F9C0122503109E217C6
:10449000F30708F49DC0D901CD91DC911197C6179F
:1044A000D70798F0C530D10530F3CE0104978617B1
:1044B000970708F3C61BD70B2297C193D1936D932F
:1044C0007C93CF010E94A521D6CF5B01AC1ABD0A17
:1044D0004C018C0E9D1EA091A605B091A705512CF4
:1044E000412CF12CE12C109731F58091A40590918D
:1044F000A5058815990509F05CC04616570608F011
:1045000058C080912A0190912B01009741F48DB7FA
:104510009EB740912E0150912F01841B950BE817F7
:10452000F90708F055C0F093A505E093A405F9013B
:1045300071836083A0CF8D919C91119712966C909E
:10454000129713967C901397A815B90559F56C012D
:1045500042E0C40ED11CCA14DB0420F1AC014A199C
:104560005B09DA011296159780F06282738251839B
:104570004083D9016D937C93E114F10471F0D7016C
:104580001396FC93EE93129776CF22968C0F9D1F75
:10459000F90191838083F301EFCFF093A705E093B6
:1045A000A60569CF4816590608F42C017D01D301F0
:1045B0009ACFCB010E9409217C01009749F0AE01FE
:1045C000B8010E94EB22C8010E94A521870153CFA8
:1045D00010E000E050CFFB01DC0102C001900D9221
:1045E00041505040D8F70895FC018191861721F081
:1045F0008823D9F7992708953197CF010895FB01B2
:10460000DC018D91019080190110D9F3990B089567
:10461000FB01DC0101900D920020E1F70895F89470
:10462000FFCF030007000700070000000700070096
:104630000000070007000A009A99B93F5A005A0083
:104640005A005A005A005A001A0036000000A80505
:104650008000030007000B00020006000A000100B2
:104660000500090006030000070401000805020018
:104670000000004D04A403DA03B5040B04E903FDB4
:1046800003000000009205650590073B055E054BA1
:10469000053C050D0A006972446174614D41583A48
:1046A0000020207468726573686F6C643A00202083
:1046B00064656661756C745F73706565643A00204B
:1046C000206761696E3A005B5B5B696E746572734B
:1046D000656374696F6E4445544543545D5D5D2068
:1046E000696E74657273656374696F6E434E5420AE
:1046F0003A200037003F00322C332C3200322C3667
:104700002C372C31312C31302C392C3500322C36D1
:104710002C372C31312C31302C3900322C332C37C2
:104720002C31312C31302C362C3500332C372C31B8
:10473000312C31302C3900362C372C31312C372CA0
:0C474000362C3500360031302C313100B1
:107E0000112484B714BE81FFF0D085E080938100F7
:107E100082E08093C00088E18093C10086E0809377
:107E2000C20080E18093C4008EE0C9D0259A86E02C
:107E300020E33CEF91E0309385002093840096BBD3
:107E4000B09BFECF1D9AA8958150A9F7CC24DD24C4
:107E500088248394B5E0AB2EA1E19A2EF3E0BF2EE7
:107E6000A2D0813461F49FD0082FAFD0023811F036
:107E7000013811F484E001C083E08DD089C08234E0
:107E800011F484E103C0853419F485E0A6D080C0E4
:107E9000853579F488D0E82EFF2485D0082F10E0AE
:107EA000102F00270E291F29000F111F8ED06801E7
:107EB0006FC0863521F484E090D080E0DECF843638
:107EC00009F040C070D06FD0082F6DD080E0C81688
:107ED00080E7D80618F4F601B7BEE895C0E0D1E017
:107EE00062D089930C17E1F7F0E0CF16F0E7DF06D8
:107EF00018F0F601B7BEE89568D007B600FCFDCFD4
:107F0000A601A0E0B1E02C9130E011968C91119780
:107F100090E0982F8827822B932B1296FA010C0160
:107F200087BEE89511244E5F5F4FF1E0A038BF0790
:107F300051F7F601A7BEE89507B600FCFDCF97BE46
:107F4000E89526C08437B1F42ED02DD0F82E2BD052
:107F50003CD0F601EF2C8F010F5F1F4F84911BD097
:107F6000EA94F801C1F70894C11CD11CFA94CF0C13
:107F7000D11C0EC0853739F428D08EE10CD085E9AC
:107F80000AD08FE07ACF813511F488E018D01DD067
:107F900080E101D065CF982F8091C00085FFFCCF94
:107FA0009093C60008958091C00087FFFCCF809118
:107FB000C00084FD01C0A8958091C6000895E0E648
:107FC000F0E098E1908380830895EDDF803219F02E
:107FD00088E0F5DFFFCF84E1DECF1F93182FE3DFCA
:107FE0001150E9F7F2DF1F91089580E0E8DFEE27F6
:047FF000FF270994CA
:027FFE00040479
:00000001FF
