:100000000C9471010C9499010C9499010C94990130
:100010000C9499010C9499010C9499010C949901F8
:100020000C9499010C9499010C9499010C949901E8
:100030000C9499010C9499010C9499010C949901D8
:100040000C9468080C9499010C94D8080C94B2088C
:100050000C9499010C9499010C9499010C949901B8
:100060000C940A090C94990100407A10F35A00A0EC
:10007000724E18090010A5D4E80000E87648170071
:1000800000E40B54020000CA9A3B000000E1F505B1
:10009000000080969800000040420F000000A086FB
:1000A00001000000102700000000E803000000002D
:1000B0006400000000000A000000000001000000D1
:1000C00000002C76D888DC674F0823DFC1DFAE59EB
:1000D000E1B1B796E5E3E453C63AE651997696E87E
:1000E000E6C28426EB898C9B62ED407C6FFCEFBC02
:1000F0009C9F40F2BAA56FA5F490055A2AF75C932D
:100100006B6CF9676DC11BFCE0E40D47FEF520E662
:10011000B500D0ED902E0300943577050080841E45
:10012000080000204E0A000000C80C333333330FA0
:10013000986E12831141EF8D2114893BE65516CF3D
:10014000FEE6DB18D1844B381BF77C1D901DA4BB49
:10015000E424203284725E228100C9F124ECA1E5FE
:100160003D2756002E0062617474566F6C7461678F
:1001700065203A20000000000023002600290042EC
:100180006567696E206661696C656421004C696E03
:100190006554726163652053657474696E673A00D3
:1001A000205D00424C554500202F20526574757229
:1001B0006E20746F203A2000434F4C4100202F20C6
:1001C00041766F6964203A2000544541005B205419
:1001D0006172676574203A20004D697373696F6EB0
:1001E00020446174612052656365766564203A3A03
:1001F00020000A0A5B5B5B53657475702046696E6C
:100200006973685D5D5D0A0A000A0A5B5B5B5365A2
:100210007475702053746172745D5D5D0A0A00200C
:10022000204F7074696D616C2073657474696E67BA
:10023000203A20003E2062617474566F6C746167CE
:1002400065204A555354205249474854003E206285
:10025000617474566F6C7461676520544F4F204C05
:100260004F57203A3A204348415247452052454390
:100270004F4D4D454E444544003E206261747456D6
:100280006F6C7461676520544F4F204849474800A0
:1002900000000000240027002A00000000002500C4
:1002A00028002B00040404040404040402020202D3
:1002B0000202030303030303010204081020408029
:1002C00001020408102001020408102000000008A8
:1002D000000201000003040700000000000000000D
:1002E000290A11241FBECFEFD8E0DEBFCDBF24E026
:1002F000A4E7B1E001C01D92A33CB207E1F711E011
:10030000A0E0B1E0E8E1FDE202C005900D92A43763
:10031000B107D9F711E0C1E7D1E004C02197FE0190
:100320000E949214C037D107C9F70E94D30A0C94D7
:100330008A160C94000091E090933F0380933E0353
:1003400010923D0310923C03089580E480937C005A
:1003500080917A00806480937A0080917A0086FD93
:10036000FCCF80917800909179000895833081F0DE
:1003700028F4813099F08230A9F008958730A9F0EF
:100380008830C9F08430B1F4809180008F7D03C043
:10039000809180008F7780938000089584B58F7757
:1003A00084BD089584B58F7DFBCF8091B0008F7799
:1003B0008093B00008958091B0008F7DF9CF1F9396
:1003C000CF93DF93282F30E0F901E453FD4F849160
:1003D000F901E854FD4FD491F901EC55FD4FC4915A
:1003E000CC23A9F0162F81110E94B601EC2FF0E06A
:1003F000EE0FFF1FE656FD4FA591B4918FB7F8940D
:10040000EC91111108C0D095DE23DC938FBFDF91F2
:10041000CF911F910895DE2BF8CFCF93DF9390E01B
:10042000FC01E854FD4F24918C559D4FFC018491B3
:100430008823D1F090E0880F991FFC01E057FD4F11
:10044000A591B491FC01E656FD4FC591D49161117F
:100450000EC09FB7F8948C91E22FE0958E238C9379
:100460002881E223E8839FBFDF91CF9108958FB762
:10047000F894EC91E22BEC938FBFF6CF3FB7F89452
:100480008091380390913903A0913A03B0913B03D6
:1004900026B5A89B05C02F3F19F00196A11DB11DDF
:1004A0003FBFBA2FA92F982F8827BC01CD01620F1B
:1004B000711D811D911D42E0660F771F881F991FD6
:1004C0004A95D1F708958F929F92AF92BF92CF92A3
:1004D000DF92EF92FF924B015C010E943E026B01A2
:1004E0007C010E943E026C197D098E099F09683EBD
:1004F000734081059105A8F321E0821A9108A108B3
:10050000B10888EEC80E83E0D81EE11CF11C8114EE
:100510009104A104B10429F7FF90EF90DF90CF90F0
:10052000BF90AF909F908F90089508950895AF92D7
:10053000BF92CF92DF92EF92FF920F931F93CF93D0
:10054000DF936C017B018B01040F151FEB015E0132
:10055000AE18BF08C017D10759F06991D601ED91C7
:10056000FC910190F081E02DC6010995892B79F766
:10057000C501DF91CF911F910F91FF90EF90DF9018
:10058000CF90BF90AF900895FC01538D448D252FDF
:1005900030E0842F90E0821B930B541710F0CF961D
:1005A000089501970895FC01918D828D981761F04F
:1005B000A28DAE0FBF2FB11D5D968C91928D9F5F66
:1005C0009F73928F90E008958FEF9FEF0895FC0145
:1005D000918D828D981731F0828DE80FF11D858DF8
:1005E00090E008958FEF9FEF0895FC01918D228D8B
:1005F000892F90E0805C9F4F821B91098F73992710
:10060000089580E493E00E94F50221E0892B09F42B
:1006100020E0822F089580E090E0892B29F00E944D
:10062000010381110C9400000895FC01A48DA80F12
:10063000B92FB11DA35ABF4F2C91848D90E0019624
:100640008F739927848FA689B7892C93A089B18944
:100650008C91837080648C93938D848D981306C0E5
:100660000288F389E02D80818F7D80830895EF9249
:10067000FF920F931F93CF93DF93EC0181E0888F5C
:100680009B8D8C8D98131AC0E889F989808185FF2C
:1006900015C09FB7F894EE89FF896083E889F989CE
:1006A00080818370806480839FBF81E090E0DF91D0
:1006B000CF911F910F91FF90EF900895F62E0B8D23
:1006C00010E00F5F1F4F0F731127E02E8C8D8E11DE
:1006D0000CC00FB607FCFACFE889F989808185FF45
:1006E000F5CFCE010E941503F1CFEB8DEC0FFD2F5E
:1006F000F11DE35AFF4FF0829FB7F8940B8FEA8900
:10070000FB8980818062CFCF0F931F93CF93DF93BC
:100710008C01D0E0C0E0F801EC0FFD1F649166236E
:1007200041F080E493E00E943703892B11F0219679
:10073000F2CFCE01DF91CF911F910F910895CF930A
:10074000DF93EC01888D8823B9F0AA89BB89E889F9
:10075000F9898C9185FD03C0808186FD0DC00FB69F
:1007600007FCF7CF8C9185FFF2CF808185FFEDCF1D
:10077000CE010E941503E9CFDF91CF91089520911A
:10078000B701260F3327331F21323105ECF42091B6
:100790008402FC0190E080E0243069F082E008955A
:1007A000A091B7012191AC0149565E4FA40FB52F1E
:1007B000B11D2C930196861798F38091B701680FAD
:1007C0006093B70180E0089581E00895109284025B
:1007D00081E08093830210927E0261E082E10E94B8
:1007E000DF0161E083E10E94DF01E9EBF0E080815D
:1007F0008E7F808380818D7F808388E48093B800A2
:1008000085E48093BC000895CF93DF9391E09093AB
:1008100096018823B9F0C091B800D091BA008091B8
:10082000BC008A7B8093BC0060E082E10E94DF0113
:1008300060E083E10E94DF010E94E603D093BA00EA
:10084000C093B800DF91CF9108950895E0918B0295
:1008500080918A02E81730F4F0E0E457FD4F808180
:1008600090E008958FEF9FEF089590918B02809113
:100870008A022FEF3FEF981748F4E92FF0E0E45792
:10088000FD4F208130E09F5F90938B02C901089556
:1008900080918A0290918B02891B990B0895CF92C7
:1008A000DF92EF92FF920F931F93CF93DF937C0120
:1008B000CB018A0120913F03222389F0EB016B01D8
:1008C000C40ED51ECC15DD0569F06991D701ED91F7
:1008D000FC910190F081E02DC7010995F3CF642FC1
:1008E0000E94BF03C801DF91CF911F910F91FF902C
:1008F000EF90DF90CF900895CF93DF931F92CDB705
:10090000DEB7698320913F032223F9F020913C0355
:10091000203258F021E030E0FC013383228390E064
:1009200080E00F90DF91CF91089580913D03E82FF3
:10093000F0E0EA58FE4F998190838F5F80933D03EA
:1009400080933C0381E090E0ECCF61E0CE01019622
:100950000E94BF03F7CF682F8DED93E00C947C04C9
:10096000CF92DF92EF92FF920F931F93CF93DF937B
:10097000D0913C0381E0D13208F09CC0C0913E038D
:100980000E943E026B017C018091840281116CC047
:1009900082E08093840281E0809383028FEF8093D2
:1009A000820210928102D0938002A6E7B1E0EEE5C8
:1009B000F2E080E0D8138DC010927F0280917F0218
:1009C000CC0FC82BC0937F0280917E02813009F04A
:1009D00084C010927E020E943E026B017C018091D5
:1009E0007F028093BB008091860290918702A09144
:1009F0008802B0918902892B8A2B8B2BA1F00E944F
:100A00003E02009186021091870220918802309167
:100A100089026C197D098E099F0906171707280797
:100A2000390708F442C08091BC0083FDD8CF85EC23
:100A30008093BC000E943E026B017C018091840285
:100A4000823009F44CC0809182028F3F09F469C062
:100A500080918202803209F466C0809182028033E4
:100A600009F463C084E026C08091860290918702D9
:100A7000A0918802B0918902892B8A2B8B2B09F4D3
:100A800083CF0E943E02009186021091870220913E
:100A90008802309189026C197D098E099F09061719
:100AA00017072807390708F06FCF809185020E9449
:100AB000040485E010923D0310923C0310923F0322
:100AC000DF91CF911F910F91FF90EF90DF90CF902A
:100AD00008959D9191938F5F6DCF85EEA9CF809101
:100AE000860290918702A0918802B0918902892B99
:100AF0008A2B8B2B09F4A2CF0E943E020091860222
:100B00001091870220918802309189026C197D0929
:100B10008E099F09061717072807390708F08ECF97
:100B2000C4CF80E0C7CF82E0C5CF83E0C3CF0F93AF
:100B30001F93CF93DF938C01EB0185E00E949B0113
:100B400082E490E00E94AB04C8010E94AB04CE0195
:100B50000E94AB048DED93E00E94B0046AE070E067
:100B600080E090E0DF91CF911F910F910C94630290
:100B7000019709F041C08091060190910701861705
:100B8000970709F445C0709307016093060186E05A
:100B90000E949B0185E390E00E94AB0480910601D6
:100BA000909107010E94AB04809108019091090186
:100BB0000E94AB0480910A0190910B010E94AB044A
:100BC00080910C0190910D010E94AB0480910E0167
:100BD00090910F010E94AB0480911001909111013E
:100BE0000E94AB048DED93E00E94B0046AE070E0D7
:100BF00080E090E00C9463028091080190910901DB
:100C00006817790729F07093090160930801BFCF35
:100C10000895CF93DF93C8E2D0E08130910531F0A1
:100C2000CAE2D0E0029711F4C9E2D0E086E00E9467
:100C30009B01CE010E94AB048CE390E00E94AB04C8
:100C40008DED93E00E94B0046AE070E080E090E0F7
:100C5000DF91CF910C94630290E080E008952091A1
:100C600074013091750121303105D9F124F5211538
:100C7000310561F1F901E252FE4F80838091E1017B
:100C8000482F50E04B5F5F4F2417350719F510923E
:100C90007501109274018B5FEEEDF1E040E090E0A1
:100CA000481768F13327F901E252FE4F81E02081B5
:100CB00029131DC0089522303105F1F0233031058C
:100CC000C9F68A3780F48093E10104C0853579F450
:100CD0008093DE012F5F3F4F3093750120937401A5
:100CE00006C08A3A31F0109275011092740180E0CA
:100CF000E1CF8093DF01EECF8093E001EBCF519104
:100D0000950F4F5FCDCF6EE670E081E090E00E94DE
:100D1000B80563E270E082E090E00C94B805FC0155
:100D200001900020E9F73197AF01481B590BBC0136
:100D300080E493E00C949702CF93DF930E948403A6
:100D4000EC0180E491E00E948F068C0F9D1FDF91E3
:100D5000CF9108958F929F92AF92BF920F931F935E
:100D6000CF93DF93CDB7DEB7A1970FB6F894DEBF70
:100D70000FBECDBF19A2423008F44AE08E010F5DCC
:100D80001F4F842E912CB12CA12CA50194010E94FF
:100D90005C14E62FB901CA01EA30F4F4E05DD80131
:100DA000EE938D01232B242B252B79F790E080E007
:100DB000109719F0CD010E948F06A1960FB6F894F6
:100DC000DEBF0FBECDBFDF91CF911F910F91BF90BE
:100DD000AF909F908F900895E95CE1CFCF92DF9222
:100DE000EF92FF92CF93DF936C01092E000CEE0877
:100DF000FF0897FF19C06DE280E493E00E9437037B
:100E0000EC0166277727CB016C197D098E099F09B4
:100E10004AE00E94AA068C0F9D1FDF91CF91FF90A0
:100E2000EF90DF90CF9008954AE0C701B601DF91BF
:100E3000CF91FF90EF90DF90CF900C94AA06CF93C4
:100E4000DF930E94A501EC01CC0FDD1F86E691E047
:100E50000E948403CE0164E670E00E944814EC0115
:100E6000CB010E94EE0684E691E00E948403CE014D
:100E70000E94EE0682E691E0DF91CF910C949C06F1
:100E80000F931F93CF93DF93EC0188819981009793
:100E900059F02A813B812617370730F081E0DF9136
:100EA000CF911F910F9108958B016F5F7F4F0E942B
:100EB000BD15009759F0998388831B830A832C8181
:100EC0003D81232B59F7FC011082E8CF80E0E7CF6A
:100ED000EF92FF920F931F93CF93DF9361157105EC
:100EE00041F480E0DF91CF911F910F91FF90EF903F
:100EF000089541155105B1F07B01EC010C811D8174
:100F0000040F151FB8010E944007882351F3288160
:100F100039818C819D81B701820F931F0E948316B6
:100F20001D830C8381E0DECFCF93DF93EC018881BA
:100F30009981009711F00E943415198218821D8240
:100F40001C821B821A82DF91CF910895CF93DF9389
:100F5000EC01FB0101900020E9F73197AF01461B3E
:100F6000570B0E946807811103C0CE010E949407AD
:100F7000CE01DF91CF910895CF93DF93EC01FB0178
:100F800044815581608171810E946807811103C08D
:100F9000CE010E949407CE01DF91CF910895EF9288
:100FA000FF920F931F93CF93DF93EC017B018A0194
:100FB000BA010E94400781110BC0CE010E94940724
:100FC000CE01DF91CF911F910F91FF90EF90089587
:100FD0001D830C83B701888199810E948316F0CF0D
:100FE000EF92FF920F931F93CF93DF93CDB7DEB7AE
:100FF00062970FB6F894DEBF0FBECDBF8C01CB0158
:10100000F8011182108213821282158214824AE042
:101010009E012F5F3F4F7901B9010E947710F701C0
:1010200001900020E9F73197AF014E195F09B70130
:10103000C8010E94CF0762960FB6F894DEBF0FBEBC
:10104000CDBFDF91CF911F910F91FF90EF90089549
:10105000FC0180819181009711F00C943415089562
:1010600085ED8093BC008091860290918702A091CB
:101070008802B09189020796A11DB11D23E0B695A3
:10108000A795979587952A95D1F72091BC0024FDC7
:1010900003C0109284020895409186025091870205
:1010A0006091880270918902452B462B472B69F38A
:1010B0000097A105B10541F02AE22A95F1F700C099
:1010C0000197A109B109E1CF809185020C94040434
:1010D0001F920F920FB60F9211242F933F938F936D
:1010E0009F93AF93BF938091340390913503A09168
:1010F0003603B09137033091330323E0230F2D37AC
:1011000058F50196A11DB11D20933303809334033C
:1011100090933503A0933603B0933703809138033F
:1011200090913903A0913A03B0913B030196A11D20
:10113000B11D8093380390933903A0933A03B09381
:101140003B03BF91AF919F918F913F912F910F9052
:101150000FBE0F901F90189526E8230F0296A11D31
:10116000B11DD2CF1F920F920FB60F9211242F9361
:101170003F934F935F936F937F938F939F93AF931F
:10118000BF93EF93FF9380E493E00E941503FF91D8
:10119000EF91BF91AF919F918F917F916F915F91EF
:1011A0004F913F912F910F900FBE0F901F90189568
:1011B0001F920F920FB60F9211242F938F939F932C
:1011C000EF93FF93E0915003F09151038081E09100
:1011D0005603F091570382FD1BC090818091590303
:1011E0008F5F8F7320915A03821741F0E09159036A
:1011F000F0E0E05CFC4F958F80935903FF91EF91F5
:101200009F918F912F910F900FBE0F901F90189567
:101210008081F4CF1F920F920FB60F9211242F935B
:101220003F934F935F936F937F938F939F93AF936E
:10123000BF93EF93FF938091B900887F803609F4C4
:101240004AC0F0F5883209F4A7C018F5803109F4D6
:101250009BC0B8F4882309F4F9C0883009F494C01D
:10126000FF91EF91BF91AF919F918F917F916F917E
:101270005F914F913F912F910F900FBE0F901F9054
:101280001895883109F488C0803251F78093820222
:1012900014C0803409F49DC040F48033B9F388331E
:1012A000F9F68093820285ECB0C0803509F485C0E0
:1012B000883509F496C0883499F60E943008D0CF5A
:1012C000883909F48CC038F5883729F050F488360D
:1012D00011F0803729F683E0809384021092D901BF
:1012E00057C0883809F47BC0803919F0803809F07C
:1012F000B7CF8091D901803208F071C0E091D90157
:1013000081E08E0F8093D9018091BB00F0E0E7541B
:10131000FE4F80833DC0803B39F0E0F4803A09F411
:1013200079C0883A09F09CCF84E0809384021092BF
:10133000B8011092B701E091DA01F091DB01099553
:101340008091B70181110FC081E08093B7011092A5
:10135000970109C0803C09F4A6CF883C09F4A3CFCB
:10136000883B09F07DCFE091B80181E08E0F80933A
:10137000B801F0E0E956FE4F80818093BB00909168
:10138000B8018091B70129C080917F028093BB0092
:1013900085EC8093BC0064CF9091810280918002A3
:1013A000981758F5E091810281E08E0F80938102B9
:1013B000F0E0E25AFD4F8081E9CFE091810281E0C7
:1013C0008E0F809381028091BB00F0E0E25AFD4FC6
:1013D000808390918102809180029817C8F285E8FD
:1013E000D8CFE091810281E08E0F809381028091BD
:1013F000BB00F0E0E25AFD4F8083809183028111AF
:101400005CCF81E080937E0284EA8093BC001092DE
:10141000840226CF85EC8093BC00109284028091D8
:10142000D901803230F4E091D901F0E0E754FE4F69
:1014300010826091D90170E0E091DC01F091DD0152
:1014400089EB91E009951092D9010ACF109282029E
:1014500034CF109243031092420388EE93E0A0E051
:10146000B0E08093440390934503A0934603B09368
:10147000470320E231E0309341032093400325EC01
:1014800030E030934D0320934C0324EC30E0309354
:101490004F0320934E0320EC30E030935103209310
:1014A000500321EC30E0309353032093520322EC9D
:1014B00030E0309355032093540326EC30E0309312
:1014C0005703209356031092590310925A03109217
:1014D0005B0310925C031092E0031092DF03809391
:1014E000E1039093E203A093E303B093E40382E368
:1014F00091E09093DE038093DD038091140190913D
:1015000015012EE630E0281B390B3093BE042093E2
:10151000BD0483969093BC048093BB042091120178
:1015200030911301C901439697FD019695958795D2
:1015300001969093BA048093B90484E690E0A0E009
:10154000B0E08093ED039093EE03A093EF03B0938C
:10155000F0031092F6031092F503109278041092A3
:1015600077041092EA031092E9031092EC031092B0
:10157000EB038FEF809379048FEF9FEF90937B04C1
:1015800080937A0490937D0480937C0490937F04ED
:1015900080937E04909381048093800490938304CD
:1015A000809382040895CF93DF93CDB7DEB7E99798
:1015B0000FB6F894DEBF0FBECDBF789484B58260BD
:1015C00084BD84B5816084BD85B5826085BD85B5E7
:1015D000816085BD80916E00816080936E00109265
:1015E00081008091810082608093810080918100E0
:1015F0008160809381008091800081608093800071
:101600008091B10084608093B1008091B0008160CE
:101610008093B00080917A00846080937A008091FA
:101620007A00826080937A0080917A008160809352
:101630007A0080917A00806880937A001092C100CD
:1016400010928B0210928A0210923D0310923C037A
:101650000E94E60385E992E09093DB018093DA0132
:1016600086E992E09093DD018093DC0164EF71E004
:1016700080E090E00E94630285E00E949B0187E287
:1016800090E00E94AB048DED93E00E94B0046AE00C
:1016900070E080E090E00E94630286E00E949B017F
:1016A00087E290E00E94AB048DED93E00E94B004CD
:1016B0006AE070E080E090E00E94630281E00E94B6
:1016C0009B0187E290E00E94AB048DED93E00E94C5
:1016D000B0046AE070E080E090E00E94630282E083
:1016E0000E949B0187E290E00E94AB048DED93E0A5
:1016F0000E94B0046AE070E080E090E00E94630223
:1017000083E00E949B0187E290E00E94AB048DED94
:1017100093E00E94B0046AE070E080E090E00E94F4
:10172000630284E00E949B0187E290E00E94AB0488
:101730008DED93E00E94B0046AE070E080E090E0FC
:101740000E94630261E087E00E940D0261E087E091
:101750000E94DF0104ED12E0B0ECEB2EB2E0FB2EB4
:101760008CEAC82E82E0D82E60E088E00E940D024C
:10177000F8018491F701A490F601B490BB2071F0B8
:1017800081110E94B601EB2DF0E0EE0FFF1FEB5828
:10179000FE4FA591B4918C91A82231F761E087E0CA
:1017A0000E940D0260E087E00E94DF0185E00E9458
:1017B0009B0187E290E00E94AB048DED93E00E94D4
:1017C000B0046AE070E080E090E00E94630286E08E
:1017D0000E949B0187E290E00E94AB048DED93E0B4
:1017E0000E94B0046AE070E080E090E00E94630232
:1017F00081E00E949B0187E290E00E94AB048DEDA6
:1018000093E00E94B0046AE070E080E090E00E9403
:10181000630282E00E949B0187E290E00E94AB0499
:101820008DED93E00E94B0046AE070E080E090E00B
:101830000E94630283E00E949B0187E290E00E9485
:10184000AB048DED93E00E94B0046AE070E080E0AC
:1018500090E00E94630284E00E949B0187E290E096
:101860000E94AB048DED93E00E94B0046AE070E04A
:1018700080E090E00E94630268EE73E080E090E018
:101880000E94630285E00E949B0185E290E00E9435
:10189000AB048DED93E00E94B0046AE070E080E05C
:1018A00090E00E94630286E00E949B0185E290E046
:1018B0000E94AB048DED93E00E94B0046AE070E0FA
:1018C00080E090E00E94630281E00E949B0185E23B
:1018D00090E00E94AB048DED93E00E94B0046AE0BA
:1018E00070E080E090E00E94630282E00E949B0131
:1018F00085E290E00E94AB048DED93E00E94B0047D
:101900006AE070E080E090E00E94630283E00E9461
:101910009B0185E290E00E94AB048DED93E00E9474
:10192000B0046AE070E080E090E00E94630284E02E
:101930000E949B0185E290E00E94AB048DED93E054
:101940000E94B0046AE070E080E090E00E946302D0
:10195000E0915003F091510382E08083E0914C03C9
:10196000F0914D031082E0914E03F0914F0380E11E
:10197000808310925803E0915403F091550386E060
:101980008083E0915203F0915303808180618083D2
:10199000E0915203F0915303808188608083E0914D
:1019A0005203F0915303808180688083E091520359
:1019B000F091530380818F7D808389E092E00E94C3
:1019C000840310923D0310923C030E94E6036DEDE8
:1019D000C62E63E0D62E76E0A72EB12CE5EE2E2E95
:1019E000F5EC3F2E11E088248A940FE01092EC036E
:1019F0001092EB03D092EA03C092E90345E0E42E93
:101A0000F12C55E5952E10922E039092AE028AEAA3
:101A10008093AF0281E18093B0028CE28093B202A6
:101A20001092B1028CE38093B302B092AD02A09207
:101A3000AC028091E9039091EA03892B09F4CAC0B2
:101A400082E30E949B018091E9039091EA03DC010B
:101A5000ED91FC910280F381E02D46E050E06EEACA
:101A600072E009958091E9039091EA030E94B00425
:101A70002FB7F8948091340390913503A0913603E9
:101A8000B09137032FBF8093F1039093F203A0939B
:101A9000F303B093F4032FB7F8948091340390913B
:101AA0003503A0913603B09137032FBF4091F10366
:101AB0005091F2036091F3037091F403841B950B32
:101AC000A60BB70B4091ED035091EE036091EF032D
:101AD0007091F003481759076A077B0708F4C9C2D9
:101AE0008091E9039091EA03009709F462C2DC0156
:101AF000ED91FC910084F185E02D0995892B09F089
:101B0000A6C00E943E022B013C01809184028111FB
:101B100074C0109384021093830280928202109208
:101B200081020093800210937F0280917F0284667D
:101B300080937F0280917E02813009F013C210925F
:101B40007E020E943E022B013C0180917F02809325
:101B5000BB008091860290918702A0918802B0918B
:101B60008902892B8A2B8B2BA1F00E943E022091A7
:101B7000860230918702409188025091890264194F
:101B8000750986099709261737074807590708F482
:101B900055C08091BC0083FDD8CF3092BC000E941C
:101BA0003E022B013C0180918402813009F4DDC1A9
:101BB00080918102803108F0FAC180918102AEE506
:101BC000B2E0ECE8F2E090E09817E9F12D91219372
:101BD0009F5FFACF8091EB039091EC03009709F49B
:101BE00047CFDC01ED91FC910280F381E02D46E0CE
:101BF00050E06EEA72E009953BCF809186029091A9
:101C00008702A0918802B0918902892B8A2B8B2BA5
:101C100009F47BCF0E943E02209186023091870218
:101C200040918802509189026419750986099709C3
:101C3000261737074807590708F067CF80918502B4
:101C40000E94040480E010928B0280938A028091AB
:101C5000E9039091EA03DC01ED91FC910084F185A8
:101C6000E02D0995892B09F416CF8091E903909115
:101C7000EA03DC01ED91FC910284F385E02D0995E6
:101C80000E942F06882319F38091E2018E3209F019
:101C900002CF0E94830685E00E949B0181E590E0CF
:101CA0000E94AB0481E090E00E94AB048DED93E0D4
:101CB0000E94B0046AE070E080E090E00E9463025D
:101CC00081E090E00E94090682E090E00E9409060F
:101CD00083E090E00E9409060E9483060E941F078D
:101CE00080E090E0A0E4B0E48093020190930301CF
:101CF000A0930401B09305018CE390E0909301015F
:101D00008093000188E290E0909313018093120188
:101D100083E290E09093BA048093B9048DE891E057
:101D20000E9484031DAA1CAA1FAA1EAA19AE18AEDF
:101D30008E010F5F1F4F22E044E060E070E080E41E
:101D400090E40E945910009709F458C1FC010190D9
:101D50000020E9F73197AF01481B590BBC01CE01B8
:101D6000C4960E94CF076091000170910101CE01DD
:101D70008E960E94F0076091B9047091BA04CE016A
:101D800088960E94F0076091120170911301CE01B4
:101D900082960E94F0071A8219821C821B821E8280
:101DA0001D824AE050E063E471E0CE0101960E949A
:101DB000CF07BE016E5D7F4FCE0101960E94BC072A
:101DC0006EE471E00E94A607BE01685D7F4F0E942D
:101DD000BC076BE571E00E94A607BE01625D7F4F04
:101DE0000E94BC076CE671E00E94A607BE016C5C15
:101DF0007F4F0E94BC07FC01448155816081718145
:101E000080E493E00E94970280E491E00E948F06B4
:101E1000CE0101960E942808CE0182960E942808D1
:101E2000CE0188960E942808CE018E960E9428082E
:101E3000CE01C4960E94280882E090E0909332037D
:101E40008093310383E090E09093300380932F03DD
:101E500089ED91E00E9484038DEC91E00E9484035F
:101E600089EC91E00E94840386E390E09093150151
:101E7000809314018DEB91E00E94840388EB91E044
:101E80000E94840388EA91E00E94840383EA91E03F
:101E90000E94840380EA91E00E949C0682EF91E018
:101EA0000E94840330E0E32E30E0F32E0E941F07EF
:101EB0000E94A501880F991FBC01990F880B990BEF
:101EC0000E94EA1220E030E048EC52E40E94D11374
:101ED0004B015C0123E333E34BE451E40E944314E0
:101EE00018160CF090C089E792E00E94840368E71E
:101EF00070E088E790E00E94970508E813E18FE121
:101F000092E00E9484034AE06CE070E080E090E0A0
:101F10000E94AA066EE280E493E00E9437034AE042
:101F200067E070E080E090E00E94AA064AE060E08E
:101F300070E0CB010E94AA0680E491E00E948F0627
:101F4000B801110F880B990B0E946302E114F10490
:101F500009F4ACCF0E940103882309F4A7CF0E94A3
:101F60000000A4CF2092BC001ACE809186029091EE
:101F70008702A0918802B0918902892B8A2B8B2B32
:101F800009F411CE0E943E02209186023091870210
:101F90004091880250918902641975098609970950
:101FA000261737074807590708F0FDCD47CE80E1CF
:101FB00006CE8091EB039091EC03892B09F46BCD55
:101FC0008091EB039091EC03DC01ED91FC91008496
:101FD000F185E02D0995892B09F45DCD8091EB0306
:101FE0009091EC03DC01ED91FC910284F385E02DEE
:101FF00009950E942F06882319F346CECE01C49678
:102000000E949407B0CE20E030E048E451E4C501DE
:10201000B4010E94E31287FF1FC068EE73E080E006
:1020200090E00E94630220E030E048E451E4C50102
:10203000B4010E94431404EF11E087FF02C008E8D6
:1020400013E18DE492E00E9484036DE770E08DE778
:1020500090E00E94970553CF84E392E00E948403AE
:102060006DE770E08DE790E00E94970504EF11E0C6
:1020700046CFF1E0EF1AF10809F0C5CC8FE791E007
:102080000E949C066091BD047091BE0481E090E0C6
:102090000E94B8056091BB047091BC0482E090E09E
:1020A0000E94B80564E670E080E090E00E94630260
:1020B0009DCCEF920F931F93CF93DF93E80134E011
:1020C00047FD34E1042E000C550B57FF03C051951A
:1020D00041955109E32E022F242FAE010E949C103E
:1020E000CE01DF91CF911F910F91EF900895BB2703
:1020F0004A3031F4992322F4BDE2909581959F4FA7
:102100000C948310BB27FB015527AA27880F991F22
:10211000AA1FA41710F0A41B83955051B9F7A05D16
:10212000AA3308F0A95DA193009779F7B111B19393
:102130001192CB010C94D312A9E0B0E0E2EAF0E1F5
:102140000C94A0136A01F22EB02E102FFBE3AF2ED9
:10215000A01608F41BE31F5F012F27E0AE014F5FBD
:102160005F4F0E94FB11BC018981982F99709130BB
:1021700009F43FC09BE2E1FC04C09E2D9170E0FC9D
:102180003AC05E2D5071E82FE87083FF46C084E0AE
:10219000911101C083E0EF2DE81B8F1508F0E0E0FE
:1021A000D6018E2F20E2552351F1992329F0D60133
:1021B0009C93C60101966C0196012D5F3F4FE2FE94
:1021C00024C08EE4D6018C9391E411969C931197D0
:1021D00012968C93D9018E2F90E281111BC0E20FD1
:1021E000F32FF11D10828EEF9FEF2996ECE00C94F7
:1021F000BC139DE2C6CF90E2C4CF2D9381508111D4
:10220000FCCFCE0ED11CE0E0D0CF8EE6D6018C9371
:1022100091E6DBCF9D938150E0CF482F447082FF41
:102220003DC084E0911101C083E08F1510F4EF2DC3
:10223000E81BD6018E2F20E2552309F1992329F0BE
:10224000D6019C93C60101966C0196012D5F3F4F0C
:10225000E2FE1BC089E4D6018C938EE411968C9328
:10226000119786E412968C93D9018E2F90E28823E1
:1022700009F4B5CF9D938150FACF2D9381508111F0
:10228000FCCFCE0ED11CE0E0D9CF89E6D6018C93ED
:102290008EE611968C93119786E6E4CF9B0177FF2B
:1022A00002C030E020E0A1E0B0E0911102C0B0E057
:1022B000A0E0F9013196AE0FBF1F8B2C912CBB20F3
:1022C00009F461C05401EFEFAE1ABE0AAA0DBB1D9E
:1022D000FA161B0619F014F04F2D4A1B511188C035
:1022E000E3FC59C07601A42FB0E2A1114FC0C40E87
:1022F000D11C992309F45BC040E0D6011196F60188
:1023000090836D01552309F448C0012F060F9A816F
:10231000582F507184FF03C0913309F401501016F7
:102320000CF047C0093008F008E0EEE2FE2E5B0139
:10233000A01AB10885019194819491082F3F32072A
:1023400029F4D601FC92F60131966F0162177307EA
:1023500094F1021713077CF5DB01A21BB30BAA242F
:10236000A394B12CAC0EBD1EAA0DBB1D11968C9171
:1023700021503109D601119628153905F4F0F601DE
:1023800080836D01DBCFB12CA12CA0CFF701B193DD
:102390007F01A150AACF9111B0CFD601942F50E365
:1023A00002C05D9391509111FCCFC40ED11C40E04E
:1023B000ACCF01E0BACF80E3DBCF6217730731F413
:1023C000963388F4953311F4552369F0F601808330
:1023D000FD01842F90E2811108C0A40FB11D1C9251
:1023E00090E080E002CF81E3F1CF91938150F3CF71
:1023F000911183CF8ACF283008F027E03327DA0104
:10240000990F311D87FD916000966105710539F4C2
:1024100032602E5F3D9330E32A95E1F708959F3FA8
:1024200030F080387105610509F03C5F3C5F3D93F9
:10243000913008F08068911DDF93CF931F930F9325
:10244000FF92EF92192F987F9695E92F9695969582
:10245000E90FFF27EE53FF4F99273327EE24FF2480
:10246000A701E70105900894079428F4360FE71EAA
:10247000F81E491F511D660F771F881F991F06946C
:10248000A1F70590079428F4E70EF81E491F561F80
:10249000C11D770F881F991F661F0694A1F705902D
:1024A000079428F4F80E491F561FC71FD11D880F27
:1024B000991F661F771F0694A1F70590079420F4D3
:1024C000490F561FC71FD81F990F661F771F881FF8
:1024D0000694A9F784911095177041F0D695C79589
:1024E00057954795F794E7941A95C1F7E8E6F0E019
:1024F00068941590159135916591959105907FE2BD
:102500007395E118F10A430B560BC90BD009C0F7BC
:10251000E10CF11E431F561FC91FD01D7EF47033FE
:1025200011F48A95E6CFE894015030F0080F0AF4D0
:102530000027021708F4202F2395022F7A3328F062
:1025400079E37D932A95E9F710C07D932A9589F662
:10255000069497956795379517951794E118F10AA2
:10256000430B560BC90BD00998F023957E917395B8
:102570007A3308F070E37C932013B8F77E91706192
:102580007D9330F0839571E37D9370E32A95E1F7B5
:102590001124EF90FF900F911F91CF91DF91992718
:1025A00087FD90950895DC01FC01672F71917723D9
:1025B000E1F7329704C07C916D9370836291AE17FE
:1025C000BF07C8F308950E94251308F481E0089519
:1025D000E89409C097FB3EF49095809570956195BD
:1025E0007F4F8F4F9F4F9923A9F0F92F96E9BB2773
:1025F0009395F695879577956795B795F111F8CFEF
:10260000FAF4BB0F11F460FF1BC06F5F7F4F8F4F59
:102610009F4F16C0882311F096E911C0772321F04F
:102620009EE8872F762F05C0662371F096E8862FE7
:1026300070E060E02AF09A95660F771F881FDAF73E
:10264000880F9695879597F90895990F0008550F6B
:10265000AA0BE0E8FEEF16161706E807F907C0F028
:1026600012161306E407F50798F0621B730B840B30
:10267000950B39F40A2661F0232B242B252B21F40A
:1026800008950A2609F4A140A6958FEF811D811DAA
:10269000089597F99F6780E870E060E008959FEFE4
:1026A00080EC089500240A941616170618060906E9
:1026B000089500240A9412161306140605060895B8
:1026C000092E0394000C11F4882352F0BB0F40F440
:1026D000BF2B11F460FF04C06F5F7F4F8F4F9F4F80
:1026E000089557FD9058440F551F59F05F3F71F002
:1026F0004795880F97FB991F61F09F3F79F0879569
:102700000895121613061406551FF2CF4695F1DFF1
:1027100008C0161617061806991FF1CF8695710581
:10272000610508940895E894BB2766277727CB01B5
:1027300097F908952F923F924F925F926F927F92F6
:102740008F929F92AF92BF92CF92DF92EF92FF92C1
:102750000F931F93CF93DF93CDB7DEB7CA1BDB0B6D
:102760000FB6F894DEBF0FBECDBF09942A88398812
:1027700048885F846E847D848C849B84AA84B98419
:10278000C884DF80EE80FD800C811B81AA81B98125
:10279000CE0FD11D0FB6F894DEBF0FBECDBFED0139
:1027A00008950E94E5130C9460130E94591358F089
:1027B0000E94521340F029F45F3F29F00C94491312
:1027C00051110C9494130C944F130E94711368F3DD
:1027D0009923B1F3552391F3951B550BBB27AA27DA
:1027E00062177307840738F09F5F5F4F220F331F14
:1027F000441FAA1FA9F335D00E2E3AF0E0E832D0DC
:1028000091505040E695001CCAF72BD0FE2F29D0DE
:10281000660F771F881FBB1F261737074807AB07B0
:10282000B0E809F0BB0B802DBF01FF2793585F4F25
:102830003AF09E3F510578F00C9449130C94941390
:102840005F3FE4F3983ED4F3869577956795B79507
:10285000F7959F5FC9F7880F911D9695879597F912
:102860000895E1E0660F771F881FBB1F621773078B
:102870008407BA0720F0621B730B840BBA0BEE1FA0
:1028800088F7E09508950E94251308F48FEF0895C6
:1028900097FB072E16F4009407D077FD09D00E940D
:1028A0007E1407FC05D03EF4909581959F4F0895C6
:1028B000709561957F4F0895A1E21A2EAA1BBB1B4C
:1028C000FD010DC0AA1FBB1FEE1FFF1FA217B307FC
:1028D000E407F50720F0A21BB30BE40BF50B661F12
:1028E000771F881F991F1A9469F7609570958095D6
:1028F00090959B01AC01BD01CF010895AA1BBB1BA4
:1029000051E107C0AA1FBB1FA617B70710F0A61BEF
:10291000B70B881F991F5A95A9F780959095BC0110
:10292000CD010895EE0FFF1F0590F491E02D09945D
:102930000F931F93CF93DF938230910510F482E0C1
:1029400090E0E091C104F091C20430E020E0B0E0FA
:10295000A0E0309799F42115310509F44AC0281BED
:10296000390B24303105D8F58A819B8161157105B9
:1029700089F1FB0193838283FE0111C04081518163
:102980000281138148175907E0F04817590799F455
:10299000109761F012960C93129713961C9332962F
:1029A000CF01DF91CF911F910F9108950093C10442
:1029B0001093C204F4CF2115310551F0421753078B
:1029C00038F0A901DB019A01BD01DF01F801C1CF97
:1029D000EF01F9CF9093C2048093C104CDCFFE01E3
:1029E000E20FF31F81939193225031093983288399
:1029F000D7CF2091BF043091C004232B41F4209104
:102A00001801309119013093C0042093BF04209124
:102A10001601309117012115310541F42DB73EB74C
:102A200040911A0150911B01241B350BE091BF040A
:102A3000F091C004E217F307A0F42E1B3F0B2817F8
:102A4000390778F0AC014E5F5F4F2417350748F027
:102A50004E0F5F1F5093C0044093BF048193919326
:102A60009FCFF0E0E0E09CCFCF93DF930097E9F0B9
:102A7000FC01329713821282A091C104B091C2046A
:102A8000ED0130E020E01097A1F420813181820F28
:102A9000931F2091BF043091C0042817390709F013
:102AA00061C0F093C004E093BF04DF91CF9108951B
:102AB000EA01CE17DF07E8F54A815B819E014115E7
:102AC0005105B1F7E901FB83EA8349915991C40F9C
:102AD000D51FEC17FD0761F4808191810296840F68
:102AE000951FE90199838883828193819B838A83DF
:102AF000F0E0E0E012968D919C9113970097B9F564
:102B00002D913C911197CD010296820F931F209138
:102B1000BF043091C0042817390739F6309751F5B2
:102B20001092C2041092C104B093C004A093BF04D9
:102B3000BCCFD383C28340815181840F951FC817B6
:102B4000D90761F44E5F5F4F88819981480F591F03
:102B5000518340838A819B81938382832115310530
:102B600009F0B0CFF093C204E093C1049ECFFD0101
:102B7000DC01C0CF13821282D7CFB0E0A0E0E3EC3B
:102B8000F5E10C949C138C01009751F4CB010E9449
:102B900098148C01C801CDB7DEB7E0E10C94B813EE
:102BA000FC01E60FF71F9C0122503109E217F307E1
:102BB00008F49DC0D901CD91DC911197C617D707B4
:102BC00098F0C530D10530F3CE01049786179707EA
:102BD00008F3C61BD70B2297C193D1936D937C93B7
:102BE000CF010E943415D6CF5B01AC1ABD0A4C014F
:102BF0008C0E9D1EA091C104B091C204512C412C99
:102C0000F12CE12C109731F58091BF049091C00414
:102C10008815990509F05CC04616570608F058C09B
:102C20008091160190911701009741F48DB79EB7DE
:102C300040911A0150911B01841B950BE817F9076D
:102C400008F055C0F093C004E093BF04F90171830C
:102C50006083A0CF8D919C91119712966C901297E2
:102C600013967C901397A815B90559F56C0142E0AD
:102C7000C40ED11CCA14DB0420F1AC014A195B0953
:102C8000DA011296159780F0628273825183408335
:102C9000D9016D937C93E114F10471F0D70113967F
:102CA000FC93EE93129776CF22968C0F9D1FF9011D
:102CB00091838083F301EFCFF093C204E093C104CA
:102CC00069CF4816590608F42C017D01D3019ACF2B
:102CD000CB010E9498147C01009749F0AE01B80125
:102CE0000E947A16C8010E943415870153CF10E064
:102CF00000E050CFFB01DC0102C001900D92415079
:102D00005040D8F70895FB01DC0101900D9200209E
:082D1000E1F70895F894FFCFEC
:102D18000A009A99B93F5A005A005A005A005A00B4
:102D28005A001A0036000000C304800000000000AA
:102D380037039702C4029F03F502D302E70200009B
:102D480000007C044F042C0625044804350426049E
:102D58000D0A006972446174614D41583A0020209F
:102D68007468726573686F6C643A002020646566E5
:102D780061756C745F73706565643A0020206761E3
:042D8800696E3A0036
:00000001FF
